{
	"contracts/SolBasic.sol": {
		"VeryAdvanceCalculator": {
			"abi": [
				{
					"inputs": [
						{
							"internalType": "uint256",
							"name": "a",
							"type": "uint256"
						},
						{
							"internalType": "uint256",
							"name": "b",
							"type": "uint256"
						}
					],
					"name": "divide",
					"outputs": [],
					"stateMutability": "nonpayable",
					"type": "function"
				},
				{
					"inputs": [
						{
							"internalType": "uint256",
							"name": "a",
							"type": "uint256"
						},
						{
							"internalType": "uint256",
							"name": "b",
							"type": "uint256"
						},
						{
							"internalType": "uint8",
							"name": "operation",
							"type": "uint8"
						}
					],
					"name": "performOperation",
					"outputs": [],
					"stateMutability": "nonpayable",
					"type": "function"
				},
				{
					"inputs": [],
					"name": "result",
					"outputs": [
						{
							"internalType": "uint256",
							"name": "",
							"type": "uint256"
						}
					],
					"stateMutability": "view",
					"type": "function"
				}
			],
			"devdoc": {
				"kind": "dev",
				"methods": {},
				"version": 1
			},
			"evm": {
				"assembly": "    /* \"contracts/SolBasic.sol\":2098:2665  contract VeryAdvanceCalculator is BasicCalculator {... */\n  mstore(0x40, 0x80)\n  callvalue\n  dup1\n  iszero\n  tag_1\n  jumpi\n  0x00\n  dup1\n  revert\ntag_1:\n  pop\n  dataSize(sub_0)\n  dup1\n  dataOffset(sub_0)\n  0x00\n  codecopy\n  0x00\n  return\nstop\n\nsub_0: assembly {\n        /* \"contracts/SolBasic.sol\":2098:2665  contract VeryAdvanceCalculator is BasicCalculator {... */\n      mstore(0x40, 0x80)\n      callvalue\n      dup1\n      iszero\n      tag_1\n      jumpi\n      0x00\n      dup1\n      revert\n    tag_1:\n      pop\n      jumpi(tag_2, lt(calldatasize, 0x04))\n      shr(0xe0, calldataload(0x00))\n      dup1\n      0x65372147\n      eq\n      tag_3\n      jumpi\n      dup1\n      0xd595b5b7\n      eq\n      tag_4\n      jumpi\n      dup1\n      0xf88e9fbf\n      eq\n      tag_5\n      jumpi\n    tag_2:\n      0x00\n      dup1\n      revert\n        /* \"contracts/SolBasic.sol\":1381:1402  uint256 public result */\n    tag_3:\n      tag_6\n      tag_7\n      jump\t// in\n    tag_6:\n      mload(0x40)\n      tag_8\n      swap2\n      swap1\n      tag_9\n      jump\t// in\n    tag_8:\n      mload(0x40)\n      dup1\n      swap2\n      sub\n      swap1\n      return\n        /* \"contracts/SolBasic.sol\":2319:2663  function performOperation(uint256 a, uint256 b, uint8 operation) public {... */\n    tag_4:\n      tag_10\n      0x04\n      dup1\n      calldatasize\n      sub\n      dup2\n      add\n      swap1\n      tag_11\n      swap2\n      swap1\n      tag_12\n      jump\t// in\n    tag_11:\n      tag_13\n      jump\t// in\n    tag_10:\n      stop\n        /* \"contracts/SolBasic.sol\":2235:2313  function divide(uint256 a, uint256 b) external {... */\n    tag_5:\n      tag_14\n      0x04\n      dup1\n      calldatasize\n      sub\n      dup2\n      add\n      swap1\n      tag_15\n      swap2\n      swap1\n      tag_16\n      jump\t// in\n    tag_15:\n      tag_17\n      jump\t// in\n    tag_14:\n      stop\n        /* \"contracts/SolBasic.sol\":1381:1402  uint256 public result */\n    tag_7:\n      sload(0x00)\n      dup2\n      jump\t// out\n        /* \"contracts/SolBasic.sol\":2319:2663  function performOperation(uint256 a, uint256 b, uint8 operation) public {... */\n    tag_13:\n        /* \"contracts/SolBasic.sol\":2418:2419  0 */\n      0x00\n        /* \"contracts/SolBasic.sol\":2405:2414  operation */\n      dup2\n        /* \"contracts/SolBasic.sol\":2405:2419  operation == 0 */\n      0xff\n      and\n      sub\n        /* \"contracts/SolBasic.sol\":2401:2656  if (operation == 0) add(a, b);... */\n      tag_19\n      jumpi\n        /* \"contracts/SolBasic.sol\":2421:2430  add(a, b) */\n      tag_20\n        /* \"contracts/SolBasic.sol\":2425:2426  a */\n      dup4\n        /* \"contracts/SolBasic.sol\":2428:2429  b */\n      dup4\n        /* \"contracts/SolBasic.sol\":2421:2424  add */\n      tag_21\n        /* \"contracts/SolBasic.sol\":2421:2430  add(a, b) */\n      jump\t// in\n    tag_20:\n        /* \"contracts/SolBasic.sol\":2401:2656  if (operation == 0) add(a, b);... */\n      jump(tag_22)\n    tag_19:\n        /* \"contracts/SolBasic.sol\":2462:2463  1 */\n      0x01\n        /* \"contracts/SolBasic.sol\":2449:2458  operation */\n      dup2\n        /* \"contracts/SolBasic.sol\":2449:2463  operation == 1 */\n      0xff\n      and\n      sub\n        /* \"contracts/SolBasic.sol\":2445:2656  if (operation == 1) sub(a, b);... */\n      tag_23\n      jumpi\n        /* \"contracts/SolBasic.sol\":2465:2474  sub(a, b) */\n      tag_24\n        /* \"contracts/SolBasic.sol\":2469:2470  a */\n      dup4\n        /* \"contracts/SolBasic.sol\":2472:2473  b */\n      dup4\n        /* \"contracts/SolBasic.sol\":2465:2468  sub */\n      tag_25\n        /* \"contracts/SolBasic.sol\":2465:2474  sub(a, b) */\n      jump\t// in\n    tag_24:\n        /* \"contracts/SolBasic.sol\":2445:2656  if (operation == 1) sub(a, b);... */\n      jump(tag_26)\n    tag_23:\n        /* \"contracts/SolBasic.sol\":2506:2507  2 */\n      0x02\n        /* \"contracts/SolBasic.sol\":2493:2502  operation */\n      dup2\n        /* \"contracts/SolBasic.sol\":2493:2507  operation == 2 */\n      0xff\n      and\n      sub\n        /* \"contracts/SolBasic.sol\":2489:2656  if (operation == 2) mul(a, b);... */\n      tag_27\n      jumpi\n        /* \"contracts/SolBasic.sol\":2509:2518  mul(a, b) */\n      tag_28\n        /* \"contracts/SolBasic.sol\":2513:2514  a */\n      dup4\n        /* \"contracts/SolBasic.sol\":2516:2517  b */\n      dup4\n        /* \"contracts/SolBasic.sol\":2509:2512  mul */\n      tag_29\n        /* \"contracts/SolBasic.sol\":2509:2518  mul(a, b) */\n      jump\t// in\n    tag_28:\n        /* \"contracts/SolBasic.sol\":2489:2656  if (operation == 2) mul(a, b);... */\n      jump(tag_30)\n    tag_27:\n        /* \"contracts/SolBasic.sol\":2629:2656  revert(\"Invalid Operation\") */\n      mload(0x40)\n      0x08c379a000000000000000000000000000000000000000000000000000000000\n      dup2\n      mstore\n      0x04\n      add\n      tag_31\n      swap1\n      tag_32\n      jump\t// in\n    tag_31:\n      mload(0x40)\n      dup1\n      swap2\n      sub\n      swap1\n      revert\n        /* \"contracts/SolBasic.sol\":2489:2656  if (operation == 2) mul(a, b);... */\n    tag_30:\n        /* \"contracts/SolBasic.sol\":2445:2656  if (operation == 1) sub(a, b);... */\n    tag_26:\n        /* \"contracts/SolBasic.sol\":2401:2656  if (operation == 0) add(a, b);... */\n    tag_22:\n        /* \"contracts/SolBasic.sol\":2319:2663  function performOperation(uint256 a, uint256 b, uint8 operation) public {... */\n      pop\n      pop\n      pop\n      jump\t// out\n        /* \"contracts/SolBasic.sol\":2235:2313  function divide(uint256 a, uint256 b) external {... */\n    tag_17:\n        /* \"contracts/SolBasic.sol\":2305:2306  b */\n      dup1\n        /* \"contracts/SolBasic.sol\":2301:2302  a */\n      dup3\n        /* \"contracts/SolBasic.sol\":2301:2306  a / b */\n      tag_34\n      swap2\n      swap1\n      tag_35\n      jump\t// in\n    tag_34:\n        /* \"contracts/SolBasic.sol\":2292:2298  result */\n      0x00\n        /* \"contracts/SolBasic.sol\":2292:2306  result = a / b */\n      dup2\n      swap1\n      sstore\n      pop\n        /* \"contracts/SolBasic.sol\":2235:2313  function divide(uint256 a, uint256 b) external {... */\n      pop\n      pop\n      jump\t// out\n        /* \"contracts/SolBasic.sol\":1409:1484  function add(uint256 a, uint256 b) internal {... */\n    tag_21:\n        /* \"contracts/SolBasic.sol\":1476:1477  b */\n      dup1\n        /* \"contracts/SolBasic.sol\":1472:1473  a */\n      dup3\n        /* \"contracts/SolBasic.sol\":1472:1477  a + b */\n      tag_37\n      swap2\n      swap1\n      tag_38\n      jump\t// in\n    tag_37:\n        /* \"contracts/SolBasic.sol\":1463:1469  result */\n      0x00\n        /* \"contracts/SolBasic.sol\":1463:1477  result = a + b */\n      dup2\n      swap1\n      sstore\n      pop\n        /* \"contracts/SolBasic.sol\":1409:1484  function add(uint256 a, uint256 b) internal {... */\n      pop\n      pop\n      jump\t// out\n        /* \"contracts/SolBasic.sol\":1490:1565  function sub(uint256 a, uint256 b) internal {... */\n    tag_25:\n        /* \"contracts/SolBasic.sol\":1557:1558  b */\n      dup1\n        /* \"contracts/SolBasic.sol\":1553:1554  a */\n      dup3\n        /* \"contracts/SolBasic.sol\":1553:1558  a - b */\n      tag_40\n      swap2\n      swap1\n      tag_41\n      jump\t// in\n    tag_40:\n        /* \"contracts/SolBasic.sol\":1544:1550  result */\n      0x00\n        /* \"contracts/SolBasic.sol\":1544:1558  result = a - b */\n      dup2\n      swap1\n      sstore\n      pop\n        /* \"contracts/SolBasic.sol\":1490:1565  function sub(uint256 a, uint256 b) internal {... */\n      pop\n      pop\n      jump\t// out\n        /* \"contracts/SolBasic.sol\":2154:2229  function mul(uint256 a, uint256 b) internal {... */\n    tag_29:\n        /* \"contracts/SolBasic.sol\":2221:2222  b */\n      dup1\n        /* \"contracts/SolBasic.sol\":2217:2218  a */\n      dup3\n        /* \"contracts/SolBasic.sol\":2217:2222  a * b */\n      tag_43\n      swap2\n      swap1\n      tag_44\n      jump\t// in\n    tag_43:\n        /* \"contracts/SolBasic.sol\":2208:2214  result */\n      0x00\n        /* \"contracts/SolBasic.sol\":2208:2222  result = a * b */\n      dup2\n      swap1\n      sstore\n      pop\n        /* \"contracts/SolBasic.sol\":2154:2229  function mul(uint256 a, uint256 b) internal {... */\n      pop\n      pop\n      jump\t// out\n        /* \"#utility.yul\":7:84   */\n    tag_45:\n        /* \"#utility.yul\":44:51   */\n      0x00\n        /* \"#utility.yul\":73:78   */\n      dup2\n        /* \"#utility.yul\":62:78   */\n      swap1\n      pop\n        /* \"#utility.yul\":7:84   */\n      swap2\n      swap1\n      pop\n      jump\t// out\n        /* \"#utility.yul\":90:208   */\n    tag_46:\n        /* \"#utility.yul\":177:201   */\n      tag_63\n        /* \"#utility.yul\":195:200   */\n      dup2\n        /* \"#utility.yul\":177:201   */\n      tag_45\n      jump\t// in\n    tag_63:\n        /* \"#utility.yul\":172:175   */\n      dup3\n        /* \"#utility.yul\":165:202   */\n      mstore\n        /* \"#utility.yul\":90:208   */\n      pop\n      pop\n      jump\t// out\n        /* \"#utility.yul\":214:436   */\n    tag_9:\n        /* \"#utility.yul\":307:311   */\n      0x00\n        /* \"#utility.yul\":345:347   */\n      0x20\n        /* \"#utility.yul\":334:343   */\n      dup3\n        /* \"#utility.yul\":330:348   */\n      add\n        /* \"#utility.yul\":322:348   */\n      swap1\n      pop\n        /* \"#utility.yul\":358:429   */\n      tag_65\n        /* \"#utility.yul\":426:427   */\n      0x00\n        /* \"#utility.yul\":415:424   */\n      dup4\n        /* \"#utility.yul\":411:428   */\n      add\n        /* \"#utility.yul\":402:408   */\n      dup5\n        /* \"#utility.yul\":358:429   */\n      tag_46\n      jump\t// in\n    tag_65:\n        /* \"#utility.yul\":214:436   */\n      swap3\n      swap2\n      pop\n      pop\n      jump\t// out\n        /* \"#utility.yul\":523:640   */\n    tag_48:\n        /* \"#utility.yul\":632:633   */\n      0x00\n        /* \"#utility.yul\":629:630   */\n      dup1\n        /* \"#utility.yul\":622:634   */\n      revert\n        /* \"#utility.yul\":769:891   */\n    tag_50:\n        /* \"#utility.yul\":842:866   */\n      tag_70\n        /* \"#utility.yul\":860:865   */\n      dup2\n        /* \"#utility.yul\":842:866   */\n      tag_45\n      jump\t// in\n    tag_70:\n        /* \"#utility.yul\":835:840   */\n      dup2\n        /* \"#utility.yul\":832:867   */\n      eq\n        /* \"#utility.yul\":822:885   */\n      tag_71\n      jumpi\n        /* \"#utility.yul\":881:882   */\n      0x00\n        /* \"#utility.yul\":878:879   */\n      dup1\n        /* \"#utility.yul\":871:883   */\n      revert\n        /* \"#utility.yul\":822:885   */\n    tag_71:\n        /* \"#utility.yul\":769:891   */\n      pop\n      jump\t// out\n        /* \"#utility.yul\":897:1036   */\n    tag_51:\n        /* \"#utility.yul\":943:948   */\n      0x00\n        /* \"#utility.yul\":981:987   */\n      dup2\n        /* \"#utility.yul\":968:988   */\n      calldataload\n        /* \"#utility.yul\":959:988   */\n      swap1\n      pop\n        /* \"#utility.yul\":997:1030   */\n      tag_73\n        /* \"#utility.yul\":1024:1029   */\n      dup2\n        /* \"#utility.yul\":997:1030   */\n      tag_50\n      jump\t// in\n    tag_73:\n        /* \"#utility.yul\":897:1036   */\n      swap3\n      swap2\n      pop\n      pop\n      jump\t// out\n        /* \"#utility.yul\":1042:1128   */\n    tag_52:\n        /* \"#utility.yul\":1077:1084   */\n      0x00\n        /* \"#utility.yul\":1117:1121   */\n      0xff\n        /* \"#utility.yul\":1110:1115   */\n      dup3\n        /* \"#utility.yul\":1106:1122   */\n      and\n        /* \"#utility.yul\":1095:1122   */\n      swap1\n      pop\n        /* \"#utility.yul\":1042:1128   */\n      swap2\n      swap1\n      pop\n      jump\t// out\n        /* \"#utility.yul\":1134:1252   */\n    tag_53:\n        /* \"#utility.yul\":1205:1227   */\n      tag_76\n        /* \"#utility.yul\":1221:1226   */\n      dup2\n        /* \"#utility.yul\":1205:1227   */\n      tag_52\n      jump\t// in\n    tag_76:\n        /* \"#utility.yul\":1198:1203   */\n      dup2\n        /* \"#utility.yul\":1195:1228   */\n      eq\n        /* \"#utility.yul\":1185:1246   */\n      tag_77\n      jumpi\n        /* \"#utility.yul\":1242:1243   */\n      0x00\n        /* \"#utility.yul\":1239:1240   */\n      dup1\n        /* \"#utility.yul\":1232:1244   */\n      revert\n        /* \"#utility.yul\":1185:1246   */\n    tag_77:\n        /* \"#utility.yul\":1134:1252   */\n      pop\n      jump\t// out\n        /* \"#utility.yul\":1258:1393   */\n    tag_54:\n        /* \"#utility.yul\":1302:1307   */\n      0x00\n        /* \"#utility.yul\":1340:1346   */\n      dup2\n        /* \"#utility.yul\":1327:1347   */\n      calldataload\n        /* \"#utility.yul\":1318:1347   */\n      swap1\n      pop\n        /* \"#utility.yul\":1356:1387   */\n      tag_79\n        /* \"#utility.yul\":1381:1386   */\n      dup2\n        /* \"#utility.yul\":1356:1387   */\n      tag_53\n      jump\t// in\n    tag_79:\n        /* \"#utility.yul\":1258:1393   */\n      swap3\n      swap2\n      pop\n      pop\n      jump\t// out\n        /* \"#utility.yul\":1399:2014   */\n    tag_12:\n        /* \"#utility.yul\":1474:1480   */\n      0x00\n        /* \"#utility.yul\":1482:1488   */\n      dup1\n        /* \"#utility.yul\":1490:1496   */\n      0x00\n        /* \"#utility.yul\":1539:1541   */\n      0x60\n        /* \"#utility.yul\":1527:1536   */\n      dup5\n        /* \"#utility.yul\":1518:1525   */\n      dup7\n        /* \"#utility.yul\":1514:1537   */\n      sub\n        /* \"#utility.yul\":1510:1542   */\n      slt\n        /* \"#utility.yul\":1507:1626   */\n      iszero\n      tag_81\n      jumpi\n        /* \"#utility.yul\":1545:1624   */\n      tag_82\n      tag_48\n      jump\t// in\n    tag_82:\n        /* \"#utility.yul\":1507:1626   */\n    tag_81:\n        /* \"#utility.yul\":1665:1666   */\n      0x00\n        /* \"#utility.yul\":1690:1743   */\n      tag_83\n        /* \"#utility.yul\":1735:1742   */\n      dup7\n        /* \"#utility.yul\":1726:1732   */\n      dup3\n        /* \"#utility.yul\":1715:1724   */\n      dup8\n        /* \"#utility.yul\":1711:1733   */\n      add\n        /* \"#utility.yul\":1690:1743   */\n      tag_51\n      jump\t// in\n    tag_83:\n        /* \"#utility.yul\":1680:1743   */\n      swap4\n      pop\n        /* \"#utility.yul\":1636:1753   */\n      pop\n        /* \"#utility.yul\":1792:1794   */\n      0x20\n        /* \"#utility.yul\":1818:1871   */\n      tag_84\n        /* \"#utility.yul\":1863:1870   */\n      dup7\n        /* \"#utility.yul\":1854:1860   */\n      dup3\n        /* \"#utility.yul\":1843:1852   */\n      dup8\n        /* \"#utility.yul\":1839:1861   */\n      add\n        /* \"#utility.yul\":1818:1871   */\n      tag_51\n      jump\t// in\n    tag_84:\n        /* \"#utility.yul\":1808:1871   */\n      swap3\n      pop\n        /* \"#utility.yul\":1763:1881   */\n      pop\n        /* \"#utility.yul\":1920:1922   */\n      0x40\n        /* \"#utility.yul\":1946:1997   */\n      tag_85\n        /* \"#utility.yul\":1989:1996   */\n      dup7\n        /* \"#utility.yul\":1980:1986   */\n      dup3\n        /* \"#utility.yul\":1969:1978   */\n      dup8\n        /* \"#utility.yul\":1965:1987   */\n      add\n        /* \"#utility.yul\":1946:1997   */\n      tag_54\n      jump\t// in\n    tag_85:\n        /* \"#utility.yul\":1936:1997   */\n      swap2\n      pop\n        /* \"#utility.yul\":1891:2007   */\n      pop\n        /* \"#utility.yul\":1399:2014   */\n      swap3\n      pop\n      swap3\n      pop\n      swap3\n      jump\t// out\n        /* \"#utility.yul\":2020:2494   */\n    tag_16:\n        /* \"#utility.yul\":2088:2094   */\n      0x00\n        /* \"#utility.yul\":2096:2102   */\n      dup1\n        /* \"#utility.yul\":2145:2147   */\n      0x40\n        /* \"#utility.yul\":2133:2142   */\n      dup4\n        /* \"#utility.yul\":2124:2131   */\n      dup6\n        /* \"#utility.yul\":2120:2143   */\n      sub\n        /* \"#utility.yul\":2116:2148   */\n      slt\n        /* \"#utility.yul\":2113:2232   */\n      iszero\n      tag_87\n      jumpi\n        /* \"#utility.yul\":2151:2230   */\n      tag_88\n      tag_48\n      jump\t// in\n    tag_88:\n        /* \"#utility.yul\":2113:2232   */\n    tag_87:\n        /* \"#utility.yul\":2271:2272   */\n      0x00\n        /* \"#utility.yul\":2296:2349   */\n      tag_89\n        /* \"#utility.yul\":2341:2348   */\n      dup6\n        /* \"#utility.yul\":2332:2338   */\n      dup3\n        /* \"#utility.yul\":2321:2330   */\n      dup7\n        /* \"#utility.yul\":2317:2339   */\n      add\n        /* \"#utility.yul\":2296:2349   */\n      tag_51\n      jump\t// in\n    tag_89:\n        /* \"#utility.yul\":2286:2349   */\n      swap3\n      pop\n        /* \"#utility.yul\":2242:2359   */\n      pop\n        /* \"#utility.yul\":2398:2400   */\n      0x20\n        /* \"#utility.yul\":2424:2477   */\n      tag_90\n        /* \"#utility.yul\":2469:2476   */\n      dup6\n        /* \"#utility.yul\":2460:2466   */\n      dup3\n        /* \"#utility.yul\":2449:2458   */\n      dup7\n        /* \"#utility.yul\":2445:2467   */\n      add\n        /* \"#utility.yul\":2424:2477   */\n      tag_51\n      jump\t// in\n    tag_90:\n        /* \"#utility.yul\":2414:2477   */\n      swap2\n      pop\n        /* \"#utility.yul\":2369:2487   */\n      pop\n        /* \"#utility.yul\":2020:2494   */\n      swap3\n      pop\n      swap3\n      swap1\n      pop\n      jump\t// out\n        /* \"#utility.yul\":2500:2669   */\n    tag_55:\n        /* \"#utility.yul\":2584:2595   */\n      0x00\n        /* \"#utility.yul\":2618:2624   */\n      dup3\n        /* \"#utility.yul\":2613:2616   */\n      dup3\n        /* \"#utility.yul\":2606:2625   */\n      mstore\n        /* \"#utility.yul\":2658:2662   */\n      0x20\n        /* \"#utility.yul\":2653:2656   */\n      dup3\n        /* \"#utility.yul\":2649:2663   */\n      add\n        /* \"#utility.yul\":2634:2663   */\n      swap1\n      pop\n        /* \"#utility.yul\":2500:2669   */\n      swap3\n      swap2\n      pop\n      pop\n      jump\t// out\n        /* \"#utility.yul\":2675:2842   */\n    tag_56:\n        /* \"#utility.yul\":2815:2834   */\n      0x496e76616c6964204f7065726174696f6e000000000000000000000000000000\n        /* \"#utility.yul\":2811:2812   */\n      0x00\n        /* \"#utility.yul\":2803:2809   */\n      dup3\n        /* \"#utility.yul\":2799:2813   */\n      add\n        /* \"#utility.yul\":2792:2835   */\n      mstore\n        /* \"#utility.yul\":2675:2842   */\n      pop\n      jump\t// out\n        /* \"#utility.yul\":2848:3214   */\n    tag_57:\n        /* \"#utility.yul\":2990:2993   */\n      0x00\n        /* \"#utility.yul\":3011:3078   */\n      tag_94\n        /* \"#utility.yul\":3075:3077   */\n      0x11\n        /* \"#utility.yul\":3070:3073   */\n      dup4\n        /* \"#utility.yul\":3011:3078   */\n      tag_55\n      jump\t// in\n    tag_94:\n        /* \"#utility.yul\":3004:3078   */\n      swap2\n      pop\n        /* \"#utility.yul\":3087:3180   */\n      tag_95\n        /* \"#utility.yul\":3176:3179   */\n      dup3\n        /* \"#utility.yul\":3087:3180   */\n      tag_56\n      jump\t// in\n    tag_95:\n        /* \"#utility.yul\":3205:3207   */\n      0x20\n        /* \"#utility.yul\":3200:3203   */\n      dup3\n        /* \"#utility.yul\":3196:3208   */\n      add\n        /* \"#utility.yul\":3189:3208   */\n      swap1\n      pop\n        /* \"#utility.yul\":2848:3214   */\n      swap2\n      swap1\n      pop\n      jump\t// out\n        /* \"#utility.yul\":3220:3639   */\n    tag_32:\n        /* \"#utility.yul\":3386:3390   */\n      0x00\n        /* \"#utility.yul\":3424:3426   */\n      0x20\n        /* \"#utility.yul\":3413:3422   */\n      dup3\n        /* \"#utility.yul\":3409:3427   */\n      add\n        /* \"#utility.yul\":3401:3427   */\n      swap1\n      pop\n        /* \"#utility.yul\":3473:3482   */\n      dup2\n        /* \"#utility.yul\":3467:3471   */\n      dup2\n        /* \"#utility.yul\":3463:3483   */\n      sub\n        /* \"#utility.yul\":3459:3460   */\n      0x00\n        /* \"#utility.yul\":3448:3457   */\n      dup4\n        /* \"#utility.yul\":3444:3461   */\n      add\n        /* \"#utility.yul\":3437:3484   */\n      mstore\n        /* \"#utility.yul\":3501:3632   */\n      tag_97\n        /* \"#utility.yul\":3627:3631   */\n      dup2\n        /* \"#utility.yul\":3501:3632   */\n      tag_57\n      jump\t// in\n    tag_97:\n        /* \"#utility.yul\":3493:3632   */\n      swap1\n      pop\n        /* \"#utility.yul\":3220:3639   */\n      swap2\n      swap1\n      pop\n      jump\t// out\n        /* \"#utility.yul\":3645:3825   */\n    tag_58:\n        /* \"#utility.yul\":3693:3770   */\n      0x4e487b7100000000000000000000000000000000000000000000000000000000\n        /* \"#utility.yul\":3690:3691   */\n      0x00\n        /* \"#utility.yul\":3683:3771   */\n      mstore\n        /* \"#utility.yul\":3790:3794   */\n      0x12\n        /* \"#utility.yul\":3787:3788   */\n      0x04\n        /* \"#utility.yul\":3780:3795   */\n      mstore\n        /* \"#utility.yul\":3814:3818   */\n      0x24\n        /* \"#utility.yul\":3811:3812   */\n      0x00\n        /* \"#utility.yul\":3804:3819   */\n      revert\n        /* \"#utility.yul\":3831:4011   */\n    tag_59:\n        /* \"#utility.yul\":3879:3956   */\n      0x4e487b7100000000000000000000000000000000000000000000000000000000\n        /* \"#utility.yul\":3876:3877   */\n      0x00\n        /* \"#utility.yul\":3869:3957   */\n      mstore\n        /* \"#utility.yul\":3976:3980   */\n      0x11\n        /* \"#utility.yul\":3973:3974   */\n      0x04\n        /* \"#utility.yul\":3966:3981   */\n      mstore\n        /* \"#utility.yul\":4000:4004   */\n      0x24\n        /* \"#utility.yul\":3997:3998   */\n      0x00\n        /* \"#utility.yul\":3990:4005   */\n      revert\n        /* \"#utility.yul\":4017:4202   */\n    tag_35:\n        /* \"#utility.yul\":4057:4058   */\n      0x00\n        /* \"#utility.yul\":4074:4094   */\n      tag_101\n        /* \"#utility.yul\":4092:4093   */\n      dup3\n        /* \"#utility.yul\":4074:4094   */\n      tag_45\n      jump\t// in\n    tag_101:\n        /* \"#utility.yul\":4069:4094   */\n      swap2\n      pop\n        /* \"#utility.yul\":4108:4128   */\n      tag_102\n        /* \"#utility.yul\":4126:4127   */\n      dup4\n        /* \"#utility.yul\":4108:4128   */\n      tag_45\n      jump\t// in\n    tag_102:\n        /* \"#utility.yul\":4103:4128   */\n      swap3\n      pop\n        /* \"#utility.yul\":4147:4148   */\n      dup3\n        /* \"#utility.yul\":4137:4172   */\n      tag_103\n      jumpi\n        /* \"#utility.yul\":4152:4170   */\n      tag_104\n      tag_58\n      jump\t// in\n    tag_104:\n        /* \"#utility.yul\":4137:4172   */\n    tag_103:\n        /* \"#utility.yul\":4194:4195   */\n      dup3\n        /* \"#utility.yul\":4191:4192   */\n      dup3\n        /* \"#utility.yul\":4187:4196   */\n      div\n        /* \"#utility.yul\":4182:4196   */\n      swap1\n      pop\n        /* \"#utility.yul\":4017:4202   */\n      swap3\n      swap2\n      pop\n      pop\n      jump\t// out\n        /* \"#utility.yul\":4208:4399   */\n    tag_38:\n        /* \"#utility.yul\":4248:4251   */\n      0x00\n        /* \"#utility.yul\":4267:4287   */\n      tag_106\n        /* \"#utility.yul\":4285:4286   */\n      dup3\n        /* \"#utility.yul\":4267:4287   */\n      tag_45\n      jump\t// in\n    tag_106:\n        /* \"#utility.yul\":4262:4287   */\n      swap2\n      pop\n        /* \"#utility.yul\":4301:4321   */\n      tag_107\n        /* \"#utility.yul\":4319:4320   */\n      dup4\n        /* \"#utility.yul\":4301:4321   */\n      tag_45\n      jump\t// in\n    tag_107:\n        /* \"#utility.yul\":4296:4321   */\n      swap3\n      pop\n        /* \"#utility.yul\":4344:4345   */\n      dup3\n        /* \"#utility.yul\":4341:4342   */\n      dup3\n        /* \"#utility.yul\":4337:4346   */\n      add\n        /* \"#utility.yul\":4330:4346   */\n      swap1\n      pop\n        /* \"#utility.yul\":4365:4368   */\n      dup1\n        /* \"#utility.yul\":4362:4363   */\n      dup3\n        /* \"#utility.yul\":4359:4369   */\n      gt\n        /* \"#utility.yul\":4356:4392   */\n      iszero\n      tag_108\n      jumpi\n        /* \"#utility.yul\":4372:4390   */\n      tag_109\n      tag_59\n      jump\t// in\n    tag_109:\n        /* \"#utility.yul\":4356:4392   */\n    tag_108:\n        /* \"#utility.yul\":4208:4399   */\n      swap3\n      swap2\n      pop\n      pop\n      jump\t// out\n        /* \"#utility.yul\":4405:4599   */\n    tag_41:\n        /* \"#utility.yul\":4445:4449   */\n      0x00\n        /* \"#utility.yul\":4465:4485   */\n      tag_111\n        /* \"#utility.yul\":4483:4484   */\n      dup3\n        /* \"#utility.yul\":4465:4485   */\n      tag_45\n      jump\t// in\n    tag_111:\n        /* \"#utility.yul\":4460:4485   */\n      swap2\n      pop\n        /* \"#utility.yul\":4499:4519   */\n      tag_112\n        /* \"#utility.yul\":4517:4518   */\n      dup4\n        /* \"#utility.yul\":4499:4519   */\n      tag_45\n      jump\t// in\n    tag_112:\n        /* \"#utility.yul\":4494:4519   */\n      swap3\n      pop\n        /* \"#utility.yul\":4543:4544   */\n      dup3\n        /* \"#utility.yul\":4540:4541   */\n      dup3\n        /* \"#utility.yul\":4536:4545   */\n      sub\n        /* \"#utility.yul\":4528:4545   */\n      swap1\n      pop\n        /* \"#utility.yul\":4567:4568   */\n      dup2\n        /* \"#utility.yul\":4561:4565   */\n      dup2\n        /* \"#utility.yul\":4558:4569   */\n      gt\n        /* \"#utility.yul\":4555:4592   */\n      iszero\n      tag_113\n      jumpi\n        /* \"#utility.yul\":4572:4590   */\n      tag_114\n      tag_59\n      jump\t// in\n    tag_114:\n        /* \"#utility.yul\":4555:4592   */\n    tag_113:\n        /* \"#utility.yul\":4405:4599   */\n      swap3\n      swap2\n      pop\n      pop\n      jump\t// out\n        /* \"#utility.yul\":4605:5015   */\n    tag_44:\n        /* \"#utility.yul\":4645:4652   */\n      0x00\n        /* \"#utility.yul\":4668:4688   */\n      tag_116\n        /* \"#utility.yul\":4686:4687   */\n      dup3\n        /* \"#utility.yul\":4668:4688   */\n      tag_45\n      jump\t// in\n    tag_116:\n        /* \"#utility.yul\":4663:4688   */\n      swap2\n      pop\n        /* \"#utility.yul\":4702:4722   */\n      tag_117\n        /* \"#utility.yul\":4720:4721   */\n      dup4\n        /* \"#utility.yul\":4702:4722   */\n      tag_45\n      jump\t// in\n    tag_117:\n        /* \"#utility.yul\":4697:4722   */\n      swap3\n      pop\n        /* \"#utility.yul\":4757:4758   */\n      dup3\n        /* \"#utility.yul\":4754:4755   */\n      dup3\n        /* \"#utility.yul\":4750:4759   */\n      mul\n        /* \"#utility.yul\":4779:4809   */\n      tag_118\n        /* \"#utility.yul\":4797:4808   */\n      dup2\n        /* \"#utility.yul\":4779:4809   */\n      tag_45\n      jump\t// in\n    tag_118:\n        /* \"#utility.yul\":4768:4809   */\n      swap2\n      pop\n        /* \"#utility.yul\":4958:4959   */\n      dup3\n        /* \"#utility.yul\":4949:4956   */\n      dup3\n        /* \"#utility.yul\":4945:4960   */\n      div\n        /* \"#utility.yul\":4942:4943   */\n      dup5\n        /* \"#utility.yul\":4939:4961   */\n      eq\n        /* \"#utility.yul\":4919:4920   */\n      dup4\n        /* \"#utility.yul\":4912:4921   */\n      iszero\n        /* \"#utility.yul\":4892:4975   */\n      or\n        /* \"#utility.yul\":4869:5008   */\n      tag_119\n      jumpi\n        /* \"#utility.yul\":4988:5006   */\n      tag_120\n      tag_59\n      jump\t// in\n    tag_120:\n        /* \"#utility.yul\":4869:5008   */\n    tag_119:\n        /* \"#utility.yul\":4653:5015   */\n      pop\n        /* \"#utility.yul\":4605:5015   */\n      swap3\n      swap2\n      pop\n      pop\n      jump\t// out\n\n    auxdata: 0xa2646970667358221220f0f38fdc02199be8e000a6440b598425e27a883cfa36a17322c5dedadf8c620364736f6c63430008160033\n}\n",
				"bytecode": {
					"linkReferences": {},
					"object": "608060405234801561000f575f80fd5b506104838061001d5f395ff3fe608060405234801561000f575f80fd5b506004361061003f575f3560e01c80636537214714610043578063d595b5b714610061578063f88e9fbf1461007d575b5f80fd5b61004b610099565b6040516100589190610199565b60405180910390f35b61007b60048036038101906100769190610216565b61009e565b005b61009760048036038101906100929190610266565b61012d565b005b5f5481565b5f8160ff16036100b7576100b28383610142565b610128565b60018160ff16036100d1576100cc8383610157565b610127565b60028160ff16036100eb576100e6838361016c565b610126565b6040517f08c379a000000000000000000000000000000000000000000000000000000000815260040161011d906102fe565b60405180910390fd5b5b5b505050565b80826101399190610376565b5f819055505050565b808261014e91906103a6565b5f819055505050565b808261016391906103d9565b5f819055505050565b8082610178919061040c565b5f819055505050565b5f819050919050565b61019381610181565b82525050565b5f6020820190506101ac5f83018461018a565b92915050565b5f80fd5b6101bf81610181565b81146101c9575f80fd5b50565b5f813590506101da816101b6565b92915050565b5f60ff82169050919050565b6101f5816101e0565b81146101ff575f80fd5b50565b5f81359050610210816101ec565b92915050565b5f805f6060848603121561022d5761022c6101b2565b5b5f61023a868287016101cc565b935050602061024b868287016101cc565b925050604061025c86828701610202565b9150509250925092565b5f806040838503121561027c5761027b6101b2565b5b5f610289858286016101cc565b925050602061029a858286016101cc565b9150509250929050565b5f82825260208201905092915050565b7f496e76616c6964204f7065726174696f6e0000000000000000000000000000005f82015250565b5f6102e86011836102a4565b91506102f3826102b4565b602082019050919050565b5f6020820190508181035f830152610315816102dc565b9050919050565b7f4e487b71000000000000000000000000000000000000000000000000000000005f52601260045260245ffd5b7f4e487b71000000000000000000000000000000000000000000000000000000005f52601160045260245ffd5b5f61038082610181565b915061038b83610181565b92508261039b5761039a61031c565b5b828204905092915050565b5f6103b082610181565b91506103bb83610181565b92508282019050808211156103d3576103d2610349565b5b92915050565b5f6103e382610181565b91506103ee83610181565b925082820390508181111561040657610405610349565b5b92915050565b5f61041682610181565b915061042183610181565b925082820261042f81610181565b9150828204841483151761044657610445610349565b5b509291505056fea2646970667358221220f0f38fdc02199be8e000a6440b598425e27a883cfa36a17322c5dedadf8c620364736f6c63430008160033",
					"opcodes": "PUSH1 0x80 PUSH1 0x40 MSTORE CALLVALUE DUP1 ISZERO PUSH2 0xF JUMPI PUSH0 DUP1 REVERT JUMPDEST POP PUSH2 0x483 DUP1 PUSH2 0x1D PUSH0 CODECOPY PUSH0 RETURN INVALID PUSH1 0x80 PUSH1 0x40 MSTORE CALLVALUE DUP1 ISZERO PUSH2 0xF JUMPI PUSH0 DUP1 REVERT JUMPDEST POP PUSH1 0x4 CALLDATASIZE LT PUSH2 0x3F JUMPI PUSH0 CALLDATALOAD PUSH1 0xE0 SHR DUP1 PUSH4 0x65372147 EQ PUSH2 0x43 JUMPI DUP1 PUSH4 0xD595B5B7 EQ PUSH2 0x61 JUMPI DUP1 PUSH4 0xF88E9FBF EQ PUSH2 0x7D JUMPI JUMPDEST PUSH0 DUP1 REVERT JUMPDEST PUSH2 0x4B PUSH2 0x99 JUMP JUMPDEST PUSH1 0x40 MLOAD PUSH2 0x58 SWAP2 SWAP1 PUSH2 0x199 JUMP JUMPDEST PUSH1 0x40 MLOAD DUP1 SWAP2 SUB SWAP1 RETURN JUMPDEST PUSH2 0x7B PUSH1 0x4 DUP1 CALLDATASIZE SUB DUP2 ADD SWAP1 PUSH2 0x76 SWAP2 SWAP1 PUSH2 0x216 JUMP JUMPDEST PUSH2 0x9E JUMP JUMPDEST STOP JUMPDEST PUSH2 0x97 PUSH1 0x4 DUP1 CALLDATASIZE SUB DUP2 ADD SWAP1 PUSH2 0x92 SWAP2 SWAP1 PUSH2 0x266 JUMP JUMPDEST PUSH2 0x12D JUMP JUMPDEST STOP JUMPDEST PUSH0 SLOAD DUP2 JUMP JUMPDEST PUSH0 DUP2 PUSH1 0xFF AND SUB PUSH2 0xB7 JUMPI PUSH2 0xB2 DUP4 DUP4 PUSH2 0x142 JUMP JUMPDEST PUSH2 0x128 JUMP JUMPDEST PUSH1 0x1 DUP2 PUSH1 0xFF AND SUB PUSH2 0xD1 JUMPI PUSH2 0xCC DUP4 DUP4 PUSH2 0x157 JUMP JUMPDEST PUSH2 0x127 JUMP JUMPDEST PUSH1 0x2 DUP2 PUSH1 0xFF AND SUB PUSH2 0xEB JUMPI PUSH2 0xE6 DUP4 DUP4 PUSH2 0x16C JUMP JUMPDEST PUSH2 0x126 JUMP JUMPDEST PUSH1 0x40 MLOAD PUSH32 0x8C379A000000000000000000000000000000000000000000000000000000000 DUP2 MSTORE PUSH1 0x4 ADD PUSH2 0x11D SWAP1 PUSH2 0x2FE JUMP JUMPDEST PUSH1 0x40 MLOAD DUP1 SWAP2 SUB SWAP1 REVERT JUMPDEST JUMPDEST JUMPDEST POP POP POP JUMP JUMPDEST DUP1 DUP3 PUSH2 0x139 SWAP2 SWAP1 PUSH2 0x376 JUMP JUMPDEST PUSH0 DUP2 SWAP1 SSTORE POP POP POP JUMP JUMPDEST DUP1 DUP3 PUSH2 0x14E SWAP2 SWAP1 PUSH2 0x3A6 JUMP JUMPDEST PUSH0 DUP2 SWAP1 SSTORE POP POP POP JUMP JUMPDEST DUP1 DUP3 PUSH2 0x163 SWAP2 SWAP1 PUSH2 0x3D9 JUMP JUMPDEST PUSH0 DUP2 SWAP1 SSTORE POP POP POP JUMP JUMPDEST DUP1 DUP3 PUSH2 0x178 SWAP2 SWAP1 PUSH2 0x40C JUMP JUMPDEST PUSH0 DUP2 SWAP1 SSTORE POP POP POP JUMP JUMPDEST PUSH0 DUP2 SWAP1 POP SWAP2 SWAP1 POP JUMP JUMPDEST PUSH2 0x193 DUP2 PUSH2 0x181 JUMP JUMPDEST DUP3 MSTORE POP POP JUMP JUMPDEST PUSH0 PUSH1 0x20 DUP3 ADD SWAP1 POP PUSH2 0x1AC PUSH0 DUP4 ADD DUP5 PUSH2 0x18A JUMP JUMPDEST SWAP3 SWAP2 POP POP JUMP JUMPDEST PUSH0 DUP1 REVERT JUMPDEST PUSH2 0x1BF DUP2 PUSH2 0x181 JUMP JUMPDEST DUP2 EQ PUSH2 0x1C9 JUMPI PUSH0 DUP1 REVERT JUMPDEST POP JUMP JUMPDEST PUSH0 DUP2 CALLDATALOAD SWAP1 POP PUSH2 0x1DA DUP2 PUSH2 0x1B6 JUMP JUMPDEST SWAP3 SWAP2 POP POP JUMP JUMPDEST PUSH0 PUSH1 0xFF DUP3 AND SWAP1 POP SWAP2 SWAP1 POP JUMP JUMPDEST PUSH2 0x1F5 DUP2 PUSH2 0x1E0 JUMP JUMPDEST DUP2 EQ PUSH2 0x1FF JUMPI PUSH0 DUP1 REVERT JUMPDEST POP JUMP JUMPDEST PUSH0 DUP2 CALLDATALOAD SWAP1 POP PUSH2 0x210 DUP2 PUSH2 0x1EC JUMP JUMPDEST SWAP3 SWAP2 POP POP JUMP JUMPDEST PUSH0 DUP1 PUSH0 PUSH1 0x60 DUP5 DUP7 SUB SLT ISZERO PUSH2 0x22D JUMPI PUSH2 0x22C PUSH2 0x1B2 JUMP JUMPDEST JUMPDEST PUSH0 PUSH2 0x23A DUP7 DUP3 DUP8 ADD PUSH2 0x1CC JUMP JUMPDEST SWAP4 POP POP PUSH1 0x20 PUSH2 0x24B DUP7 DUP3 DUP8 ADD PUSH2 0x1CC JUMP JUMPDEST SWAP3 POP POP PUSH1 0x40 PUSH2 0x25C DUP7 DUP3 DUP8 ADD PUSH2 0x202 JUMP JUMPDEST SWAP2 POP POP SWAP3 POP SWAP3 POP SWAP3 JUMP JUMPDEST PUSH0 DUP1 PUSH1 0x40 DUP4 DUP6 SUB SLT ISZERO PUSH2 0x27C JUMPI PUSH2 0x27B PUSH2 0x1B2 JUMP JUMPDEST JUMPDEST PUSH0 PUSH2 0x289 DUP6 DUP3 DUP7 ADD PUSH2 0x1CC JUMP JUMPDEST SWAP3 POP POP PUSH1 0x20 PUSH2 0x29A DUP6 DUP3 DUP7 ADD PUSH2 0x1CC JUMP JUMPDEST SWAP2 POP POP SWAP3 POP SWAP3 SWAP1 POP JUMP JUMPDEST PUSH0 DUP3 DUP3 MSTORE PUSH1 0x20 DUP3 ADD SWAP1 POP SWAP3 SWAP2 POP POP JUMP JUMPDEST PUSH32 0x496E76616C6964204F7065726174696F6E000000000000000000000000000000 PUSH0 DUP3 ADD MSTORE POP JUMP JUMPDEST PUSH0 PUSH2 0x2E8 PUSH1 0x11 DUP4 PUSH2 0x2A4 JUMP JUMPDEST SWAP2 POP PUSH2 0x2F3 DUP3 PUSH2 0x2B4 JUMP JUMPDEST PUSH1 0x20 DUP3 ADD SWAP1 POP SWAP2 SWAP1 POP JUMP JUMPDEST PUSH0 PUSH1 0x20 DUP3 ADD SWAP1 POP DUP2 DUP2 SUB PUSH0 DUP4 ADD MSTORE PUSH2 0x315 DUP2 PUSH2 0x2DC JUMP JUMPDEST SWAP1 POP SWAP2 SWAP1 POP JUMP JUMPDEST PUSH32 0x4E487B7100000000000000000000000000000000000000000000000000000000 PUSH0 MSTORE PUSH1 0x12 PUSH1 0x4 MSTORE PUSH1 0x24 PUSH0 REVERT JUMPDEST PUSH32 0x4E487B7100000000000000000000000000000000000000000000000000000000 PUSH0 MSTORE PUSH1 0x11 PUSH1 0x4 MSTORE PUSH1 0x24 PUSH0 REVERT JUMPDEST PUSH0 PUSH2 0x380 DUP3 PUSH2 0x181 JUMP JUMPDEST SWAP2 POP PUSH2 0x38B DUP4 PUSH2 0x181 JUMP JUMPDEST SWAP3 POP DUP3 PUSH2 0x39B JUMPI PUSH2 0x39A PUSH2 0x31C JUMP JUMPDEST JUMPDEST DUP3 DUP3 DIV SWAP1 POP SWAP3 SWAP2 POP POP JUMP JUMPDEST PUSH0 PUSH2 0x3B0 DUP3 PUSH2 0x181 JUMP JUMPDEST SWAP2 POP PUSH2 0x3BB DUP4 PUSH2 0x181 JUMP JUMPDEST SWAP3 POP DUP3 DUP3 ADD SWAP1 POP DUP1 DUP3 GT ISZERO PUSH2 0x3D3 JUMPI PUSH2 0x3D2 PUSH2 0x349 JUMP JUMPDEST JUMPDEST SWAP3 SWAP2 POP POP JUMP JUMPDEST PUSH0 PUSH2 0x3E3 DUP3 PUSH2 0x181 JUMP JUMPDEST SWAP2 POP PUSH2 0x3EE DUP4 PUSH2 0x181 JUMP JUMPDEST SWAP3 POP DUP3 DUP3 SUB SWAP1 POP DUP2 DUP2 GT ISZERO PUSH2 0x406 JUMPI PUSH2 0x405 PUSH2 0x349 JUMP JUMPDEST JUMPDEST SWAP3 SWAP2 POP POP JUMP JUMPDEST PUSH0 PUSH2 0x416 DUP3 PUSH2 0x181 JUMP JUMPDEST SWAP2 POP PUSH2 0x421 DUP4 PUSH2 0x181 JUMP JUMPDEST SWAP3 POP DUP3 DUP3 MUL PUSH2 0x42F DUP2 PUSH2 0x181 JUMP JUMPDEST SWAP2 POP DUP3 DUP3 DIV DUP5 EQ DUP4 ISZERO OR PUSH2 0x446 JUMPI PUSH2 0x445 PUSH2 0x349 JUMP JUMPDEST JUMPDEST POP SWAP3 SWAP2 POP POP JUMP INVALID LOG2 PUSH5 0x6970667358 0x22 SLT KECCAK256 CREATE RETURN DUP16 0xDC MUL NOT SWAP12 0xE8 0xE0 STOP 0xA6 PREVRANDAO SIGNEXTEND MSIZE DUP5 0x25 0xE2 PUSH27 0x883CFA36A17322C5DEDADF8C620364736F6C634300081600330000 "
				},
				"gasEstimates": {
					"creation": {
						"codeDepositCost": "231000",
						"executionCost": "273",
						"totalCost": "231273"
					},
					"external": {
						"divide(uint256,uint256)": "infinite",
						"performOperation(uint256,uint256,uint8)": "infinite",
						"result()": "2402"
					},
					"internal": {
						"mul(uint256,uint256)": "infinite"
					}
				},
				"methodIdentifiers": {
					"divide(uint256,uint256)": "f88e9fbf",
					"performOperation(uint256,uint256,uint8)": "d595b5b7",
					"result()": "65372147"
				}
			},
			"storageLayout": {
				"storage": [
					{
						"astId": 36,
						"contract": "contracts/SolBasic.sol:VeryAdvanceCalculator",
						"label": "result",
						"offset": 0,
						"slot": "0",
						"type": "t_uint256"
					}
				],
				"types": {
					"t_uint256": {
						"encoding": "inplace",
						"label": "uint256",
						"numberOfBytes": "32"
					}
				}
			},
			"userdoc": {
				"kind": "user",
				"methods": {},
				"version": 1
			}
		}
	}
}