{
	"contracts/SolBasic.sol": {
		"AdvanceCalculator": {
			"abi": [
				{
					"inputs": [
						{
							"internalType": "uint256",
							"name": "a",
							"type": "uint256"
						},
						{
							"internalType": "uint256",
							"name": "b",
							"type": "uint256"
						},
						{
							"internalType": "uint8",
							"name": "operation",
							"type": "uint8"
						}
					],
					"name": "performOperation",
					"outputs": [],
					"stateMutability": "nonpayable",
					"type": "function"
				},
				{
					"inputs": [],
					"name": "result",
					"outputs": [
						{
							"internalType": "uint256",
							"name": "",
							"type": "uint256"
						}
					],
					"stateMutability": "view",
					"type": "function"
				}
			],
			"devdoc": {
				"kind": "dev",
				"methods": {},
				"version": 1
			},
			"evm": {
				"assembly": "    /* \"contracts/SolBasic.sol\":1569:2083  contract AdvanceCalculator is BasicCalculator {... */\n  mstore(0x40, 0x80)\n  callvalue\n  dup1\n  iszero\n  tag_1\n  jumpi\n  0x00\n  dup1\n  revert\ntag_1:\n  pop\n  dataSize(sub_0)\n  dup1\n  dataOffset(sub_0)\n  0x00\n  codecopy\n  0x00\n  return\nstop\n\nsub_0: assembly {\n        /* \"contracts/SolBasic.sol\":1569:2083  contract AdvanceCalculator is BasicCalculator {... */\n      mstore(0x40, 0x80)\n      callvalue\n      dup1\n      iszero\n      tag_1\n      jumpi\n      0x00\n      dup1\n      revert\n    tag_1:\n      pop\n      jumpi(tag_2, lt(calldatasize, 0x04))\n      shr(0xe0, calldataload(0x00))\n      dup1\n      0x65372147\n      eq\n      tag_3\n      jumpi\n      dup1\n      0xd595b5b7\n      eq\n      tag_4\n      jumpi\n    tag_2:\n      0x00\n      dup1\n      revert\n        /* \"contracts/SolBasic.sol\":1381:1402  uint256 public result */\n    tag_3:\n      tag_5\n      tag_6\n      jump\t// in\n    tag_5:\n      mload(0x40)\n      tag_7\n      swap2\n      swap1\n      tag_8\n      jump\t// in\n    tag_7:\n      mload(0x40)\n      dup1\n      swap2\n      sub\n      swap1\n      return\n        /* \"contracts/SolBasic.sol\":1786:2081  function performOperation(uint256 a, uint256 b, uint8 operation) public {... */\n    tag_4:\n      tag_9\n      0x04\n      dup1\n      calldatasize\n      sub\n      dup2\n      add\n      swap1\n      tag_10\n      swap2\n      swap1\n      tag_11\n      jump\t// in\n    tag_10:\n      tag_12\n      jump\t// in\n    tag_9:\n      stop\n        /* \"contracts/SolBasic.sol\":1381:1402  uint256 public result */\n    tag_6:\n      sload(0x00)\n      dup2\n      jump\t// out\n        /* \"contracts/SolBasic.sol\":1786:2081  function performOperation(uint256 a, uint256 b, uint8 operation) public {... */\n    tag_12:\n        /* \"contracts/SolBasic.sol\":1885:1886  0 */\n      0x00\n        /* \"contracts/SolBasic.sol\":1872:1881  operation */\n      dup2\n        /* \"contracts/SolBasic.sol\":1872:1886  operation == 0 */\n      0xff\n      and\n      sub\n        /* \"contracts/SolBasic.sol\":1868:2074  if (operation == 0) add(a, b);... */\n      tag_14\n      jumpi\n        /* \"contracts/SolBasic.sol\":1888:1897  add(a, b) */\n      tag_15\n        /* \"contracts/SolBasic.sol\":1892:1893  a */\n      dup4\n        /* \"contracts/SolBasic.sol\":1895:1896  b */\n      dup4\n        /* \"contracts/SolBasic.sol\":1888:1891  add */\n      tag_16\n        /* \"contracts/SolBasic.sol\":1888:1897  add(a, b) */\n      jump\t// in\n    tag_15:\n        /* \"contracts/SolBasic.sol\":1868:2074  if (operation == 0) add(a, b);... */\n      jump(tag_17)\n    tag_14:\n        /* \"contracts/SolBasic.sol\":1929:1930  1 */\n      0x01\n        /* \"contracts/SolBasic.sol\":1916:1925  operation */\n      dup2\n        /* \"contracts/SolBasic.sol\":1916:1930  operation == 1 */\n      0xff\n      and\n      sub\n        /* \"contracts/SolBasic.sol\":1912:2074  if (operation == 1) sub(a, b);... */\n      tag_18\n      jumpi\n        /* \"contracts/SolBasic.sol\":1932:1941  sub(a, b) */\n      tag_19\n        /* \"contracts/SolBasic.sol\":1936:1937  a */\n      dup4\n        /* \"contracts/SolBasic.sol\":1939:1940  b */\n      dup4\n        /* \"contracts/SolBasic.sol\":1932:1935  sub */\n      tag_20\n        /* \"contracts/SolBasic.sol\":1932:1941  sub(a, b) */\n      jump\t// in\n    tag_19:\n        /* \"contracts/SolBasic.sol\":1912:2074  if (operation == 1) sub(a, b);... */\n      jump(tag_21)\n    tag_18:\n        /* \"contracts/SolBasic.sol\":1973:1974  2 */\n      0x02\n        /* \"contracts/SolBasic.sol\":1960:1969  operation */\n      dup2\n        /* \"contracts/SolBasic.sol\":1960:1974  operation == 2 */\n      0xff\n      and\n      sub\n        /* \"contracts/SolBasic.sol\":1956:2074  if (operation == 2) mul(a, b);... */\n      tag_22\n      jumpi\n        /* \"contracts/SolBasic.sol\":1976:1985  mul(a, b) */\n      tag_23\n        /* \"contracts/SolBasic.sol\":1980:1981  a */\n      dup4\n        /* \"contracts/SolBasic.sol\":1983:1984  b */\n      dup4\n        /* \"contracts/SolBasic.sol\":1976:1979  mul */\n      tag_24\n        /* \"contracts/SolBasic.sol\":1976:1985  mul(a, b) */\n      jump\t// in\n    tag_23:\n        /* \"contracts/SolBasic.sol\":1956:2074  if (operation == 2) mul(a, b);... */\n      jump(tag_25)\n    tag_22:\n        /* \"contracts/SolBasic.sol\":2017:2018  3 */\n      0x03\n        /* \"contracts/SolBasic.sol\":2004:2013  operation */\n      dup2\n        /* \"contracts/SolBasic.sol\":2004:2018  operation == 3 */\n      0xff\n      and\n      sub\n        /* \"contracts/SolBasic.sol\":2000:2074  if (operation == 3) divide(a, b);... */\n      tag_26\n      jumpi\n        /* \"contracts/SolBasic.sol\":2020:2032  divide(a, b) */\n      tag_27\n        /* \"contracts/SolBasic.sol\":2027:2028  a */\n      dup4\n        /* \"contracts/SolBasic.sol\":2030:2031  b */\n      dup4\n        /* \"contracts/SolBasic.sol\":2020:2026  divide */\n      tag_28\n        /* \"contracts/SolBasic.sol\":2020:2032  divide(a, b) */\n      jump\t// in\n    tag_27:\n        /* \"contracts/SolBasic.sol\":2000:2074  if (operation == 3) divide(a, b);... */\n      jump(tag_29)\n    tag_26:\n        /* \"contracts/SolBasic.sol\":2047:2074  revert(\"Invalid Operation\") */\n      mload(0x40)\n      0x08c379a000000000000000000000000000000000000000000000000000000000\n      dup2\n      mstore\n      0x04\n      add\n      tag_30\n      swap1\n      tag_31\n      jump\t// in\n    tag_30:\n      mload(0x40)\n      dup1\n      swap2\n      sub\n      swap1\n      revert\n        /* \"contracts/SolBasic.sol\":2000:2074  if (operation == 3) divide(a, b);... */\n    tag_29:\n        /* \"contracts/SolBasic.sol\":1956:2074  if (operation == 2) mul(a, b);... */\n    tag_25:\n        /* \"contracts/SolBasic.sol\":1912:2074  if (operation == 1) sub(a, b);... */\n    tag_21:\n        /* \"contracts/SolBasic.sol\":1868:2074  if (operation == 0) add(a, b);... */\n    tag_17:\n        /* \"contracts/SolBasic.sol\":1786:2081  function performOperation(uint256 a, uint256 b, uint8 operation) public {... */\n      pop\n      pop\n      pop\n      jump\t// out\n        /* \"contracts/SolBasic.sol\":1409:1484  function add(uint256 a, uint256 b) internal {... */\n    tag_16:\n        /* \"contracts/SolBasic.sol\":1476:1477  b */\n      dup1\n        /* \"contracts/SolBasic.sol\":1472:1473  a */\n      dup3\n        /* \"contracts/SolBasic.sol\":1472:1477  a + b */\n      tag_33\n      swap2\n      swap1\n      tag_34\n      jump\t// in\n    tag_33:\n        /* \"contracts/SolBasic.sol\":1463:1469  result */\n      0x00\n        /* \"contracts/SolBasic.sol\":1463:1477  result = a + b */\n      dup2\n      swap1\n      sstore\n      pop\n        /* \"contracts/SolBasic.sol\":1409:1484  function add(uint256 a, uint256 b) internal {... */\n      pop\n      pop\n      jump\t// out\n        /* \"contracts/SolBasic.sol\":1490:1565  function sub(uint256 a, uint256 b) internal {... */\n    tag_20:\n        /* \"contracts/SolBasic.sol\":1557:1558  b */\n      dup1\n        /* \"contracts/SolBasic.sol\":1553:1554  a */\n      dup3\n        /* \"contracts/SolBasic.sol\":1553:1558  a - b */\n      tag_36\n      swap2\n      swap1\n      tag_37\n      jump\t// in\n    tag_36:\n        /* \"contracts/SolBasic.sol\":1544:1550  result */\n      0x00\n        /* \"contracts/SolBasic.sol\":1544:1558  result = a - b */\n      dup2\n      swap1\n      sstore\n      pop\n        /* \"contracts/SolBasic.sol\":1490:1565  function sub(uint256 a, uint256 b) internal {... */\n      pop\n      pop\n      jump\t// out\n        /* \"contracts/SolBasic.sol\":1621:1696  function mul(uint256 a, uint256 b) internal {... */\n    tag_24:\n        /* \"contracts/SolBasic.sol\":1688:1689  b */\n      dup1\n        /* \"contracts/SolBasic.sol\":1684:1685  a */\n      dup3\n        /* \"contracts/SolBasic.sol\":1684:1689  a * b */\n      tag_39\n      swap2\n      swap1\n      tag_40\n      jump\t// in\n    tag_39:\n        /* \"contracts/SolBasic.sol\":1675:1681  result */\n      0x00\n        /* \"contracts/SolBasic.sol\":1675:1689  result = a * b */\n      dup2\n      swap1\n      sstore\n      pop\n        /* \"contracts/SolBasic.sol\":1621:1696  function mul(uint256 a, uint256 b) internal {... */\n      pop\n      pop\n      jump\t// out\n        /* \"contracts/SolBasic.sol\":1702:1780  function divide(uint256 a, uint256 b) internal {... */\n    tag_28:\n        /* \"contracts/SolBasic.sol\":1772:1773  b */\n      dup1\n        /* \"contracts/SolBasic.sol\":1768:1769  a */\n      dup3\n        /* \"contracts/SolBasic.sol\":1768:1773  a / b */\n      tag_42\n      swap2\n      swap1\n      tag_43\n      jump\t// in\n    tag_42:\n        /* \"contracts/SolBasic.sol\":1759:1765  result */\n      0x00\n        /* \"contracts/SolBasic.sol\":1759:1773  result = a / b */\n      dup2\n      swap1\n      sstore\n      pop\n        /* \"contracts/SolBasic.sol\":1702:1780  function divide(uint256 a, uint256 b) internal {... */\n      pop\n      pop\n      jump\t// out\n        /* \"#utility.yul\":7:84   */\n    tag_44:\n        /* \"#utility.yul\":44:51   */\n      0x00\n        /* \"#utility.yul\":73:78   */\n      dup2\n        /* \"#utility.yul\":62:78   */\n      swap1\n      pop\n        /* \"#utility.yul\":7:84   */\n      swap2\n      swap1\n      pop\n      jump\t// out\n        /* \"#utility.yul\":90:208   */\n    tag_45:\n        /* \"#utility.yul\":177:201   */\n      tag_62\n        /* \"#utility.yul\":195:200   */\n      dup2\n        /* \"#utility.yul\":177:201   */\n      tag_44\n      jump\t// in\n    tag_62:\n        /* \"#utility.yul\":172:175   */\n      dup3\n        /* \"#utility.yul\":165:202   */\n      mstore\n        /* \"#utility.yul\":90:208   */\n      pop\n      pop\n      jump\t// out\n        /* \"#utility.yul\":214:436   */\n    tag_8:\n        /* \"#utility.yul\":307:311   */\n      0x00\n        /* \"#utility.yul\":345:347   */\n      0x20\n        /* \"#utility.yul\":334:343   */\n      dup3\n        /* \"#utility.yul\":330:348   */\n      add\n        /* \"#utility.yul\":322:348   */\n      swap1\n      pop\n        /* \"#utility.yul\":358:429   */\n      tag_64\n        /* \"#utility.yul\":426:427   */\n      0x00\n        /* \"#utility.yul\":415:424   */\n      dup4\n        /* \"#utility.yul\":411:428   */\n      add\n        /* \"#utility.yul\":402:408   */\n      dup5\n        /* \"#utility.yul\":358:429   */\n      tag_45\n      jump\t// in\n    tag_64:\n        /* \"#utility.yul\":214:436   */\n      swap3\n      swap2\n      pop\n      pop\n      jump\t// out\n        /* \"#utility.yul\":523:640   */\n    tag_47:\n        /* \"#utility.yul\":632:633   */\n      0x00\n        /* \"#utility.yul\":629:630   */\n      dup1\n        /* \"#utility.yul\":622:634   */\n      revert\n        /* \"#utility.yul\":769:891   */\n    tag_49:\n        /* \"#utility.yul\":842:866   */\n      tag_69\n        /* \"#utility.yul\":860:865   */\n      dup2\n        /* \"#utility.yul\":842:866   */\n      tag_44\n      jump\t// in\n    tag_69:\n        /* \"#utility.yul\":835:840   */\n      dup2\n        /* \"#utility.yul\":832:867   */\n      eq\n        /* \"#utility.yul\":822:885   */\n      tag_70\n      jumpi\n        /* \"#utility.yul\":881:882   */\n      0x00\n        /* \"#utility.yul\":878:879   */\n      dup1\n        /* \"#utility.yul\":871:883   */\n      revert\n        /* \"#utility.yul\":822:885   */\n    tag_70:\n        /* \"#utility.yul\":769:891   */\n      pop\n      jump\t// out\n        /* \"#utility.yul\":897:1036   */\n    tag_50:\n        /* \"#utility.yul\":943:948   */\n      0x00\n        /* \"#utility.yul\":981:987   */\n      dup2\n        /* \"#utility.yul\":968:988   */\n      calldataload\n        /* \"#utility.yul\":959:988   */\n      swap1\n      pop\n        /* \"#utility.yul\":997:1030   */\n      tag_72\n        /* \"#utility.yul\":1024:1029   */\n      dup2\n        /* \"#utility.yul\":997:1030   */\n      tag_49\n      jump\t// in\n    tag_72:\n        /* \"#utility.yul\":897:1036   */\n      swap3\n      swap2\n      pop\n      pop\n      jump\t// out\n        /* \"#utility.yul\":1042:1128   */\n    tag_51:\n        /* \"#utility.yul\":1077:1084   */\n      0x00\n        /* \"#utility.yul\":1117:1121   */\n      0xff\n        /* \"#utility.yul\":1110:1115   */\n      dup3\n        /* \"#utility.yul\":1106:1122   */\n      and\n        /* \"#utility.yul\":1095:1122   */\n      swap1\n      pop\n        /* \"#utility.yul\":1042:1128   */\n      swap2\n      swap1\n      pop\n      jump\t// out\n        /* \"#utility.yul\":1134:1252   */\n    tag_52:\n        /* \"#utility.yul\":1205:1227   */\n      tag_75\n        /* \"#utility.yul\":1221:1226   */\n      dup2\n        /* \"#utility.yul\":1205:1227   */\n      tag_51\n      jump\t// in\n    tag_75:\n        /* \"#utility.yul\":1198:1203   */\n      dup2\n        /* \"#utility.yul\":1195:1228   */\n      eq\n        /* \"#utility.yul\":1185:1246   */\n      tag_76\n      jumpi\n        /* \"#utility.yul\":1242:1243   */\n      0x00\n        /* \"#utility.yul\":1239:1240   */\n      dup1\n        /* \"#utility.yul\":1232:1244   */\n      revert\n        /* \"#utility.yul\":1185:1246   */\n    tag_76:\n        /* \"#utility.yul\":1134:1252   */\n      pop\n      jump\t// out\n        /* \"#utility.yul\":1258:1393   */\n    tag_53:\n        /* \"#utility.yul\":1302:1307   */\n      0x00\n        /* \"#utility.yul\":1340:1346   */\n      dup2\n        /* \"#utility.yul\":1327:1347   */\n      calldataload\n        /* \"#utility.yul\":1318:1347   */\n      swap1\n      pop\n        /* \"#utility.yul\":1356:1387   */\n      tag_78\n        /* \"#utility.yul\":1381:1386   */\n      dup2\n        /* \"#utility.yul\":1356:1387   */\n      tag_52\n      jump\t// in\n    tag_78:\n        /* \"#utility.yul\":1258:1393   */\n      swap3\n      swap2\n      pop\n      pop\n      jump\t// out\n        /* \"#utility.yul\":1399:2014   */\n    tag_11:\n        /* \"#utility.yul\":1474:1480   */\n      0x00\n        /* \"#utility.yul\":1482:1488   */\n      dup1\n        /* \"#utility.yul\":1490:1496   */\n      0x00\n        /* \"#utility.yul\":1539:1541   */\n      0x60\n        /* \"#utility.yul\":1527:1536   */\n      dup5\n        /* \"#utility.yul\":1518:1525   */\n      dup7\n        /* \"#utility.yul\":1514:1537   */\n      sub\n        /* \"#utility.yul\":1510:1542   */\n      slt\n        /* \"#utility.yul\":1507:1626   */\n      iszero\n      tag_80\n      jumpi\n        /* \"#utility.yul\":1545:1624   */\n      tag_81\n      tag_47\n      jump\t// in\n    tag_81:\n        /* \"#utility.yul\":1507:1626   */\n    tag_80:\n        /* \"#utility.yul\":1665:1666   */\n      0x00\n        /* \"#utility.yul\":1690:1743   */\n      tag_82\n        /* \"#utility.yul\":1735:1742   */\n      dup7\n        /* \"#utility.yul\":1726:1732   */\n      dup3\n        /* \"#utility.yul\":1715:1724   */\n      dup8\n        /* \"#utility.yul\":1711:1733   */\n      add\n        /* \"#utility.yul\":1690:1743   */\n      tag_50\n      jump\t// in\n    tag_82:\n        /* \"#utility.yul\":1680:1743   */\n      swap4\n      pop\n        /* \"#utility.yul\":1636:1753   */\n      pop\n        /* \"#utility.yul\":1792:1794   */\n      0x20\n        /* \"#utility.yul\":1818:1871   */\n      tag_83\n        /* \"#utility.yul\":1863:1870   */\n      dup7\n        /* \"#utility.yul\":1854:1860   */\n      dup3\n        /* \"#utility.yul\":1843:1852   */\n      dup8\n        /* \"#utility.yul\":1839:1861   */\n      add\n        /* \"#utility.yul\":1818:1871   */\n      tag_50\n      jump\t// in\n    tag_83:\n        /* \"#utility.yul\":1808:1871   */\n      swap3\n      pop\n        /* \"#utility.yul\":1763:1881   */\n      pop\n        /* \"#utility.yul\":1920:1922   */\n      0x40\n        /* \"#utility.yul\":1946:1997   */\n      tag_84\n        /* \"#utility.yul\":1989:1996   */\n      dup7\n        /* \"#utility.yul\":1980:1986   */\n      dup3\n        /* \"#utility.yul\":1969:1978   */\n      dup8\n        /* \"#utility.yul\":1965:1987   */\n      add\n        /* \"#utility.yul\":1946:1997   */\n      tag_53\n      jump\t// in\n    tag_84:\n        /* \"#utility.yul\":1936:1997   */\n      swap2\n      pop\n        /* \"#utility.yul\":1891:2007   */\n      pop\n        /* \"#utility.yul\":1399:2014   */\n      swap3\n      pop\n      swap3\n      pop\n      swap3\n      jump\t// out\n        /* \"#utility.yul\":2020:2189   */\n    tag_54:\n        /* \"#utility.yul\":2104:2115   */\n      0x00\n        /* \"#utility.yul\":2138:2144   */\n      dup3\n        /* \"#utility.yul\":2133:2136   */\n      dup3\n        /* \"#utility.yul\":2126:2145   */\n      mstore\n        /* \"#utility.yul\":2178:2182   */\n      0x20\n        /* \"#utility.yul\":2173:2176   */\n      dup3\n        /* \"#utility.yul\":2169:2183   */\n      add\n        /* \"#utility.yul\":2154:2183   */\n      swap1\n      pop\n        /* \"#utility.yul\":2020:2189   */\n      swap3\n      swap2\n      pop\n      pop\n      jump\t// out\n        /* \"#utility.yul\":2195:2362   */\n    tag_55:\n        /* \"#utility.yul\":2335:2354   */\n      0x496e76616c6964204f7065726174696f6e000000000000000000000000000000\n        /* \"#utility.yul\":2331:2332   */\n      0x00\n        /* \"#utility.yul\":2323:2329   */\n      dup3\n        /* \"#utility.yul\":2319:2333   */\n      add\n        /* \"#utility.yul\":2312:2355   */\n      mstore\n        /* \"#utility.yul\":2195:2362   */\n      pop\n      jump\t// out\n        /* \"#utility.yul\":2368:2734   */\n    tag_56:\n        /* \"#utility.yul\":2510:2513   */\n      0x00\n        /* \"#utility.yul\":2531:2598   */\n      tag_88\n        /* \"#utility.yul\":2595:2597   */\n      0x11\n        /* \"#utility.yul\":2590:2593   */\n      dup4\n        /* \"#utility.yul\":2531:2598   */\n      tag_54\n      jump\t// in\n    tag_88:\n        /* \"#utility.yul\":2524:2598   */\n      swap2\n      pop\n        /* \"#utility.yul\":2607:2700   */\n      tag_89\n        /* \"#utility.yul\":2696:2699   */\n      dup3\n        /* \"#utility.yul\":2607:2700   */\n      tag_55\n      jump\t// in\n    tag_89:\n        /* \"#utility.yul\":2725:2727   */\n      0x20\n        /* \"#utility.yul\":2720:2723   */\n      dup3\n        /* \"#utility.yul\":2716:2728   */\n      add\n        /* \"#utility.yul\":2709:2728   */\n      swap1\n      pop\n        /* \"#utility.yul\":2368:2734   */\n      swap2\n      swap1\n      pop\n      jump\t// out\n        /* \"#utility.yul\":2740:3159   */\n    tag_31:\n        /* \"#utility.yul\":2906:2910   */\n      0x00\n        /* \"#utility.yul\":2944:2946   */\n      0x20\n        /* \"#utility.yul\":2933:2942   */\n      dup3\n        /* \"#utility.yul\":2929:2947   */\n      add\n        /* \"#utility.yul\":2921:2947   */\n      swap1\n      pop\n        /* \"#utility.yul\":2993:3002   */\n      dup2\n        /* \"#utility.yul\":2987:2991   */\n      dup2\n        /* \"#utility.yul\":2983:3003   */\n      sub\n        /* \"#utility.yul\":2979:2980   */\n      0x00\n        /* \"#utility.yul\":2968:2977   */\n      dup4\n        /* \"#utility.yul\":2964:2981   */\n      add\n        /* \"#utility.yul\":2957:3004   */\n      mstore\n        /* \"#utility.yul\":3021:3152   */\n      tag_91\n        /* \"#utility.yul\":3147:3151   */\n      dup2\n        /* \"#utility.yul\":3021:3152   */\n      tag_56\n      jump\t// in\n    tag_91:\n        /* \"#utility.yul\":3013:3152   */\n      swap1\n      pop\n        /* \"#utility.yul\":2740:3159   */\n      swap2\n      swap1\n      pop\n      jump\t// out\n        /* \"#utility.yul\":3165:3345   */\n    tag_57:\n        /* \"#utility.yul\":3213:3290   */\n      0x4e487b7100000000000000000000000000000000000000000000000000000000\n        /* \"#utility.yul\":3210:3211   */\n      0x00\n        /* \"#utility.yul\":3203:3291   */\n      mstore\n        /* \"#utility.yul\":3310:3314   */\n      0x11\n        /* \"#utility.yul\":3307:3308   */\n      0x04\n        /* \"#utility.yul\":3300:3315   */\n      mstore\n        /* \"#utility.yul\":3334:3338   */\n      0x24\n        /* \"#utility.yul\":3331:3332   */\n      0x00\n        /* \"#utility.yul\":3324:3339   */\n      revert\n        /* \"#utility.yul\":3351:3542   */\n    tag_34:\n        /* \"#utility.yul\":3391:3394   */\n      0x00\n        /* \"#utility.yul\":3410:3430   */\n      tag_94\n        /* \"#utility.yul\":3428:3429   */\n      dup3\n        /* \"#utility.yul\":3410:3430   */\n      tag_44\n      jump\t// in\n    tag_94:\n        /* \"#utility.yul\":3405:3430   */\n      swap2\n      pop\n        /* \"#utility.yul\":3444:3464   */\n      tag_95\n        /* \"#utility.yul\":3462:3463   */\n      dup4\n        /* \"#utility.yul\":3444:3464   */\n      tag_44\n      jump\t// in\n    tag_95:\n        /* \"#utility.yul\":3439:3464   */\n      swap3\n      pop\n        /* \"#utility.yul\":3487:3488   */\n      dup3\n        /* \"#utility.yul\":3484:3485   */\n      dup3\n        /* \"#utility.yul\":3480:3489   */\n      add\n        /* \"#utility.yul\":3473:3489   */\n      swap1\n      pop\n        /* \"#utility.yul\":3508:3511   */\n      dup1\n        /* \"#utility.yul\":3505:3506   */\n      dup3\n        /* \"#utility.yul\":3502:3512   */\n      gt\n        /* \"#utility.yul\":3499:3535   */\n      iszero\n      tag_96\n      jumpi\n        /* \"#utility.yul\":3515:3533   */\n      tag_97\n      tag_57\n      jump\t// in\n    tag_97:\n        /* \"#utility.yul\":3499:3535   */\n    tag_96:\n        /* \"#utility.yul\":3351:3542   */\n      swap3\n      swap2\n      pop\n      pop\n      jump\t// out\n        /* \"#utility.yul\":3548:3742   */\n    tag_37:\n        /* \"#utility.yul\":3588:3592   */\n      0x00\n        /* \"#utility.yul\":3608:3628   */\n      tag_99\n        /* \"#utility.yul\":3626:3627   */\n      dup3\n        /* \"#utility.yul\":3608:3628   */\n      tag_44\n      jump\t// in\n    tag_99:\n        /* \"#utility.yul\":3603:3628   */\n      swap2\n      pop\n        /* \"#utility.yul\":3642:3662   */\n      tag_100\n        /* \"#utility.yul\":3660:3661   */\n      dup4\n        /* \"#utility.yul\":3642:3662   */\n      tag_44\n      jump\t// in\n    tag_100:\n        /* \"#utility.yul\":3637:3662   */\n      swap3\n      pop\n        /* \"#utility.yul\":3686:3687   */\n      dup3\n        /* \"#utility.yul\":3683:3684   */\n      dup3\n        /* \"#utility.yul\":3679:3688   */\n      sub\n        /* \"#utility.yul\":3671:3688   */\n      swap1\n      pop\n        /* \"#utility.yul\":3710:3711   */\n      dup2\n        /* \"#utility.yul\":3704:3708   */\n      dup2\n        /* \"#utility.yul\":3701:3712   */\n      gt\n        /* \"#utility.yul\":3698:3735   */\n      iszero\n      tag_101\n      jumpi\n        /* \"#utility.yul\":3715:3733   */\n      tag_102\n      tag_57\n      jump\t// in\n    tag_102:\n        /* \"#utility.yul\":3698:3735   */\n    tag_101:\n        /* \"#utility.yul\":3548:3742   */\n      swap3\n      swap2\n      pop\n      pop\n      jump\t// out\n        /* \"#utility.yul\":3748:4158   */\n    tag_40:\n        /* \"#utility.yul\":3788:3795   */\n      0x00\n        /* \"#utility.yul\":3811:3831   */\n      tag_104\n        /* \"#utility.yul\":3829:3830   */\n      dup3\n        /* \"#utility.yul\":3811:3831   */\n      tag_44\n      jump\t// in\n    tag_104:\n        /* \"#utility.yul\":3806:3831   */\n      swap2\n      pop\n        /* \"#utility.yul\":3845:3865   */\n      tag_105\n        /* \"#utility.yul\":3863:3864   */\n      dup4\n        /* \"#utility.yul\":3845:3865   */\n      tag_44\n      jump\t// in\n    tag_105:\n        /* \"#utility.yul\":3840:3865   */\n      swap3\n      pop\n        /* \"#utility.yul\":3900:3901   */\n      dup3\n        /* \"#utility.yul\":3897:3898   */\n      dup3\n        /* \"#utility.yul\":3893:3902   */\n      mul\n        /* \"#utility.yul\":3922:3952   */\n      tag_106\n        /* \"#utility.yul\":3940:3951   */\n      dup2\n        /* \"#utility.yul\":3922:3952   */\n      tag_44\n      jump\t// in\n    tag_106:\n        /* \"#utility.yul\":3911:3952   */\n      swap2\n      pop\n        /* \"#utility.yul\":4101:4102   */\n      dup3\n        /* \"#utility.yul\":4092:4099   */\n      dup3\n        /* \"#utility.yul\":4088:4103   */\n      div\n        /* \"#utility.yul\":4085:4086   */\n      dup5\n        /* \"#utility.yul\":4082:4104   */\n      eq\n        /* \"#utility.yul\":4062:4063   */\n      dup4\n        /* \"#utility.yul\":4055:4064   */\n      iszero\n        /* \"#utility.yul\":4035:4118   */\n      or\n        /* \"#utility.yul\":4012:4151   */\n      tag_107\n      jumpi\n        /* \"#utility.yul\":4131:4149   */\n      tag_108\n      tag_57\n      jump\t// in\n    tag_108:\n        /* \"#utility.yul\":4012:4151   */\n    tag_107:\n        /* \"#utility.yul\":3796:4158   */\n      pop\n        /* \"#utility.yul\":3748:4158   */\n      swap3\n      swap2\n      pop\n      pop\n      jump\t// out\n        /* \"#utility.yul\":4164:4344   */\n    tag_58:\n        /* \"#utility.yul\":4212:4289   */\n      0x4e487b7100000000000000000000000000000000000000000000000000000000\n        /* \"#utility.yul\":4209:4210   */\n      0x00\n        /* \"#utility.yul\":4202:4290   */\n      mstore\n        /* \"#utility.yul\":4309:4313   */\n      0x12\n        /* \"#utility.yul\":4306:4307   */\n      0x04\n        /* \"#utility.yul\":4299:4314   */\n      mstore\n        /* \"#utility.yul\":4333:4337   */\n      0x24\n        /* \"#utility.yul\":4330:4331   */\n      0x00\n        /* \"#utility.yul\":4323:4338   */\n      revert\n        /* \"#utility.yul\":4350:4535   */\n    tag_43:\n        /* \"#utility.yul\":4390:4391   */\n      0x00\n        /* \"#utility.yul\":4407:4427   */\n      tag_111\n        /* \"#utility.yul\":4425:4426   */\n      dup3\n        /* \"#utility.yul\":4407:4427   */\n      tag_44\n      jump\t// in\n    tag_111:\n        /* \"#utility.yul\":4402:4427   */\n      swap2\n      pop\n        /* \"#utility.yul\":4441:4461   */\n      tag_112\n        /* \"#utility.yul\":4459:4460   */\n      dup4\n        /* \"#utility.yul\":4441:4461   */\n      tag_44\n      jump\t// in\n    tag_112:\n        /* \"#utility.yul\":4436:4461   */\n      swap3\n      pop\n        /* \"#utility.yul\":4480:4481   */\n      dup3\n        /* \"#utility.yul\":4470:4505   */\n      tag_113\n      jumpi\n        /* \"#utility.yul\":4485:4503   */\n      tag_114\n      tag_58\n      jump\t// in\n    tag_114:\n        /* \"#utility.yul\":4470:4505   */\n    tag_113:\n        /* \"#utility.yul\":4527:4528   */\n      dup3\n        /* \"#utility.yul\":4524:4525   */\n      dup3\n        /* \"#utility.yul\":4520:4529   */\n      div\n        /* \"#utility.yul\":4515:4529   */\n      swap1\n      pop\n        /* \"#utility.yul\":4350:4535   */\n      swap3\n      swap2\n      pop\n      pop\n      jump\t// out\n\n    auxdata: 0xa264697066735822122099404067310eb514140864b79e39c0f4cbec9854eba2c60a4850fa40021cab8d64736f6c63430008160033\n}\n",
				"bytecode": {
					"linkReferences": {},
					"object": "608060405234801561000f575f80fd5b506104398061001d5f395ff3fe608060405234801561000f575f80fd5b5060043610610034575f3560e01c80636537214714610038578063d595b5b714610056575b5f80fd5b610040610072565b60405161004d919061018d565b60405180910390f35b610070600480360381019061006b919061020a565b610077565b005b5f5481565b5f8160ff16036100905761008b8383610121565b61011c565b60018160ff16036100aa576100a58383610136565b61011b565b60028160ff16036100c4576100bf838361014b565b61011a565b60038160ff16036100de576100d98383610160565b610119565b6040517f08c379a0000000000000000000000000000000000000000000000000000000008152600401610110906102b4565b60405180910390fd5b5b5b5b505050565b808261012d91906102ff565b5f819055505050565b80826101429190610332565b5f819055505050565b80826101579190610365565b5f819055505050565b808261016c91906103d3565b5f819055505050565b5f819050919050565b61018781610175565b82525050565b5f6020820190506101a05f83018461017e565b92915050565b5f80fd5b6101b381610175565b81146101bd575f80fd5b50565b5f813590506101ce816101aa565b92915050565b5f60ff82169050919050565b6101e9816101d4565b81146101f3575f80fd5b50565b5f81359050610204816101e0565b92915050565b5f805f60608486031215610221576102206101a6565b5b5f61022e868287016101c0565b935050602061023f868287016101c0565b9250506040610250868287016101f6565b9150509250925092565b5f82825260208201905092915050565b7f496e76616c6964204f7065726174696f6e0000000000000000000000000000005f82015250565b5f61029e60118361025a565b91506102a98261026a565b602082019050919050565b5f6020820190508181035f8301526102cb81610292565b9050919050565b7f4e487b71000000000000000000000000000000000000000000000000000000005f52601160045260245ffd5b5f61030982610175565b915061031483610175565b925082820190508082111561032c5761032b6102d2565b5b92915050565b5f61033c82610175565b915061034783610175565b925082820390508181111561035f5761035e6102d2565b5b92915050565b5f61036f82610175565b915061037a83610175565b925082820261038881610175565b9150828204841483151761039f5761039e6102d2565b5b5092915050565b7f4e487b71000000000000000000000000000000000000000000000000000000005f52601260045260245ffd5b5f6103dd82610175565b91506103e883610175565b9250826103f8576103f76103a6565b5b82820490509291505056fea264697066735822122099404067310eb514140864b79e39c0f4cbec9854eba2c60a4850fa40021cab8d64736f6c63430008160033",
					"opcodes": "PUSH1 0x80 PUSH1 0x40 MSTORE CALLVALUE DUP1 ISZERO PUSH2 0xF JUMPI PUSH0 DUP1 REVERT JUMPDEST POP PUSH2 0x439 DUP1 PUSH2 0x1D PUSH0 CODECOPY PUSH0 RETURN INVALID PUSH1 0x80 PUSH1 0x40 MSTORE CALLVALUE DUP1 ISZERO PUSH2 0xF JUMPI PUSH0 DUP1 REVERT JUMPDEST POP PUSH1 0x4 CALLDATASIZE LT PUSH2 0x34 JUMPI PUSH0 CALLDATALOAD PUSH1 0xE0 SHR DUP1 PUSH4 0x65372147 EQ PUSH2 0x38 JUMPI DUP1 PUSH4 0xD595B5B7 EQ PUSH2 0x56 JUMPI JUMPDEST PUSH0 DUP1 REVERT JUMPDEST PUSH2 0x40 PUSH2 0x72 JUMP JUMPDEST PUSH1 0x40 MLOAD PUSH2 0x4D SWAP2 SWAP1 PUSH2 0x18D JUMP JUMPDEST PUSH1 0x40 MLOAD DUP1 SWAP2 SUB SWAP1 RETURN JUMPDEST PUSH2 0x70 PUSH1 0x4 DUP1 CALLDATASIZE SUB DUP2 ADD SWAP1 PUSH2 0x6B SWAP2 SWAP1 PUSH2 0x20A JUMP JUMPDEST PUSH2 0x77 JUMP JUMPDEST STOP JUMPDEST PUSH0 SLOAD DUP2 JUMP JUMPDEST PUSH0 DUP2 PUSH1 0xFF AND SUB PUSH2 0x90 JUMPI PUSH2 0x8B DUP4 DUP4 PUSH2 0x121 JUMP JUMPDEST PUSH2 0x11C JUMP JUMPDEST PUSH1 0x1 DUP2 PUSH1 0xFF AND SUB PUSH2 0xAA JUMPI PUSH2 0xA5 DUP4 DUP4 PUSH2 0x136 JUMP JUMPDEST PUSH2 0x11B JUMP JUMPDEST PUSH1 0x2 DUP2 PUSH1 0xFF AND SUB PUSH2 0xC4 JUMPI PUSH2 0xBF DUP4 DUP4 PUSH2 0x14B JUMP JUMPDEST PUSH2 0x11A JUMP JUMPDEST PUSH1 0x3 DUP2 PUSH1 0xFF AND SUB PUSH2 0xDE JUMPI PUSH2 0xD9 DUP4 DUP4 PUSH2 0x160 JUMP JUMPDEST PUSH2 0x119 JUMP JUMPDEST PUSH1 0x40 MLOAD PUSH32 0x8C379A000000000000000000000000000000000000000000000000000000000 DUP2 MSTORE PUSH1 0x4 ADD PUSH2 0x110 SWAP1 PUSH2 0x2B4 JUMP JUMPDEST PUSH1 0x40 MLOAD DUP1 SWAP2 SUB SWAP1 REVERT JUMPDEST JUMPDEST JUMPDEST JUMPDEST POP POP POP JUMP JUMPDEST DUP1 DUP3 PUSH2 0x12D SWAP2 SWAP1 PUSH2 0x2FF JUMP JUMPDEST PUSH0 DUP2 SWAP1 SSTORE POP POP POP JUMP JUMPDEST DUP1 DUP3 PUSH2 0x142 SWAP2 SWAP1 PUSH2 0x332 JUMP JUMPDEST PUSH0 DUP2 SWAP1 SSTORE POP POP POP JUMP JUMPDEST DUP1 DUP3 PUSH2 0x157 SWAP2 SWAP1 PUSH2 0x365 JUMP JUMPDEST PUSH0 DUP2 SWAP1 SSTORE POP POP POP JUMP JUMPDEST DUP1 DUP3 PUSH2 0x16C SWAP2 SWAP1 PUSH2 0x3D3 JUMP JUMPDEST PUSH0 DUP2 SWAP1 SSTORE POP POP POP JUMP JUMPDEST PUSH0 DUP2 SWAP1 POP SWAP2 SWAP1 POP JUMP JUMPDEST PUSH2 0x187 DUP2 PUSH2 0x175 JUMP JUMPDEST DUP3 MSTORE POP POP JUMP JUMPDEST PUSH0 PUSH1 0x20 DUP3 ADD SWAP1 POP PUSH2 0x1A0 PUSH0 DUP4 ADD DUP5 PUSH2 0x17E JUMP JUMPDEST SWAP3 SWAP2 POP POP JUMP JUMPDEST PUSH0 DUP1 REVERT JUMPDEST PUSH2 0x1B3 DUP2 PUSH2 0x175 JUMP JUMPDEST DUP2 EQ PUSH2 0x1BD JUMPI PUSH0 DUP1 REVERT JUMPDEST POP JUMP JUMPDEST PUSH0 DUP2 CALLDATALOAD SWAP1 POP PUSH2 0x1CE DUP2 PUSH2 0x1AA JUMP JUMPDEST SWAP3 SWAP2 POP POP JUMP JUMPDEST PUSH0 PUSH1 0xFF DUP3 AND SWAP1 POP SWAP2 SWAP1 POP JUMP JUMPDEST PUSH2 0x1E9 DUP2 PUSH2 0x1D4 JUMP JUMPDEST DUP2 EQ PUSH2 0x1F3 JUMPI PUSH0 DUP1 REVERT JUMPDEST POP JUMP JUMPDEST PUSH0 DUP2 CALLDATALOAD SWAP1 POP PUSH2 0x204 DUP2 PUSH2 0x1E0 JUMP JUMPDEST SWAP3 SWAP2 POP POP JUMP JUMPDEST PUSH0 DUP1 PUSH0 PUSH1 0x60 DUP5 DUP7 SUB SLT ISZERO PUSH2 0x221 JUMPI PUSH2 0x220 PUSH2 0x1A6 JUMP JUMPDEST JUMPDEST PUSH0 PUSH2 0x22E DUP7 DUP3 DUP8 ADD PUSH2 0x1C0 JUMP JUMPDEST SWAP4 POP POP PUSH1 0x20 PUSH2 0x23F DUP7 DUP3 DUP8 ADD PUSH2 0x1C0 JUMP JUMPDEST SWAP3 POP POP PUSH1 0x40 PUSH2 0x250 DUP7 DUP3 DUP8 ADD PUSH2 0x1F6 JUMP JUMPDEST SWAP2 POP POP SWAP3 POP SWAP3 POP SWAP3 JUMP JUMPDEST PUSH0 DUP3 DUP3 MSTORE PUSH1 0x20 DUP3 ADD SWAP1 POP SWAP3 SWAP2 POP POP JUMP JUMPDEST PUSH32 0x496E76616C6964204F7065726174696F6E000000000000000000000000000000 PUSH0 DUP3 ADD MSTORE POP JUMP JUMPDEST PUSH0 PUSH2 0x29E PUSH1 0x11 DUP4 PUSH2 0x25A JUMP JUMPDEST SWAP2 POP PUSH2 0x2A9 DUP3 PUSH2 0x26A JUMP JUMPDEST PUSH1 0x20 DUP3 ADD SWAP1 POP SWAP2 SWAP1 POP JUMP JUMPDEST PUSH0 PUSH1 0x20 DUP3 ADD SWAP1 POP DUP2 DUP2 SUB PUSH0 DUP4 ADD MSTORE PUSH2 0x2CB DUP2 PUSH2 0x292 JUMP JUMPDEST SWAP1 POP SWAP2 SWAP1 POP JUMP JUMPDEST PUSH32 0x4E487B7100000000000000000000000000000000000000000000000000000000 PUSH0 MSTORE PUSH1 0x11 PUSH1 0x4 MSTORE PUSH1 0x24 PUSH0 REVERT JUMPDEST PUSH0 PUSH2 0x309 DUP3 PUSH2 0x175 JUMP JUMPDEST SWAP2 POP PUSH2 0x314 DUP4 PUSH2 0x175 JUMP JUMPDEST SWAP3 POP DUP3 DUP3 ADD SWAP1 POP DUP1 DUP3 GT ISZERO PUSH2 0x32C JUMPI PUSH2 0x32B PUSH2 0x2D2 JUMP JUMPDEST JUMPDEST SWAP3 SWAP2 POP POP JUMP JUMPDEST PUSH0 PUSH2 0x33C DUP3 PUSH2 0x175 JUMP JUMPDEST SWAP2 POP PUSH2 0x347 DUP4 PUSH2 0x175 JUMP JUMPDEST SWAP3 POP DUP3 DUP3 SUB SWAP1 POP DUP2 DUP2 GT ISZERO PUSH2 0x35F JUMPI PUSH2 0x35E PUSH2 0x2D2 JUMP JUMPDEST JUMPDEST SWAP3 SWAP2 POP POP JUMP JUMPDEST PUSH0 PUSH2 0x36F DUP3 PUSH2 0x175 JUMP JUMPDEST SWAP2 POP PUSH2 0x37A DUP4 PUSH2 0x175 JUMP JUMPDEST SWAP3 POP DUP3 DUP3 MUL PUSH2 0x388 DUP2 PUSH2 0x175 JUMP JUMPDEST SWAP2 POP DUP3 DUP3 DIV DUP5 EQ DUP4 ISZERO OR PUSH2 0x39F JUMPI PUSH2 0x39E PUSH2 0x2D2 JUMP JUMPDEST JUMPDEST POP SWAP3 SWAP2 POP POP JUMP JUMPDEST PUSH32 0x4E487B7100000000000000000000000000000000000000000000000000000000 PUSH0 MSTORE PUSH1 0x12 PUSH1 0x4 MSTORE PUSH1 0x24 PUSH0 REVERT JUMPDEST PUSH0 PUSH2 0x3DD DUP3 PUSH2 0x175 JUMP JUMPDEST SWAP2 POP PUSH2 0x3E8 DUP4 PUSH2 0x175 JUMP JUMPDEST SWAP3 POP DUP3 PUSH2 0x3F8 JUMPI PUSH2 0x3F7 PUSH2 0x3A6 JUMP JUMPDEST JUMPDEST DUP3 DUP3 DIV SWAP1 POP SWAP3 SWAP2 POP POP JUMP INVALID LOG2 PUSH5 0x6970667358 0x22 SLT KECCAK256 SWAP10 BLOCKHASH BLOCKHASH PUSH8 0x310EB514140864B7 SWAP15 CODECOPY 0xC0 DELEGATECALL 0xCB 0xEC SWAP9 SLOAD 0xEB LOG2 0xC6 EXP BASEFEE POP STATICCALL BLOCKHASH MUL SHR 0xAB DUP14 PUSH5 0x736F6C6343 STOP ADDMOD AND STOP CALLER "
				},
				"gasEstimates": {
					"creation": {
						"codeDepositCost": "216200",
						"executionCost": "255",
						"totalCost": "216455"
					},
					"external": {
						"performOperation(uint256,uint256,uint8)": "infinite",
						"result()": "2402"
					},
					"internal": {
						"divide(uint256,uint256)": "infinite",
						"mul(uint256,uint256)": "infinite"
					}
				},
				"methodIdentifiers": {
					"performOperation(uint256,uint256,uint8)": "d595b5b7",
					"result()": "65372147"
				}
			},
			"storageLayout": {
				"storage": [
					{
						"astId": 36,
						"contract": "contracts/SolBasic.sol:AdvanceCalculator",
						"label": "result",
						"offset": 0,
						"slot": "0",
						"type": "t_uint256"
					}
				],
				"types": {
					"t_uint256": {
						"encoding": "inplace",
						"label": "uint256",
						"numberOfBytes": "32"
					}
				}
			},
			"userdoc": {
				"kind": "user",
				"methods": {},
				"version": 1
			}
		}
	}
}