{
	"contracts/Twitter.sol": {
		"Twitter": {
			"abi": [
				{
					"inputs": [
						{
							"internalType": "string",
							"name": "_tweet",
							"type": "string"
						}
					],
					"name": "crateTweet",
					"outputs": [],
					"stateMutability": "nonpayable",
					"type": "function"
				},
				{
					"inputs": [],
					"name": "getAllTweets",
					"outputs": [
						{
							"components": [
								{
									"internalType": "address",
									"name": "auther",
									"type": "address"
								},
								{
									"internalType": "string",
									"name": "content",
									"type": "string"
								},
								{
									"internalType": "uint256",
									"name": "timestamp",
									"type": "uint256"
								},
								{
									"internalType": "uint256",
									"name": "likes",
									"type": "uint256"
								}
							],
							"internalType": "struct Twitter.Tweet[]",
							"name": "",
							"type": "tuple[]"
						}
					],
					"stateMutability": "view",
					"type": "function"
				},
				{
					"inputs": [
						{
							"internalType": "uint256",
							"name": "_i",
							"type": "uint256"
						}
					],
					"name": "getTweet",
					"outputs": [
						{
							"components": [
								{
									"internalType": "address",
									"name": "auther",
									"type": "address"
								},
								{
									"internalType": "string",
									"name": "content",
									"type": "string"
								},
								{
									"internalType": "uint256",
									"name": "timestamp",
									"type": "uint256"
								},
								{
									"internalType": "uint256",
									"name": "likes",
									"type": "uint256"
								}
							],
							"internalType": "struct Twitter.Tweet",
							"name": "",
							"type": "tuple"
						}
					],
					"stateMutability": "view",
					"type": "function"
				},
				{
					"inputs": [
						{
							"internalType": "address",
							"name": "",
							"type": "address"
						},
						{
							"internalType": "uint256",
							"name": "",
							"type": "uint256"
						}
					],
					"name": "tweets",
					"outputs": [
						{
							"internalType": "address",
							"name": "auther",
							"type": "address"
						},
						{
							"internalType": "string",
							"name": "content",
							"type": "string"
						},
						{
							"internalType": "uint256",
							"name": "timestamp",
							"type": "uint256"
						},
						{
							"internalType": "uint256",
							"name": "likes",
							"type": "uint256"
						}
					],
					"stateMutability": "view",
					"type": "function"
				}
			],
			"devdoc": {
				"kind": "dev",
				"methods": {},
				"version": 1
			},
			"evm": {
				"assembly": "    /* \"contracts/Twitter.sol\":184:1133  contract Twitter {... */\n  mstore(0x40, 0x80)\n  callvalue\n  dup1\n  iszero\n  tag_1\n  jumpi\n  0x00\n  dup1\n  revert\ntag_1:\n  pop\n  dataSize(sub_0)\n  dup1\n  dataOffset(sub_0)\n  0x00\n  codecopy\n  0x00\n  return\nstop\n\nsub_0: assembly {\n        /* \"contracts/Twitter.sol\":184:1133  contract Twitter {... */\n      mstore(0x40, 0x80)\n      callvalue\n      dup1\n      iszero\n      tag_1\n      jumpi\n      0x00\n      dup1\n      revert\n    tag_1:\n      pop\n      jumpi(tag_2, lt(calldatasize, 0x04))\n      shr(0xe0, calldataload(0x00))\n      dup1\n      0x05a1b4a9\n      eq\n      tag_3\n      jumpi\n      dup1\n      0x17d7f820\n      eq\n      tag_4\n      jumpi\n      dup1\n      0x53256135\n      eq\n      tag_5\n      jumpi\n      dup1\n      0xc3ad5ecb\n      eq\n      tag_6\n      jumpi\n    tag_2:\n      0x00\n      dup1\n      revert\n        /* \"contracts/Twitter.sol\":403:444  mapping(address => Tweet[]) public tweets */\n    tag_3:\n      tag_7\n      0x04\n      dup1\n      calldatasize\n      sub\n      dup2\n      add\n      swap1\n      tag_8\n      swap2\n      swap1\n      tag_9\n      jump\t// in\n    tag_8:\n      tag_10\n      jump\t// in\n    tag_7:\n      mload(0x40)\n      tag_11\n      swap5\n      swap4\n      swap3\n      swap2\n      swap1\n      tag_12\n      jump\t// in\n    tag_11:\n      mload(0x40)\n      dup1\n      swap2\n      sub\n      swap1\n      return\n        /* \"contracts/Twitter.sol\":451:907  function crateTweet(string memory _tweet) public {... */\n    tag_4:\n      tag_13\n      0x04\n      dup1\n      calldatasize\n      sub\n      dup2\n      add\n      swap1\n      tag_14\n      swap2\n      swap1\n      tag_15\n      jump\t// in\n    tag_14:\n      tag_16\n      jump\t// in\n    tag_13:\n      stop\n        /* \"contracts/Twitter.sol\":1027:1131  function getAllTweets() public  view returns (Tweet[] memory) {... */\n    tag_5:\n      tag_17\n      tag_18\n      jump\t// in\n    tag_17:\n      mload(0x40)\n      tag_19\n      swap2\n      swap1\n      tag_20\n      jump\t// in\n    tag_19:\n      mload(0x40)\n      dup1\n      swap2\n      sub\n      swap1\n      return\n        /* \"contracts/Twitter.sol\":913:1021  function getTweet(uint _i) public view returns (Tweet memory) {... */\n    tag_6:\n      tag_21\n      0x04\n      dup1\n      calldatasize\n      sub\n      dup2\n      add\n      swap1\n      tag_22\n      swap2\n      swap1\n      tag_23\n      jump\t// in\n    tag_22:\n      tag_24\n      jump\t// in\n    tag_21:\n      mload(0x40)\n      tag_25\n      swap2\n      swap1\n      tag_26\n      jump\t// in\n    tag_25:\n      mload(0x40)\n      dup1\n      swap2\n      sub\n      swap1\n      return\n        /* \"contracts/Twitter.sol\":403:444  mapping(address => Tweet[]) public tweets */\n    tag_10:\n      mstore(0x20, 0x00)\n      dup2\n      0x00\n      mstore\n      keccak256(0x00, 0x40)\n      dup2\n      dup2\n      sload\n      dup2\n      lt\n      tag_27\n      jumpi\n      0x00\n      dup1\n      revert\n    tag_27:\n      swap1\n      0x00\n      mstore\n      keccak256(0x00, 0x20)\n      swap1\n      0x04\n      mul\n      add\n      0x00\n      swap2\n      pop\n      swap2\n      pop\n      pop\n      dup1\n      0x00\n      add\n      0x00\n      swap1\n      sload\n      swap1\n      0x0100\n      exp\n      swap1\n      div\n      0xffffffffffffffffffffffffffffffffffffffff\n      and\n      swap1\n      dup1\n      0x01\n      add\n      dup1\n      sload\n      tag_29\n      swap1\n      tag_30\n      jump\t// in\n    tag_29:\n      dup1\n      0x1f\n      add\n      0x20\n      dup1\n      swap2\n      div\n      mul\n      0x20\n      add\n      mload(0x40)\n      swap1\n      dup2\n      add\n      0x40\n      mstore\n      dup1\n      swap3\n      swap2\n      swap1\n      dup2\n      dup2\n      mstore\n      0x20\n      add\n      dup3\n      dup1\n      sload\n      tag_31\n      swap1\n      tag_30\n      jump\t// in\n    tag_31:\n      dup1\n      iszero\n      tag_32\n      jumpi\n      dup1\n      0x1f\n      lt\n      tag_33\n      jumpi\n      0x0100\n      dup1\n      dup4\n      sload\n      div\n      mul\n      dup4\n      mstore\n      swap2\n      0x20\n      add\n      swap2\n      jump(tag_32)\n    tag_33:\n      dup3\n      add\n      swap2\n      swap1\n      0x00\n      mstore\n      keccak256(0x00, 0x20)\n      swap1\n    tag_34:\n      dup2\n      sload\n      dup2\n      mstore\n      swap1\n      0x01\n      add\n      swap1\n      0x20\n      add\n      dup1\n      dup4\n      gt\n      tag_34\n      jumpi\n      dup3\n      swap1\n      sub\n      0x1f\n      and\n      dup3\n      add\n      swap2\n    tag_32:\n      pop\n      pop\n      pop\n      pop\n      pop\n      swap1\n      dup1\n      0x02\n      add\n      sload\n      swap1\n      dup1\n      0x03\n      add\n      sload\n      swap1\n      pop\n      dup5\n      jump\t// out\n        /* \"contracts/Twitter.sol\":451:907  function crateTweet(string memory _tweet) public {... */\n    tag_16:\n        /* \"contracts/Twitter.sol\":393:396  280 */\n      0x0118\n        /* \"contracts/Twitter.sol\":590:630  bytes(_tweet).length <= MAX_TWEET_LENGTH */\n      0xffff\n      and\n        /* \"contracts/Twitter.sol\":596:602  _tweet */\n      dup2\n        /* \"contracts/Twitter.sol\":590:610  bytes(_tweet).length */\n      mload\n        /* \"contracts/Twitter.sol\":590:630  bytes(_tweet).length <= MAX_TWEET_LENGTH */\n      gt\n      iszero\n        /* \"contracts/Twitter.sol\":582:681  require(bytes(_tweet).length <= MAX_TWEET_LENGTH, \"Exceeds the character limit for a single tweet\") */\n      tag_36\n      jumpi\n      mload(0x40)\n      0x08c379a000000000000000000000000000000000000000000000000000000000\n      dup2\n      mstore\n      0x04\n      add\n      tag_37\n      swap1\n      tag_38\n      jump\t// in\n    tag_37:\n      mload(0x40)\n      dup1\n      swap2\n      sub\n      swap1\n      revert\n    tag_36:\n        /* \"contracts/Twitter.sol\":692:713  Tweet memory newTweet */\n      0x00\n        /* \"contracts/Twitter.sol\":716:856  Tweet({... */\n      mload(0x40)\n      dup1\n      0x80\n      add\n      0x40\n      mstore\n      dup1\n        /* \"contracts/Twitter.sol\":744:754  msg.sender */\n      caller\n        /* \"contracts/Twitter.sol\":716:856  Tweet({... */\n      0xffffffffffffffffffffffffffffffffffffffff\n      and\n      dup2\n      mstore\n      0x20\n      add\n        /* \"contracts/Twitter.sol\":777:783  _tweet */\n      dup4\n        /* \"contracts/Twitter.sol\":716:856  Tweet({... */\n      dup2\n      mstore\n      0x20\n      add\n        /* \"contracts/Twitter.sol\":808:823  block.timestamp */\n      timestamp\n        /* \"contracts/Twitter.sol\":716:856  Tweet({... */\n      dup2\n      mstore\n      0x20\n      add\n        /* \"contracts/Twitter.sol\":844:845  0 */\n      0x00\n        /* \"contracts/Twitter.sol\":716:856  Tweet({... */\n      dup2\n      mstore\n      pop\n        /* \"contracts/Twitter.sol\":692:856  Tweet memory newTweet = Tweet({... */\n      swap1\n      pop\n        /* \"contracts/Twitter.sol\":867:873  tweets */\n      0x00\n        /* \"contracts/Twitter.sol\":867:885  tweets[msg.sender] */\n      dup1\n        /* \"contracts/Twitter.sol\":874:884  msg.sender */\n      caller\n        /* \"contracts/Twitter.sol\":867:885  tweets[msg.sender] */\n      0xffffffffffffffffffffffffffffffffffffffff\n      and\n      0xffffffffffffffffffffffffffffffffffffffff\n      and\n      dup2\n      mstore\n      0x20\n      add\n      swap1\n      dup2\n      mstore\n      0x20\n      add\n      0x00\n      keccak256\n        /* \"contracts/Twitter.sol\":891:899  newTweet */\n      dup2\n        /* \"contracts/Twitter.sol\":867:900  tweets[msg.sender].push(newTweet) */\n      swap1\n      dup1\n      0x01\n      dup2\n      sload\n      add\n      dup1\n      dup3\n      sstore\n      dup1\n      swap2\n      pop\n      pop\n      0x01\n      swap1\n      sub\n      swap1\n      0x00\n      mstore\n      keccak256(0x00, 0x20)\n      swap1\n      0x04\n      mul\n      add\n      0x00\n      swap1\n      swap2\n      swap1\n      swap2\n      swap1\n      swap2\n      pop\n      0x00\n      dup3\n      add\n      mload\n      dup2\n      0x00\n      add\n      exp(0x0100, 0x00)\n      dup2\n      sload\n      dup2\n      0xffffffffffffffffffffffffffffffffffffffff\n      mul\n      not\n      and\n      swap1\n      dup4\n      0xffffffffffffffffffffffffffffffffffffffff\n      and\n      mul\n      or\n      swap1\n      sstore\n      pop\n      0x20\n      dup3\n      add\n      mload\n      dup2\n      0x01\n      add\n      swap1\n      dup2\n      tag_40\n      swap2\n      swap1\n      tag_41\n      jump\t// in\n    tag_40:\n      pop\n      0x40\n      dup3\n      add\n      mload\n      dup2\n      0x02\n      add\n      sstore\n      0x60\n      dup3\n      add\n      mload\n      dup2\n      0x03\n      add\n      sstore\n      pop\n      pop\n        /* \"contracts/Twitter.sol\":500:907  {... */\n      pop\n        /* \"contracts/Twitter.sol\":451:907  function crateTweet(string memory _tweet) public {... */\n      pop\n      jump\t// out\n        /* \"contracts/Twitter.sol\":1027:1131  function getAllTweets() public  view returns (Tweet[] memory) {... */\n    tag_18:\n        /* \"contracts/Twitter.sol\":1073:1087  Tweet[] memory */\n      0x60\n        /* \"contracts/Twitter.sol\":1106:1112  tweets */\n      0x00\n        /* \"contracts/Twitter.sol\":1106:1124  tweets[msg.sender] */\n      dup1\n        /* \"contracts/Twitter.sol\":1113:1123  msg.sender */\n      caller\n        /* \"contracts/Twitter.sol\":1106:1124  tweets[msg.sender] */\n      0xffffffffffffffffffffffffffffffffffffffff\n      and\n      0xffffffffffffffffffffffffffffffffffffffff\n      and\n      dup2\n      mstore\n      0x20\n      add\n      swap1\n      dup2\n      mstore\n      0x20\n      add\n      0x00\n      keccak256\n        /* \"contracts/Twitter.sol\":1099:1124  return tweets[msg.sender] */\n      dup1\n      sload\n      dup1\n      0x20\n      mul\n      0x20\n      add\n      mload(0x40)\n      swap1\n      dup2\n      add\n      0x40\n      mstore\n      dup1\n      swap3\n      swap2\n      swap1\n      dup2\n      dup2\n      mstore\n      0x20\n      add\n      0x00\n      swap1\n    tag_43:\n      dup3\n      dup3\n      lt\n      iszero\n      tag_44\n      jumpi\n      dup4\n      dup3\n      swap1\n      0x00\n      mstore\n      keccak256(0x00, 0x20)\n      swap1\n      0x04\n      mul\n      add\n      mload(0x40)\n      dup1\n      0x80\n      add\n      0x40\n      mstore\n      swap1\n      dup2\n      0x00\n      dup3\n      add\n      0x00\n      swap1\n      sload\n      swap1\n      0x0100\n      exp\n      swap1\n      div\n      0xffffffffffffffffffffffffffffffffffffffff\n      and\n      0xffffffffffffffffffffffffffffffffffffffff\n      and\n      0xffffffffffffffffffffffffffffffffffffffff\n      and\n      dup2\n      mstore\n      0x20\n      add\n      0x01\n      dup3\n      add\n      dup1\n      sload\n      tag_46\n      swap1\n      tag_30\n      jump\t// in\n    tag_46:\n      dup1\n      0x1f\n      add\n      0x20\n      dup1\n      swap2\n      div\n      mul\n      0x20\n      add\n      mload(0x40)\n      swap1\n      dup2\n      add\n      0x40\n      mstore\n      dup1\n      swap3\n      swap2\n      swap1\n      dup2\n      dup2\n      mstore\n      0x20\n      add\n      dup3\n      dup1\n      sload\n      tag_47\n      swap1\n      tag_30\n      jump\t// in\n    tag_47:\n      dup1\n      iszero\n      tag_48\n      jumpi\n      dup1\n      0x1f\n      lt\n      tag_49\n      jumpi\n      0x0100\n      dup1\n      dup4\n      sload\n      div\n      mul\n      dup4\n      mstore\n      swap2\n      0x20\n      add\n      swap2\n      jump(tag_48)\n    tag_49:\n      dup3\n      add\n      swap2\n      swap1\n      0x00\n      mstore\n      keccak256(0x00, 0x20)\n      swap1\n    tag_50:\n      dup2\n      sload\n      dup2\n      mstore\n      swap1\n      0x01\n      add\n      swap1\n      0x20\n      add\n      dup1\n      dup4\n      gt\n      tag_50\n      jumpi\n      dup3\n      swap1\n      sub\n      0x1f\n      and\n      dup3\n      add\n      swap2\n    tag_48:\n      pop\n      pop\n      pop\n      pop\n      pop\n      dup2\n      mstore\n      0x20\n      add\n      0x02\n      dup3\n      add\n      sload\n      dup2\n      mstore\n      0x20\n      add\n      0x03\n      dup3\n      add\n      sload\n      dup2\n      mstore\n      pop\n      pop\n      dup2\n      mstore\n      0x20\n      add\n      swap1\n      0x01\n      add\n      swap1\n      jump(tag_43)\n    tag_44:\n      pop\n      pop\n      pop\n      pop\n      swap1\n      pop\n        /* \"contracts/Twitter.sol\":1027:1131  function getAllTweets() public  view returns (Tweet[] memory) {... */\n      swap1\n      jump\t// out\n        /* \"contracts/Twitter.sol\":913:1021  function getTweet(uint _i) public view returns (Tweet memory) {... */\n    tag_24:\n        /* \"contracts/Twitter.sol\":961:973  Tweet memory */\n      tag_51\n      tag_52\n      jump\t// in\n    tag_51:\n        /* \"contracts/Twitter.sol\":992:998  tweets */\n      0x00\n        /* \"contracts/Twitter.sol\":992:1010  tweets[msg.sender] */\n      dup1\n        /* \"contracts/Twitter.sol\":999:1009  msg.sender */\n      caller\n        /* \"contracts/Twitter.sol\":992:1010  tweets[msg.sender] */\n      0xffffffffffffffffffffffffffffffffffffffff\n      and\n      0xffffffffffffffffffffffffffffffffffffffff\n      and\n      dup2\n      mstore\n      0x20\n      add\n      swap1\n      dup2\n      mstore\n      0x20\n      add\n      0x00\n      keccak256\n        /* \"contracts/Twitter.sol\":1011:1013  _i */\n      dup3\n        /* \"contracts/Twitter.sol\":992:1014  tweets[msg.sender][_i] */\n      dup2\n      sload\n      dup2\n      lt\n      tag_54\n      jumpi\n      tag_55\n      tag_56\n      jump\t// in\n    tag_55:\n    tag_54:\n      swap1\n      0x00\n      mstore\n      keccak256(0x00, 0x20)\n      swap1\n      0x04\n      mul\n      add\n        /* \"contracts/Twitter.sol\":985:1014  return tweets[msg.sender][_i] */\n      mload(0x40)\n      dup1\n      0x80\n      add\n      0x40\n      mstore\n      swap1\n      dup2\n      0x00\n      dup3\n      add\n      0x00\n      swap1\n      sload\n      swap1\n      0x0100\n      exp\n      swap1\n      div\n      0xffffffffffffffffffffffffffffffffffffffff\n      and\n      0xffffffffffffffffffffffffffffffffffffffff\n      and\n      0xffffffffffffffffffffffffffffffffffffffff\n      and\n      dup2\n      mstore\n      0x20\n      add\n      0x01\n      dup3\n      add\n      dup1\n      sload\n      tag_58\n      swap1\n      tag_30\n      jump\t// in\n    tag_58:\n      dup1\n      0x1f\n      add\n      0x20\n      dup1\n      swap2\n      div\n      mul\n      0x20\n      add\n      mload(0x40)\n      swap1\n      dup2\n      add\n      0x40\n      mstore\n      dup1\n      swap3\n      swap2\n      swap1\n      dup2\n      dup2\n      mstore\n      0x20\n      add\n      dup3\n      dup1\n      sload\n      tag_59\n      swap1\n      tag_30\n      jump\t// in\n    tag_59:\n      dup1\n      iszero\n      tag_60\n      jumpi\n      dup1\n      0x1f\n      lt\n      tag_61\n      jumpi\n      0x0100\n      dup1\n      dup4\n      sload\n      div\n      mul\n      dup4\n      mstore\n      swap2\n      0x20\n      add\n      swap2\n      jump(tag_60)\n    tag_61:\n      dup3\n      add\n      swap2\n      swap1\n      0x00\n      mstore\n      keccak256(0x00, 0x20)\n      swap1\n    tag_62:\n      dup2\n      sload\n      dup2\n      mstore\n      swap1\n      0x01\n      add\n      swap1\n      0x20\n      add\n      dup1\n      dup4\n      gt\n      tag_62\n      jumpi\n      dup3\n      swap1\n      sub\n      0x1f\n      and\n      dup3\n      add\n      swap2\n    tag_60:\n      pop\n      pop\n      pop\n      pop\n      pop\n      dup2\n      mstore\n      0x20\n      add\n      0x02\n      dup3\n      add\n      sload\n      dup2\n      mstore\n      0x20\n      add\n      0x03\n      dup3\n      add\n      sload\n      dup2\n      mstore\n      pop\n      pop\n      swap1\n      pop\n        /* \"contracts/Twitter.sol\":913:1021  function getTweet(uint _i) public view returns (Tweet memory) {... */\n      swap2\n      swap1\n      pop\n      jump\t// out\n    tag_52:\n      mload(0x40)\n      dup1\n      0x80\n      add\n      0x40\n      mstore\n      dup1\n      and(0xffffffffffffffffffffffffffffffffffffffff, 0x00)\n      dup2\n      mstore\n      0x20\n      add\n      0x60\n      dup2\n      mstore\n      0x20\n      add\n      0x00\n      dup2\n      mstore\n      0x20\n      add\n      0x00\n      dup2\n      mstore\n      pop\n      swap1\n      jump\t// out\n        /* \"#utility.yul\":7:82   */\n    tag_63:\n        /* \"#utility.yul\":40:46   */\n      0x00\n        /* \"#utility.yul\":73:75   */\n      0x40\n        /* \"#utility.yul\":67:76   */\n      mload\n        /* \"#utility.yul\":57:76   */\n      swap1\n      pop\n        /* \"#utility.yul\":7:82   */\n      swap1\n      jump\t// out\n        /* \"#utility.yul\":88:205   */\n    tag_64:\n        /* \"#utility.yul\":197:198   */\n      0x00\n        /* \"#utility.yul\":194:195   */\n      dup1\n        /* \"#utility.yul\":187:199   */\n      revert\n        /* \"#utility.yul\":211:328   */\n    tag_65:\n        /* \"#utility.yul\":320:321   */\n      0x00\n        /* \"#utility.yul\":317:318   */\n      dup1\n        /* \"#utility.yul\":310:322   */\n      revert\n        /* \"#utility.yul\":334:460   */\n    tag_66:\n        /* \"#utility.yul\":371:378   */\n      0x00\n        /* \"#utility.yul\":411:453   */\n      0xffffffffffffffffffffffffffffffffffffffff\n        /* \"#utility.yul\":404:409   */\n      dup3\n        /* \"#utility.yul\":400:454   */\n      and\n        /* \"#utility.yul\":389:454   */\n      swap1\n      pop\n        /* \"#utility.yul\":334:460   */\n      swap2\n      swap1\n      pop\n      jump\t// out\n        /* \"#utility.yul\":466:562   */\n    tag_67:\n        /* \"#utility.yul\":503:510   */\n      0x00\n        /* \"#utility.yul\":532:556   */\n      tag_125\n        /* \"#utility.yul\":550:555   */\n      dup3\n        /* \"#utility.yul\":532:556   */\n      tag_66\n      jump\t// in\n    tag_125:\n        /* \"#utility.yul\":521:556   */\n      swap1\n      pop\n        /* \"#utility.yul\":466:562   */\n      swap2\n      swap1\n      pop\n      jump\t// out\n        /* \"#utility.yul\":568:690   */\n    tag_68:\n        /* \"#utility.yul\":641:665   */\n      tag_127\n        /* \"#utility.yul\":659:664   */\n      dup2\n        /* \"#utility.yul\":641:665   */\n      tag_67\n      jump\t// in\n    tag_127:\n        /* \"#utility.yul\":634:639   */\n      dup2\n        /* \"#utility.yul\":631:666   */\n      eq\n        /* \"#utility.yul\":621:684   */\n      tag_128\n      jumpi\n        /* \"#utility.yul\":680:681   */\n      0x00\n        /* \"#utility.yul\":677:678   */\n      dup1\n        /* \"#utility.yul\":670:682   */\n      revert\n        /* \"#utility.yul\":621:684   */\n    tag_128:\n        /* \"#utility.yul\":568:690   */\n      pop\n      jump\t// out\n        /* \"#utility.yul\":696:835   */\n    tag_69:\n        /* \"#utility.yul\":742:747   */\n      0x00\n        /* \"#utility.yul\":780:786   */\n      dup2\n        /* \"#utility.yul\":767:787   */\n      calldataload\n        /* \"#utility.yul\":758:787   */\n      swap1\n      pop\n        /* \"#utility.yul\":796:829   */\n      tag_130\n        /* \"#utility.yul\":823:828   */\n      dup2\n        /* \"#utility.yul\":796:829   */\n      tag_68\n      jump\t// in\n    tag_130:\n        /* \"#utility.yul\":696:835   */\n      swap3\n      swap2\n      pop\n      pop\n      jump\t// out\n        /* \"#utility.yul\":841:918   */\n    tag_70:\n        /* \"#utility.yul\":878:885   */\n      0x00\n        /* \"#utility.yul\":907:912   */\n      dup2\n        /* \"#utility.yul\":896:912   */\n      swap1\n      pop\n        /* \"#utility.yul\":841:918   */\n      swap2\n      swap1\n      pop\n      jump\t// out\n        /* \"#utility.yul\":924:1046   */\n    tag_71:\n        /* \"#utility.yul\":997:1021   */\n      tag_133\n        /* \"#utility.yul\":1015:1020   */\n      dup2\n        /* \"#utility.yul\":997:1021   */\n      tag_70\n      jump\t// in\n    tag_133:\n        /* \"#utility.yul\":990:995   */\n      dup2\n        /* \"#utility.yul\":987:1022   */\n      eq\n        /* \"#utility.yul\":977:1040   */\n      tag_134\n      jumpi\n        /* \"#utility.yul\":1036:1037   */\n      0x00\n        /* \"#utility.yul\":1033:1034   */\n      dup1\n        /* \"#utility.yul\":1026:1038   */\n      revert\n        /* \"#utility.yul\":977:1040   */\n    tag_134:\n        /* \"#utility.yul\":924:1046   */\n      pop\n      jump\t// out\n        /* \"#utility.yul\":1052:1191   */\n    tag_72:\n        /* \"#utility.yul\":1098:1103   */\n      0x00\n        /* \"#utility.yul\":1136:1142   */\n      dup2\n        /* \"#utility.yul\":1123:1143   */\n      calldataload\n        /* \"#utility.yul\":1114:1143   */\n      swap1\n      pop\n        /* \"#utility.yul\":1152:1185   */\n      tag_136\n        /* \"#utility.yul\":1179:1184   */\n      dup2\n        /* \"#utility.yul\":1152:1185   */\n      tag_71\n      jump\t// in\n    tag_136:\n        /* \"#utility.yul\":1052:1191   */\n      swap3\n      swap2\n      pop\n      pop\n      jump\t// out\n        /* \"#utility.yul\":1197:1671   */\n    tag_9:\n        /* \"#utility.yul\":1265:1271   */\n      0x00\n        /* \"#utility.yul\":1273:1279   */\n      dup1\n        /* \"#utility.yul\":1322:1324   */\n      0x40\n        /* \"#utility.yul\":1310:1319   */\n      dup4\n        /* \"#utility.yul\":1301:1308   */\n      dup6\n        /* \"#utility.yul\":1297:1320   */\n      sub\n        /* \"#utility.yul\":1293:1325   */\n      slt\n        /* \"#utility.yul\":1290:1409   */\n      iszero\n      tag_138\n      jumpi\n        /* \"#utility.yul\":1328:1407   */\n      tag_139\n      tag_64\n      jump\t// in\n    tag_139:\n        /* \"#utility.yul\":1290:1409   */\n    tag_138:\n        /* \"#utility.yul\":1448:1449   */\n      0x00\n        /* \"#utility.yul\":1473:1526   */\n      tag_140\n        /* \"#utility.yul\":1518:1525   */\n      dup6\n        /* \"#utility.yul\":1509:1515   */\n      dup3\n        /* \"#utility.yul\":1498:1507   */\n      dup7\n        /* \"#utility.yul\":1494:1516   */\n      add\n        /* \"#utility.yul\":1473:1526   */\n      tag_69\n      jump\t// in\n    tag_140:\n        /* \"#utility.yul\":1463:1526   */\n      swap3\n      pop\n        /* \"#utility.yul\":1419:1536   */\n      pop\n        /* \"#utility.yul\":1575:1577   */\n      0x20\n        /* \"#utility.yul\":1601:1654   */\n      tag_141\n        /* \"#utility.yul\":1646:1653   */\n      dup6\n        /* \"#utility.yul\":1637:1643   */\n      dup3\n        /* \"#utility.yul\":1626:1635   */\n      dup7\n        /* \"#utility.yul\":1622:1644   */\n      add\n        /* \"#utility.yul\":1601:1654   */\n      tag_72\n      jump\t// in\n    tag_141:\n        /* \"#utility.yul\":1591:1654   */\n      swap2\n      pop\n        /* \"#utility.yul\":1546:1664   */\n      pop\n        /* \"#utility.yul\":1197:1671   */\n      swap3\n      pop\n      swap3\n      swap1\n      pop\n      jump\t// out\n        /* \"#utility.yul\":1677:1795   */\n    tag_73:\n        /* \"#utility.yul\":1764:1788   */\n      tag_143\n        /* \"#utility.yul\":1782:1787   */\n      dup2\n        /* \"#utility.yul\":1764:1788   */\n      tag_67\n      jump\t// in\n    tag_143:\n        /* \"#utility.yul\":1759:1762   */\n      dup3\n        /* \"#utility.yul\":1752:1789   */\n      mstore\n        /* \"#utility.yul\":1677:1795   */\n      pop\n      pop\n      jump\t// out\n        /* \"#utility.yul\":1801:1900   */\n    tag_74:\n        /* \"#utility.yul\":1853:1859   */\n      0x00\n        /* \"#utility.yul\":1887:1892   */\n      dup2\n        /* \"#utility.yul\":1881:1893   */\n      mload\n        /* \"#utility.yul\":1871:1893   */\n      swap1\n      pop\n        /* \"#utility.yul\":1801:1900   */\n      swap2\n      swap1\n      pop\n      jump\t// out\n        /* \"#utility.yul\":1906:2075   */\n    tag_75:\n        /* \"#utility.yul\":1990:2001   */\n      0x00\n        /* \"#utility.yul\":2024:2030   */\n      dup3\n        /* \"#utility.yul\":2019:2022   */\n      dup3\n        /* \"#utility.yul\":2012:2031   */\n      mstore\n        /* \"#utility.yul\":2064:2068   */\n      0x20\n        /* \"#utility.yul\":2059:2062   */\n      dup3\n        /* \"#utility.yul\":2055:2069   */\n      add\n        /* \"#utility.yul\":2040:2069   */\n      swap1\n      pop\n        /* \"#utility.yul\":1906:2075   */\n      swap3\n      swap2\n      pop\n      pop\n      jump\t// out\n        /* \"#utility.yul\":2081:2327   */\n    tag_76:\n        /* \"#utility.yul\":2162:2163   */\n      0x00\n        /* \"#utility.yul\":2172:2285   */\n    tag_147:\n        /* \"#utility.yul\":2186:2192   */\n      dup4\n        /* \"#utility.yul\":2183:2184   */\n      dup2\n        /* \"#utility.yul\":2180:2193   */\n      lt\n        /* \"#utility.yul\":2172:2285   */\n      iszero\n      tag_149\n      jumpi\n        /* \"#utility.yul\":2271:2272   */\n      dup1\n        /* \"#utility.yul\":2266:2269   */\n      dup3\n        /* \"#utility.yul\":2262:2273   */\n      add\n        /* \"#utility.yul\":2256:2274   */\n      mload\n        /* \"#utility.yul\":2252:2253   */\n      dup2\n        /* \"#utility.yul\":2247:2250   */\n      dup5\n        /* \"#utility.yul\":2243:2254   */\n      add\n        /* \"#utility.yul\":2236:2275   */\n      mstore\n        /* \"#utility.yul\":2208:2210   */\n      0x20\n        /* \"#utility.yul\":2205:2206   */\n      dup2\n        /* \"#utility.yul\":2201:2211   */\n      add\n        /* \"#utility.yul\":2196:2211   */\n      swap1\n      pop\n        /* \"#utility.yul\":2172:2285   */\n      jump(tag_147)\n    tag_149:\n        /* \"#utility.yul\":2319:2320   */\n      0x00\n        /* \"#utility.yul\":2310:2316   */\n      dup5\n        /* \"#utility.yul\":2305:2308   */\n      dup5\n        /* \"#utility.yul\":2301:2317   */\n      add\n        /* \"#utility.yul\":2294:2321   */\n      mstore\n        /* \"#utility.yul\":2143:2327   */\n      pop\n        /* \"#utility.yul\":2081:2327   */\n      pop\n      pop\n      pop\n      jump\t// out\n        /* \"#utility.yul\":2333:2435   */\n    tag_77:\n        /* \"#utility.yul\":2374:2380   */\n      0x00\n        /* \"#utility.yul\":2425:2427   */\n      0x1f\n        /* \"#utility.yul\":2421:2428   */\n      not\n        /* \"#utility.yul\":2416:2418   */\n      0x1f\n        /* \"#utility.yul\":2409:2414   */\n      dup4\n        /* \"#utility.yul\":2405:2419   */\n      add\n        /* \"#utility.yul\":2401:2429   */\n      and\n        /* \"#utility.yul\":2391:2429   */\n      swap1\n      pop\n        /* \"#utility.yul\":2333:2435   */\n      swap2\n      swap1\n      pop\n      jump\t// out\n        /* \"#utility.yul\":2441:2818   */\n    tag_78:\n        /* \"#utility.yul\":2529:2532   */\n      0x00\n        /* \"#utility.yul\":2557:2596   */\n      tag_152\n        /* \"#utility.yul\":2590:2595   */\n      dup3\n        /* \"#utility.yul\":2557:2596   */\n      tag_74\n      jump\t// in\n    tag_152:\n        /* \"#utility.yul\":2612:2683   */\n      tag_153\n        /* \"#utility.yul\":2676:2682   */\n      dup2\n        /* \"#utility.yul\":2671:2674   */\n      dup6\n        /* \"#utility.yul\":2612:2683   */\n      tag_75\n      jump\t// in\n    tag_153:\n        /* \"#utility.yul\":2605:2683   */\n      swap4\n      pop\n        /* \"#utility.yul\":2692:2757   */\n      tag_154\n        /* \"#utility.yul\":2750:2756   */\n      dup2\n        /* \"#utility.yul\":2745:2748   */\n      dup6\n        /* \"#utility.yul\":2738:2742   */\n      0x20\n        /* \"#utility.yul\":2731:2736   */\n      dup7\n        /* \"#utility.yul\":2727:2743   */\n      add\n        /* \"#utility.yul\":2692:2757   */\n      tag_76\n      jump\t// in\n    tag_154:\n        /* \"#utility.yul\":2782:2811   */\n      tag_155\n        /* \"#utility.yul\":2804:2810   */\n      dup2\n        /* \"#utility.yul\":2782:2811   */\n      tag_77\n      jump\t// in\n    tag_155:\n        /* \"#utility.yul\":2777:2780   */\n      dup5\n        /* \"#utility.yul\":2773:2812   */\n      add\n        /* \"#utility.yul\":2766:2812   */\n      swap2\n      pop\n        /* \"#utility.yul\":2533:2818   */\n      pop\n        /* \"#utility.yul\":2441:2818   */\n      swap3\n      swap2\n      pop\n      pop\n      jump\t// out\n        /* \"#utility.yul\":2824:2942   */\n    tag_79:\n        /* \"#utility.yul\":2911:2935   */\n      tag_157\n        /* \"#utility.yul\":2929:2934   */\n      dup2\n        /* \"#utility.yul\":2911:2935   */\n      tag_70\n      jump\t// in\n    tag_157:\n        /* \"#utility.yul\":2906:2909   */\n      dup3\n        /* \"#utility.yul\":2899:2936   */\n      mstore\n        /* \"#utility.yul\":2824:2942   */\n      pop\n      pop\n      jump\t// out\n        /* \"#utility.yul\":2948:3592   */\n    tag_12:\n        /* \"#utility.yul\":3145:3149   */\n      0x00\n        /* \"#utility.yul\":3183:3186   */\n      0x80\n        /* \"#utility.yul\":3172:3181   */\n      dup3\n        /* \"#utility.yul\":3168:3187   */\n      add\n        /* \"#utility.yul\":3160:3187   */\n      swap1\n      pop\n        /* \"#utility.yul\":3197:3268   */\n      tag_159\n        /* \"#utility.yul\":3265:3266   */\n      0x00\n        /* \"#utility.yul\":3254:3263   */\n      dup4\n        /* \"#utility.yul\":3250:3267   */\n      add\n        /* \"#utility.yul\":3241:3247   */\n      dup8\n        /* \"#utility.yul\":3197:3268   */\n      tag_73\n      jump\t// in\n    tag_159:\n        /* \"#utility.yul\":3315:3324   */\n      dup2\n        /* \"#utility.yul\":3309:3313   */\n      dup2\n        /* \"#utility.yul\":3305:3325   */\n      sub\n        /* \"#utility.yul\":3300:3302   */\n      0x20\n        /* \"#utility.yul\":3289:3298   */\n      dup4\n        /* \"#utility.yul\":3285:3303   */\n      add\n        /* \"#utility.yul\":3278:3326   */\n      mstore\n        /* \"#utility.yul\":3343:3421   */\n      tag_160\n        /* \"#utility.yul\":3416:3420   */\n      dup2\n        /* \"#utility.yul\":3407:3413   */\n      dup7\n        /* \"#utility.yul\":3343:3421   */\n      tag_78\n      jump\t// in\n    tag_160:\n        /* \"#utility.yul\":3335:3421   */\n      swap1\n      pop\n        /* \"#utility.yul\":3431:3503   */\n      tag_161\n        /* \"#utility.yul\":3499:3501   */\n      0x40\n        /* \"#utility.yul\":3488:3497   */\n      dup4\n        /* \"#utility.yul\":3484:3502   */\n      add\n        /* \"#utility.yul\":3475:3481   */\n      dup6\n        /* \"#utility.yul\":3431:3503   */\n      tag_79\n      jump\t// in\n    tag_161:\n        /* \"#utility.yul\":3513:3585   */\n      tag_162\n        /* \"#utility.yul\":3581:3583   */\n      0x60\n        /* \"#utility.yul\":3570:3579   */\n      dup4\n        /* \"#utility.yul\":3566:3584   */\n      add\n        /* \"#utility.yul\":3557:3563   */\n      dup5\n        /* \"#utility.yul\":3513:3585   */\n      tag_79\n      jump\t// in\n    tag_162:\n        /* \"#utility.yul\":2948:3592   */\n      swap6\n      swap5\n      pop\n      pop\n      pop\n      pop\n      pop\n      jump\t// out\n        /* \"#utility.yul\":3598:3715   */\n    tag_80:\n        /* \"#utility.yul\":3707:3708   */\n      0x00\n        /* \"#utility.yul\":3704:3705   */\n      dup1\n        /* \"#utility.yul\":3697:3709   */\n      revert\n        /* \"#utility.yul\":3721:3838   */\n    tag_81:\n        /* \"#utility.yul\":3830:3831   */\n      0x00\n        /* \"#utility.yul\":3827:3828   */\n      dup1\n        /* \"#utility.yul\":3820:3832   */\n      revert\n        /* \"#utility.yul\":3844:4024   */\n    tag_82:\n        /* \"#utility.yul\":3892:3969   */\n      0x4e487b7100000000000000000000000000000000000000000000000000000000\n        /* \"#utility.yul\":3889:3890   */\n      0x00\n        /* \"#utility.yul\":3882:3970   */\n      mstore\n        /* \"#utility.yul\":3989:3993   */\n      0x41\n        /* \"#utility.yul\":3986:3987   */\n      0x04\n        /* \"#utility.yul\":3979:3994   */\n      mstore\n        /* \"#utility.yul\":4013:4017   */\n      0x24\n        /* \"#utility.yul\":4010:4011   */\n      0x00\n        /* \"#utility.yul\":4003:4018   */\n      revert\n        /* \"#utility.yul\":4030:4311   */\n    tag_83:\n        /* \"#utility.yul\":4113:4140   */\n      tag_167\n        /* \"#utility.yul\":4135:4139   */\n      dup3\n        /* \"#utility.yul\":4113:4140   */\n      tag_77\n      jump\t// in\n    tag_167:\n        /* \"#utility.yul\":4105:4111   */\n      dup2\n        /* \"#utility.yul\":4101:4141   */\n      add\n        /* \"#utility.yul\":4243:4249   */\n      dup2\n        /* \"#utility.yul\":4231:4241   */\n      dup2\n        /* \"#utility.yul\":4228:4250   */\n      lt\n        /* \"#utility.yul\":4207:4225   */\n      0xffffffffffffffff\n        /* \"#utility.yul\":4195:4205   */\n      dup3\n        /* \"#utility.yul\":4192:4226   */\n      gt\n        /* \"#utility.yul\":4189:4251   */\n      or\n        /* \"#utility.yul\":4186:4274   */\n      iszero\n      tag_168\n      jumpi\n        /* \"#utility.yul\":4254:4272   */\n      tag_169\n      tag_82\n      jump\t// in\n    tag_169:\n        /* \"#utility.yul\":4186:4274   */\n    tag_168:\n        /* \"#utility.yul\":4294:4304   */\n      dup1\n        /* \"#utility.yul\":4290:4292   */\n      0x40\n        /* \"#utility.yul\":4283:4305   */\n      mstore\n        /* \"#utility.yul\":4073:4311   */\n      pop\n        /* \"#utility.yul\":4030:4311   */\n      pop\n      pop\n      jump\t// out\n        /* \"#utility.yul\":4317:4446   */\n    tag_84:\n        /* \"#utility.yul\":4351:4357   */\n      0x00\n        /* \"#utility.yul\":4378:4398   */\n      tag_171\n      tag_63\n      jump\t// in\n    tag_171:\n        /* \"#utility.yul\":4368:4398   */\n      swap1\n      pop\n        /* \"#utility.yul\":4407:4440   */\n      tag_172\n        /* \"#utility.yul\":4435:4439   */\n      dup3\n        /* \"#utility.yul\":4427:4433   */\n      dup3\n        /* \"#utility.yul\":4407:4440   */\n      tag_83\n      jump\t// in\n    tag_172:\n        /* \"#utility.yul\":4317:4446   */\n      swap2\n      swap1\n      pop\n      jump\t// out\n        /* \"#utility.yul\":4452:4760   */\n    tag_85:\n        /* \"#utility.yul\":4514:4518   */\n      0x00\n        /* \"#utility.yul\":4604:4622   */\n      0xffffffffffffffff\n        /* \"#utility.yul\":4596:4602   */\n      dup3\n        /* \"#utility.yul\":4593:4623   */\n      gt\n        /* \"#utility.yul\":4590:4646   */\n      iszero\n      tag_174\n      jumpi\n        /* \"#utility.yul\":4626:4644   */\n      tag_175\n      tag_82\n      jump\t// in\n    tag_175:\n        /* \"#utility.yul\":4590:4646   */\n    tag_174:\n        /* \"#utility.yul\":4664:4693   */\n      tag_176\n        /* \"#utility.yul\":4686:4692   */\n      dup3\n        /* \"#utility.yul\":4664:4693   */\n      tag_77\n      jump\t// in\n    tag_176:\n        /* \"#utility.yul\":4656:4693   */\n      swap1\n      pop\n        /* \"#utility.yul\":4748:4752   */\n      0x20\n        /* \"#utility.yul\":4742:4746   */\n      dup2\n        /* \"#utility.yul\":4738:4753   */\n      add\n        /* \"#utility.yul\":4730:4753   */\n      swap1\n      pop\n        /* \"#utility.yul\":4452:4760   */\n      swap2\n      swap1\n      pop\n      jump\t// out\n        /* \"#utility.yul\":4766:4912   */\n    tag_86:\n        /* \"#utility.yul\":4863:4869   */\n      dup3\n        /* \"#utility.yul\":4858:4861   */\n      dup2\n        /* \"#utility.yul\":4853:4856   */\n      dup4\n        /* \"#utility.yul\":4840:4870   */\n      calldatacopy\n        /* \"#utility.yul\":4904:4905   */\n      0x00\n        /* \"#utility.yul\":4895:4901   */\n      dup4\n        /* \"#utility.yul\":4890:4893   */\n      dup4\n        /* \"#utility.yul\":4886:4902   */\n      add\n        /* \"#utility.yul\":4879:4906   */\n      mstore\n        /* \"#utility.yul\":4766:4912   */\n      pop\n      pop\n      pop\n      jump\t// out\n        /* \"#utility.yul\":4918:5343   */\n    tag_87:\n        /* \"#utility.yul\":4996:5001   */\n      0x00\n        /* \"#utility.yul\":5021:5087   */\n      tag_179\n        /* \"#utility.yul\":5037:5086   */\n      tag_180\n        /* \"#utility.yul\":5079:5085   */\n      dup5\n        /* \"#utility.yul\":5037:5086   */\n      tag_85\n      jump\t// in\n    tag_180:\n        /* \"#utility.yul\":5021:5087   */\n      tag_84\n      jump\t// in\n    tag_179:\n        /* \"#utility.yul\":5012:5087   */\n      swap1\n      pop\n        /* \"#utility.yul\":5110:5116   */\n      dup3\n        /* \"#utility.yul\":5103:5108   */\n      dup2\n        /* \"#utility.yul\":5096:5117   */\n      mstore\n        /* \"#utility.yul\":5148:5152   */\n      0x20\n        /* \"#utility.yul\":5141:5146   */\n      dup2\n        /* \"#utility.yul\":5137:5153   */\n      add\n        /* \"#utility.yul\":5186:5189   */\n      dup5\n        /* \"#utility.yul\":5177:5183   */\n      dup5\n        /* \"#utility.yul\":5172:5175   */\n      dup5\n        /* \"#utility.yul\":5168:5184   */\n      add\n        /* \"#utility.yul\":5165:5190   */\n      gt\n        /* \"#utility.yul\":5162:5274   */\n      iszero\n      tag_181\n      jumpi\n        /* \"#utility.yul\":5193:5272   */\n      tag_182\n      tag_81\n      jump\t// in\n    tag_182:\n        /* \"#utility.yul\":5162:5274   */\n    tag_181:\n        /* \"#utility.yul\":5283:5337   */\n      tag_183\n        /* \"#utility.yul\":5330:5336   */\n      dup5\n        /* \"#utility.yul\":5325:5328   */\n      dup3\n        /* \"#utility.yul\":5320:5323   */\n      dup6\n        /* \"#utility.yul\":5283:5337   */\n      tag_86\n      jump\t// in\n    tag_183:\n        /* \"#utility.yul\":5002:5343   */\n      pop\n        /* \"#utility.yul\":4918:5343   */\n      swap4\n      swap3\n      pop\n      pop\n      pop\n      jump\t// out\n        /* \"#utility.yul\":5363:5703   */\n    tag_88:\n        /* \"#utility.yul\":5419:5424   */\n      0x00\n        /* \"#utility.yul\":5468:5471   */\n      dup3\n        /* \"#utility.yul\":5461:5465   */\n      0x1f\n        /* \"#utility.yul\":5453:5459   */\n      dup4\n        /* \"#utility.yul\":5449:5466   */\n      add\n        /* \"#utility.yul\":5445:5472   */\n      slt\n        /* \"#utility.yul\":5435:5557   */\n      tag_185\n      jumpi\n        /* \"#utility.yul\":5476:5555   */\n      tag_186\n      tag_80\n      jump\t// in\n    tag_186:\n        /* \"#utility.yul\":5435:5557   */\n    tag_185:\n        /* \"#utility.yul\":5593:5599   */\n      dup2\n        /* \"#utility.yul\":5580:5600   */\n      calldataload\n        /* \"#utility.yul\":5618:5697   */\n      tag_187\n        /* \"#utility.yul\":5693:5696   */\n      dup5\n        /* \"#utility.yul\":5685:5691   */\n      dup3\n        /* \"#utility.yul\":5678:5682   */\n      0x20\n        /* \"#utility.yul\":5670:5676   */\n      dup7\n        /* \"#utility.yul\":5666:5683   */\n      add\n        /* \"#utility.yul\":5618:5697   */\n      tag_87\n      jump\t// in\n    tag_187:\n        /* \"#utility.yul\":5609:5697   */\n      swap2\n      pop\n        /* \"#utility.yul\":5425:5703   */\n      pop\n        /* \"#utility.yul\":5363:5703   */\n      swap3\n      swap2\n      pop\n      pop\n      jump\t// out\n        /* \"#utility.yul\":5709:6218   */\n    tag_15:\n        /* \"#utility.yul\":5778:5784   */\n      0x00\n        /* \"#utility.yul\":5827:5829   */\n      0x20\n        /* \"#utility.yul\":5815:5824   */\n      dup3\n        /* \"#utility.yul\":5806:5813   */\n      dup5\n        /* \"#utility.yul\":5802:5825   */\n      sub\n        /* \"#utility.yul\":5798:5830   */\n      slt\n        /* \"#utility.yul\":5795:5914   */\n      iszero\n      tag_189\n      jumpi\n        /* \"#utility.yul\":5833:5912   */\n      tag_190\n      tag_64\n      jump\t// in\n    tag_190:\n        /* \"#utility.yul\":5795:5914   */\n    tag_189:\n        /* \"#utility.yul\":5981:5982   */\n      0x00\n        /* \"#utility.yul\":5970:5979   */\n      dup3\n        /* \"#utility.yul\":5966:5983   */\n      add\n        /* \"#utility.yul\":5953:5984   */\n      calldataload\n        /* \"#utility.yul\":6011:6029   */\n      0xffffffffffffffff\n        /* \"#utility.yul\":6003:6009   */\n      dup2\n        /* \"#utility.yul\":6000:6030   */\n      gt\n        /* \"#utility.yul\":5997:6114   */\n      iszero\n      tag_191\n      jumpi\n        /* \"#utility.yul\":6033:6112   */\n      tag_192\n      tag_65\n      jump\t// in\n    tag_192:\n        /* \"#utility.yul\":5997:6114   */\n    tag_191:\n        /* \"#utility.yul\":6138:6201   */\n      tag_193\n        /* \"#utility.yul\":6193:6200   */\n      dup5\n        /* \"#utility.yul\":6184:6190   */\n      dup3\n        /* \"#utility.yul\":6173:6182   */\n      dup6\n        /* \"#utility.yul\":6169:6191   */\n      add\n        /* \"#utility.yul\":6138:6201   */\n      tag_88\n      jump\t// in\n    tag_193:\n        /* \"#utility.yul\":6128:6201   */\n      swap2\n      pop\n        /* \"#utility.yul\":5924:6211   */\n      pop\n        /* \"#utility.yul\":5709:6218   */\n      swap3\n      swap2\n      pop\n      pop\n      jump\t// out\n        /* \"#utility.yul\":6224:6359   */\n    tag_89:\n        /* \"#utility.yul\":6312:6318   */\n      0x00\n        /* \"#utility.yul\":6346:6351   */\n      dup2\n        /* \"#utility.yul\":6340:6352   */\n      mload\n        /* \"#utility.yul\":6330:6352   */\n      swap1\n      pop\n        /* \"#utility.yul\":6224:6359   */\n      swap2\n      swap1\n      pop\n      jump\t// out\n        /* \"#utility.yul\":6365:6570   */\n    tag_90:\n        /* \"#utility.yul\":6485:6496   */\n      0x00\n        /* \"#utility.yul\":6519:6525   */\n      dup3\n        /* \"#utility.yul\":6514:6517   */\n      dup3\n        /* \"#utility.yul\":6507:6526   */\n      mstore\n        /* \"#utility.yul\":6559:6563   */\n      0x20\n        /* \"#utility.yul\":6554:6557   */\n      dup3\n        /* \"#utility.yul\":6550:6564   */\n      add\n        /* \"#utility.yul\":6535:6564   */\n      swap1\n      pop\n        /* \"#utility.yul\":6365:6570   */\n      swap3\n      swap2\n      pop\n      pop\n      jump\t// out\n        /* \"#utility.yul\":6576:6729   */\n    tag_91:\n        /* \"#utility.yul\":6664:6668   */\n      0x00\n        /* \"#utility.yul\":6687:6690   */\n      dup2\n        /* \"#utility.yul\":6679:6690   */\n      swap1\n      pop\n        /* \"#utility.yul\":6717:6721   */\n      0x20\n        /* \"#utility.yul\":6712:6715   */\n      dup3\n        /* \"#utility.yul\":6708:6722   */\n      add\n        /* \"#utility.yul\":6700:6722   */\n      swap1\n      pop\n        /* \"#utility.yul\":6576:6729   */\n      swap2\n      swap1\n      pop\n      jump\t// out\n        /* \"#utility.yul\":6735:6843   */\n    tag_92:\n        /* \"#utility.yul\":6812:6836   */\n      tag_198\n        /* \"#utility.yul\":6830:6835   */\n      dup2\n        /* \"#utility.yul\":6812:6836   */\n      tag_67\n      jump\t// in\n    tag_198:\n        /* \"#utility.yul\":6807:6810   */\n      dup3\n        /* \"#utility.yul\":6800:6837   */\n      mstore\n        /* \"#utility.yul\":6735:6843   */\n      pop\n      pop\n      jump\t// out\n        /* \"#utility.yul\":6849:7008   */\n    tag_93:\n        /* \"#utility.yul\":6923:6934   */\n      0x00\n        /* \"#utility.yul\":6957:6963   */\n      dup3\n        /* \"#utility.yul\":6952:6955   */\n      dup3\n        /* \"#utility.yul\":6945:6964   */\n      mstore\n        /* \"#utility.yul\":6997:7001   */\n      0x20\n        /* \"#utility.yul\":6992:6995   */\n      dup3\n        /* \"#utility.yul\":6988:7002   */\n      add\n        /* \"#utility.yul\":6973:7002   */\n      swap1\n      pop\n        /* \"#utility.yul\":6849:7008   */\n      swap3\n      swap2\n      pop\n      pop\n      jump\t// out\n        /* \"#utility.yul\":7014:7371   */\n    tag_94:\n        /* \"#utility.yul\":7092:7095   */\n      0x00\n        /* \"#utility.yul\":7120:7159   */\n      tag_201\n        /* \"#utility.yul\":7153:7158   */\n      dup3\n        /* \"#utility.yul\":7120:7159   */\n      tag_74\n      jump\t// in\n    tag_201:\n        /* \"#utility.yul\":7175:7236   */\n      tag_202\n        /* \"#utility.yul\":7229:7235   */\n      dup2\n        /* \"#utility.yul\":7224:7227   */\n      dup6\n        /* \"#utility.yul\":7175:7236   */\n      tag_93\n      jump\t// in\n    tag_202:\n        /* \"#utility.yul\":7168:7236   */\n      swap4\n      pop\n        /* \"#utility.yul\":7245:7310   */\n      tag_203\n        /* \"#utility.yul\":7303:7309   */\n      dup2\n        /* \"#utility.yul\":7298:7301   */\n      dup6\n        /* \"#utility.yul\":7291:7295   */\n      0x20\n        /* \"#utility.yul\":7284:7289   */\n      dup7\n        /* \"#utility.yul\":7280:7296   */\n      add\n        /* \"#utility.yul\":7245:7310   */\n      tag_76\n      jump\t// in\n    tag_203:\n        /* \"#utility.yul\":7335:7364   */\n      tag_204\n        /* \"#utility.yul\":7357:7363   */\n      dup2\n        /* \"#utility.yul\":7335:7364   */\n      tag_77\n      jump\t// in\n    tag_204:\n        /* \"#utility.yul\":7330:7333   */\n      dup5\n        /* \"#utility.yul\":7326:7365   */\n      add\n        /* \"#utility.yul\":7319:7365   */\n      swap2\n      pop\n        /* \"#utility.yul\":7096:7371   */\n      pop\n        /* \"#utility.yul\":7014:7371   */\n      swap3\n      swap2\n      pop\n      pop\n      jump\t// out\n        /* \"#utility.yul\":7377:7485   */\n    tag_95:\n        /* \"#utility.yul\":7454:7478   */\n      tag_206\n        /* \"#utility.yul\":7472:7477   */\n      dup2\n        /* \"#utility.yul\":7454:7478   */\n      tag_70\n      jump\t// in\n    tag_206:\n        /* \"#utility.yul\":7449:7452   */\n      dup3\n        /* \"#utility.yul\":7442:7479   */\n      mstore\n        /* \"#utility.yul\":7377:7485   */\n      pop\n      pop\n      jump\t// out\n        /* \"#utility.yul\":7543:8490   */\n    tag_96:\n        /* \"#utility.yul\":7644:7647   */\n      0x00\n        /* \"#utility.yul\":7680:7684   */\n      0x80\n        /* \"#utility.yul\":7675:7678   */\n      dup4\n        /* \"#utility.yul\":7671:7685   */\n      add\n        /* \"#utility.yul\":7769:7773   */\n      0x00\n        /* \"#utility.yul\":7762:7767   */\n      dup4\n        /* \"#utility.yul\":7758:7774   */\n      add\n        /* \"#utility.yul\":7752:7775   */\n      mload\n        /* \"#utility.yul\":7788:7851   */\n      tag_208\n        /* \"#utility.yul\":7845:7849   */\n      0x00\n        /* \"#utility.yul\":7840:7843   */\n      dup7\n        /* \"#utility.yul\":7836:7850   */\n      add\n        /* \"#utility.yul\":7822:7834   */\n      dup3\n        /* \"#utility.yul\":7788:7851   */\n      tag_92\n      jump\t// in\n    tag_208:\n        /* \"#utility.yul\":7695:7861   */\n      pop\n        /* \"#utility.yul\":7946:7950   */\n      0x20\n        /* \"#utility.yul\":7939:7944   */\n      dup4\n        /* \"#utility.yul\":7935:7951   */\n      add\n        /* \"#utility.yul\":7929:7952   */\n      mload\n        /* \"#utility.yul\":7999:8002   */\n      dup5\n        /* \"#utility.yul\":7993:7997   */\n      dup3\n        /* \"#utility.yul\":7989:8003   */\n      sub\n        /* \"#utility.yul\":7982:7986   */\n      0x20\n        /* \"#utility.yul\":7977:7980   */\n      dup7\n        /* \"#utility.yul\":7973:7987   */\n      add\n        /* \"#utility.yul\":7966:8004   */\n      mstore\n        /* \"#utility.yul\":8025:8098   */\n      tag_209\n        /* \"#utility.yul\":8093:8097   */\n      dup3\n        /* \"#utility.yul\":8079:8091   */\n      dup3\n        /* \"#utility.yul\":8025:8098   */\n      tag_94\n      jump\t// in\n    tag_209:\n        /* \"#utility.yul\":8017:8098   */\n      swap2\n      pop\n        /* \"#utility.yul\":7871:8109   */\n      pop\n        /* \"#utility.yul\":8196:8200   */\n      0x40\n        /* \"#utility.yul\":8189:8194   */\n      dup4\n        /* \"#utility.yul\":8185:8201   */\n      add\n        /* \"#utility.yul\":8179:8202   */\n      mload\n        /* \"#utility.yul\":8215:8278   */\n      tag_210\n        /* \"#utility.yul\":8272:8276   */\n      0x40\n        /* \"#utility.yul\":8267:8270   */\n      dup7\n        /* \"#utility.yul\":8263:8277   */\n      add\n        /* \"#utility.yul\":8249:8261   */\n      dup3\n        /* \"#utility.yul\":8215:8278   */\n      tag_95\n      jump\t// in\n    tag_210:\n        /* \"#utility.yul\":8119:8288   */\n      pop\n        /* \"#utility.yul\":8371:8375   */\n      0x60\n        /* \"#utility.yul\":8364:8369   */\n      dup4\n        /* \"#utility.yul\":8360:8376   */\n      add\n        /* \"#utility.yul\":8354:8377   */\n      mload\n        /* \"#utility.yul\":8390:8453   */\n      tag_211\n        /* \"#utility.yul\":8447:8451   */\n      0x60\n        /* \"#utility.yul\":8442:8445   */\n      dup7\n        /* \"#utility.yul\":8438:8452   */\n      add\n        /* \"#utility.yul\":8424:8436   */\n      dup3\n        /* \"#utility.yul\":8390:8453   */\n      tag_95\n      jump\t// in\n    tag_211:\n        /* \"#utility.yul\":8298:8463   */\n      pop\n        /* \"#utility.yul\":8480:8484   */\n      dup1\n        /* \"#utility.yul\":8473:8484   */\n      swap2\n      pop\n        /* \"#utility.yul\":7649:8490   */\n      pop\n        /* \"#utility.yul\":7543:8490   */\n      swap3\n      swap2\n      pop\n      pop\n      jump\t// out\n        /* \"#utility.yul\":8496:8736   */\n    tag_97:\n        /* \"#utility.yul\":8607:8617   */\n      0x00\n        /* \"#utility.yul\":8642:8730   */\n      tag_213\n        /* \"#utility.yul\":8726:8729   */\n      dup4\n        /* \"#utility.yul\":8718:8724   */\n      dup4\n        /* \"#utility.yul\":8642:8730   */\n      tag_96\n      jump\t// in\n    tag_213:\n        /* \"#utility.yul\":8628:8730   */\n      swap1\n      pop\n        /* \"#utility.yul\":8496:8736   */\n      swap3\n      swap2\n      pop\n      pop\n      jump\t// out\n        /* \"#utility.yul\":8742:8876   */\n    tag_98:\n        /* \"#utility.yul\":8833:8837   */\n      0x00\n        /* \"#utility.yul\":8865:8869   */\n      0x20\n        /* \"#utility.yul\":8860:8863   */\n      dup3\n        /* \"#utility.yul\":8856:8870   */\n      add\n        /* \"#utility.yul\":8848:8870   */\n      swap1\n      pop\n        /* \"#utility.yul\":8742:8876   */\n      swap2\n      swap1\n      pop\n      jump\t// out\n        /* \"#utility.yul\":8938:10017   */\n    tag_99:\n        /* \"#utility.yul\":9099:9102   */\n      0x00\n        /* \"#utility.yul\":9128:9203   */\n      tag_216\n        /* \"#utility.yul\":9197:9202   */\n      dup3\n        /* \"#utility.yul\":9128:9203   */\n      tag_89\n      jump\t// in\n    tag_216:\n        /* \"#utility.yul\":9219:9326   */\n      tag_217\n        /* \"#utility.yul\":9319:9325   */\n      dup2\n        /* \"#utility.yul\":9314:9317   */\n      dup6\n        /* \"#utility.yul\":9219:9326   */\n      tag_90\n      jump\t// in\n    tag_217:\n        /* \"#utility.yul\":9212:9326   */\n      swap4\n      pop\n        /* \"#utility.yul\":9352:9355   */\n      dup4\n        /* \"#utility.yul\":9397:9401   */\n      0x20\n        /* \"#utility.yul\":9389:9395   */\n      dup3\n        /* \"#utility.yul\":9385:9402   */\n      mul\n        /* \"#utility.yul\":9380:9383   */\n      dup6\n        /* \"#utility.yul\":9376:9403   */\n      add\n        /* \"#utility.yul\":9427:9504   */\n      tag_218\n        /* \"#utility.yul\":9498:9503   */\n      dup6\n        /* \"#utility.yul\":9427:9504   */\n      tag_91\n      jump\t// in\n    tag_218:\n        /* \"#utility.yul\":9527:9534   */\n      dup1\n        /* \"#utility.yul\":9558:9559   */\n      0x00\n        /* \"#utility.yul\":9543:9972   */\n    tag_219:\n        /* \"#utility.yul\":9568:9574   */\n      dup6\n        /* \"#utility.yul\":9565:9566   */\n      dup2\n        /* \"#utility.yul\":9562:9575   */\n      lt\n        /* \"#utility.yul\":9543:9972   */\n      iszero\n      tag_221\n      jumpi\n        /* \"#utility.yul\":9639:9648   */\n      dup5\n        /* \"#utility.yul\":9633:9637   */\n      dup5\n        /* \"#utility.yul\":9629:9649   */\n      sub\n        /* \"#utility.yul\":9624:9627   */\n      dup10\n        /* \"#utility.yul\":9617:9650   */\n      mstore\n        /* \"#utility.yul\":9690:9696   */\n      dup2\n        /* \"#utility.yul\":9684:9697   */\n      mload\n        /* \"#utility.yul\":9718:9824   */\n      tag_222\n        /* \"#utility.yul\":9819:9823   */\n      dup6\n        /* \"#utility.yul\":9804:9817   */\n      dup3\n        /* \"#utility.yul\":9718:9824   */\n      tag_97\n      jump\t// in\n    tag_222:\n        /* \"#utility.yul\":9710:9824   */\n      swap5\n      pop\n        /* \"#utility.yul\":9847:9928   */\n      tag_223\n        /* \"#utility.yul\":9921:9927   */\n      dup4\n        /* \"#utility.yul\":9847:9928   */\n      tag_98\n      jump\t// in\n    tag_223:\n        /* \"#utility.yul\":9837:9928   */\n      swap3\n      pop\n        /* \"#utility.yul\":9957:9961   */\n      0x20\n        /* \"#utility.yul\":9952:9955   */\n      dup11\n        /* \"#utility.yul\":9948:9962   */\n      add\n        /* \"#utility.yul\":9941:9962   */\n      swap10\n      pop\n        /* \"#utility.yul\":9603:9972   */\n      pop\n        /* \"#utility.yul\":9590:9591   */\n      0x01\n        /* \"#utility.yul\":9587:9588   */\n      dup2\n        /* \"#utility.yul\":9583:9592   */\n      add\n        /* \"#utility.yul\":9578:9592   */\n      swap1\n      pop\n        /* \"#utility.yul\":9543:9972   */\n      jump(tag_219)\n    tag_221:\n        /* \"#utility.yul\":9547:9561   */\n      pop\n        /* \"#utility.yul\":9988:9992   */\n      dup3\n        /* \"#utility.yul\":9981:9992   */\n      swap8\n      pop\n        /* \"#utility.yul\":10008:10011   */\n      dup8\n        /* \"#utility.yul\":10001:10011   */\n      swap6\n      pop\n        /* \"#utility.yul\":9104:10017   */\n      pop\n      pop\n      pop\n      pop\n      pop\n        /* \"#utility.yul\":8938:10017   */\n      swap3\n      swap2\n      pop\n      pop\n      jump\t// out\n        /* \"#utility.yul\":10023:10480   */\n    tag_20:\n        /* \"#utility.yul\":10208:10212   */\n      0x00\n        /* \"#utility.yul\":10246:10248   */\n      0x20\n        /* \"#utility.yul\":10235:10244   */\n      dup3\n        /* \"#utility.yul\":10231:10249   */\n      add\n        /* \"#utility.yul\":10223:10249   */\n      swap1\n      pop\n        /* \"#utility.yul\":10295:10304   */\n      dup2\n        /* \"#utility.yul\":10289:10293   */\n      dup2\n        /* \"#utility.yul\":10285:10305   */\n      sub\n        /* \"#utility.yul\":10281:10282   */\n      0x00\n        /* \"#utility.yul\":10270:10279   */\n      dup4\n        /* \"#utility.yul\":10266:10283   */\n      add\n        /* \"#utility.yul\":10259:10306   */\n      mstore\n        /* \"#utility.yul\":10323:10473   */\n      tag_225\n        /* \"#utility.yul\":10468:10472   */\n      dup2\n        /* \"#utility.yul\":10459:10465   */\n      dup5\n        /* \"#utility.yul\":10323:10473   */\n      tag_99\n      jump\t// in\n    tag_225:\n        /* \"#utility.yul\":10315:10473   */\n      swap1\n      pop\n        /* \"#utility.yul\":10023:10480   */\n      swap3\n      swap2\n      pop\n      pop\n      jump\t// out\n        /* \"#utility.yul\":10486:10815   */\n    tag_23:\n        /* \"#utility.yul\":10545:10551   */\n      0x00\n        /* \"#utility.yul\":10594:10596   */\n      0x20\n        /* \"#utility.yul\":10582:10591   */\n      dup3\n        /* \"#utility.yul\":10573:10580   */\n      dup5\n        /* \"#utility.yul\":10569:10592   */\n      sub\n        /* \"#utility.yul\":10565:10597   */\n      slt\n        /* \"#utility.yul\":10562:10681   */\n      iszero\n      tag_227\n      jumpi\n        /* \"#utility.yul\":10600:10679   */\n      tag_228\n      tag_64\n      jump\t// in\n    tag_228:\n        /* \"#utility.yul\":10562:10681   */\n    tag_227:\n        /* \"#utility.yul\":10720:10721   */\n      0x00\n        /* \"#utility.yul\":10745:10798   */\n      tag_229\n        /* \"#utility.yul\":10790:10797   */\n      dup5\n        /* \"#utility.yul\":10781:10787   */\n      dup3\n        /* \"#utility.yul\":10770:10779   */\n      dup6\n        /* \"#utility.yul\":10766:10788   */\n      add\n        /* \"#utility.yul\":10745:10798   */\n      tag_72\n      jump\t// in\n    tag_229:\n        /* \"#utility.yul\":10735:10798   */\n      swap2\n      pop\n        /* \"#utility.yul\":10691:10808   */\n      pop\n        /* \"#utility.yul\":10486:10815   */\n      swap3\n      swap2\n      pop\n      pop\n      jump\t// out\n        /* \"#utility.yul\":10873:11830   */\n    tag_100:\n        /* \"#utility.yul\":10984:10987   */\n      0x00\n        /* \"#utility.yul\":11020:11024   */\n      0x80\n        /* \"#utility.yul\":11015:11018   */\n      dup4\n        /* \"#utility.yul\":11011:11025   */\n      add\n        /* \"#utility.yul\":11109:11113   */\n      0x00\n        /* \"#utility.yul\":11102:11107   */\n      dup4\n        /* \"#utility.yul\":11098:11114   */\n      add\n        /* \"#utility.yul\":11092:11115   */\n      mload\n        /* \"#utility.yul\":11128:11191   */\n      tag_231\n        /* \"#utility.yul\":11185:11189   */\n      0x00\n        /* \"#utility.yul\":11180:11183   */\n      dup7\n        /* \"#utility.yul\":11176:11190   */\n      add\n        /* \"#utility.yul\":11162:11174   */\n      dup3\n        /* \"#utility.yul\":11128:11191   */\n      tag_92\n      jump\t// in\n    tag_231:\n        /* \"#utility.yul\":11035:11201   */\n      pop\n        /* \"#utility.yul\":11286:11290   */\n      0x20\n        /* \"#utility.yul\":11279:11284   */\n      dup4\n        /* \"#utility.yul\":11275:11291   */\n      add\n        /* \"#utility.yul\":11269:11292   */\n      mload\n        /* \"#utility.yul\":11339:11342   */\n      dup5\n        /* \"#utility.yul\":11333:11337   */\n      dup3\n        /* \"#utility.yul\":11329:11343   */\n      sub\n        /* \"#utility.yul\":11322:11326   */\n      0x20\n        /* \"#utility.yul\":11317:11320   */\n      dup7\n        /* \"#utility.yul\":11313:11327   */\n      add\n        /* \"#utility.yul\":11306:11344   */\n      mstore\n        /* \"#utility.yul\":11365:11438   */\n      tag_232\n        /* \"#utility.yul\":11433:11437   */\n      dup3\n        /* \"#utility.yul\":11419:11431   */\n      dup3\n        /* \"#utility.yul\":11365:11438   */\n      tag_94\n      jump\t// in\n    tag_232:\n        /* \"#utility.yul\":11357:11438   */\n      swap2\n      pop\n        /* \"#utility.yul\":11211:11449   */\n      pop\n        /* \"#utility.yul\":11536:11540   */\n      0x40\n        /* \"#utility.yul\":11529:11534   */\n      dup4\n        /* \"#utility.yul\":11525:11541   */\n      add\n        /* \"#utility.yul\":11519:11542   */\n      mload\n        /* \"#utility.yul\":11555:11618   */\n      tag_233\n        /* \"#utility.yul\":11612:11616   */\n      0x40\n        /* \"#utility.yul\":11607:11610   */\n      dup7\n        /* \"#utility.yul\":11603:11617   */\n      add\n        /* \"#utility.yul\":11589:11601   */\n      dup3\n        /* \"#utility.yul\":11555:11618   */\n      tag_95\n      jump\t// in\n    tag_233:\n        /* \"#utility.yul\":11459:11628   */\n      pop\n        /* \"#utility.yul\":11711:11715   */\n      0x60\n        /* \"#utility.yul\":11704:11709   */\n      dup4\n        /* \"#utility.yul\":11700:11716   */\n      add\n        /* \"#utility.yul\":11694:11717   */\n      mload\n        /* \"#utility.yul\":11730:11793   */\n      tag_234\n        /* \"#utility.yul\":11787:11791   */\n      0x60\n        /* \"#utility.yul\":11782:11785   */\n      dup7\n        /* \"#utility.yul\":11778:11792   */\n      add\n        /* \"#utility.yul\":11764:11776   */\n      dup3\n        /* \"#utility.yul\":11730:11793   */\n      tag_95\n      jump\t// in\n    tag_234:\n        /* \"#utility.yul\":11638:11803   */\n      pop\n        /* \"#utility.yul\":11820:11824   */\n      dup1\n        /* \"#utility.yul\":11813:11824   */\n      swap2\n      pop\n        /* \"#utility.yul\":10989:11830   */\n      pop\n        /* \"#utility.yul\":10873:11830   */\n      swap3\n      swap2\n      pop\n      pop\n      jump\t// out\n        /* \"#utility.yul\":11836:12193   */\n    tag_26:\n        /* \"#utility.yul\":11971:11975   */\n      0x00\n        /* \"#utility.yul\":12009:12011   */\n      0x20\n        /* \"#utility.yul\":11998:12007   */\n      dup3\n        /* \"#utility.yul\":11994:12012   */\n      add\n        /* \"#utility.yul\":11986:12012   */\n      swap1\n      pop\n        /* \"#utility.yul\":12058:12067   */\n      dup2\n        /* \"#utility.yul\":12052:12056   */\n      dup2\n        /* \"#utility.yul\":12048:12068   */\n      sub\n        /* \"#utility.yul\":12044:12045   */\n      0x00\n        /* \"#utility.yul\":12033:12042   */\n      dup4\n        /* \"#utility.yul\":12029:12046   */\n      add\n        /* \"#utility.yul\":12022:12069   */\n      mstore\n        /* \"#utility.yul\":12086:12186   */\n      tag_236\n        /* \"#utility.yul\":12181:12185   */\n      dup2\n        /* \"#utility.yul\":12172:12178   */\n      dup5\n        /* \"#utility.yul\":12086:12186   */\n      tag_100\n      jump\t// in\n    tag_236:\n        /* \"#utility.yul\":12078:12186   */\n      swap1\n      pop\n        /* \"#utility.yul\":11836:12193   */\n      swap3\n      swap2\n      pop\n      pop\n      jump\t// out\n        /* \"#utility.yul\":12199:12379   */\n    tag_101:\n        /* \"#utility.yul\":12247:12324   */\n      0x4e487b7100000000000000000000000000000000000000000000000000000000\n        /* \"#utility.yul\":12244:12245   */\n      0x00\n        /* \"#utility.yul\":12237:12325   */\n      mstore\n        /* \"#utility.yul\":12344:12348   */\n      0x22\n        /* \"#utility.yul\":12341:12342   */\n      0x04\n        /* \"#utility.yul\":12334:12349   */\n      mstore\n        /* \"#utility.yul\":12368:12372   */\n      0x24\n        /* \"#utility.yul\":12365:12366   */\n      0x00\n        /* \"#utility.yul\":12358:12373   */\n      revert\n        /* \"#utility.yul\":12385:12705   */\n    tag_30:\n        /* \"#utility.yul\":12429:12435   */\n      0x00\n        /* \"#utility.yul\":12466:12467   */\n      0x02\n        /* \"#utility.yul\":12460:12464   */\n      dup3\n        /* \"#utility.yul\":12456:12468   */\n      div\n        /* \"#utility.yul\":12446:12468   */\n      swap1\n      pop\n        /* \"#utility.yul\":12513:12514   */\n      0x01\n        /* \"#utility.yul\":12507:12511   */\n      dup3\n        /* \"#utility.yul\":12503:12515   */\n      and\n        /* \"#utility.yul\":12534:12552   */\n      dup1\n        /* \"#utility.yul\":12524:12605   */\n      tag_239\n      jumpi\n        /* \"#utility.yul\":12590:12594   */\n      0x7f\n        /* \"#utility.yul\":12582:12588   */\n      dup3\n        /* \"#utility.yul\":12578:12595   */\n      and\n        /* \"#utility.yul\":12568:12595   */\n      swap2\n      pop\n        /* \"#utility.yul\":12524:12605   */\n    tag_239:\n        /* \"#utility.yul\":12652:12654   */\n      0x20\n        /* \"#utility.yul\":12644:12650   */\n      dup3\n        /* \"#utility.yul\":12641:12655   */\n      lt\n        /* \"#utility.yul\":12621:12639   */\n      dup2\n        /* \"#utility.yul\":12618:12656   */\n      sub\n        /* \"#utility.yul\":12615:12699   */\n      tag_240\n      jumpi\n        /* \"#utility.yul\":12671:12689   */\n      tag_241\n      tag_101\n      jump\t// in\n    tag_241:\n        /* \"#utility.yul\":12615:12699   */\n    tag_240:\n        /* \"#utility.yul\":12436:12705   */\n      pop\n        /* \"#utility.yul\":12385:12705   */\n      swap2\n      swap1\n      pop\n      jump\t// out\n        /* \"#utility.yul\":12711:12944   */\n    tag_102:\n        /* \"#utility.yul\":12851:12885   */\n      0x457863656564732074686520636861726163746572206c696d697420666f7220\n        /* \"#utility.yul\":12847:12848   */\n      0x00\n        /* \"#utility.yul\":12839:12845   */\n      dup3\n        /* \"#utility.yul\":12835:12849   */\n      add\n        /* \"#utility.yul\":12828:12886   */\n      mstore\n        /* \"#utility.yul\":12920:12936   */\n      0x612073696e676c65207477656574000000000000000000000000000000000000\n        /* \"#utility.yul\":12915:12917   */\n      0x20\n        /* \"#utility.yul\":12907:12913   */\n      dup3\n        /* \"#utility.yul\":12903:12918   */\n      add\n        /* \"#utility.yul\":12896:12937   */\n      mstore\n        /* \"#utility.yul\":12711:12944   */\n      pop\n      jump\t// out\n        /* \"#utility.yul\":12950:13316   */\n    tag_103:\n        /* \"#utility.yul\":13092:13095   */\n      0x00\n        /* \"#utility.yul\":13113:13180   */\n      tag_244\n        /* \"#utility.yul\":13177:13179   */\n      0x2e\n        /* \"#utility.yul\":13172:13175   */\n      dup4\n        /* \"#utility.yul\":13113:13180   */\n      tag_75\n      jump\t// in\n    tag_244:\n        /* \"#utility.yul\":13106:13180   */\n      swap2\n      pop\n        /* \"#utility.yul\":13189:13282   */\n      tag_245\n        /* \"#utility.yul\":13278:13281   */\n      dup3\n        /* \"#utility.yul\":13189:13282   */\n      tag_102\n      jump\t// in\n    tag_245:\n        /* \"#utility.yul\":13307:13309   */\n      0x40\n        /* \"#utility.yul\":13302:13305   */\n      dup3\n        /* \"#utility.yul\":13298:13310   */\n      add\n        /* \"#utility.yul\":13291:13310   */\n      swap1\n      pop\n        /* \"#utility.yul\":12950:13316   */\n      swap2\n      swap1\n      pop\n      jump\t// out\n        /* \"#utility.yul\":13322:13741   */\n    tag_38:\n        /* \"#utility.yul\":13488:13492   */\n      0x00\n        /* \"#utility.yul\":13526:13528   */\n      0x20\n        /* \"#utility.yul\":13515:13524   */\n      dup3\n        /* \"#utility.yul\":13511:13529   */\n      add\n        /* \"#utility.yul\":13503:13529   */\n      swap1\n      pop\n        /* \"#utility.yul\":13575:13584   */\n      dup2\n        /* \"#utility.yul\":13569:13573   */\n      dup2\n        /* \"#utility.yul\":13565:13585   */\n      sub\n        /* \"#utility.yul\":13561:13562   */\n      0x00\n        /* \"#utility.yul\":13550:13559   */\n      dup4\n        /* \"#utility.yul\":13546:13563   */\n      add\n        /* \"#utility.yul\":13539:13586   */\n      mstore\n        /* \"#utility.yul\":13603:13734   */\n      tag_247\n        /* \"#utility.yul\":13729:13733   */\n      dup2\n        /* \"#utility.yul\":13603:13734   */\n      tag_103\n      jump\t// in\n    tag_247:\n        /* \"#utility.yul\":13595:13734   */\n      swap1\n      pop\n        /* \"#utility.yul\":13322:13741   */\n      swap2\n      swap1\n      pop\n      jump\t// out\n        /* \"#utility.yul\":13747:13888   */\n    tag_104:\n        /* \"#utility.yul\":13796:13800   */\n      0x00\n        /* \"#utility.yul\":13819:13822   */\n      dup2\n        /* \"#utility.yul\":13811:13822   */\n      swap1\n      pop\n        /* \"#utility.yul\":13842:13845   */\n      dup2\n        /* \"#utility.yul\":13839:13840   */\n      0x00\n        /* \"#utility.yul\":13832:13846   */\n      mstore\n        /* \"#utility.yul\":13876:13880   */\n      0x20\n        /* \"#utility.yul\":13873:13874   */\n      0x00\n        /* \"#utility.yul\":13863:13881   */\n      keccak256\n        /* \"#utility.yul\":13855:13881   */\n      swap1\n      pop\n        /* \"#utility.yul\":13747:13888   */\n      swap2\n      swap1\n      pop\n      jump\t// out\n        /* \"#utility.yul\":13894:13987   */\n    tag_105:\n        /* \"#utility.yul\":13931:13937   */\n      0x00\n        /* \"#utility.yul\":13978:13980   */\n      0x20\n        /* \"#utility.yul\":13973:13975   */\n      0x1f\n        /* \"#utility.yul\":13966:13971   */\n      dup4\n        /* \"#utility.yul\":13962:13976   */\n      add\n        /* \"#utility.yul\":13958:13981   */\n      div\n        /* \"#utility.yul\":13948:13981   */\n      swap1\n      pop\n        /* \"#utility.yul\":13894:13987   */\n      swap2\n      swap1\n      pop\n      jump\t// out\n        /* \"#utility.yul\":13993:14100   */\n    tag_106:\n        /* \"#utility.yul\":14037:14045   */\n      0x00\n        /* \"#utility.yul\":14087:14092   */\n      dup3\n        /* \"#utility.yul\":14081:14085   */\n      dup3\n        /* \"#utility.yul\":14077:14093   */\n      shl\n        /* \"#utility.yul\":14056:14093   */\n      swap1\n      pop\n        /* \"#utility.yul\":13993:14100   */\n      swap3\n      swap2\n      pop\n      pop\n      jump\t// out\n        /* \"#utility.yul\":14106:14499   */\n    tag_107:\n        /* \"#utility.yul\":14175:14181   */\n      0x00\n        /* \"#utility.yul\":14225:14226   */\n      0x08\n        /* \"#utility.yul\":14213:14223   */\n      dup4\n        /* \"#utility.yul\":14209:14227   */\n      mul\n        /* \"#utility.yul\":14248:14345   */\n      tag_252\n        /* \"#utility.yul\":14278:14344   */\n      0xffffffffffffffffffffffffffffffffffffffffffffffffffffffffffffffff\n        /* \"#utility.yul\":14267:14276   */\n      dup3\n        /* \"#utility.yul\":14248:14345   */\n      tag_106\n      jump\t// in\n    tag_252:\n        /* \"#utility.yul\":14366:14405   */\n      tag_253\n        /* \"#utility.yul\":14396:14404   */\n      dup7\n        /* \"#utility.yul\":14385:14394   */\n      dup4\n        /* \"#utility.yul\":14366:14405   */\n      tag_106\n      jump\t// in\n    tag_253:\n        /* \"#utility.yul\":14354:14405   */\n      swap6\n      pop\n        /* \"#utility.yul\":14438:14442   */\n      dup1\n        /* \"#utility.yul\":14434:14443   */\n      not\n        /* \"#utility.yul\":14427:14432   */\n      dup5\n        /* \"#utility.yul\":14423:14444   */\n      and\n        /* \"#utility.yul\":14414:14444   */\n      swap4\n      pop\n        /* \"#utility.yul\":14487:14491   */\n      dup1\n        /* \"#utility.yul\":14477:14485   */\n      dup7\n        /* \"#utility.yul\":14473:14492   */\n      and\n        /* \"#utility.yul\":14466:14471   */\n      dup5\n        /* \"#utility.yul\":14463:14493   */\n      or\n        /* \"#utility.yul\":14453:14493   */\n      swap3\n      pop\n        /* \"#utility.yul\":14182:14499   */\n      pop\n      pop\n        /* \"#utility.yul\":14106:14499   */\n      swap4\n      swap3\n      pop\n      pop\n      pop\n      jump\t// out\n        /* \"#utility.yul\":14505:14565   */\n    tag_108:\n        /* \"#utility.yul\":14533:14536   */\n      0x00\n        /* \"#utility.yul\":14554:14559   */\n      dup2\n        /* \"#utility.yul\":14547:14559   */\n      swap1\n      pop\n        /* \"#utility.yul\":14505:14565   */\n      swap2\n      swap1\n      pop\n      jump\t// out\n        /* \"#utility.yul\":14571:14713   */\n    tag_109:\n        /* \"#utility.yul\":14621:14630   */\n      0x00\n        /* \"#utility.yul\":14654:14707   */\n      tag_256\n        /* \"#utility.yul\":14672:14706   */\n      tag_257\n        /* \"#utility.yul\":14681:14705   */\n      tag_258\n        /* \"#utility.yul\":14699:14704   */\n      dup5\n        /* \"#utility.yul\":14681:14705   */\n      tag_70\n      jump\t// in\n    tag_258:\n        /* \"#utility.yul\":14672:14706   */\n      tag_108\n      jump\t// in\n    tag_257:\n        /* \"#utility.yul\":14654:14707   */\n      tag_70\n      jump\t// in\n    tag_256:\n        /* \"#utility.yul\":14641:14707   */\n      swap1\n      pop\n        /* \"#utility.yul\":14571:14713   */\n      swap2\n      swap1\n      pop\n      jump\t// out\n        /* \"#utility.yul\":14719:14794   */\n    tag_110:\n        /* \"#utility.yul\":14762:14765   */\n      0x00\n        /* \"#utility.yul\":14783:14788   */\n      dup2\n        /* \"#utility.yul\":14776:14788   */\n      swap1\n      pop\n        /* \"#utility.yul\":14719:14794   */\n      swap2\n      swap1\n      pop\n      jump\t// out\n        /* \"#utility.yul\":14800:15069   */\n    tag_111:\n        /* \"#utility.yul\":14910:14949   */\n      tag_261\n        /* \"#utility.yul\":14941:14948   */\n      dup4\n        /* \"#utility.yul\":14910:14949   */\n      tag_109\n      jump\t// in\n    tag_261:\n        /* \"#utility.yul\":14971:15062   */\n      tag_262\n        /* \"#utility.yul\":15020:15061   */\n      tag_263\n        /* \"#utility.yul\":15044:15060   */\n      dup3\n        /* \"#utility.yul\":15020:15061   */\n      tag_110\n      jump\t// in\n    tag_263:\n        /* \"#utility.yul\":15012:15018   */\n      dup5\n        /* \"#utility.yul\":15005:15009   */\n      dup5\n        /* \"#utility.yul\":14999:15010   */\n      sload\n        /* \"#utility.yul\":14971:15062   */\n      tag_107\n      jump\t// in\n    tag_262:\n        /* \"#utility.yul\":14965:14969   */\n      dup3\n        /* \"#utility.yul\":14958:15063   */\n      sstore\n        /* \"#utility.yul\":14876:15069   */\n      pop\n        /* \"#utility.yul\":14800:15069   */\n      pop\n      pop\n      pop\n      jump\t// out\n        /* \"#utility.yul\":15075:15148   */\n    tag_112:\n        /* \"#utility.yul\":15120:15123   */\n      0x00\n        /* \"#utility.yul\":15075:15148   */\n      swap1\n      jump\t// out\n        /* \"#utility.yul\":15154:15343   */\n    tag_113:\n        /* \"#utility.yul\":15231:15263   */\n      tag_266\n      tag_112\n      jump\t// in\n    tag_266:\n        /* \"#utility.yul\":15272:15337   */\n      tag_267\n        /* \"#utility.yul\":15330:15336   */\n      dup2\n        /* \"#utility.yul\":15322:15328   */\n      dup5\n        /* \"#utility.yul\":15316:15320   */\n      dup5\n        /* \"#utility.yul\":15272:15337   */\n      tag_111\n      jump\t// in\n    tag_267:\n        /* \"#utility.yul\":15207:15343   */\n      pop\n        /* \"#utility.yul\":15154:15343   */\n      pop\n      pop\n      jump\t// out\n        /* \"#utility.yul\":15349:15535   */\n    tag_114:\n        /* \"#utility.yul\":15409:15529   */\n    tag_269:\n        /* \"#utility.yul\":15426:15429   */\n      dup2\n        /* \"#utility.yul\":15419:15424   */\n      dup2\n        /* \"#utility.yul\":15416:15430   */\n      lt\n        /* \"#utility.yul\":15409:15529   */\n      iszero\n      tag_271\n      jumpi\n        /* \"#utility.yul\":15480:15519   */\n      tag_272\n        /* \"#utility.yul\":15517:15518   */\n      0x00\n        /* \"#utility.yul\":15510:15515   */\n      dup3\n        /* \"#utility.yul\":15480:15519   */\n      tag_113\n      jump\t// in\n    tag_272:\n        /* \"#utility.yul\":15453:15454   */\n      0x01\n        /* \"#utility.yul\":15446:15451   */\n      dup2\n        /* \"#utility.yul\":15442:15455   */\n      add\n        /* \"#utility.yul\":15433:15455   */\n      swap1\n      pop\n        /* \"#utility.yul\":15409:15529   */\n      jump(tag_269)\n    tag_271:\n        /* \"#utility.yul\":15349:15535   */\n      pop\n      pop\n      jump\t// out\n        /* \"#utility.yul\":15541:16084   */\n    tag_115:\n        /* \"#utility.yul\":15642:15644   */\n      0x1f\n        /* \"#utility.yul\":15637:15640   */\n      dup3\n        /* \"#utility.yul\":15634:15645   */\n      gt\n        /* \"#utility.yul\":15631:16077   */\n      iszero\n      tag_274\n      jumpi\n        /* \"#utility.yul\":15676:15714   */\n      tag_275\n        /* \"#utility.yul\":15708:15713   */\n      dup2\n        /* \"#utility.yul\":15676:15714   */\n      tag_104\n      jump\t// in\n    tag_275:\n        /* \"#utility.yul\":15760:15789   */\n      tag_276\n        /* \"#utility.yul\":15778:15788   */\n      dup5\n        /* \"#utility.yul\":15760:15789   */\n      tag_105\n      jump\t// in\n    tag_276:\n        /* \"#utility.yul\":15750:15758   */\n      dup2\n        /* \"#utility.yul\":15746:15790   */\n      add\n        /* \"#utility.yul\":15943:15945   */\n      0x20\n        /* \"#utility.yul\":15931:15941   */\n      dup6\n        /* \"#utility.yul\":15928:15946   */\n      lt\n        /* \"#utility.yul\":15925:15974   */\n      iszero\n      tag_277\n      jumpi\n        /* \"#utility.yul\":15964:15972   */\n      dup2\n        /* \"#utility.yul\":15949:15972   */\n      swap1\n      pop\n        /* \"#utility.yul\":15925:15974   */\n    tag_277:\n        /* \"#utility.yul\":15987:16067   */\n      tag_278\n        /* \"#utility.yul\":16043:16065   */\n      tag_279\n        /* \"#utility.yul\":16061:16064   */\n      dup6\n        /* \"#utility.yul\":16043:16065   */\n      tag_105\n      jump\t// in\n    tag_279:\n        /* \"#utility.yul\":16033:16041   */\n      dup4\n        /* \"#utility.yul\":16029:16066   */\n      add\n        /* \"#utility.yul\":16016:16027   */\n      dup3\n        /* \"#utility.yul\":15987:16067   */\n      tag_114\n      jump\t// in\n    tag_278:\n        /* \"#utility.yul\":15646:16077   */\n      pop\n      pop\n        /* \"#utility.yul\":15631:16077   */\n    tag_274:\n        /* \"#utility.yul\":15541:16084   */\n      pop\n      pop\n      pop\n      jump\t// out\n        /* \"#utility.yul\":16090:16207   */\n    tag_116:\n        /* \"#utility.yul\":16144:16152   */\n      0x00\n        /* \"#utility.yul\":16194:16199   */\n      dup3\n        /* \"#utility.yul\":16188:16192   */\n      dup3\n        /* \"#utility.yul\":16184:16200   */\n      shr\n        /* \"#utility.yul\":16163:16200   */\n      swap1\n      pop\n        /* \"#utility.yul\":16090:16207   */\n      swap3\n      swap2\n      pop\n      pop\n      jump\t// out\n        /* \"#utility.yul\":16213:16382   */\n    tag_117:\n        /* \"#utility.yul\":16257:16263   */\n      0x00\n        /* \"#utility.yul\":16290:16341   */\n      tag_282\n        /* \"#utility.yul\":16338:16339   */\n      0x00\n        /* \"#utility.yul\":16334:16340   */\n      not\n        /* \"#utility.yul\":16326:16331   */\n      dup5\n        /* \"#utility.yul\":16323:16324   */\n      0x08\n        /* \"#utility.yul\":16319:16332   */\n      mul\n        /* \"#utility.yul\":16290:16341   */\n      tag_116\n      jump\t// in\n    tag_282:\n        /* \"#utility.yul\":16286:16342   */\n      not\n        /* \"#utility.yul\":16371:16375   */\n      dup1\n        /* \"#utility.yul\":16365:16369   */\n      dup4\n        /* \"#utility.yul\":16361:16376   */\n      and\n        /* \"#utility.yul\":16351:16376   */\n      swap2\n      pop\n        /* \"#utility.yul\":16264:16382   */\n      pop\n        /* \"#utility.yul\":16213:16382   */\n      swap3\n      swap2\n      pop\n      pop\n      jump\t// out\n        /* \"#utility.yul\":16387:16682   */\n    tag_118:\n        /* \"#utility.yul\":16463:16467   */\n      0x00\n        /* \"#utility.yul\":16609:16638   */\n      tag_284\n        /* \"#utility.yul\":16634:16637   */\n      dup4\n        /* \"#utility.yul\":16628:16632   */\n      dup4\n        /* \"#utility.yul\":16609:16638   */\n      tag_117\n      jump\t// in\n    tag_284:\n        /* \"#utility.yul\":16601:16638   */\n      swap2\n      pop\n        /* \"#utility.yul\":16671:16674   */\n      dup3\n        /* \"#utility.yul\":16668:16669   */\n      0x02\n        /* \"#utility.yul\":16664:16675   */\n      mul\n        /* \"#utility.yul\":16658:16662   */\n      dup3\n        /* \"#utility.yul\":16655:16676   */\n      or\n        /* \"#utility.yul\":16647:16676   */\n      swap1\n      pop\n        /* \"#utility.yul\":16387:16682   */\n      swap3\n      swap2\n      pop\n      pop\n      jump\t// out\n        /* \"#utility.yul\":16687:18082   */\n    tag_41:\n        /* \"#utility.yul\":16804:16841   */\n      tag_286\n        /* \"#utility.yul\":16837:16840   */\n      dup3\n        /* \"#utility.yul\":16804:16841   */\n      tag_74\n      jump\t// in\n    tag_286:\n        /* \"#utility.yul\":16906:16924   */\n      0xffffffffffffffff\n        /* \"#utility.yul\":16898:16904   */\n      dup2\n        /* \"#utility.yul\":16895:16925   */\n      gt\n        /* \"#utility.yul\":16892:16948   */\n      iszero\n      tag_287\n      jumpi\n        /* \"#utility.yul\":16928:16946   */\n      tag_288\n      tag_82\n      jump\t// in\n    tag_288:\n        /* \"#utility.yul\":16892:16948   */\n    tag_287:\n        /* \"#utility.yul\":16972:17010   */\n      tag_289\n        /* \"#utility.yul\":17004:17008   */\n      dup3\n        /* \"#utility.yul\":16998:17009   */\n      sload\n        /* \"#utility.yul\":16972:17010   */\n      tag_30\n      jump\t// in\n    tag_289:\n        /* \"#utility.yul\":17057:17124   */\n      tag_290\n        /* \"#utility.yul\":17117:17123   */\n      dup3\n        /* \"#utility.yul\":17109:17115   */\n      dup3\n        /* \"#utility.yul\":17103:17107   */\n      dup6\n        /* \"#utility.yul\":17057:17124   */\n      tag_115\n      jump\t// in\n    tag_290:\n        /* \"#utility.yul\":17151:17152   */\n      0x00\n        /* \"#utility.yul\":17175:17179   */\n      0x20\n        /* \"#utility.yul\":17162:17179   */\n      swap1\n      pop\n        /* \"#utility.yul\":17207:17209   */\n      0x1f\n        /* \"#utility.yul\":17199:17205   */\n      dup4\n        /* \"#utility.yul\":17196:17210   */\n      gt\n        /* \"#utility.yul\":17224:17225   */\n      0x01\n        /* \"#utility.yul\":17219:17837   */\n      dup2\n      eq\n      tag_292\n      jumpi\n        /* \"#utility.yul\":17881:17882   */\n      0x00\n        /* \"#utility.yul\":17898:17904   */\n      dup5\n        /* \"#utility.yul\":17895:17972   */\n      iszero\n      tag_293\n      jumpi\n        /* \"#utility.yul\":17947:17956   */\n      dup3\n        /* \"#utility.yul\":17942:17945   */\n      dup8\n        /* \"#utility.yul\":17938:17957   */\n      add\n        /* \"#utility.yul\":17932:17958   */\n      mload\n        /* \"#utility.yul\":17923:17958   */\n      swap1\n      pop\n        /* \"#utility.yul\":17895:17972   */\n    tag_293:\n        /* \"#utility.yul\":17998:18065   */\n      tag_294\n        /* \"#utility.yul\":18058:18064   */\n      dup6\n        /* \"#utility.yul\":18051:18056   */\n      dup3\n        /* \"#utility.yul\":17998:18065   */\n      tag_118\n      jump\t// in\n    tag_294:\n        /* \"#utility.yul\":17992:17996   */\n      dup7\n        /* \"#utility.yul\":17985:18066   */\n      sstore\n        /* \"#utility.yul\":17854:18076   */\n      pop\n        /* \"#utility.yul\":17189:18076   */\n      jump(tag_291)\n        /* \"#utility.yul\":17219:17837   */\n    tag_292:\n        /* \"#utility.yul\":17271:17275   */\n      0x1f\n        /* \"#utility.yul\":17267:17276   */\n      not\n        /* \"#utility.yul\":17259:17265   */\n      dup5\n        /* \"#utility.yul\":17255:17277   */\n      and\n        /* \"#utility.yul\":17305:17342   */\n      tag_295\n        /* \"#utility.yul\":17337:17341   */\n      dup7\n        /* \"#utility.yul\":17305:17342   */\n      tag_104\n      jump\t// in\n    tag_295:\n        /* \"#utility.yul\":17364:17365   */\n      0x00\n        /* \"#utility.yul\":17378:17586   */\n    tag_296:\n        /* \"#utility.yul\":17392:17399   */\n      dup3\n        /* \"#utility.yul\":17389:17390   */\n      dup2\n        /* \"#utility.yul\":17386:17400   */\n      lt\n        /* \"#utility.yul\":17378:17586   */\n      iszero\n      tag_298\n      jumpi\n        /* \"#utility.yul\":17471:17480   */\n      dup5\n        /* \"#utility.yul\":17466:17469   */\n      dup10\n        /* \"#utility.yul\":17462:17481   */\n      add\n        /* \"#utility.yul\":17456:17482   */\n      mload\n        /* \"#utility.yul\":17448:17454   */\n      dup3\n        /* \"#utility.yul\":17441:17483   */\n      sstore\n        /* \"#utility.yul\":17522:17523   */\n      0x01\n        /* \"#utility.yul\":17514:17520   */\n      dup3\n        /* \"#utility.yul\":17510:17524   */\n      add\n        /* \"#utility.yul\":17500:17524   */\n      swap2\n      pop\n        /* \"#utility.yul\":17569:17571   */\n      0x20\n        /* \"#utility.yul\":17558:17567   */\n      dup6\n        /* \"#utility.yul\":17554:17572   */\n      add\n        /* \"#utility.yul\":17541:17572   */\n      swap5\n      pop\n        /* \"#utility.yul\":17415:17419   */\n      0x20\n        /* \"#utility.yul\":17412:17413   */\n      dup2\n        /* \"#utility.yul\":17408:17420   */\n      add\n        /* \"#utility.yul\":17403:17420   */\n      swap1\n      pop\n        /* \"#utility.yul\":17378:17586   */\n      jump(tag_296)\n    tag_298:\n        /* \"#utility.yul\":17614:17620   */\n      dup7\n        /* \"#utility.yul\":17605:17612   */\n      dup4\n        /* \"#utility.yul\":17602:17621   */\n      lt\n        /* \"#utility.yul\":17599:17778   */\n      iszero\n      tag_299\n      jumpi\n        /* \"#utility.yul\":17672:17681   */\n      dup5\n        /* \"#utility.yul\":17667:17670   */\n      dup10\n        /* \"#utility.yul\":17663:17682   */\n      add\n        /* \"#utility.yul\":17657:17683   */\n      mload\n        /* \"#utility.yul\":17715:17763   */\n      tag_300\n        /* \"#utility.yul\":17757:17761   */\n      0x1f\n        /* \"#utility.yul\":17749:17755   */\n      dup10\n        /* \"#utility.yul\":17745:17762   */\n      and\n        /* \"#utility.yul\":17734:17743   */\n      dup3\n        /* \"#utility.yul\":17715:17763   */\n      tag_117\n      jump\t// in\n    tag_300:\n        /* \"#utility.yul\":17707:17713   */\n      dup4\n        /* \"#utility.yul\":17700:17764   */\n      sstore\n        /* \"#utility.yul\":17622:17778   */\n      pop\n        /* \"#utility.yul\":17599:17778   */\n    tag_299:\n        /* \"#utility.yul\":17824:17825   */\n      0x01\n        /* \"#utility.yul\":17820:17821   */\n      0x02\n        /* \"#utility.yul\":17812:17818   */\n      dup9\n        /* \"#utility.yul\":17808:17822   */\n      mul\n        /* \"#utility.yul\":17804:17826   */\n      add\n        /* \"#utility.yul\":17798:17802   */\n      dup9\n        /* \"#utility.yul\":17791:17827   */\n      sstore\n        /* \"#utility.yul\":17226:17837   */\n      pop\n      pop\n      pop\n        /* \"#utility.yul\":17189:18076   */\n    tag_291:\n      pop\n        /* \"#utility.yul\":16779:18082   */\n      pop\n      pop\n      pop\n        /* \"#utility.yul\":16687:18082   */\n      pop\n      pop\n      jump\t// out\n        /* \"#utility.yul\":18088:18268   */\n    tag_56:\n        /* \"#utility.yul\":18136:18213   */\n      0x4e487b7100000000000000000000000000000000000000000000000000000000\n        /* \"#utility.yul\":18133:18134   */\n      0x00\n        /* \"#utility.yul\":18126:18214   */\n      mstore\n        /* \"#utility.yul\":18233:18237   */\n      0x32\n        /* \"#utility.yul\":18230:18231   */\n      0x04\n        /* \"#utility.yul\":18223:18238   */\n      mstore\n        /* \"#utility.yul\":18257:18261   */\n      0x24\n        /* \"#utility.yul\":18254:18255   */\n      0x00\n        /* \"#utility.yul\":18247:18262   */\n      revert\n\n    auxdata: 0xa26469706673582212207ae390d06717b277a7bca0a696788805821baf9cff75717fc10c5d46a2598d4f64736f6c63430008160033\n}\n",
				"bytecode": {
					"linkReferences": {},
					"object": "608060405234801561000f575f80fd5b50610fac8061001d5f395ff3fe608060405234801561000f575f80fd5b506004361061004a575f3560e01c806305a1b4a91461004e57806317d7f82014610081578063532561351461009d578063c3ad5ecb146100bb575b5f80fd5b61006860048036038101906100639190610703565b6100eb565b60405161007894939291906107e9565b60405180910390f35b61009b6004803603810190610096919061095f565b6101d5565b005b6100a5610330565b6040516100b29190610b27565b60405180910390f35b6100d560048036038101906100d09190610b47565b6104be565b6040516100e29190610bd2565b60405180910390f35b5f602052815f5260405f208181548110610103575f80fd5b905f5260205f2090600402015f9150915050805f015f9054906101000a900473ffffffffffffffffffffffffffffffffffffffff169080600101805461014890610c1f565b80601f016020809104026020016040519081016040528092919081815260200182805461017490610c1f565b80156101bf5780601f10610196576101008083540402835291602001916101bf565b820191905f5260205f20905b8154815290600101906020018083116101a257829003601f168201915b5050505050908060020154908060030154905084565b61011861ffff168151111561021f576040517f08c379a000000000000000000000000000000000000000000000000000000000815260040161021690610cbf565b60405180910390fd5b5f60405180608001604052803373ffffffffffffffffffffffffffffffffffffffff1681526020018381526020014281526020015f81525090505f803373ffffffffffffffffffffffffffffffffffffffff1673ffffffffffffffffffffffffffffffffffffffff1681526020019081526020015f2081908060018154018082558091505060019003905f5260205f2090600402015f909190919091505f820151815f015f6101000a81548173ffffffffffffffffffffffffffffffffffffffff021916908373ffffffffffffffffffffffffffffffffffffffff16021790555060208201518160010190816103159190610e7a565b50604082015181600201556060820151816003015550505050565b60605f803373ffffffffffffffffffffffffffffffffffffffff1673ffffffffffffffffffffffffffffffffffffffff1681526020019081526020015f20805480602002602001604051908101604052809291908181526020015f905b828210156104b5578382905f5260205f2090600402016040518060800160405290815f82015f9054906101000a900473ffffffffffffffffffffffffffffffffffffffff1673ffffffffffffffffffffffffffffffffffffffff1673ffffffffffffffffffffffffffffffffffffffff16815260200160018201805461041290610c1f565b80601f016020809104026020016040519081016040528092919081815260200182805461043e90610c1f565b80156104895780601f1061046057610100808354040283529160200191610489565b820191905f5260205f20905b81548152906001019060200180831161046c57829003601f168201915b50505050508152602001600282015481526020016003820154815250508152602001906001019061038d565b50505050905090565b6104c661062a565b5f803373ffffffffffffffffffffffffffffffffffffffff1673ffffffffffffffffffffffffffffffffffffffff1681526020019081526020015f20828154811061051457610513610f49565b5b905f5260205f2090600402016040518060800160405290815f82015f9054906101000a900473ffffffffffffffffffffffffffffffffffffffff1673ffffffffffffffffffffffffffffffffffffffff1673ffffffffffffffffffffffffffffffffffffffff16815260200160018201805461058f90610c1f565b80601f01602080910402602001604051908101604052809291908181526020018280546105bb90610c1f565b80156106065780601f106105dd57610100808354040283529160200191610606565b820191905f5260205f20905b8154815290600101906020018083116105e957829003601f168201915b50505050508152602001600282015481526020016003820154815250509050919050565b60405180608001604052805f73ffffffffffffffffffffffffffffffffffffffff168152602001606081526020015f81526020015f81525090565b5f604051905090565b5f80fd5b5f80fd5b5f73ffffffffffffffffffffffffffffffffffffffff82169050919050565b5f61069f82610676565b9050919050565b6106af81610695565b81146106b9575f80fd5b50565b5f813590506106ca816106a6565b92915050565b5f819050919050565b6106e2816106d0565b81146106ec575f80fd5b50565b5f813590506106fd816106d9565b92915050565b5f80604083850312156107195761071861066e565b5b5f610726858286016106bc565b9250506020610737858286016106ef565b9150509250929050565b61074a81610695565b82525050565b5f81519050919050565b5f82825260208201905092915050565b5f5b8381101561078757808201518184015260208101905061076c565b5f8484015250505050565b5f601f19601f8301169050919050565b5f6107ac82610750565b6107b6818561075a565b93506107c681856020860161076a565b6107cf81610792565b840191505092915050565b6107e3816106d0565b82525050565b5f6080820190506107fc5f830187610741565b818103602083015261080e81866107a2565b905061081d60408301856107da565b61082a60608301846107da565b95945050505050565b5f80fd5b5f80fd5b7f4e487b71000000000000000000000000000000000000000000000000000000005f52604160045260245ffd5b61087182610792565b810181811067ffffffffffffffff821117156108905761088f61083b565b5b80604052505050565b5f6108a2610665565b90506108ae8282610868565b919050565b5f67ffffffffffffffff8211156108cd576108cc61083b565b5b6108d682610792565b9050602081019050919050565b828183375f83830152505050565b5f6109036108fe846108b3565b610899565b90508281526020810184848401111561091f5761091e610837565b5b61092a8482856108e3565b509392505050565b5f82601f83011261094657610945610833565b5b81356109568482602086016108f1565b91505092915050565b5f602082840312156109745761097361066e565b5b5f82013567ffffffffffffffff81111561099157610990610672565b5b61099d84828501610932565b91505092915050565b5f81519050919050565b5f82825260208201905092915050565b5f819050602082019050919050565b6109d881610695565b82525050565b5f82825260208201905092915050565b5f6109f882610750565b610a0281856109de565b9350610a1281856020860161076a565b610a1b81610792565b840191505092915050565b610a2f816106d0565b82525050565b5f608083015f830151610a4a5f8601826109cf565b5060208301518482036020860152610a6282826109ee565b9150506040830151610a776040860182610a26565b506060830151610a8a6060860182610a26565b508091505092915050565b5f610aa08383610a35565b905092915050565b5f602082019050919050565b5f610abe826109a6565b610ac881856109b0565b935083602082028501610ada856109c0565b805f5b85811015610b155784840389528151610af68582610a95565b9450610b0183610aa8565b925060208a01995050600181019050610add565b50829750879550505050505092915050565b5f6020820190508181035f830152610b3f8184610ab4565b905092915050565b5f60208284031215610b5c57610b5b61066e565b5b5f610b69848285016106ef565b91505092915050565b5f608083015f830151610b875f8601826109cf565b5060208301518482036020860152610b9f82826109ee565b9150506040830151610bb46040860182610a26565b506060830151610bc76060860182610a26565b508091505092915050565b5f6020820190508181035f830152610bea8184610b72565b905092915050565b7f4e487b71000000000000000000000000000000000000000000000000000000005f52602260045260245ffd5b5f6002820490506001821680610c3657607f821691505b602082108103610c4957610c48610bf2565b5b50919050565b7f457863656564732074686520636861726163746572206c696d697420666f72205f8201527f612073696e676c65207477656574000000000000000000000000000000000000602082015250565b5f610ca9602e8361075a565b9150610cb482610c4f565b604082019050919050565b5f6020820190508181035f830152610cd681610c9d565b9050919050565b5f819050815f5260205f209050919050565b5f6020601f8301049050919050565b5f82821b905092915050565b5f60088302610d397fffffffffffffffffffffffffffffffffffffffffffffffffffffffffffffffff82610cfe565b610d438683610cfe565b95508019841693508086168417925050509392505050565b5f819050919050565b5f610d7e610d79610d74846106d0565b610d5b565b6106d0565b9050919050565b5f819050919050565b610d9783610d64565b610dab610da382610d85565b848454610d0a565b825550505050565b5f90565b610dbf610db3565b610dca818484610d8e565b505050565b5b81811015610ded57610de25f82610db7565b600181019050610dd0565b5050565b601f821115610e3257610e0381610cdd565b610e0c84610cef565b81016020851015610e1b578190505b610e2f610e2785610cef565b830182610dcf565b50505b505050565b5f82821c905092915050565b5f610e525f1984600802610e37565b1980831691505092915050565b5f610e6a8383610e43565b9150826002028217905092915050565b610e8382610750565b67ffffffffffffffff811115610e9c57610e9b61083b565b5b610ea68254610c1f565b610eb1828285610df1565b5f60209050601f831160018114610ee2575f8415610ed0578287015190505b610eda8582610e5f565b865550610f41565b601f198416610ef086610cdd565b5f5b82811015610f1757848901518255600182019150602085019450602081019050610ef2565b86831015610f345784890151610f30601f891682610e43565b8355505b6001600288020188555050505b505050505050565b7f4e487b71000000000000000000000000000000000000000000000000000000005f52603260045260245ffdfea26469706673582212207ae390d06717b277a7bca0a696788805821baf9cff75717fc10c5d46a2598d4f64736f6c63430008160033",
					"opcodes": "PUSH1 0x80 PUSH1 0x40 MSTORE CALLVALUE DUP1 ISZERO PUSH2 0xF JUMPI PUSH0 DUP1 REVERT JUMPDEST POP PUSH2 0xFAC DUP1 PUSH2 0x1D PUSH0 CODECOPY PUSH0 RETURN INVALID PUSH1 0x80 PUSH1 0x40 MSTORE CALLVALUE DUP1 ISZERO PUSH2 0xF JUMPI PUSH0 DUP1 REVERT JUMPDEST POP PUSH1 0x4 CALLDATASIZE LT PUSH2 0x4A JUMPI PUSH0 CALLDATALOAD PUSH1 0xE0 SHR DUP1 PUSH4 0x5A1B4A9 EQ PUSH2 0x4E JUMPI DUP1 PUSH4 0x17D7F820 EQ PUSH2 0x81 JUMPI DUP1 PUSH4 0x53256135 EQ PUSH2 0x9D JUMPI DUP1 PUSH4 0xC3AD5ECB EQ PUSH2 0xBB JUMPI JUMPDEST PUSH0 DUP1 REVERT JUMPDEST PUSH2 0x68 PUSH1 0x4 DUP1 CALLDATASIZE SUB DUP2 ADD SWAP1 PUSH2 0x63 SWAP2 SWAP1 PUSH2 0x703 JUMP JUMPDEST PUSH2 0xEB JUMP JUMPDEST PUSH1 0x40 MLOAD PUSH2 0x78 SWAP5 SWAP4 SWAP3 SWAP2 SWAP1 PUSH2 0x7E9 JUMP JUMPDEST PUSH1 0x40 MLOAD DUP1 SWAP2 SUB SWAP1 RETURN JUMPDEST PUSH2 0x9B PUSH1 0x4 DUP1 CALLDATASIZE SUB DUP2 ADD SWAP1 PUSH2 0x96 SWAP2 SWAP1 PUSH2 0x95F JUMP JUMPDEST PUSH2 0x1D5 JUMP JUMPDEST STOP JUMPDEST PUSH2 0xA5 PUSH2 0x330 JUMP JUMPDEST PUSH1 0x40 MLOAD PUSH2 0xB2 SWAP2 SWAP1 PUSH2 0xB27 JUMP JUMPDEST PUSH1 0x40 MLOAD DUP1 SWAP2 SUB SWAP1 RETURN JUMPDEST PUSH2 0xD5 PUSH1 0x4 DUP1 CALLDATASIZE SUB DUP2 ADD SWAP1 PUSH2 0xD0 SWAP2 SWAP1 PUSH2 0xB47 JUMP JUMPDEST PUSH2 0x4BE JUMP JUMPDEST PUSH1 0x40 MLOAD PUSH2 0xE2 SWAP2 SWAP1 PUSH2 0xBD2 JUMP JUMPDEST PUSH1 0x40 MLOAD DUP1 SWAP2 SUB SWAP1 RETURN JUMPDEST PUSH0 PUSH1 0x20 MSTORE DUP2 PUSH0 MSTORE PUSH1 0x40 PUSH0 KECCAK256 DUP2 DUP2 SLOAD DUP2 LT PUSH2 0x103 JUMPI PUSH0 DUP1 REVERT JUMPDEST SWAP1 PUSH0 MSTORE PUSH1 0x20 PUSH0 KECCAK256 SWAP1 PUSH1 0x4 MUL ADD PUSH0 SWAP2 POP SWAP2 POP POP DUP1 PUSH0 ADD PUSH0 SWAP1 SLOAD SWAP1 PUSH2 0x100 EXP SWAP1 DIV PUSH20 0xFFFFFFFFFFFFFFFFFFFFFFFFFFFFFFFFFFFFFFFF AND SWAP1 DUP1 PUSH1 0x1 ADD DUP1 SLOAD PUSH2 0x148 SWAP1 PUSH2 0xC1F JUMP JUMPDEST DUP1 PUSH1 0x1F ADD PUSH1 0x20 DUP1 SWAP2 DIV MUL PUSH1 0x20 ADD PUSH1 0x40 MLOAD SWAP1 DUP2 ADD PUSH1 0x40 MSTORE DUP1 SWAP3 SWAP2 SWAP1 DUP2 DUP2 MSTORE PUSH1 0x20 ADD DUP3 DUP1 SLOAD PUSH2 0x174 SWAP1 PUSH2 0xC1F JUMP JUMPDEST DUP1 ISZERO PUSH2 0x1BF JUMPI DUP1 PUSH1 0x1F LT PUSH2 0x196 JUMPI PUSH2 0x100 DUP1 DUP4 SLOAD DIV MUL DUP4 MSTORE SWAP2 PUSH1 0x20 ADD SWAP2 PUSH2 0x1BF JUMP JUMPDEST DUP3 ADD SWAP2 SWAP1 PUSH0 MSTORE PUSH1 0x20 PUSH0 KECCAK256 SWAP1 JUMPDEST DUP2 SLOAD DUP2 MSTORE SWAP1 PUSH1 0x1 ADD SWAP1 PUSH1 0x20 ADD DUP1 DUP4 GT PUSH2 0x1A2 JUMPI DUP3 SWAP1 SUB PUSH1 0x1F AND DUP3 ADD SWAP2 JUMPDEST POP POP POP POP POP SWAP1 DUP1 PUSH1 0x2 ADD SLOAD SWAP1 DUP1 PUSH1 0x3 ADD SLOAD SWAP1 POP DUP5 JUMP JUMPDEST PUSH2 0x118 PUSH2 0xFFFF AND DUP2 MLOAD GT ISZERO PUSH2 0x21F JUMPI PUSH1 0x40 MLOAD PUSH32 0x8C379A000000000000000000000000000000000000000000000000000000000 DUP2 MSTORE PUSH1 0x4 ADD PUSH2 0x216 SWAP1 PUSH2 0xCBF JUMP JUMPDEST PUSH1 0x40 MLOAD DUP1 SWAP2 SUB SWAP1 REVERT JUMPDEST PUSH0 PUSH1 0x40 MLOAD DUP1 PUSH1 0x80 ADD PUSH1 0x40 MSTORE DUP1 CALLER PUSH20 0xFFFFFFFFFFFFFFFFFFFFFFFFFFFFFFFFFFFFFFFF AND DUP2 MSTORE PUSH1 0x20 ADD DUP4 DUP2 MSTORE PUSH1 0x20 ADD TIMESTAMP DUP2 MSTORE PUSH1 0x20 ADD PUSH0 DUP2 MSTORE POP SWAP1 POP PUSH0 DUP1 CALLER PUSH20 0xFFFFFFFFFFFFFFFFFFFFFFFFFFFFFFFFFFFFFFFF AND PUSH20 0xFFFFFFFFFFFFFFFFFFFFFFFFFFFFFFFFFFFFFFFF AND DUP2 MSTORE PUSH1 0x20 ADD SWAP1 DUP2 MSTORE PUSH1 0x20 ADD PUSH0 KECCAK256 DUP2 SWAP1 DUP1 PUSH1 0x1 DUP2 SLOAD ADD DUP1 DUP3 SSTORE DUP1 SWAP2 POP POP PUSH1 0x1 SWAP1 SUB SWAP1 PUSH0 MSTORE PUSH1 0x20 PUSH0 KECCAK256 SWAP1 PUSH1 0x4 MUL ADD PUSH0 SWAP1 SWAP2 SWAP1 SWAP2 SWAP1 SWAP2 POP PUSH0 DUP3 ADD MLOAD DUP2 PUSH0 ADD PUSH0 PUSH2 0x100 EXP DUP2 SLOAD DUP2 PUSH20 0xFFFFFFFFFFFFFFFFFFFFFFFFFFFFFFFFFFFFFFFF MUL NOT AND SWAP1 DUP4 PUSH20 0xFFFFFFFFFFFFFFFFFFFFFFFFFFFFFFFFFFFFFFFF AND MUL OR SWAP1 SSTORE POP PUSH1 0x20 DUP3 ADD MLOAD DUP2 PUSH1 0x1 ADD SWAP1 DUP2 PUSH2 0x315 SWAP2 SWAP1 PUSH2 0xE7A JUMP JUMPDEST POP PUSH1 0x40 DUP3 ADD MLOAD DUP2 PUSH1 0x2 ADD SSTORE PUSH1 0x60 DUP3 ADD MLOAD DUP2 PUSH1 0x3 ADD SSTORE POP POP POP POP JUMP JUMPDEST PUSH1 0x60 PUSH0 DUP1 CALLER PUSH20 0xFFFFFFFFFFFFFFFFFFFFFFFFFFFFFFFFFFFFFFFF AND PUSH20 0xFFFFFFFFFFFFFFFFFFFFFFFFFFFFFFFFFFFFFFFF AND DUP2 MSTORE PUSH1 0x20 ADD SWAP1 DUP2 MSTORE PUSH1 0x20 ADD PUSH0 KECCAK256 DUP1 SLOAD DUP1 PUSH1 0x20 MUL PUSH1 0x20 ADD PUSH1 0x40 MLOAD SWAP1 DUP2 ADD PUSH1 0x40 MSTORE DUP1 SWAP3 SWAP2 SWAP1 DUP2 DUP2 MSTORE PUSH1 0x20 ADD PUSH0 SWAP1 JUMPDEST DUP3 DUP3 LT ISZERO PUSH2 0x4B5 JUMPI DUP4 DUP3 SWAP1 PUSH0 MSTORE PUSH1 0x20 PUSH0 KECCAK256 SWAP1 PUSH1 0x4 MUL ADD PUSH1 0x40 MLOAD DUP1 PUSH1 0x80 ADD PUSH1 0x40 MSTORE SWAP1 DUP2 PUSH0 DUP3 ADD PUSH0 SWAP1 SLOAD SWAP1 PUSH2 0x100 EXP SWAP1 DIV PUSH20 0xFFFFFFFFFFFFFFFFFFFFFFFFFFFFFFFFFFFFFFFF AND PUSH20 0xFFFFFFFFFFFFFFFFFFFFFFFFFFFFFFFFFFFFFFFF AND PUSH20 0xFFFFFFFFFFFFFFFFFFFFFFFFFFFFFFFFFFFFFFFF AND DUP2 MSTORE PUSH1 0x20 ADD PUSH1 0x1 DUP3 ADD DUP1 SLOAD PUSH2 0x412 SWAP1 PUSH2 0xC1F JUMP JUMPDEST DUP1 PUSH1 0x1F ADD PUSH1 0x20 DUP1 SWAP2 DIV MUL PUSH1 0x20 ADD PUSH1 0x40 MLOAD SWAP1 DUP2 ADD PUSH1 0x40 MSTORE DUP1 SWAP3 SWAP2 SWAP1 DUP2 DUP2 MSTORE PUSH1 0x20 ADD DUP3 DUP1 SLOAD PUSH2 0x43E SWAP1 PUSH2 0xC1F JUMP JUMPDEST DUP1 ISZERO PUSH2 0x489 JUMPI DUP1 PUSH1 0x1F LT PUSH2 0x460 JUMPI PUSH2 0x100 DUP1 DUP4 SLOAD DIV MUL DUP4 MSTORE SWAP2 PUSH1 0x20 ADD SWAP2 PUSH2 0x489 JUMP JUMPDEST DUP3 ADD SWAP2 SWAP1 PUSH0 MSTORE PUSH1 0x20 PUSH0 KECCAK256 SWAP1 JUMPDEST DUP2 SLOAD DUP2 MSTORE SWAP1 PUSH1 0x1 ADD SWAP1 PUSH1 0x20 ADD DUP1 DUP4 GT PUSH2 0x46C JUMPI DUP3 SWAP1 SUB PUSH1 0x1F AND DUP3 ADD SWAP2 JUMPDEST POP POP POP POP POP DUP2 MSTORE PUSH1 0x20 ADD PUSH1 0x2 DUP3 ADD SLOAD DUP2 MSTORE PUSH1 0x20 ADD PUSH1 0x3 DUP3 ADD SLOAD DUP2 MSTORE POP POP DUP2 MSTORE PUSH1 0x20 ADD SWAP1 PUSH1 0x1 ADD SWAP1 PUSH2 0x38D JUMP JUMPDEST POP POP POP POP SWAP1 POP SWAP1 JUMP JUMPDEST PUSH2 0x4C6 PUSH2 0x62A JUMP JUMPDEST PUSH0 DUP1 CALLER PUSH20 0xFFFFFFFFFFFFFFFFFFFFFFFFFFFFFFFFFFFFFFFF AND PUSH20 0xFFFFFFFFFFFFFFFFFFFFFFFFFFFFFFFFFFFFFFFF AND DUP2 MSTORE PUSH1 0x20 ADD SWAP1 DUP2 MSTORE PUSH1 0x20 ADD PUSH0 KECCAK256 DUP3 DUP2 SLOAD DUP2 LT PUSH2 0x514 JUMPI PUSH2 0x513 PUSH2 0xF49 JUMP JUMPDEST JUMPDEST SWAP1 PUSH0 MSTORE PUSH1 0x20 PUSH0 KECCAK256 SWAP1 PUSH1 0x4 MUL ADD PUSH1 0x40 MLOAD DUP1 PUSH1 0x80 ADD PUSH1 0x40 MSTORE SWAP1 DUP2 PUSH0 DUP3 ADD PUSH0 SWAP1 SLOAD SWAP1 PUSH2 0x100 EXP SWAP1 DIV PUSH20 0xFFFFFFFFFFFFFFFFFFFFFFFFFFFFFFFFFFFFFFFF AND PUSH20 0xFFFFFFFFFFFFFFFFFFFFFFFFFFFFFFFFFFFFFFFF AND PUSH20 0xFFFFFFFFFFFFFFFFFFFFFFFFFFFFFFFFFFFFFFFF AND DUP2 MSTORE PUSH1 0x20 ADD PUSH1 0x1 DUP3 ADD DUP1 SLOAD PUSH2 0x58F SWAP1 PUSH2 0xC1F JUMP JUMPDEST DUP1 PUSH1 0x1F ADD PUSH1 0x20 DUP1 SWAP2 DIV MUL PUSH1 0x20 ADD PUSH1 0x40 MLOAD SWAP1 DUP2 ADD PUSH1 0x40 MSTORE DUP1 SWAP3 SWAP2 SWAP1 DUP2 DUP2 MSTORE PUSH1 0x20 ADD DUP3 DUP1 SLOAD PUSH2 0x5BB SWAP1 PUSH2 0xC1F JUMP JUMPDEST DUP1 ISZERO PUSH2 0x606 JUMPI DUP1 PUSH1 0x1F LT PUSH2 0x5DD JUMPI PUSH2 0x100 DUP1 DUP4 SLOAD DIV MUL DUP4 MSTORE SWAP2 PUSH1 0x20 ADD SWAP2 PUSH2 0x606 JUMP JUMPDEST DUP3 ADD SWAP2 SWAP1 PUSH0 MSTORE PUSH1 0x20 PUSH0 KECCAK256 SWAP1 JUMPDEST DUP2 SLOAD DUP2 MSTORE SWAP1 PUSH1 0x1 ADD SWAP1 PUSH1 0x20 ADD DUP1 DUP4 GT PUSH2 0x5E9 JUMPI DUP3 SWAP1 SUB PUSH1 0x1F AND DUP3 ADD SWAP2 JUMPDEST POP POP POP POP POP DUP2 MSTORE PUSH1 0x20 ADD PUSH1 0x2 DUP3 ADD SLOAD DUP2 MSTORE PUSH1 0x20 ADD PUSH1 0x3 DUP3 ADD SLOAD DUP2 MSTORE POP POP SWAP1 POP SWAP2 SWAP1 POP JUMP JUMPDEST PUSH1 0x40 MLOAD DUP1 PUSH1 0x80 ADD PUSH1 0x40 MSTORE DUP1 PUSH0 PUSH20 0xFFFFFFFFFFFFFFFFFFFFFFFFFFFFFFFFFFFFFFFF AND DUP2 MSTORE PUSH1 0x20 ADD PUSH1 0x60 DUP2 MSTORE PUSH1 0x20 ADD PUSH0 DUP2 MSTORE PUSH1 0x20 ADD PUSH0 DUP2 MSTORE POP SWAP1 JUMP JUMPDEST PUSH0 PUSH1 0x40 MLOAD SWAP1 POP SWAP1 JUMP JUMPDEST PUSH0 DUP1 REVERT JUMPDEST PUSH0 DUP1 REVERT JUMPDEST PUSH0 PUSH20 0xFFFFFFFFFFFFFFFFFFFFFFFFFFFFFFFFFFFFFFFF DUP3 AND SWAP1 POP SWAP2 SWAP1 POP JUMP JUMPDEST PUSH0 PUSH2 0x69F DUP3 PUSH2 0x676 JUMP JUMPDEST SWAP1 POP SWAP2 SWAP1 POP JUMP JUMPDEST PUSH2 0x6AF DUP2 PUSH2 0x695 JUMP JUMPDEST DUP2 EQ PUSH2 0x6B9 JUMPI PUSH0 DUP1 REVERT JUMPDEST POP JUMP JUMPDEST PUSH0 DUP2 CALLDATALOAD SWAP1 POP PUSH2 0x6CA DUP2 PUSH2 0x6A6 JUMP JUMPDEST SWAP3 SWAP2 POP POP JUMP JUMPDEST PUSH0 DUP2 SWAP1 POP SWAP2 SWAP1 POP JUMP JUMPDEST PUSH2 0x6E2 DUP2 PUSH2 0x6D0 JUMP JUMPDEST DUP2 EQ PUSH2 0x6EC JUMPI PUSH0 DUP1 REVERT JUMPDEST POP JUMP JUMPDEST PUSH0 DUP2 CALLDATALOAD SWAP1 POP PUSH2 0x6FD DUP2 PUSH2 0x6D9 JUMP JUMPDEST SWAP3 SWAP2 POP POP JUMP JUMPDEST PUSH0 DUP1 PUSH1 0x40 DUP4 DUP6 SUB SLT ISZERO PUSH2 0x719 JUMPI PUSH2 0x718 PUSH2 0x66E JUMP JUMPDEST JUMPDEST PUSH0 PUSH2 0x726 DUP6 DUP3 DUP7 ADD PUSH2 0x6BC JUMP JUMPDEST SWAP3 POP POP PUSH1 0x20 PUSH2 0x737 DUP6 DUP3 DUP7 ADD PUSH2 0x6EF JUMP JUMPDEST SWAP2 POP POP SWAP3 POP SWAP3 SWAP1 POP JUMP JUMPDEST PUSH2 0x74A DUP2 PUSH2 0x695 JUMP JUMPDEST DUP3 MSTORE POP POP JUMP JUMPDEST PUSH0 DUP2 MLOAD SWAP1 POP SWAP2 SWAP1 POP JUMP JUMPDEST PUSH0 DUP3 DUP3 MSTORE PUSH1 0x20 DUP3 ADD SWAP1 POP SWAP3 SWAP2 POP POP JUMP JUMPDEST PUSH0 JUMPDEST DUP4 DUP2 LT ISZERO PUSH2 0x787 JUMPI DUP1 DUP3 ADD MLOAD DUP2 DUP5 ADD MSTORE PUSH1 0x20 DUP2 ADD SWAP1 POP PUSH2 0x76C JUMP JUMPDEST PUSH0 DUP5 DUP5 ADD MSTORE POP POP POP POP JUMP JUMPDEST PUSH0 PUSH1 0x1F NOT PUSH1 0x1F DUP4 ADD AND SWAP1 POP SWAP2 SWAP1 POP JUMP JUMPDEST PUSH0 PUSH2 0x7AC DUP3 PUSH2 0x750 JUMP JUMPDEST PUSH2 0x7B6 DUP2 DUP6 PUSH2 0x75A JUMP JUMPDEST SWAP4 POP PUSH2 0x7C6 DUP2 DUP6 PUSH1 0x20 DUP7 ADD PUSH2 0x76A JUMP JUMPDEST PUSH2 0x7CF DUP2 PUSH2 0x792 JUMP JUMPDEST DUP5 ADD SWAP2 POP POP SWAP3 SWAP2 POP POP JUMP JUMPDEST PUSH2 0x7E3 DUP2 PUSH2 0x6D0 JUMP JUMPDEST DUP3 MSTORE POP POP JUMP JUMPDEST PUSH0 PUSH1 0x80 DUP3 ADD SWAP1 POP PUSH2 0x7FC PUSH0 DUP4 ADD DUP8 PUSH2 0x741 JUMP JUMPDEST DUP2 DUP2 SUB PUSH1 0x20 DUP4 ADD MSTORE PUSH2 0x80E DUP2 DUP7 PUSH2 0x7A2 JUMP JUMPDEST SWAP1 POP PUSH2 0x81D PUSH1 0x40 DUP4 ADD DUP6 PUSH2 0x7DA JUMP JUMPDEST PUSH2 0x82A PUSH1 0x60 DUP4 ADD DUP5 PUSH2 0x7DA JUMP JUMPDEST SWAP6 SWAP5 POP POP POP POP POP JUMP JUMPDEST PUSH0 DUP1 REVERT JUMPDEST PUSH0 DUP1 REVERT JUMPDEST PUSH32 0x4E487B7100000000000000000000000000000000000000000000000000000000 PUSH0 MSTORE PUSH1 0x41 PUSH1 0x4 MSTORE PUSH1 0x24 PUSH0 REVERT JUMPDEST PUSH2 0x871 DUP3 PUSH2 0x792 JUMP JUMPDEST DUP2 ADD DUP2 DUP2 LT PUSH8 0xFFFFFFFFFFFFFFFF DUP3 GT OR ISZERO PUSH2 0x890 JUMPI PUSH2 0x88F PUSH2 0x83B JUMP JUMPDEST JUMPDEST DUP1 PUSH1 0x40 MSTORE POP POP POP JUMP JUMPDEST PUSH0 PUSH2 0x8A2 PUSH2 0x665 JUMP JUMPDEST SWAP1 POP PUSH2 0x8AE DUP3 DUP3 PUSH2 0x868 JUMP JUMPDEST SWAP2 SWAP1 POP JUMP JUMPDEST PUSH0 PUSH8 0xFFFFFFFFFFFFFFFF DUP3 GT ISZERO PUSH2 0x8CD JUMPI PUSH2 0x8CC PUSH2 0x83B JUMP JUMPDEST JUMPDEST PUSH2 0x8D6 DUP3 PUSH2 0x792 JUMP JUMPDEST SWAP1 POP PUSH1 0x20 DUP2 ADD SWAP1 POP SWAP2 SWAP1 POP JUMP JUMPDEST DUP3 DUP2 DUP4 CALLDATACOPY PUSH0 DUP4 DUP4 ADD MSTORE POP POP POP JUMP JUMPDEST PUSH0 PUSH2 0x903 PUSH2 0x8FE DUP5 PUSH2 0x8B3 JUMP JUMPDEST PUSH2 0x899 JUMP JUMPDEST SWAP1 POP DUP3 DUP2 MSTORE PUSH1 0x20 DUP2 ADD DUP5 DUP5 DUP5 ADD GT ISZERO PUSH2 0x91F JUMPI PUSH2 0x91E PUSH2 0x837 JUMP JUMPDEST JUMPDEST PUSH2 0x92A DUP5 DUP3 DUP6 PUSH2 0x8E3 JUMP JUMPDEST POP SWAP4 SWAP3 POP POP POP JUMP JUMPDEST PUSH0 DUP3 PUSH1 0x1F DUP4 ADD SLT PUSH2 0x946 JUMPI PUSH2 0x945 PUSH2 0x833 JUMP JUMPDEST JUMPDEST DUP2 CALLDATALOAD PUSH2 0x956 DUP5 DUP3 PUSH1 0x20 DUP7 ADD PUSH2 0x8F1 JUMP JUMPDEST SWAP2 POP POP SWAP3 SWAP2 POP POP JUMP JUMPDEST PUSH0 PUSH1 0x20 DUP3 DUP5 SUB SLT ISZERO PUSH2 0x974 JUMPI PUSH2 0x973 PUSH2 0x66E JUMP JUMPDEST JUMPDEST PUSH0 DUP3 ADD CALLDATALOAD PUSH8 0xFFFFFFFFFFFFFFFF DUP2 GT ISZERO PUSH2 0x991 JUMPI PUSH2 0x990 PUSH2 0x672 JUMP JUMPDEST JUMPDEST PUSH2 0x99D DUP5 DUP3 DUP6 ADD PUSH2 0x932 JUMP JUMPDEST SWAP2 POP POP SWAP3 SWAP2 POP POP JUMP JUMPDEST PUSH0 DUP2 MLOAD SWAP1 POP SWAP2 SWAP1 POP JUMP JUMPDEST PUSH0 DUP3 DUP3 MSTORE PUSH1 0x20 DUP3 ADD SWAP1 POP SWAP3 SWAP2 POP POP JUMP JUMPDEST PUSH0 DUP2 SWAP1 POP PUSH1 0x20 DUP3 ADD SWAP1 POP SWAP2 SWAP1 POP JUMP JUMPDEST PUSH2 0x9D8 DUP2 PUSH2 0x695 JUMP JUMPDEST DUP3 MSTORE POP POP JUMP JUMPDEST PUSH0 DUP3 DUP3 MSTORE PUSH1 0x20 DUP3 ADD SWAP1 POP SWAP3 SWAP2 POP POP JUMP JUMPDEST PUSH0 PUSH2 0x9F8 DUP3 PUSH2 0x750 JUMP JUMPDEST PUSH2 0xA02 DUP2 DUP6 PUSH2 0x9DE JUMP JUMPDEST SWAP4 POP PUSH2 0xA12 DUP2 DUP6 PUSH1 0x20 DUP7 ADD PUSH2 0x76A JUMP JUMPDEST PUSH2 0xA1B DUP2 PUSH2 0x792 JUMP JUMPDEST DUP5 ADD SWAP2 POP POP SWAP3 SWAP2 POP POP JUMP JUMPDEST PUSH2 0xA2F DUP2 PUSH2 0x6D0 JUMP JUMPDEST DUP3 MSTORE POP POP JUMP JUMPDEST PUSH0 PUSH1 0x80 DUP4 ADD PUSH0 DUP4 ADD MLOAD PUSH2 0xA4A PUSH0 DUP7 ADD DUP3 PUSH2 0x9CF JUMP JUMPDEST POP PUSH1 0x20 DUP4 ADD MLOAD DUP5 DUP3 SUB PUSH1 0x20 DUP7 ADD MSTORE PUSH2 0xA62 DUP3 DUP3 PUSH2 0x9EE JUMP JUMPDEST SWAP2 POP POP PUSH1 0x40 DUP4 ADD MLOAD PUSH2 0xA77 PUSH1 0x40 DUP7 ADD DUP3 PUSH2 0xA26 JUMP JUMPDEST POP PUSH1 0x60 DUP4 ADD MLOAD PUSH2 0xA8A PUSH1 0x60 DUP7 ADD DUP3 PUSH2 0xA26 JUMP JUMPDEST POP DUP1 SWAP2 POP POP SWAP3 SWAP2 POP POP JUMP JUMPDEST PUSH0 PUSH2 0xAA0 DUP4 DUP4 PUSH2 0xA35 JUMP JUMPDEST SWAP1 POP SWAP3 SWAP2 POP POP JUMP JUMPDEST PUSH0 PUSH1 0x20 DUP3 ADD SWAP1 POP SWAP2 SWAP1 POP JUMP JUMPDEST PUSH0 PUSH2 0xABE DUP3 PUSH2 0x9A6 JUMP JUMPDEST PUSH2 0xAC8 DUP2 DUP6 PUSH2 0x9B0 JUMP JUMPDEST SWAP4 POP DUP4 PUSH1 0x20 DUP3 MUL DUP6 ADD PUSH2 0xADA DUP6 PUSH2 0x9C0 JUMP JUMPDEST DUP1 PUSH0 JUMPDEST DUP6 DUP2 LT ISZERO PUSH2 0xB15 JUMPI DUP5 DUP5 SUB DUP10 MSTORE DUP2 MLOAD PUSH2 0xAF6 DUP6 DUP3 PUSH2 0xA95 JUMP JUMPDEST SWAP5 POP PUSH2 0xB01 DUP4 PUSH2 0xAA8 JUMP JUMPDEST SWAP3 POP PUSH1 0x20 DUP11 ADD SWAP10 POP POP PUSH1 0x1 DUP2 ADD SWAP1 POP PUSH2 0xADD JUMP JUMPDEST POP DUP3 SWAP8 POP DUP8 SWAP6 POP POP POP POP POP POP SWAP3 SWAP2 POP POP JUMP JUMPDEST PUSH0 PUSH1 0x20 DUP3 ADD SWAP1 POP DUP2 DUP2 SUB PUSH0 DUP4 ADD MSTORE PUSH2 0xB3F DUP2 DUP5 PUSH2 0xAB4 JUMP JUMPDEST SWAP1 POP SWAP3 SWAP2 POP POP JUMP JUMPDEST PUSH0 PUSH1 0x20 DUP3 DUP5 SUB SLT ISZERO PUSH2 0xB5C JUMPI PUSH2 0xB5B PUSH2 0x66E JUMP JUMPDEST JUMPDEST PUSH0 PUSH2 0xB69 DUP5 DUP3 DUP6 ADD PUSH2 0x6EF JUMP JUMPDEST SWAP2 POP POP SWAP3 SWAP2 POP POP JUMP JUMPDEST PUSH0 PUSH1 0x80 DUP4 ADD PUSH0 DUP4 ADD MLOAD PUSH2 0xB87 PUSH0 DUP7 ADD DUP3 PUSH2 0x9CF JUMP JUMPDEST POP PUSH1 0x20 DUP4 ADD MLOAD DUP5 DUP3 SUB PUSH1 0x20 DUP7 ADD MSTORE PUSH2 0xB9F DUP3 DUP3 PUSH2 0x9EE JUMP JUMPDEST SWAP2 POP POP PUSH1 0x40 DUP4 ADD MLOAD PUSH2 0xBB4 PUSH1 0x40 DUP7 ADD DUP3 PUSH2 0xA26 JUMP JUMPDEST POP PUSH1 0x60 DUP4 ADD MLOAD PUSH2 0xBC7 PUSH1 0x60 DUP7 ADD DUP3 PUSH2 0xA26 JUMP JUMPDEST POP DUP1 SWAP2 POP POP SWAP3 SWAP2 POP POP JUMP JUMPDEST PUSH0 PUSH1 0x20 DUP3 ADD SWAP1 POP DUP2 DUP2 SUB PUSH0 DUP4 ADD MSTORE PUSH2 0xBEA DUP2 DUP5 PUSH2 0xB72 JUMP JUMPDEST SWAP1 POP SWAP3 SWAP2 POP POP JUMP JUMPDEST PUSH32 0x4E487B7100000000000000000000000000000000000000000000000000000000 PUSH0 MSTORE PUSH1 0x22 PUSH1 0x4 MSTORE PUSH1 0x24 PUSH0 REVERT JUMPDEST PUSH0 PUSH1 0x2 DUP3 DIV SWAP1 POP PUSH1 0x1 DUP3 AND DUP1 PUSH2 0xC36 JUMPI PUSH1 0x7F DUP3 AND SWAP2 POP JUMPDEST PUSH1 0x20 DUP3 LT DUP2 SUB PUSH2 0xC49 JUMPI PUSH2 0xC48 PUSH2 0xBF2 JUMP JUMPDEST JUMPDEST POP SWAP2 SWAP1 POP JUMP JUMPDEST PUSH32 0x457863656564732074686520636861726163746572206C696D697420666F7220 PUSH0 DUP3 ADD MSTORE PUSH32 0x612073696E676C65207477656574000000000000000000000000000000000000 PUSH1 0x20 DUP3 ADD MSTORE POP JUMP JUMPDEST PUSH0 PUSH2 0xCA9 PUSH1 0x2E DUP4 PUSH2 0x75A JUMP JUMPDEST SWAP2 POP PUSH2 0xCB4 DUP3 PUSH2 0xC4F JUMP JUMPDEST PUSH1 0x40 DUP3 ADD SWAP1 POP SWAP2 SWAP1 POP JUMP JUMPDEST PUSH0 PUSH1 0x20 DUP3 ADD SWAP1 POP DUP2 DUP2 SUB PUSH0 DUP4 ADD MSTORE PUSH2 0xCD6 DUP2 PUSH2 0xC9D JUMP JUMPDEST SWAP1 POP SWAP2 SWAP1 POP JUMP JUMPDEST PUSH0 DUP2 SWAP1 POP DUP2 PUSH0 MSTORE PUSH1 0x20 PUSH0 KECCAK256 SWAP1 POP SWAP2 SWAP1 POP JUMP JUMPDEST PUSH0 PUSH1 0x20 PUSH1 0x1F DUP4 ADD DIV SWAP1 POP SWAP2 SWAP1 POP JUMP JUMPDEST PUSH0 DUP3 DUP3 SHL SWAP1 POP SWAP3 SWAP2 POP POP JUMP JUMPDEST PUSH0 PUSH1 0x8 DUP4 MUL PUSH2 0xD39 PUSH32 0xFFFFFFFFFFFFFFFFFFFFFFFFFFFFFFFFFFFFFFFFFFFFFFFFFFFFFFFFFFFFFFFF DUP3 PUSH2 0xCFE JUMP JUMPDEST PUSH2 0xD43 DUP7 DUP4 PUSH2 0xCFE JUMP JUMPDEST SWAP6 POP DUP1 NOT DUP5 AND SWAP4 POP DUP1 DUP7 AND DUP5 OR SWAP3 POP POP POP SWAP4 SWAP3 POP POP POP JUMP JUMPDEST PUSH0 DUP2 SWAP1 POP SWAP2 SWAP1 POP JUMP JUMPDEST PUSH0 PUSH2 0xD7E PUSH2 0xD79 PUSH2 0xD74 DUP5 PUSH2 0x6D0 JUMP JUMPDEST PUSH2 0xD5B JUMP JUMPDEST PUSH2 0x6D0 JUMP JUMPDEST SWAP1 POP SWAP2 SWAP1 POP JUMP JUMPDEST PUSH0 DUP2 SWAP1 POP SWAP2 SWAP1 POP JUMP JUMPDEST PUSH2 0xD97 DUP4 PUSH2 0xD64 JUMP JUMPDEST PUSH2 0xDAB PUSH2 0xDA3 DUP3 PUSH2 0xD85 JUMP JUMPDEST DUP5 DUP5 SLOAD PUSH2 0xD0A JUMP JUMPDEST DUP3 SSTORE POP POP POP POP JUMP JUMPDEST PUSH0 SWAP1 JUMP JUMPDEST PUSH2 0xDBF PUSH2 0xDB3 JUMP JUMPDEST PUSH2 0xDCA DUP2 DUP5 DUP5 PUSH2 0xD8E JUMP JUMPDEST POP POP POP JUMP JUMPDEST JUMPDEST DUP2 DUP2 LT ISZERO PUSH2 0xDED JUMPI PUSH2 0xDE2 PUSH0 DUP3 PUSH2 0xDB7 JUMP JUMPDEST PUSH1 0x1 DUP2 ADD SWAP1 POP PUSH2 0xDD0 JUMP JUMPDEST POP POP JUMP JUMPDEST PUSH1 0x1F DUP3 GT ISZERO PUSH2 0xE32 JUMPI PUSH2 0xE03 DUP2 PUSH2 0xCDD JUMP JUMPDEST PUSH2 0xE0C DUP5 PUSH2 0xCEF JUMP JUMPDEST DUP2 ADD PUSH1 0x20 DUP6 LT ISZERO PUSH2 0xE1B JUMPI DUP2 SWAP1 POP JUMPDEST PUSH2 0xE2F PUSH2 0xE27 DUP6 PUSH2 0xCEF JUMP JUMPDEST DUP4 ADD DUP3 PUSH2 0xDCF JUMP JUMPDEST POP POP JUMPDEST POP POP POP JUMP JUMPDEST PUSH0 DUP3 DUP3 SHR SWAP1 POP SWAP3 SWAP2 POP POP JUMP JUMPDEST PUSH0 PUSH2 0xE52 PUSH0 NOT DUP5 PUSH1 0x8 MUL PUSH2 0xE37 JUMP JUMPDEST NOT DUP1 DUP4 AND SWAP2 POP POP SWAP3 SWAP2 POP POP JUMP JUMPDEST PUSH0 PUSH2 0xE6A DUP4 DUP4 PUSH2 0xE43 JUMP JUMPDEST SWAP2 POP DUP3 PUSH1 0x2 MUL DUP3 OR SWAP1 POP SWAP3 SWAP2 POP POP JUMP JUMPDEST PUSH2 0xE83 DUP3 PUSH2 0x750 JUMP JUMPDEST PUSH8 0xFFFFFFFFFFFFFFFF DUP2 GT ISZERO PUSH2 0xE9C JUMPI PUSH2 0xE9B PUSH2 0x83B JUMP JUMPDEST JUMPDEST PUSH2 0xEA6 DUP3 SLOAD PUSH2 0xC1F JUMP JUMPDEST PUSH2 0xEB1 DUP3 DUP3 DUP6 PUSH2 0xDF1 JUMP JUMPDEST PUSH0 PUSH1 0x20 SWAP1 POP PUSH1 0x1F DUP4 GT PUSH1 0x1 DUP2 EQ PUSH2 0xEE2 JUMPI PUSH0 DUP5 ISZERO PUSH2 0xED0 JUMPI DUP3 DUP8 ADD MLOAD SWAP1 POP JUMPDEST PUSH2 0xEDA DUP6 DUP3 PUSH2 0xE5F JUMP JUMPDEST DUP7 SSTORE POP PUSH2 0xF41 JUMP JUMPDEST PUSH1 0x1F NOT DUP5 AND PUSH2 0xEF0 DUP7 PUSH2 0xCDD JUMP JUMPDEST PUSH0 JUMPDEST DUP3 DUP2 LT ISZERO PUSH2 0xF17 JUMPI DUP5 DUP10 ADD MLOAD DUP3 SSTORE PUSH1 0x1 DUP3 ADD SWAP2 POP PUSH1 0x20 DUP6 ADD SWAP5 POP PUSH1 0x20 DUP2 ADD SWAP1 POP PUSH2 0xEF2 JUMP JUMPDEST DUP7 DUP4 LT ISZERO PUSH2 0xF34 JUMPI DUP5 DUP10 ADD MLOAD PUSH2 0xF30 PUSH1 0x1F DUP10 AND DUP3 PUSH2 0xE43 JUMP JUMPDEST DUP4 SSTORE POP JUMPDEST PUSH1 0x1 PUSH1 0x2 DUP9 MUL ADD DUP9 SSTORE POP POP POP JUMPDEST POP POP POP POP POP POP JUMP JUMPDEST PUSH32 0x4E487B7100000000000000000000000000000000000000000000000000000000 PUSH0 MSTORE PUSH1 0x32 PUSH1 0x4 MSTORE PUSH1 0x24 PUSH0 REVERT INVALID LOG2 PUSH5 0x6970667358 0x22 SLT KECCAK256 PUSH27 0xE390D06717B277A7BCA0A696788805821BAF9CFF75717FC10C5D46 LOG2 MSIZE DUP14 0x4F PUSH5 0x736F6C6343 STOP ADDMOD AND STOP CALLER "
				},
				"gasEstimates": {
					"creation": {
						"codeDepositCost": "802400",
						"executionCost": "836",
						"totalCost": "803236"
					},
					"external": {
						"crateTweet(string)": "infinite",
						"getAllTweets()": "infinite",
						"getTweet(uint256)": "infinite",
						"tweets(address,uint256)": "infinite"
					}
				},
				"methodIdentifiers": {
					"crateTweet(string)": "17d7f820",
					"getAllTweets()": "53256135",
					"getTweet(uint256)": "c3ad5ecb",
					"tweets(address,uint256)": "05a1b4a9"
				}
			},
			"storageLayout": {
				"storage": [
					{
						"astId": 19,
						"contract": "contracts/Twitter.sol:Twitter",
						"label": "tweets",
						"offset": 0,
						"slot": "0",
						"type": "t_mapping(t_address,t_array(t_struct(Tweet)10_storage)dyn_storage)"
					}
				],
				"types": {
					"t_address": {
						"encoding": "inplace",
						"label": "address",
						"numberOfBytes": "20"
					},
					"t_array(t_struct(Tweet)10_storage)dyn_storage": {
						"base": "t_struct(Tweet)10_storage",
						"encoding": "dynamic_array",
						"label": "struct Twitter.Tweet[]",
						"numberOfBytes": "32"
					},
					"t_mapping(t_address,t_array(t_struct(Tweet)10_storage)dyn_storage)": {
						"encoding": "mapping",
						"key": "t_address",
						"label": "mapping(address => struct Twitter.Tweet[])",
						"numberOfBytes": "32",
						"value": "t_array(t_struct(Tweet)10_storage)dyn_storage"
					},
					"t_string_storage": {
						"encoding": "bytes",
						"label": "string",
						"numberOfBytes": "32"
					},
					"t_struct(Tweet)10_storage": {
						"encoding": "inplace",
						"label": "struct Twitter.Tweet",
						"members": [
							{
								"astId": 3,
								"contract": "contracts/Twitter.sol:Twitter",
								"label": "auther",
								"offset": 0,
								"slot": "0",
								"type": "t_address"
							},
							{
								"astId": 5,
								"contract": "contracts/Twitter.sol:Twitter",
								"label": "content",
								"offset": 0,
								"slot": "1",
								"type": "t_string_storage"
							},
							{
								"astId": 7,
								"contract": "contracts/Twitter.sol:Twitter",
								"label": "timestamp",
								"offset": 0,
								"slot": "2",
								"type": "t_uint256"
							},
							{
								"astId": 9,
								"contract": "contracts/Twitter.sol:Twitter",
								"label": "likes",
								"offset": 0,
								"slot": "3",
								"type": "t_uint256"
							}
						],
						"numberOfBytes": "128"
					},
					"t_uint256": {
						"encoding": "inplace",
						"label": "uint256",
						"numberOfBytes": "32"
					}
				}
			},
			"userdoc": {
				"kind": "user",
				"methods": {},
				"version": 1
			}
		}
	}
}