{
	"contracts/Twitter.sol": {
		"Twitter": {
			"abi": [
				{
					"inputs": [
						{
							"internalType": "string",
							"name": "_tweet",
							"type": "string"
						}
					],
					"name": "crateTweet",
					"outputs": [],
					"stateMutability": "nonpayable",
					"type": "function"
				},
				{
					"inputs": [
						{
							"internalType": "address",
							"name": "",
							"type": "address"
						}
					],
					"name": "tweets",
					"outputs": [
						{
							"internalType": "string",
							"name": "",
							"type": "string"
						}
					],
					"stateMutability": "view",
					"type": "function"
				}
			],
			"devdoc": {
				"kind": "dev",
				"methods": {},
				"version": 1
			},
			"evm": {
				"assembly": "    /* \"contracts/Twitter.sol\":292:468  contract Twitter {... */\n  mstore(0x40, 0x80)\n  callvalue\n  dup1\n  iszero\n  tag_1\n  jumpi\n  0x00\n  dup1\n  revert\ntag_1:\n  pop\n  dataSize(sub_0)\n  dup1\n  dataOffset(sub_0)\n  0x00\n  codecopy\n  0x00\n  return\nstop\n\nsub_0: assembly {\n        /* \"contracts/Twitter.sol\":292:468  contract Twitter {... */\n      mstore(0x40, 0x80)\n      callvalue\n      dup1\n      iszero\n      tag_1\n      jumpi\n      0x00\n      dup1\n      revert\n    tag_1:\n      pop\n      jumpi(tag_2, lt(calldatasize, 0x04))\n      shr(0xe0, calldataload(0x00))\n      dup1\n      0x17d7f820\n      eq\n      tag_3\n      jumpi\n      dup1\n      0x5eaf48b4\n      eq\n      tag_4\n      jumpi\n    tag_2:\n      0x00\n      dup1\n      revert\n        /* \"contracts/Twitter.sol\":363:456  function crateTweet(string memory _tweet) public {... */\n    tag_3:\n      tag_5\n      0x04\n      dup1\n      calldatasize\n      sub\n      dup2\n      add\n      swap1\n      tag_6\n      swap2\n      swap1\n      tag_7\n      jump\t// in\n    tag_6:\n      tag_8\n      jump\t// in\n    tag_5:\n      stop\n        /* \"contracts/Twitter.sol\":316:356  mapping(address => string) public tweets */\n    tag_4:\n      tag_9\n      0x04\n      dup1\n      calldatasize\n      sub\n      dup2\n      add\n      swap1\n      tag_10\n      swap2\n      swap1\n      tag_11\n      jump\t// in\n    tag_10:\n      tag_12\n      jump\t// in\n    tag_9:\n      mload(0x40)\n      tag_13\n      swap2\n      swap1\n      tag_14\n      jump\t// in\n    tag_13:\n      mload(0x40)\n      dup1\n      swap2\n      sub\n      swap1\n      return\n        /* \"contracts/Twitter.sol\":363:456  function crateTweet(string memory _tweet) public {... */\n    tag_8:\n        /* \"contracts/Twitter.sol\":443:449  _tweet */\n      dup1\n        /* \"contracts/Twitter.sol\":422:428  tweets */\n      0x00\n        /* \"contracts/Twitter.sol\":422:440  tweets[msg.sender] */\n      dup1\n        /* \"contracts/Twitter.sol\":429:439  msg.sender */\n      caller\n        /* \"contracts/Twitter.sol\":422:440  tweets[msg.sender] */\n      0xffffffffffffffffffffffffffffffffffffffff\n      and\n      0xffffffffffffffffffffffffffffffffffffffff\n      and\n      dup2\n      mstore\n      0x20\n      add\n      swap1\n      dup2\n      mstore\n      0x20\n      add\n      0x00\n      keccak256\n        /* \"contracts/Twitter.sol\":422:449  tweets[msg.sender] = _tweet */\n      swap1\n      dup2\n      tag_16\n      swap2\n      swap1\n      tag_17\n      jump\t// in\n    tag_16:\n      pop\n        /* \"contracts/Twitter.sol\":363:456  function crateTweet(string memory _tweet) public {... */\n      pop\n      jump\t// out\n        /* \"contracts/Twitter.sol\":316:356  mapping(address => string) public tweets */\n    tag_12:\n      mstore(0x20, 0x00)\n      dup1\n      0x00\n      mstore\n      keccak256(0x00, 0x40)\n      0x00\n      swap2\n      pop\n      swap1\n      pop\n      dup1\n      sload\n      tag_18\n      swap1\n      tag_19\n      jump\t// in\n    tag_18:\n      dup1\n      0x1f\n      add\n      0x20\n      dup1\n      swap2\n      div\n      mul\n      0x20\n      add\n      mload(0x40)\n      swap1\n      dup2\n      add\n      0x40\n      mstore\n      dup1\n      swap3\n      swap2\n      swap1\n      dup2\n      dup2\n      mstore\n      0x20\n      add\n      dup3\n      dup1\n      sload\n      tag_20\n      swap1\n      tag_19\n      jump\t// in\n    tag_20:\n      dup1\n      iszero\n      tag_21\n      jumpi\n      dup1\n      0x1f\n      lt\n      tag_22\n      jumpi\n      0x0100\n      dup1\n      dup4\n      sload\n      div\n      mul\n      dup4\n      mstore\n      swap2\n      0x20\n      add\n      swap2\n      jump(tag_21)\n    tag_22:\n      dup3\n      add\n      swap2\n      swap1\n      0x00\n      mstore\n      keccak256(0x00, 0x20)\n      swap1\n    tag_23:\n      dup2\n      sload\n      dup2\n      mstore\n      swap1\n      0x01\n      add\n      swap1\n      0x20\n      add\n      dup1\n      dup4\n      gt\n      tag_23\n      jumpi\n      dup3\n      swap1\n      sub\n      0x1f\n      and\n      dup3\n      add\n      swap2\n    tag_21:\n      pop\n      pop\n      pop\n      pop\n      pop\n      dup2\n      jump\t// out\n        /* \"#utility.yul\":7:82   */\n    tag_24:\n        /* \"#utility.yul\":40:46   */\n      0x00\n        /* \"#utility.yul\":73:75   */\n      0x40\n        /* \"#utility.yul\":67:76   */\n      mload\n        /* \"#utility.yul\":57:76   */\n      swap1\n      pop\n        /* \"#utility.yul\":7:82   */\n      swap1\n      jump\t// out\n        /* \"#utility.yul\":88:205   */\n    tag_25:\n        /* \"#utility.yul\":197:198   */\n      0x00\n        /* \"#utility.yul\":194:195   */\n      dup1\n        /* \"#utility.yul\":187:199   */\n      revert\n        /* \"#utility.yul\":211:328   */\n    tag_26:\n        /* \"#utility.yul\":320:321   */\n      0x00\n        /* \"#utility.yul\":317:318   */\n      dup1\n        /* \"#utility.yul\":310:322   */\n      revert\n        /* \"#utility.yul\":334:451   */\n    tag_27:\n        /* \"#utility.yul\":443:444   */\n      0x00\n        /* \"#utility.yul\":440:441   */\n      dup1\n        /* \"#utility.yul\":433:445   */\n      revert\n        /* \"#utility.yul\":457:574   */\n    tag_28:\n        /* \"#utility.yul\":566:567   */\n      0x00\n        /* \"#utility.yul\":563:564   */\n      dup1\n        /* \"#utility.yul\":556:568   */\n      revert\n        /* \"#utility.yul\":580:682   */\n    tag_29:\n        /* \"#utility.yul\":621:627   */\n      0x00\n        /* \"#utility.yul\":672:674   */\n      0x1f\n        /* \"#utility.yul\":668:675   */\n      not\n        /* \"#utility.yul\":663:665   */\n      0x1f\n        /* \"#utility.yul\":656:661   */\n      dup4\n        /* \"#utility.yul\":652:666   */\n      add\n        /* \"#utility.yul\":648:676   */\n      and\n        /* \"#utility.yul\":638:676   */\n      swap1\n      pop\n        /* \"#utility.yul\":580:682   */\n      swap2\n      swap1\n      pop\n      jump\t// out\n        /* \"#utility.yul\":688:868   */\n    tag_30:\n        /* \"#utility.yul\":736:813   */\n      0x4e487b7100000000000000000000000000000000000000000000000000000000\n        /* \"#utility.yul\":733:734   */\n      0x00\n        /* \"#utility.yul\":726:814   */\n      mstore\n        /* \"#utility.yul\":833:837   */\n      0x41\n        /* \"#utility.yul\":830:831   */\n      0x04\n        /* \"#utility.yul\":823:838   */\n      mstore\n        /* \"#utility.yul\":857:861   */\n      0x24\n        /* \"#utility.yul\":854:855   */\n      0x00\n        /* \"#utility.yul\":847:862   */\n      revert\n        /* \"#utility.yul\":874:1155   */\n    tag_31:\n        /* \"#utility.yul\":957:984   */\n      tag_71\n        /* \"#utility.yul\":979:983   */\n      dup3\n        /* \"#utility.yul\":957:984   */\n      tag_29\n      jump\t// in\n    tag_71:\n        /* \"#utility.yul\":949:955   */\n      dup2\n        /* \"#utility.yul\":945:985   */\n      add\n        /* \"#utility.yul\":1087:1093   */\n      dup2\n        /* \"#utility.yul\":1075:1085   */\n      dup2\n        /* \"#utility.yul\":1072:1094   */\n      lt\n        /* \"#utility.yul\":1051:1069   */\n      0xffffffffffffffff\n        /* \"#utility.yul\":1039:1049   */\n      dup3\n        /* \"#utility.yul\":1036:1070   */\n      gt\n        /* \"#utility.yul\":1033:1095   */\n      or\n        /* \"#utility.yul\":1030:1118   */\n      iszero\n      tag_72\n      jumpi\n        /* \"#utility.yul\":1098:1116   */\n      tag_73\n      tag_30\n      jump\t// in\n    tag_73:\n        /* \"#utility.yul\":1030:1118   */\n    tag_72:\n        /* \"#utility.yul\":1138:1148   */\n      dup1\n        /* \"#utility.yul\":1134:1136   */\n      0x40\n        /* \"#utility.yul\":1127:1149   */\n      mstore\n        /* \"#utility.yul\":917:1155   */\n      pop\n        /* \"#utility.yul\":874:1155   */\n      pop\n      pop\n      jump\t// out\n        /* \"#utility.yul\":1161:1290   */\n    tag_32:\n        /* \"#utility.yul\":1195:1201   */\n      0x00\n        /* \"#utility.yul\":1222:1242   */\n      tag_75\n      tag_24\n      jump\t// in\n    tag_75:\n        /* \"#utility.yul\":1212:1242   */\n      swap1\n      pop\n        /* \"#utility.yul\":1251:1284   */\n      tag_76\n        /* \"#utility.yul\":1279:1283   */\n      dup3\n        /* \"#utility.yul\":1271:1277   */\n      dup3\n        /* \"#utility.yul\":1251:1284   */\n      tag_31\n      jump\t// in\n    tag_76:\n        /* \"#utility.yul\":1161:1290   */\n      swap2\n      swap1\n      pop\n      jump\t// out\n        /* \"#utility.yul\":1296:1604   */\n    tag_33:\n        /* \"#utility.yul\":1358:1362   */\n      0x00\n        /* \"#utility.yul\":1448:1466   */\n      0xffffffffffffffff\n        /* \"#utility.yul\":1440:1446   */\n      dup3\n        /* \"#utility.yul\":1437:1467   */\n      gt\n        /* \"#utility.yul\":1434:1490   */\n      iszero\n      tag_78\n      jumpi\n        /* \"#utility.yul\":1470:1488   */\n      tag_79\n      tag_30\n      jump\t// in\n    tag_79:\n        /* \"#utility.yul\":1434:1490   */\n    tag_78:\n        /* \"#utility.yul\":1508:1537   */\n      tag_80\n        /* \"#utility.yul\":1530:1536   */\n      dup3\n        /* \"#utility.yul\":1508:1537   */\n      tag_29\n      jump\t// in\n    tag_80:\n        /* \"#utility.yul\":1500:1537   */\n      swap1\n      pop\n        /* \"#utility.yul\":1592:1596   */\n      0x20\n        /* \"#utility.yul\":1586:1590   */\n      dup2\n        /* \"#utility.yul\":1582:1597   */\n      add\n        /* \"#utility.yul\":1574:1597   */\n      swap1\n      pop\n        /* \"#utility.yul\":1296:1604   */\n      swap2\n      swap1\n      pop\n      jump\t// out\n        /* \"#utility.yul\":1610:1756   */\n    tag_34:\n        /* \"#utility.yul\":1707:1713   */\n      dup3\n        /* \"#utility.yul\":1702:1705   */\n      dup2\n        /* \"#utility.yul\":1697:1700   */\n      dup4\n        /* \"#utility.yul\":1684:1714   */\n      calldatacopy\n        /* \"#utility.yul\":1748:1749   */\n      0x00\n        /* \"#utility.yul\":1739:1745   */\n      dup4\n        /* \"#utility.yul\":1734:1737   */\n      dup4\n        /* \"#utility.yul\":1730:1746   */\n      add\n        /* \"#utility.yul\":1723:1750   */\n      mstore\n        /* \"#utility.yul\":1610:1756   */\n      pop\n      pop\n      pop\n      jump\t// out\n        /* \"#utility.yul\":1762:2187   */\n    tag_35:\n        /* \"#utility.yul\":1840:1845   */\n      0x00\n        /* \"#utility.yul\":1865:1931   */\n      tag_83\n        /* \"#utility.yul\":1881:1930   */\n      tag_84\n        /* \"#utility.yul\":1923:1929   */\n      dup5\n        /* \"#utility.yul\":1881:1930   */\n      tag_33\n      jump\t// in\n    tag_84:\n        /* \"#utility.yul\":1865:1931   */\n      tag_32\n      jump\t// in\n    tag_83:\n        /* \"#utility.yul\":1856:1931   */\n      swap1\n      pop\n        /* \"#utility.yul\":1954:1960   */\n      dup3\n        /* \"#utility.yul\":1947:1952   */\n      dup2\n        /* \"#utility.yul\":1940:1961   */\n      mstore\n        /* \"#utility.yul\":1992:1996   */\n      0x20\n        /* \"#utility.yul\":1985:1990   */\n      dup2\n        /* \"#utility.yul\":1981:1997   */\n      add\n        /* \"#utility.yul\":2030:2033   */\n      dup5\n        /* \"#utility.yul\":2021:2027   */\n      dup5\n        /* \"#utility.yul\":2016:2019   */\n      dup5\n        /* \"#utility.yul\":2012:2028   */\n      add\n        /* \"#utility.yul\":2009:2034   */\n      gt\n        /* \"#utility.yul\":2006:2118   */\n      iszero\n      tag_85\n      jumpi\n        /* \"#utility.yul\":2037:2116   */\n      tag_86\n      tag_28\n      jump\t// in\n    tag_86:\n        /* \"#utility.yul\":2006:2118   */\n    tag_85:\n        /* \"#utility.yul\":2127:2181   */\n      tag_87\n        /* \"#utility.yul\":2174:2180   */\n      dup5\n        /* \"#utility.yul\":2169:2172   */\n      dup3\n        /* \"#utility.yul\":2164:2167   */\n      dup6\n        /* \"#utility.yul\":2127:2181   */\n      tag_34\n      jump\t// in\n    tag_87:\n        /* \"#utility.yul\":1846:2187   */\n      pop\n        /* \"#utility.yul\":1762:2187   */\n      swap4\n      swap3\n      pop\n      pop\n      pop\n      jump\t// out\n        /* \"#utility.yul\":2207:2547   */\n    tag_36:\n        /* \"#utility.yul\":2263:2268   */\n      0x00\n        /* \"#utility.yul\":2312:2315   */\n      dup3\n        /* \"#utility.yul\":2305:2309   */\n      0x1f\n        /* \"#utility.yul\":2297:2303   */\n      dup4\n        /* \"#utility.yul\":2293:2310   */\n      add\n        /* \"#utility.yul\":2289:2316   */\n      slt\n        /* \"#utility.yul\":2279:2401   */\n      tag_89\n      jumpi\n        /* \"#utility.yul\":2320:2399   */\n      tag_90\n      tag_27\n      jump\t// in\n    tag_90:\n        /* \"#utility.yul\":2279:2401   */\n    tag_89:\n        /* \"#utility.yul\":2437:2443   */\n      dup2\n        /* \"#utility.yul\":2424:2444   */\n      calldataload\n        /* \"#utility.yul\":2462:2541   */\n      tag_91\n        /* \"#utility.yul\":2537:2540   */\n      dup5\n        /* \"#utility.yul\":2529:2535   */\n      dup3\n        /* \"#utility.yul\":2522:2526   */\n      0x20\n        /* \"#utility.yul\":2514:2520   */\n      dup7\n        /* \"#utility.yul\":2510:2527   */\n      add\n        /* \"#utility.yul\":2462:2541   */\n      tag_35\n      jump\t// in\n    tag_91:\n        /* \"#utility.yul\":2453:2541   */\n      swap2\n      pop\n        /* \"#utility.yul\":2269:2547   */\n      pop\n        /* \"#utility.yul\":2207:2547   */\n      swap3\n      swap2\n      pop\n      pop\n      jump\t// out\n        /* \"#utility.yul\":2553:3062   */\n    tag_7:\n        /* \"#utility.yul\":2622:2628   */\n      0x00\n        /* \"#utility.yul\":2671:2673   */\n      0x20\n        /* \"#utility.yul\":2659:2668   */\n      dup3\n        /* \"#utility.yul\":2650:2657   */\n      dup5\n        /* \"#utility.yul\":2646:2669   */\n      sub\n        /* \"#utility.yul\":2642:2674   */\n      slt\n        /* \"#utility.yul\":2639:2758   */\n      iszero\n      tag_93\n      jumpi\n        /* \"#utility.yul\":2677:2756   */\n      tag_94\n      tag_25\n      jump\t// in\n    tag_94:\n        /* \"#utility.yul\":2639:2758   */\n    tag_93:\n        /* \"#utility.yul\":2825:2826   */\n      0x00\n        /* \"#utility.yul\":2814:2823   */\n      dup3\n        /* \"#utility.yul\":2810:2827   */\n      add\n        /* \"#utility.yul\":2797:2828   */\n      calldataload\n        /* \"#utility.yul\":2855:2873   */\n      0xffffffffffffffff\n        /* \"#utility.yul\":2847:2853   */\n      dup2\n        /* \"#utility.yul\":2844:2874   */\n      gt\n        /* \"#utility.yul\":2841:2958   */\n      iszero\n      tag_95\n      jumpi\n        /* \"#utility.yul\":2877:2956   */\n      tag_96\n      tag_26\n      jump\t// in\n    tag_96:\n        /* \"#utility.yul\":2841:2958   */\n    tag_95:\n        /* \"#utility.yul\":2982:3045   */\n      tag_97\n        /* \"#utility.yul\":3037:3044   */\n      dup5\n        /* \"#utility.yul\":3028:3034   */\n      dup3\n        /* \"#utility.yul\":3017:3026   */\n      dup6\n        /* \"#utility.yul\":3013:3035   */\n      add\n        /* \"#utility.yul\":2982:3045   */\n      tag_36\n      jump\t// in\n    tag_97:\n        /* \"#utility.yul\":2972:3045   */\n      swap2\n      pop\n        /* \"#utility.yul\":2768:3055   */\n      pop\n        /* \"#utility.yul\":2553:3062   */\n      swap3\n      swap2\n      pop\n      pop\n      jump\t// out\n        /* \"#utility.yul\":3068:3194   */\n    tag_37:\n        /* \"#utility.yul\":3105:3112   */\n      0x00\n        /* \"#utility.yul\":3145:3187   */\n      0xffffffffffffffffffffffffffffffffffffffff\n        /* \"#utility.yul\":3138:3143   */\n      dup3\n        /* \"#utility.yul\":3134:3188   */\n      and\n        /* \"#utility.yul\":3123:3188   */\n      swap1\n      pop\n        /* \"#utility.yul\":3068:3194   */\n      swap2\n      swap1\n      pop\n      jump\t// out\n        /* \"#utility.yul\":3200:3296   */\n    tag_38:\n        /* \"#utility.yul\":3237:3244   */\n      0x00\n        /* \"#utility.yul\":3266:3290   */\n      tag_100\n        /* \"#utility.yul\":3284:3289   */\n      dup3\n        /* \"#utility.yul\":3266:3290   */\n      tag_37\n      jump\t// in\n    tag_100:\n        /* \"#utility.yul\":3255:3290   */\n      swap1\n      pop\n        /* \"#utility.yul\":3200:3296   */\n      swap2\n      swap1\n      pop\n      jump\t// out\n        /* \"#utility.yul\":3302:3424   */\n    tag_39:\n        /* \"#utility.yul\":3375:3399   */\n      tag_102\n        /* \"#utility.yul\":3393:3398   */\n      dup2\n        /* \"#utility.yul\":3375:3399   */\n      tag_38\n      jump\t// in\n    tag_102:\n        /* \"#utility.yul\":3368:3373   */\n      dup2\n        /* \"#utility.yul\":3365:3400   */\n      eq\n        /* \"#utility.yul\":3355:3418   */\n      tag_103\n      jumpi\n        /* \"#utility.yul\":3414:3415   */\n      0x00\n        /* \"#utility.yul\":3411:3412   */\n      dup1\n        /* \"#utility.yul\":3404:3416   */\n      revert\n        /* \"#utility.yul\":3355:3418   */\n    tag_103:\n        /* \"#utility.yul\":3302:3424   */\n      pop\n      jump\t// out\n        /* \"#utility.yul\":3430:3569   */\n    tag_40:\n        /* \"#utility.yul\":3476:3481   */\n      0x00\n        /* \"#utility.yul\":3514:3520   */\n      dup2\n        /* \"#utility.yul\":3501:3521   */\n      calldataload\n        /* \"#utility.yul\":3492:3521   */\n      swap1\n      pop\n        /* \"#utility.yul\":3530:3563   */\n      tag_105\n        /* \"#utility.yul\":3557:3562   */\n      dup2\n        /* \"#utility.yul\":3530:3563   */\n      tag_39\n      jump\t// in\n    tag_105:\n        /* \"#utility.yul\":3430:3569   */\n      swap3\n      swap2\n      pop\n      pop\n      jump\t// out\n        /* \"#utility.yul\":3575:3904   */\n    tag_11:\n        /* \"#utility.yul\":3634:3640   */\n      0x00\n        /* \"#utility.yul\":3683:3685   */\n      0x20\n        /* \"#utility.yul\":3671:3680   */\n      dup3\n        /* \"#utility.yul\":3662:3669   */\n      dup5\n        /* \"#utility.yul\":3658:3681   */\n      sub\n        /* \"#utility.yul\":3654:3686   */\n      slt\n        /* \"#utility.yul\":3651:3770   */\n      iszero\n      tag_107\n      jumpi\n        /* \"#utility.yul\":3689:3768   */\n      tag_108\n      tag_25\n      jump\t// in\n    tag_108:\n        /* \"#utility.yul\":3651:3770   */\n    tag_107:\n        /* \"#utility.yul\":3809:3810   */\n      0x00\n        /* \"#utility.yul\":3834:3887   */\n      tag_109\n        /* \"#utility.yul\":3879:3886   */\n      dup5\n        /* \"#utility.yul\":3870:3876   */\n      dup3\n        /* \"#utility.yul\":3859:3868   */\n      dup6\n        /* \"#utility.yul\":3855:3877   */\n      add\n        /* \"#utility.yul\":3834:3887   */\n      tag_40\n      jump\t// in\n    tag_109:\n        /* \"#utility.yul\":3824:3887   */\n      swap2\n      pop\n        /* \"#utility.yul\":3780:3897   */\n      pop\n        /* \"#utility.yul\":3575:3904   */\n      swap3\n      swap2\n      pop\n      pop\n      jump\t// out\n        /* \"#utility.yul\":3910:4009   */\n    tag_41:\n        /* \"#utility.yul\":3962:3968   */\n      0x00\n        /* \"#utility.yul\":3996:4001   */\n      dup2\n        /* \"#utility.yul\":3990:4002   */\n      mload\n        /* \"#utility.yul\":3980:4002   */\n      swap1\n      pop\n        /* \"#utility.yul\":3910:4009   */\n      swap2\n      swap1\n      pop\n      jump\t// out\n        /* \"#utility.yul\":4015:4184   */\n    tag_42:\n        /* \"#utility.yul\":4099:4110   */\n      0x00\n        /* \"#utility.yul\":4133:4139   */\n      dup3\n        /* \"#utility.yul\":4128:4131   */\n      dup3\n        /* \"#utility.yul\":4121:4140   */\n      mstore\n        /* \"#utility.yul\":4173:4177   */\n      0x20\n        /* \"#utility.yul\":4168:4171   */\n      dup3\n        /* \"#utility.yul\":4164:4178   */\n      add\n        /* \"#utility.yul\":4149:4178   */\n      swap1\n      pop\n        /* \"#utility.yul\":4015:4184   */\n      swap3\n      swap2\n      pop\n      pop\n      jump\t// out\n        /* \"#utility.yul\":4190:4436   */\n    tag_43:\n        /* \"#utility.yul\":4271:4272   */\n      0x00\n        /* \"#utility.yul\":4281:4394   */\n    tag_113:\n        /* \"#utility.yul\":4295:4301   */\n      dup4\n        /* \"#utility.yul\":4292:4293   */\n      dup2\n        /* \"#utility.yul\":4289:4302   */\n      lt\n        /* \"#utility.yul\":4281:4394   */\n      iszero\n      tag_115\n      jumpi\n        /* \"#utility.yul\":4380:4381   */\n      dup1\n        /* \"#utility.yul\":4375:4378   */\n      dup3\n        /* \"#utility.yul\":4371:4382   */\n      add\n        /* \"#utility.yul\":4365:4383   */\n      mload\n        /* \"#utility.yul\":4361:4362   */\n      dup2\n        /* \"#utility.yul\":4356:4359   */\n      dup5\n        /* \"#utility.yul\":4352:4363   */\n      add\n        /* \"#utility.yul\":4345:4384   */\n      mstore\n        /* \"#utility.yul\":4317:4319   */\n      0x20\n        /* \"#utility.yul\":4314:4315   */\n      dup2\n        /* \"#utility.yul\":4310:4320   */\n      add\n        /* \"#utility.yul\":4305:4320   */\n      swap1\n      pop\n        /* \"#utility.yul\":4281:4394   */\n      jump(tag_113)\n    tag_115:\n        /* \"#utility.yul\":4428:4429   */\n      0x00\n        /* \"#utility.yul\":4419:4425   */\n      dup5\n        /* \"#utility.yul\":4414:4417   */\n      dup5\n        /* \"#utility.yul\":4410:4426   */\n      add\n        /* \"#utility.yul\":4403:4430   */\n      mstore\n        /* \"#utility.yul\":4252:4436   */\n      pop\n        /* \"#utility.yul\":4190:4436   */\n      pop\n      pop\n      pop\n      jump\t// out\n        /* \"#utility.yul\":4442:4819   */\n    tag_44:\n        /* \"#utility.yul\":4530:4533   */\n      0x00\n        /* \"#utility.yul\":4558:4597   */\n      tag_117\n        /* \"#utility.yul\":4591:4596   */\n      dup3\n        /* \"#utility.yul\":4558:4597   */\n      tag_41\n      jump\t// in\n    tag_117:\n        /* \"#utility.yul\":4613:4684   */\n      tag_118\n        /* \"#utility.yul\":4677:4683   */\n      dup2\n        /* \"#utility.yul\":4672:4675   */\n      dup6\n        /* \"#utility.yul\":4613:4684   */\n      tag_42\n      jump\t// in\n    tag_118:\n        /* \"#utility.yul\":4606:4684   */\n      swap4\n      pop\n        /* \"#utility.yul\":4693:4758   */\n      tag_119\n        /* \"#utility.yul\":4751:4757   */\n      dup2\n        /* \"#utility.yul\":4746:4749   */\n      dup6\n        /* \"#utility.yul\":4739:4743   */\n      0x20\n        /* \"#utility.yul\":4732:4737   */\n      dup7\n        /* \"#utility.yul\":4728:4744   */\n      add\n        /* \"#utility.yul\":4693:4758   */\n      tag_43\n      jump\t// in\n    tag_119:\n        /* \"#utility.yul\":4783:4812   */\n      tag_120\n        /* \"#utility.yul\":4805:4811   */\n      dup2\n        /* \"#utility.yul\":4783:4812   */\n      tag_29\n      jump\t// in\n    tag_120:\n        /* \"#utility.yul\":4778:4781   */\n      dup5\n        /* \"#utility.yul\":4774:4813   */\n      add\n        /* \"#utility.yul\":4767:4813   */\n      swap2\n      pop\n        /* \"#utility.yul\":4534:4819   */\n      pop\n        /* \"#utility.yul\":4442:4819   */\n      swap3\n      swap2\n      pop\n      pop\n      jump\t// out\n        /* \"#utility.yul\":4825:5138   */\n    tag_14:\n        /* \"#utility.yul\":4938:4942   */\n      0x00\n        /* \"#utility.yul\":4976:4978   */\n      0x20\n        /* \"#utility.yul\":4965:4974   */\n      dup3\n        /* \"#utility.yul\":4961:4979   */\n      add\n        /* \"#utility.yul\":4953:4979   */\n      swap1\n      pop\n        /* \"#utility.yul\":5025:5034   */\n      dup2\n        /* \"#utility.yul\":5019:5023   */\n      dup2\n        /* \"#utility.yul\":5015:5035   */\n      sub\n        /* \"#utility.yul\":5011:5012   */\n      0x00\n        /* \"#utility.yul\":5000:5009   */\n      dup4\n        /* \"#utility.yul\":4996:5013   */\n      add\n        /* \"#utility.yul\":4989:5036   */\n      mstore\n        /* \"#utility.yul\":5053:5131   */\n      tag_122\n        /* \"#utility.yul\":5126:5130   */\n      dup2\n        /* \"#utility.yul\":5117:5123   */\n      dup5\n        /* \"#utility.yul\":5053:5131   */\n      tag_44\n      jump\t// in\n    tag_122:\n        /* \"#utility.yul\":5045:5131   */\n      swap1\n      pop\n        /* \"#utility.yul\":4825:5138   */\n      swap3\n      swap2\n      pop\n      pop\n      jump\t// out\n        /* \"#utility.yul\":5144:5324   */\n    tag_45:\n        /* \"#utility.yul\":5192:5269   */\n      0x4e487b7100000000000000000000000000000000000000000000000000000000\n        /* \"#utility.yul\":5189:5190   */\n      0x00\n        /* \"#utility.yul\":5182:5270   */\n      mstore\n        /* \"#utility.yul\":5289:5293   */\n      0x22\n        /* \"#utility.yul\":5286:5287   */\n      0x04\n        /* \"#utility.yul\":5279:5294   */\n      mstore\n        /* \"#utility.yul\":5313:5317   */\n      0x24\n        /* \"#utility.yul\":5310:5311   */\n      0x00\n        /* \"#utility.yul\":5303:5318   */\n      revert\n        /* \"#utility.yul\":5330:5650   */\n    tag_19:\n        /* \"#utility.yul\":5374:5380   */\n      0x00\n        /* \"#utility.yul\":5411:5412   */\n      0x02\n        /* \"#utility.yul\":5405:5409   */\n      dup3\n        /* \"#utility.yul\":5401:5413   */\n      div\n        /* \"#utility.yul\":5391:5413   */\n      swap1\n      pop\n        /* \"#utility.yul\":5458:5459   */\n      0x01\n        /* \"#utility.yul\":5452:5456   */\n      dup3\n        /* \"#utility.yul\":5448:5460   */\n      and\n        /* \"#utility.yul\":5479:5497   */\n      dup1\n        /* \"#utility.yul\":5469:5550   */\n      tag_125\n      jumpi\n        /* \"#utility.yul\":5535:5539   */\n      0x7f\n        /* \"#utility.yul\":5527:5533   */\n      dup3\n        /* \"#utility.yul\":5523:5540   */\n      and\n        /* \"#utility.yul\":5513:5540   */\n      swap2\n      pop\n        /* \"#utility.yul\":5469:5550   */\n    tag_125:\n        /* \"#utility.yul\":5597:5599   */\n      0x20\n        /* \"#utility.yul\":5589:5595   */\n      dup3\n        /* \"#utility.yul\":5586:5600   */\n      lt\n        /* \"#utility.yul\":5566:5584   */\n      dup2\n        /* \"#utility.yul\":5563:5601   */\n      sub\n        /* \"#utility.yul\":5560:5644   */\n      tag_126\n      jumpi\n        /* \"#utility.yul\":5616:5634   */\n      tag_127\n      tag_45\n      jump\t// in\n    tag_127:\n        /* \"#utility.yul\":5560:5644   */\n    tag_126:\n        /* \"#utility.yul\":5381:5650   */\n      pop\n        /* \"#utility.yul\":5330:5650   */\n      swap2\n      swap1\n      pop\n      jump\t// out\n        /* \"#utility.yul\":5656:5797   */\n    tag_46:\n        /* \"#utility.yul\":5705:5709   */\n      0x00\n        /* \"#utility.yul\":5728:5731   */\n      dup2\n        /* \"#utility.yul\":5720:5731   */\n      swap1\n      pop\n        /* \"#utility.yul\":5751:5754   */\n      dup2\n        /* \"#utility.yul\":5748:5749   */\n      0x00\n        /* \"#utility.yul\":5741:5755   */\n      mstore\n        /* \"#utility.yul\":5785:5789   */\n      0x20\n        /* \"#utility.yul\":5782:5783   */\n      0x00\n        /* \"#utility.yul\":5772:5790   */\n      keccak256\n        /* \"#utility.yul\":5764:5790   */\n      swap1\n      pop\n        /* \"#utility.yul\":5656:5797   */\n      swap2\n      swap1\n      pop\n      jump\t// out\n        /* \"#utility.yul\":5803:5896   */\n    tag_47:\n        /* \"#utility.yul\":5840:5846   */\n      0x00\n        /* \"#utility.yul\":5887:5889   */\n      0x20\n        /* \"#utility.yul\":5882:5884   */\n      0x1f\n        /* \"#utility.yul\":5875:5880   */\n      dup4\n        /* \"#utility.yul\":5871:5885   */\n      add\n        /* \"#utility.yul\":5867:5890   */\n      div\n        /* \"#utility.yul\":5857:5890   */\n      swap1\n      pop\n        /* \"#utility.yul\":5803:5896   */\n      swap2\n      swap1\n      pop\n      jump\t// out\n        /* \"#utility.yul\":5902:6009   */\n    tag_48:\n        /* \"#utility.yul\":5946:5954   */\n      0x00\n        /* \"#utility.yul\":5996:6001   */\n      dup3\n        /* \"#utility.yul\":5990:5994   */\n      dup3\n        /* \"#utility.yul\":5986:6002   */\n      shl\n        /* \"#utility.yul\":5965:6002   */\n      swap1\n      pop\n        /* \"#utility.yul\":5902:6009   */\n      swap3\n      swap2\n      pop\n      pop\n      jump\t// out\n        /* \"#utility.yul\":6015:6408   */\n    tag_49:\n        /* \"#utility.yul\":6084:6090   */\n      0x00\n        /* \"#utility.yul\":6134:6135   */\n      0x08\n        /* \"#utility.yul\":6122:6132   */\n      dup4\n        /* \"#utility.yul\":6118:6136   */\n      mul\n        /* \"#utility.yul\":6157:6254   */\n      tag_132\n        /* \"#utility.yul\":6187:6253   */\n      0xffffffffffffffffffffffffffffffffffffffffffffffffffffffffffffffff\n        /* \"#utility.yul\":6176:6185   */\n      dup3\n        /* \"#utility.yul\":6157:6254   */\n      tag_48\n      jump\t// in\n    tag_132:\n        /* \"#utility.yul\":6275:6314   */\n      tag_133\n        /* \"#utility.yul\":6305:6313   */\n      dup7\n        /* \"#utility.yul\":6294:6303   */\n      dup4\n        /* \"#utility.yul\":6275:6314   */\n      tag_48\n      jump\t// in\n    tag_133:\n        /* \"#utility.yul\":6263:6314   */\n      swap6\n      pop\n        /* \"#utility.yul\":6347:6351   */\n      dup1\n        /* \"#utility.yul\":6343:6352   */\n      not\n        /* \"#utility.yul\":6336:6341   */\n      dup5\n        /* \"#utility.yul\":6332:6353   */\n      and\n        /* \"#utility.yul\":6323:6353   */\n      swap4\n      pop\n        /* \"#utility.yul\":6396:6400   */\n      dup1\n        /* \"#utility.yul\":6386:6394   */\n      dup7\n        /* \"#utility.yul\":6382:6401   */\n      and\n        /* \"#utility.yul\":6375:6380   */\n      dup5\n        /* \"#utility.yul\":6372:6402   */\n      or\n        /* \"#utility.yul\":6362:6402   */\n      swap3\n      pop\n        /* \"#utility.yul\":6091:6408   */\n      pop\n      pop\n        /* \"#utility.yul\":6015:6408   */\n      swap4\n      swap3\n      pop\n      pop\n      pop\n      jump\t// out\n        /* \"#utility.yul\":6414:6491   */\n    tag_50:\n        /* \"#utility.yul\":6451:6458   */\n      0x00\n        /* \"#utility.yul\":6480:6485   */\n      dup2\n        /* \"#utility.yul\":6469:6485   */\n      swap1\n      pop\n        /* \"#utility.yul\":6414:6491   */\n      swap2\n      swap1\n      pop\n      jump\t// out\n        /* \"#utility.yul\":6497:6557   */\n    tag_51:\n        /* \"#utility.yul\":6525:6528   */\n      0x00\n        /* \"#utility.yul\":6546:6551   */\n      dup2\n        /* \"#utility.yul\":6539:6551   */\n      swap1\n      pop\n        /* \"#utility.yul\":6497:6557   */\n      swap2\n      swap1\n      pop\n      jump\t// out\n        /* \"#utility.yul\":6563:6705   */\n    tag_52:\n        /* \"#utility.yul\":6613:6622   */\n      0x00\n        /* \"#utility.yul\":6646:6699   */\n      tag_137\n        /* \"#utility.yul\":6664:6698   */\n      tag_138\n        /* \"#utility.yul\":6673:6697   */\n      tag_139\n        /* \"#utility.yul\":6691:6696   */\n      dup5\n        /* \"#utility.yul\":6673:6697   */\n      tag_50\n      jump\t// in\n    tag_139:\n        /* \"#utility.yul\":6664:6698   */\n      tag_51\n      jump\t// in\n    tag_138:\n        /* \"#utility.yul\":6646:6699   */\n      tag_50\n      jump\t// in\n    tag_137:\n        /* \"#utility.yul\":6633:6699   */\n      swap1\n      pop\n        /* \"#utility.yul\":6563:6705   */\n      swap2\n      swap1\n      pop\n      jump\t// out\n        /* \"#utility.yul\":6711:6786   */\n    tag_53:\n        /* \"#utility.yul\":6754:6757   */\n      0x00\n        /* \"#utility.yul\":6775:6780   */\n      dup2\n        /* \"#utility.yul\":6768:6780   */\n      swap1\n      pop\n        /* \"#utility.yul\":6711:6786   */\n      swap2\n      swap1\n      pop\n      jump\t// out\n        /* \"#utility.yul\":6792:7061   */\n    tag_54:\n        /* \"#utility.yul\":6902:6941   */\n      tag_142\n        /* \"#utility.yul\":6933:6940   */\n      dup4\n        /* \"#utility.yul\":6902:6941   */\n      tag_52\n      jump\t// in\n    tag_142:\n        /* \"#utility.yul\":6963:7054   */\n      tag_143\n        /* \"#utility.yul\":7012:7053   */\n      tag_144\n        /* \"#utility.yul\":7036:7052   */\n      dup3\n        /* \"#utility.yul\":7012:7053   */\n      tag_53\n      jump\t// in\n    tag_144:\n        /* \"#utility.yul\":7004:7010   */\n      dup5\n        /* \"#utility.yul\":6997:7001   */\n      dup5\n        /* \"#utility.yul\":6991:7002   */\n      sload\n        /* \"#utility.yul\":6963:7054   */\n      tag_49\n      jump\t// in\n    tag_143:\n        /* \"#utility.yul\":6957:6961   */\n      dup3\n        /* \"#utility.yul\":6950:7055   */\n      sstore\n        /* \"#utility.yul\":6868:7061   */\n      pop\n        /* \"#utility.yul\":6792:7061   */\n      pop\n      pop\n      pop\n      jump\t// out\n        /* \"#utility.yul\":7067:7140   */\n    tag_55:\n        /* \"#utility.yul\":7112:7115   */\n      0x00\n        /* \"#utility.yul\":7067:7140   */\n      swap1\n      jump\t// out\n        /* \"#utility.yul\":7146:7335   */\n    tag_56:\n        /* \"#utility.yul\":7223:7255   */\n      tag_147\n      tag_55\n      jump\t// in\n    tag_147:\n        /* \"#utility.yul\":7264:7329   */\n      tag_148\n        /* \"#utility.yul\":7322:7328   */\n      dup2\n        /* \"#utility.yul\":7314:7320   */\n      dup5\n        /* \"#utility.yul\":7308:7312   */\n      dup5\n        /* \"#utility.yul\":7264:7329   */\n      tag_54\n      jump\t// in\n    tag_148:\n        /* \"#utility.yul\":7199:7335   */\n      pop\n        /* \"#utility.yul\":7146:7335   */\n      pop\n      pop\n      jump\t// out\n        /* \"#utility.yul\":7341:7527   */\n    tag_57:\n        /* \"#utility.yul\":7401:7521   */\n    tag_150:\n        /* \"#utility.yul\":7418:7421   */\n      dup2\n        /* \"#utility.yul\":7411:7416   */\n      dup2\n        /* \"#utility.yul\":7408:7422   */\n      lt\n        /* \"#utility.yul\":7401:7521   */\n      iszero\n      tag_152\n      jumpi\n        /* \"#utility.yul\":7472:7511   */\n      tag_153\n        /* \"#utility.yul\":7509:7510   */\n      0x00\n        /* \"#utility.yul\":7502:7507   */\n      dup3\n        /* \"#utility.yul\":7472:7511   */\n      tag_56\n      jump\t// in\n    tag_153:\n        /* \"#utility.yul\":7445:7446   */\n      0x01\n        /* \"#utility.yul\":7438:7443   */\n      dup2\n        /* \"#utility.yul\":7434:7447   */\n      add\n        /* \"#utility.yul\":7425:7447   */\n      swap1\n      pop\n        /* \"#utility.yul\":7401:7521   */\n      jump(tag_150)\n    tag_152:\n        /* \"#utility.yul\":7341:7527   */\n      pop\n      pop\n      jump\t// out\n        /* \"#utility.yul\":7533:8076   */\n    tag_58:\n        /* \"#utility.yul\":7634:7636   */\n      0x1f\n        /* \"#utility.yul\":7629:7632   */\n      dup3\n        /* \"#utility.yul\":7626:7637   */\n      gt\n        /* \"#utility.yul\":7623:8069   */\n      iszero\n      tag_155\n      jumpi\n        /* \"#utility.yul\":7668:7706   */\n      tag_156\n        /* \"#utility.yul\":7700:7705   */\n      dup2\n        /* \"#utility.yul\":7668:7706   */\n      tag_46\n      jump\t// in\n    tag_156:\n        /* \"#utility.yul\":7752:7781   */\n      tag_157\n        /* \"#utility.yul\":7770:7780   */\n      dup5\n        /* \"#utility.yul\":7752:7781   */\n      tag_47\n      jump\t// in\n    tag_157:\n        /* \"#utility.yul\":7742:7750   */\n      dup2\n        /* \"#utility.yul\":7738:7782   */\n      add\n        /* \"#utility.yul\":7935:7937   */\n      0x20\n        /* \"#utility.yul\":7923:7933   */\n      dup6\n        /* \"#utility.yul\":7920:7938   */\n      lt\n        /* \"#utility.yul\":7917:7966   */\n      iszero\n      tag_158\n      jumpi\n        /* \"#utility.yul\":7956:7964   */\n      dup2\n        /* \"#utility.yul\":7941:7964   */\n      swap1\n      pop\n        /* \"#utility.yul\":7917:7966   */\n    tag_158:\n        /* \"#utility.yul\":7979:8059   */\n      tag_159\n        /* \"#utility.yul\":8035:8057   */\n      tag_160\n        /* \"#utility.yul\":8053:8056   */\n      dup6\n        /* \"#utility.yul\":8035:8057   */\n      tag_47\n      jump\t// in\n    tag_160:\n        /* \"#utility.yul\":8025:8033   */\n      dup4\n        /* \"#utility.yul\":8021:8058   */\n      add\n        /* \"#utility.yul\":8008:8019   */\n      dup3\n        /* \"#utility.yul\":7979:8059   */\n      tag_57\n      jump\t// in\n    tag_159:\n        /* \"#utility.yul\":7638:8069   */\n      pop\n      pop\n        /* \"#utility.yul\":7623:8069   */\n    tag_155:\n        /* \"#utility.yul\":7533:8076   */\n      pop\n      pop\n      pop\n      jump\t// out\n        /* \"#utility.yul\":8082:8199   */\n    tag_59:\n        /* \"#utility.yul\":8136:8144   */\n      0x00\n        /* \"#utility.yul\":8186:8191   */\n      dup3\n        /* \"#utility.yul\":8180:8184   */\n      dup3\n        /* \"#utility.yul\":8176:8192   */\n      shr\n        /* \"#utility.yul\":8155:8192   */\n      swap1\n      pop\n        /* \"#utility.yul\":8082:8199   */\n      swap3\n      swap2\n      pop\n      pop\n      jump\t// out\n        /* \"#utility.yul\":8205:8374   */\n    tag_60:\n        /* \"#utility.yul\":8249:8255   */\n      0x00\n        /* \"#utility.yul\":8282:8333   */\n      tag_163\n        /* \"#utility.yul\":8330:8331   */\n      0x00\n        /* \"#utility.yul\":8326:8332   */\n      not\n        /* \"#utility.yul\":8318:8323   */\n      dup5\n        /* \"#utility.yul\":8315:8316   */\n      0x08\n        /* \"#utility.yul\":8311:8324   */\n      mul\n        /* \"#utility.yul\":8282:8333   */\n      tag_59\n      jump\t// in\n    tag_163:\n        /* \"#utility.yul\":8278:8334   */\n      not\n        /* \"#utility.yul\":8363:8367   */\n      dup1\n        /* \"#utility.yul\":8357:8361   */\n      dup4\n        /* \"#utility.yul\":8353:8368   */\n      and\n        /* \"#utility.yul\":8343:8368   */\n      swap2\n      pop\n        /* \"#utility.yul\":8256:8374   */\n      pop\n        /* \"#utility.yul\":8205:8374   */\n      swap3\n      swap2\n      pop\n      pop\n      jump\t// out\n        /* \"#utility.yul\":8379:8674   */\n    tag_61:\n        /* \"#utility.yul\":8455:8459   */\n      0x00\n        /* \"#utility.yul\":8601:8630   */\n      tag_165\n        /* \"#utility.yul\":8626:8629   */\n      dup4\n        /* \"#utility.yul\":8620:8624   */\n      dup4\n        /* \"#utility.yul\":8601:8630   */\n      tag_60\n      jump\t// in\n    tag_165:\n        /* \"#utility.yul\":8593:8630   */\n      swap2\n      pop\n        /* \"#utility.yul\":8663:8666   */\n      dup3\n        /* \"#utility.yul\":8660:8661   */\n      0x02\n        /* \"#utility.yul\":8656:8667   */\n      mul\n        /* \"#utility.yul\":8650:8654   */\n      dup3\n        /* \"#utility.yul\":8647:8668   */\n      or\n        /* \"#utility.yul\":8639:8668   */\n      swap1\n      pop\n        /* \"#utility.yul\":8379:8674   */\n      swap3\n      swap2\n      pop\n      pop\n      jump\t// out\n        /* \"#utility.yul\":8679:10074   */\n    tag_17:\n        /* \"#utility.yul\":8796:8833   */\n      tag_167\n        /* \"#utility.yul\":8829:8832   */\n      dup3\n        /* \"#utility.yul\":8796:8833   */\n      tag_41\n      jump\t// in\n    tag_167:\n        /* \"#utility.yul\":8898:8916   */\n      0xffffffffffffffff\n        /* \"#utility.yul\":8890:8896   */\n      dup2\n        /* \"#utility.yul\":8887:8917   */\n      gt\n        /* \"#utility.yul\":8884:8940   */\n      iszero\n      tag_168\n      jumpi\n        /* \"#utility.yul\":8920:8938   */\n      tag_169\n      tag_30\n      jump\t// in\n    tag_169:\n        /* \"#utility.yul\":8884:8940   */\n    tag_168:\n        /* \"#utility.yul\":8964:9002   */\n      tag_170\n        /* \"#utility.yul\":8996:9000   */\n      dup3\n        /* \"#utility.yul\":8990:9001   */\n      sload\n        /* \"#utility.yul\":8964:9002   */\n      tag_19\n      jump\t// in\n    tag_170:\n        /* \"#utility.yul\":9049:9116   */\n      tag_171\n        /* \"#utility.yul\":9109:9115   */\n      dup3\n        /* \"#utility.yul\":9101:9107   */\n      dup3\n        /* \"#utility.yul\":9095:9099   */\n      dup6\n        /* \"#utility.yul\":9049:9116   */\n      tag_58\n      jump\t// in\n    tag_171:\n        /* \"#utility.yul\":9143:9144   */\n      0x00\n        /* \"#utility.yul\":9167:9171   */\n      0x20\n        /* \"#utility.yul\":9154:9171   */\n      swap1\n      pop\n        /* \"#utility.yul\":9199:9201   */\n      0x1f\n        /* \"#utility.yul\":9191:9197   */\n      dup4\n        /* \"#utility.yul\":9188:9202   */\n      gt\n        /* \"#utility.yul\":9216:9217   */\n      0x01\n        /* \"#utility.yul\":9211:9829   */\n      dup2\n      eq\n      tag_173\n      jumpi\n        /* \"#utility.yul\":9873:9874   */\n      0x00\n        /* \"#utility.yul\":9890:9896   */\n      dup5\n        /* \"#utility.yul\":9887:9964   */\n      iszero\n      tag_174\n      jumpi\n        /* \"#utility.yul\":9939:9948   */\n      dup3\n        /* \"#utility.yul\":9934:9937   */\n      dup8\n        /* \"#utility.yul\":9930:9949   */\n      add\n        /* \"#utility.yul\":9924:9950   */\n      mload\n        /* \"#utility.yul\":9915:9950   */\n      swap1\n      pop\n        /* \"#utility.yul\":9887:9964   */\n    tag_174:\n        /* \"#utility.yul\":9990:10057   */\n      tag_175\n        /* \"#utility.yul\":10050:10056   */\n      dup6\n        /* \"#utility.yul\":10043:10048   */\n      dup3\n        /* \"#utility.yul\":9990:10057   */\n      tag_61\n      jump\t// in\n    tag_175:\n        /* \"#utility.yul\":9984:9988   */\n      dup7\n        /* \"#utility.yul\":9977:10058   */\n      sstore\n        /* \"#utility.yul\":9846:10068   */\n      pop\n        /* \"#utility.yul\":9181:10068   */\n      jump(tag_172)\n        /* \"#utility.yul\":9211:9829   */\n    tag_173:\n        /* \"#utility.yul\":9263:9267   */\n      0x1f\n        /* \"#utility.yul\":9259:9268   */\n      not\n        /* \"#utility.yul\":9251:9257   */\n      dup5\n        /* \"#utility.yul\":9247:9269   */\n      and\n        /* \"#utility.yul\":9297:9334   */\n      tag_176\n        /* \"#utility.yul\":9329:9333   */\n      dup7\n        /* \"#utility.yul\":9297:9334   */\n      tag_46\n      jump\t// in\n    tag_176:\n        /* \"#utility.yul\":9356:9357   */\n      0x00\n        /* \"#utility.yul\":9370:9578   */\n    tag_177:\n        /* \"#utility.yul\":9384:9391   */\n      dup3\n        /* \"#utility.yul\":9381:9382   */\n      dup2\n        /* \"#utility.yul\":9378:9392   */\n      lt\n        /* \"#utility.yul\":9370:9578   */\n      iszero\n      tag_179\n      jumpi\n        /* \"#utility.yul\":9463:9472   */\n      dup5\n        /* \"#utility.yul\":9458:9461   */\n      dup10\n        /* \"#utility.yul\":9454:9473   */\n      add\n        /* \"#utility.yul\":9448:9474   */\n      mload\n        /* \"#utility.yul\":9440:9446   */\n      dup3\n        /* \"#utility.yul\":9433:9475   */\n      sstore\n        /* \"#utility.yul\":9514:9515   */\n      0x01\n        /* \"#utility.yul\":9506:9512   */\n      dup3\n        /* \"#utility.yul\":9502:9516   */\n      add\n        /* \"#utility.yul\":9492:9516   */\n      swap2\n      pop\n        /* \"#utility.yul\":9561:9563   */\n      0x20\n        /* \"#utility.yul\":9550:9559   */\n      dup6\n        /* \"#utility.yul\":9546:9564   */\n      add\n        /* \"#utility.yul\":9533:9564   */\n      swap5\n      pop\n        /* \"#utility.yul\":9407:9411   */\n      0x20\n        /* \"#utility.yul\":9404:9405   */\n      dup2\n        /* \"#utility.yul\":9400:9412   */\n      add\n        /* \"#utility.yul\":9395:9412   */\n      swap1\n      pop\n        /* \"#utility.yul\":9370:9578   */\n      jump(tag_177)\n    tag_179:\n        /* \"#utility.yul\":9606:9612   */\n      dup7\n        /* \"#utility.yul\":9597:9604   */\n      dup4\n        /* \"#utility.yul\":9594:9613   */\n      lt\n        /* \"#utility.yul\":9591:9770   */\n      iszero\n      tag_180\n      jumpi\n        /* \"#utility.yul\":9664:9673   */\n      dup5\n        /* \"#utility.yul\":9659:9662   */\n      dup10\n        /* \"#utility.yul\":9655:9674   */\n      add\n        /* \"#utility.yul\":9649:9675   */\n      mload\n        /* \"#utility.yul\":9707:9755   */\n      tag_181\n        /* \"#utility.yul\":9749:9753   */\n      0x1f\n        /* \"#utility.yul\":9741:9747   */\n      dup10\n        /* \"#utility.yul\":9737:9754   */\n      and\n        /* \"#utility.yul\":9726:9735   */\n      dup3\n        /* \"#utility.yul\":9707:9755   */\n      tag_60\n      jump\t// in\n    tag_181:\n        /* \"#utility.yul\":9699:9705   */\n      dup4\n        /* \"#utility.yul\":9692:9756   */\n      sstore\n        /* \"#utility.yul\":9614:9770   */\n      pop\n        /* \"#utility.yul\":9591:9770   */\n    tag_180:\n        /* \"#utility.yul\":9816:9817   */\n      0x01\n        /* \"#utility.yul\":9812:9813   */\n      0x02\n        /* \"#utility.yul\":9804:9810   */\n      dup9\n        /* \"#utility.yul\":9800:9814   */\n      mul\n        /* \"#utility.yul\":9796:9818   */\n      add\n        /* \"#utility.yul\":9790:9794   */\n      dup9\n        /* \"#utility.yul\":9783:9819   */\n      sstore\n        /* \"#utility.yul\":9218:9829   */\n      pop\n      pop\n      pop\n        /* \"#utility.yul\":9181:10068   */\n    tag_172:\n      pop\n        /* \"#utility.yul\":8771:10074   */\n      pop\n      pop\n      pop\n        /* \"#utility.yul\":8679:10074   */\n      pop\n      pop\n      jump\t// out\n\n    auxdata: 0xa264697066735822122078bfb6a128f373f0cd5686fccbf7b20cf4021fef317f700a1d191721848524ab64736f6c63430008160033\n}\n",
				"bytecode": {
					"linkReferences": {},
					"object": "608060405234801561000f575f80fd5b506107268061001d5f395ff3fe608060405234801561000f575f80fd5b5060043610610034575f3560e01c806317d7f820146100385780635eaf48b414610054575b5f80fd5b610052600480360381019061004d91906102b8565b610084565b005b61006e60048036038101906100699190610359565b6100d1565b60405161007b91906103fe565b60405180910390f35b805f803373ffffffffffffffffffffffffffffffffffffffff1673ffffffffffffffffffffffffffffffffffffffff1681526020019081526020015f2090816100cd9190610621565b5050565b5f602052805f5260405f205f9150905080546100ec9061044b565b80601f01602080910402602001604051908101604052809291908181526020018280546101189061044b565b80156101635780601f1061013a57610100808354040283529160200191610163565b820191905f5260205f20905b81548152906001019060200180831161014657829003601f168201915b505050505081565b5f604051905090565b5f80fd5b5f80fd5b5f80fd5b5f80fd5b5f601f19601f8301169050919050565b7f4e487b71000000000000000000000000000000000000000000000000000000005f52604160045260245ffd5b6101ca82610184565b810181811067ffffffffffffffff821117156101e9576101e8610194565b5b80604052505050565b5f6101fb61016b565b905061020782826101c1565b919050565b5f67ffffffffffffffff82111561022657610225610194565b5b61022f82610184565b9050602081019050919050565b828183375f83830152505050565b5f61025c6102578461020c565b6101f2565b90508281526020810184848401111561027857610277610180565b5b61028384828561023c565b509392505050565b5f82601f83011261029f5761029e61017c565b5b81356102af84826020860161024a565b91505092915050565b5f602082840312156102cd576102cc610174565b5b5f82013567ffffffffffffffff8111156102ea576102e9610178565b5b6102f68482850161028b565b91505092915050565b5f73ffffffffffffffffffffffffffffffffffffffff82169050919050565b5f610328826102ff565b9050919050565b6103388161031e565b8114610342575f80fd5b50565b5f813590506103538161032f565b92915050565b5f6020828403121561036e5761036d610174565b5b5f61037b84828501610345565b91505092915050565b5f81519050919050565b5f82825260208201905092915050565b5f5b838110156103bb5780820151818401526020810190506103a0565b5f8484015250505050565b5f6103d082610384565b6103da818561038e565b93506103ea81856020860161039e565b6103f381610184565b840191505092915050565b5f6020820190508181035f83015261041681846103c6565b905092915050565b7f4e487b71000000000000000000000000000000000000000000000000000000005f52602260045260245ffd5b5f600282049050600182168061046257607f821691505b6020821081036104755761047461041e565b5b50919050565b5f819050815f5260205f209050919050565b5f6020601f8301049050919050565b5f82821b905092915050565b5f600883026104d77fffffffffffffffffffffffffffffffffffffffffffffffffffffffffffffffff8261049c565b6104e1868361049c565b95508019841693508086168417925050509392505050565b5f819050919050565b5f819050919050565b5f61052561052061051b846104f9565b610502565b6104f9565b9050919050565b5f819050919050565b61053e8361050b565b61055261054a8261052c565b8484546104a8565b825550505050565b5f90565b61056661055a565b610571818484610535565b505050565b5b81811015610594576105895f8261055e565b600181019050610577565b5050565b601f8211156105d9576105aa8161047b565b6105b38461048d565b810160208510156105c2578190505b6105d66105ce8561048d565b830182610576565b50505b505050565b5f82821c905092915050565b5f6105f95f19846008026105de565b1980831691505092915050565b5f61061183836105ea565b9150826002028217905092915050565b61062a82610384565b67ffffffffffffffff81111561064357610642610194565b5b61064d825461044b565b610658828285610598565b5f60209050601f831160018114610689575f8415610677578287015190505b6106818582610606565b8655506106e8565b601f1984166106978661047b565b5f5b828110156106be57848901518255600182019150602085019450602081019050610699565b868310156106db57848901516106d7601f8916826105ea565b8355505b6001600288020188555050505b50505050505056fea264697066735822122078bfb6a128f373f0cd5686fccbf7b20cf4021fef317f700a1d191721848524ab64736f6c63430008160033",
					"opcodes": "PUSH1 0x80 PUSH1 0x40 MSTORE CALLVALUE DUP1 ISZERO PUSH2 0xF JUMPI PUSH0 DUP1 REVERT JUMPDEST POP PUSH2 0x726 DUP1 PUSH2 0x1D PUSH0 CODECOPY PUSH0 RETURN INVALID PUSH1 0x80 PUSH1 0x40 MSTORE CALLVALUE DUP1 ISZERO PUSH2 0xF JUMPI PUSH0 DUP1 REVERT JUMPDEST POP PUSH1 0x4 CALLDATASIZE LT PUSH2 0x34 JUMPI PUSH0 CALLDATALOAD PUSH1 0xE0 SHR DUP1 PUSH4 0x17D7F820 EQ PUSH2 0x38 JUMPI DUP1 PUSH4 0x5EAF48B4 EQ PUSH2 0x54 JUMPI JUMPDEST PUSH0 DUP1 REVERT JUMPDEST PUSH2 0x52 PUSH1 0x4 DUP1 CALLDATASIZE SUB DUP2 ADD SWAP1 PUSH2 0x4D SWAP2 SWAP1 PUSH2 0x2B8 JUMP JUMPDEST PUSH2 0x84 JUMP JUMPDEST STOP JUMPDEST PUSH2 0x6E PUSH1 0x4 DUP1 CALLDATASIZE SUB DUP2 ADD SWAP1 PUSH2 0x69 SWAP2 SWAP1 PUSH2 0x359 JUMP JUMPDEST PUSH2 0xD1 JUMP JUMPDEST PUSH1 0x40 MLOAD PUSH2 0x7B SWAP2 SWAP1 PUSH2 0x3FE JUMP JUMPDEST PUSH1 0x40 MLOAD DUP1 SWAP2 SUB SWAP1 RETURN JUMPDEST DUP1 PUSH0 DUP1 CALLER PUSH20 0xFFFFFFFFFFFFFFFFFFFFFFFFFFFFFFFFFFFFFFFF AND PUSH20 0xFFFFFFFFFFFFFFFFFFFFFFFFFFFFFFFFFFFFFFFF AND DUP2 MSTORE PUSH1 0x20 ADD SWAP1 DUP2 MSTORE PUSH1 0x20 ADD PUSH0 KECCAK256 SWAP1 DUP2 PUSH2 0xCD SWAP2 SWAP1 PUSH2 0x621 JUMP JUMPDEST POP POP JUMP JUMPDEST PUSH0 PUSH1 0x20 MSTORE DUP1 PUSH0 MSTORE PUSH1 0x40 PUSH0 KECCAK256 PUSH0 SWAP2 POP SWAP1 POP DUP1 SLOAD PUSH2 0xEC SWAP1 PUSH2 0x44B JUMP JUMPDEST DUP1 PUSH1 0x1F ADD PUSH1 0x20 DUP1 SWAP2 DIV MUL PUSH1 0x20 ADD PUSH1 0x40 MLOAD SWAP1 DUP2 ADD PUSH1 0x40 MSTORE DUP1 SWAP3 SWAP2 SWAP1 DUP2 DUP2 MSTORE PUSH1 0x20 ADD DUP3 DUP1 SLOAD PUSH2 0x118 SWAP1 PUSH2 0x44B JUMP JUMPDEST DUP1 ISZERO PUSH2 0x163 JUMPI DUP1 PUSH1 0x1F LT PUSH2 0x13A JUMPI PUSH2 0x100 DUP1 DUP4 SLOAD DIV MUL DUP4 MSTORE SWAP2 PUSH1 0x20 ADD SWAP2 PUSH2 0x163 JUMP JUMPDEST DUP3 ADD SWAP2 SWAP1 PUSH0 MSTORE PUSH1 0x20 PUSH0 KECCAK256 SWAP1 JUMPDEST DUP2 SLOAD DUP2 MSTORE SWAP1 PUSH1 0x1 ADD SWAP1 PUSH1 0x20 ADD DUP1 DUP4 GT PUSH2 0x146 JUMPI DUP3 SWAP1 SUB PUSH1 0x1F AND DUP3 ADD SWAP2 JUMPDEST POP POP POP POP POP DUP2 JUMP JUMPDEST PUSH0 PUSH1 0x40 MLOAD SWAP1 POP SWAP1 JUMP JUMPDEST PUSH0 DUP1 REVERT JUMPDEST PUSH0 DUP1 REVERT JUMPDEST PUSH0 DUP1 REVERT JUMPDEST PUSH0 DUP1 REVERT JUMPDEST PUSH0 PUSH1 0x1F NOT PUSH1 0x1F DUP4 ADD AND SWAP1 POP SWAP2 SWAP1 POP JUMP JUMPDEST PUSH32 0x4E487B7100000000000000000000000000000000000000000000000000000000 PUSH0 MSTORE PUSH1 0x41 PUSH1 0x4 MSTORE PUSH1 0x24 PUSH0 REVERT JUMPDEST PUSH2 0x1CA DUP3 PUSH2 0x184 JUMP JUMPDEST DUP2 ADD DUP2 DUP2 LT PUSH8 0xFFFFFFFFFFFFFFFF DUP3 GT OR ISZERO PUSH2 0x1E9 JUMPI PUSH2 0x1E8 PUSH2 0x194 JUMP JUMPDEST JUMPDEST DUP1 PUSH1 0x40 MSTORE POP POP POP JUMP JUMPDEST PUSH0 PUSH2 0x1FB PUSH2 0x16B JUMP JUMPDEST SWAP1 POP PUSH2 0x207 DUP3 DUP3 PUSH2 0x1C1 JUMP JUMPDEST SWAP2 SWAP1 POP JUMP JUMPDEST PUSH0 PUSH8 0xFFFFFFFFFFFFFFFF DUP3 GT ISZERO PUSH2 0x226 JUMPI PUSH2 0x225 PUSH2 0x194 JUMP JUMPDEST JUMPDEST PUSH2 0x22F DUP3 PUSH2 0x184 JUMP JUMPDEST SWAP1 POP PUSH1 0x20 DUP2 ADD SWAP1 POP SWAP2 SWAP1 POP JUMP JUMPDEST DUP3 DUP2 DUP4 CALLDATACOPY PUSH0 DUP4 DUP4 ADD MSTORE POP POP POP JUMP JUMPDEST PUSH0 PUSH2 0x25C PUSH2 0x257 DUP5 PUSH2 0x20C JUMP JUMPDEST PUSH2 0x1F2 JUMP JUMPDEST SWAP1 POP DUP3 DUP2 MSTORE PUSH1 0x20 DUP2 ADD DUP5 DUP5 DUP5 ADD GT ISZERO PUSH2 0x278 JUMPI PUSH2 0x277 PUSH2 0x180 JUMP JUMPDEST JUMPDEST PUSH2 0x283 DUP5 DUP3 DUP6 PUSH2 0x23C JUMP JUMPDEST POP SWAP4 SWAP3 POP POP POP JUMP JUMPDEST PUSH0 DUP3 PUSH1 0x1F DUP4 ADD SLT PUSH2 0x29F JUMPI PUSH2 0x29E PUSH2 0x17C JUMP JUMPDEST JUMPDEST DUP2 CALLDATALOAD PUSH2 0x2AF DUP5 DUP3 PUSH1 0x20 DUP7 ADD PUSH2 0x24A JUMP JUMPDEST SWAP2 POP POP SWAP3 SWAP2 POP POP JUMP JUMPDEST PUSH0 PUSH1 0x20 DUP3 DUP5 SUB SLT ISZERO PUSH2 0x2CD JUMPI PUSH2 0x2CC PUSH2 0x174 JUMP JUMPDEST JUMPDEST PUSH0 DUP3 ADD CALLDATALOAD PUSH8 0xFFFFFFFFFFFFFFFF DUP2 GT ISZERO PUSH2 0x2EA JUMPI PUSH2 0x2E9 PUSH2 0x178 JUMP JUMPDEST JUMPDEST PUSH2 0x2F6 DUP5 DUP3 DUP6 ADD PUSH2 0x28B JUMP JUMPDEST SWAP2 POP POP SWAP3 SWAP2 POP POP JUMP JUMPDEST PUSH0 PUSH20 0xFFFFFFFFFFFFFFFFFFFFFFFFFFFFFFFFFFFFFFFF DUP3 AND SWAP1 POP SWAP2 SWAP1 POP JUMP JUMPDEST PUSH0 PUSH2 0x328 DUP3 PUSH2 0x2FF JUMP JUMPDEST SWAP1 POP SWAP2 SWAP1 POP JUMP JUMPDEST PUSH2 0x338 DUP2 PUSH2 0x31E JUMP JUMPDEST DUP2 EQ PUSH2 0x342 JUMPI PUSH0 DUP1 REVERT JUMPDEST POP JUMP JUMPDEST PUSH0 DUP2 CALLDATALOAD SWAP1 POP PUSH2 0x353 DUP2 PUSH2 0x32F JUMP JUMPDEST SWAP3 SWAP2 POP POP JUMP JUMPDEST PUSH0 PUSH1 0x20 DUP3 DUP5 SUB SLT ISZERO PUSH2 0x36E JUMPI PUSH2 0x36D PUSH2 0x174 JUMP JUMPDEST JUMPDEST PUSH0 PUSH2 0x37B DUP5 DUP3 DUP6 ADD PUSH2 0x345 JUMP JUMPDEST SWAP2 POP POP SWAP3 SWAP2 POP POP JUMP JUMPDEST PUSH0 DUP2 MLOAD SWAP1 POP SWAP2 SWAP1 POP JUMP JUMPDEST PUSH0 DUP3 DUP3 MSTORE PUSH1 0x20 DUP3 ADD SWAP1 POP SWAP3 SWAP2 POP POP JUMP JUMPDEST PUSH0 JUMPDEST DUP4 DUP2 LT ISZERO PUSH2 0x3BB JUMPI DUP1 DUP3 ADD MLOAD DUP2 DUP5 ADD MSTORE PUSH1 0x20 DUP2 ADD SWAP1 POP PUSH2 0x3A0 JUMP JUMPDEST PUSH0 DUP5 DUP5 ADD MSTORE POP POP POP POP JUMP JUMPDEST PUSH0 PUSH2 0x3D0 DUP3 PUSH2 0x384 JUMP JUMPDEST PUSH2 0x3DA DUP2 DUP6 PUSH2 0x38E JUMP JUMPDEST SWAP4 POP PUSH2 0x3EA DUP2 DUP6 PUSH1 0x20 DUP7 ADD PUSH2 0x39E JUMP JUMPDEST PUSH2 0x3F3 DUP2 PUSH2 0x184 JUMP JUMPDEST DUP5 ADD SWAP2 POP POP SWAP3 SWAP2 POP POP JUMP JUMPDEST PUSH0 PUSH1 0x20 DUP3 ADD SWAP1 POP DUP2 DUP2 SUB PUSH0 DUP4 ADD MSTORE PUSH2 0x416 DUP2 DUP5 PUSH2 0x3C6 JUMP JUMPDEST SWAP1 POP SWAP3 SWAP2 POP POP JUMP JUMPDEST PUSH32 0x4E487B7100000000000000000000000000000000000000000000000000000000 PUSH0 MSTORE PUSH1 0x22 PUSH1 0x4 MSTORE PUSH1 0x24 PUSH0 REVERT JUMPDEST PUSH0 PUSH1 0x2 DUP3 DIV SWAP1 POP PUSH1 0x1 DUP3 AND DUP1 PUSH2 0x462 JUMPI PUSH1 0x7F DUP3 AND SWAP2 POP JUMPDEST PUSH1 0x20 DUP3 LT DUP2 SUB PUSH2 0x475 JUMPI PUSH2 0x474 PUSH2 0x41E JUMP JUMPDEST JUMPDEST POP SWAP2 SWAP1 POP JUMP JUMPDEST PUSH0 DUP2 SWAP1 POP DUP2 PUSH0 MSTORE PUSH1 0x20 PUSH0 KECCAK256 SWAP1 POP SWAP2 SWAP1 POP JUMP JUMPDEST PUSH0 PUSH1 0x20 PUSH1 0x1F DUP4 ADD DIV SWAP1 POP SWAP2 SWAP1 POP JUMP JUMPDEST PUSH0 DUP3 DUP3 SHL SWAP1 POP SWAP3 SWAP2 POP POP JUMP JUMPDEST PUSH0 PUSH1 0x8 DUP4 MUL PUSH2 0x4D7 PUSH32 0xFFFFFFFFFFFFFFFFFFFFFFFFFFFFFFFFFFFFFFFFFFFFFFFFFFFFFFFFFFFFFFFF DUP3 PUSH2 0x49C JUMP JUMPDEST PUSH2 0x4E1 DUP7 DUP4 PUSH2 0x49C JUMP JUMPDEST SWAP6 POP DUP1 NOT DUP5 AND SWAP4 POP DUP1 DUP7 AND DUP5 OR SWAP3 POP POP POP SWAP4 SWAP3 POP POP POP JUMP JUMPDEST PUSH0 DUP2 SWAP1 POP SWAP2 SWAP1 POP JUMP JUMPDEST PUSH0 DUP2 SWAP1 POP SWAP2 SWAP1 POP JUMP JUMPDEST PUSH0 PUSH2 0x525 PUSH2 0x520 PUSH2 0x51B DUP5 PUSH2 0x4F9 JUMP JUMPDEST PUSH2 0x502 JUMP JUMPDEST PUSH2 0x4F9 JUMP JUMPDEST SWAP1 POP SWAP2 SWAP1 POP JUMP JUMPDEST PUSH0 DUP2 SWAP1 POP SWAP2 SWAP1 POP JUMP JUMPDEST PUSH2 0x53E DUP4 PUSH2 0x50B JUMP JUMPDEST PUSH2 0x552 PUSH2 0x54A DUP3 PUSH2 0x52C JUMP JUMPDEST DUP5 DUP5 SLOAD PUSH2 0x4A8 JUMP JUMPDEST DUP3 SSTORE POP POP POP POP JUMP JUMPDEST PUSH0 SWAP1 JUMP JUMPDEST PUSH2 0x566 PUSH2 0x55A JUMP JUMPDEST PUSH2 0x571 DUP2 DUP5 DUP5 PUSH2 0x535 JUMP JUMPDEST POP POP POP JUMP JUMPDEST JUMPDEST DUP2 DUP2 LT ISZERO PUSH2 0x594 JUMPI PUSH2 0x589 PUSH0 DUP3 PUSH2 0x55E JUMP JUMPDEST PUSH1 0x1 DUP2 ADD SWAP1 POP PUSH2 0x577 JUMP JUMPDEST POP POP JUMP JUMPDEST PUSH1 0x1F DUP3 GT ISZERO PUSH2 0x5D9 JUMPI PUSH2 0x5AA DUP2 PUSH2 0x47B JUMP JUMPDEST PUSH2 0x5B3 DUP5 PUSH2 0x48D JUMP JUMPDEST DUP2 ADD PUSH1 0x20 DUP6 LT ISZERO PUSH2 0x5C2 JUMPI DUP2 SWAP1 POP JUMPDEST PUSH2 0x5D6 PUSH2 0x5CE DUP6 PUSH2 0x48D JUMP JUMPDEST DUP4 ADD DUP3 PUSH2 0x576 JUMP JUMPDEST POP POP JUMPDEST POP POP POP JUMP JUMPDEST PUSH0 DUP3 DUP3 SHR SWAP1 POP SWAP3 SWAP2 POP POP JUMP JUMPDEST PUSH0 PUSH2 0x5F9 PUSH0 NOT DUP5 PUSH1 0x8 MUL PUSH2 0x5DE JUMP JUMPDEST NOT DUP1 DUP4 AND SWAP2 POP POP SWAP3 SWAP2 POP POP JUMP JUMPDEST PUSH0 PUSH2 0x611 DUP4 DUP4 PUSH2 0x5EA JUMP JUMPDEST SWAP2 POP DUP3 PUSH1 0x2 MUL DUP3 OR SWAP1 POP SWAP3 SWAP2 POP POP JUMP JUMPDEST PUSH2 0x62A DUP3 PUSH2 0x384 JUMP JUMPDEST PUSH8 0xFFFFFFFFFFFFFFFF DUP2 GT ISZERO PUSH2 0x643 JUMPI PUSH2 0x642 PUSH2 0x194 JUMP JUMPDEST JUMPDEST PUSH2 0x64D DUP3 SLOAD PUSH2 0x44B JUMP JUMPDEST PUSH2 0x658 DUP3 DUP3 DUP6 PUSH2 0x598 JUMP JUMPDEST PUSH0 PUSH1 0x20 SWAP1 POP PUSH1 0x1F DUP4 GT PUSH1 0x1 DUP2 EQ PUSH2 0x689 JUMPI PUSH0 DUP5 ISZERO PUSH2 0x677 JUMPI DUP3 DUP8 ADD MLOAD SWAP1 POP JUMPDEST PUSH2 0x681 DUP6 DUP3 PUSH2 0x606 JUMP JUMPDEST DUP7 SSTORE POP PUSH2 0x6E8 JUMP JUMPDEST PUSH1 0x1F NOT DUP5 AND PUSH2 0x697 DUP7 PUSH2 0x47B JUMP JUMPDEST PUSH0 JUMPDEST DUP3 DUP2 LT ISZERO PUSH2 0x6BE JUMPI DUP5 DUP10 ADD MLOAD DUP3 SSTORE PUSH1 0x1 DUP3 ADD SWAP2 POP PUSH1 0x20 DUP6 ADD SWAP5 POP PUSH1 0x20 DUP2 ADD SWAP1 POP PUSH2 0x699 JUMP JUMPDEST DUP7 DUP4 LT ISZERO PUSH2 0x6DB JUMPI DUP5 DUP10 ADD MLOAD PUSH2 0x6D7 PUSH1 0x1F DUP10 AND DUP3 PUSH2 0x5EA JUMP JUMPDEST DUP4 SSTORE POP JUMPDEST PUSH1 0x1 PUSH1 0x2 DUP9 MUL ADD DUP9 SSTORE POP POP POP JUMPDEST POP POP POP POP POP POP JUMP INVALID LOG2 PUSH5 0x6970667358 0x22 SLT KECCAK256 PUSH25 0xBFB6A128F373F0CD5686FCCBF7B20CF4021FEF317F700A1D19 OR 0x21 DUP5 DUP6 0x24 0xAB PUSH5 0x736F6C6343 STOP ADDMOD AND STOP CALLER "
				},
				"gasEstimates": {
					"creation": {
						"codeDepositCost": "366000",
						"executionCost": "403",
						"totalCost": "366403"
					},
					"external": {
						"crateTweet(string)": "infinite",
						"tweets(address)": "infinite"
					}
				},
				"methodIdentifiers": {
					"crateTweet(string)": "17d7f820",
					"tweets(address)": "5eaf48b4"
				}
			},
			"storageLayout": {
				"storage": [
					{
						"astId": 5,
						"contract": "contracts/Twitter.sol:Twitter",
						"label": "tweets",
						"offset": 0,
						"slot": "0",
						"type": "t_mapping(t_address,t_string_storage)"
					}
				],
				"types": {
					"t_address": {
						"encoding": "inplace",
						"label": "address",
						"numberOfBytes": "20"
					},
					"t_mapping(t_address,t_string_storage)": {
						"encoding": "mapping",
						"key": "t_address",
						"label": "mapping(address => string)",
						"numberOfBytes": "32",
						"value": "t_string_storage"
					},
					"t_string_storage": {
						"encoding": "bytes",
						"label": "string",
						"numberOfBytes": "32"
					}
				}
			},
			"userdoc": {
				"kind": "user",
				"methods": {},
				"version": 1
			}
		}
	}
}