{
	"contracts/Twitter.sol": {
		"Twitter": {
			"abi": [
				{
					"inputs": [],
					"stateMutability": "nonpayable",
					"type": "constructor"
				},
				{
					"inputs": [
						{
							"internalType": "uint16",
							"name": "newTweetLength",
							"type": "uint16"
						}
					],
					"name": "changeTweetLength",
					"outputs": [],
					"stateMutability": "nonpayable",
					"type": "function"
				},
				{
					"inputs": [
						{
							"internalType": "string",
							"name": "_tweet",
							"type": "string"
						}
					],
					"name": "crateTweet",
					"outputs": [],
					"stateMutability": "nonpayable",
					"type": "function"
				},
				{
					"inputs": [
						{
							"internalType": "address",
							"name": "author",
							"type": "address"
						}
					],
					"name": "getAllTweets",
					"outputs": [
						{
							"components": [
								{
									"internalType": "uint256",
									"name": "id",
									"type": "uint256"
								},
								{
									"internalType": "address",
									"name": "author",
									"type": "address"
								},
								{
									"internalType": "string",
									"name": "content",
									"type": "string"
								},
								{
									"internalType": "uint256",
									"name": "timestamp",
									"type": "uint256"
								},
								{
									"internalType": "uint256",
									"name": "likes",
									"type": "uint256"
								}
							],
							"internalType": "struct Twitter.Tweet[]",
							"name": "",
							"type": "tuple[]"
						}
					],
					"stateMutability": "view",
					"type": "function"
				},
				{
					"inputs": [
						{
							"internalType": "address",
							"name": "author",
							"type": "address"
						},
						{
							"internalType": "uint256",
							"name": "_i",
							"type": "uint256"
						}
					],
					"name": "getTweet",
					"outputs": [
						{
							"components": [
								{
									"internalType": "uint256",
									"name": "id",
									"type": "uint256"
								},
								{
									"internalType": "address",
									"name": "author",
									"type": "address"
								},
								{
									"internalType": "string",
									"name": "content",
									"type": "string"
								},
								{
									"internalType": "uint256",
									"name": "timestamp",
									"type": "uint256"
								},
								{
									"internalType": "uint256",
									"name": "likes",
									"type": "uint256"
								}
							],
							"internalType": "struct Twitter.Tweet",
							"name": "",
							"type": "tuple"
						}
					],
					"stateMutability": "view",
					"type": "function"
				},
				{
					"inputs": [
						{
							"internalType": "address",
							"name": "author",
							"type": "address"
						},
						{
							"internalType": "uint256",
							"name": "id",
							"type": "uint256"
						}
					],
					"name": "likeTweet",
					"outputs": [],
					"stateMutability": "nonpayable",
					"type": "function"
				},
				{
					"inputs": [],
					"name": "owner",
					"outputs": [
						{
							"internalType": "address",
							"name": "",
							"type": "address"
						}
					],
					"stateMutability": "view",
					"type": "function"
				},
				{
					"inputs": [
						{
							"internalType": "address",
							"name": "",
							"type": "address"
						},
						{
							"internalType": "uint256",
							"name": "",
							"type": "uint256"
						}
					],
					"name": "tweets",
					"outputs": [
						{
							"internalType": "uint256",
							"name": "id",
							"type": "uint256"
						},
						{
							"internalType": "address",
							"name": "author",
							"type": "address"
						},
						{
							"internalType": "string",
							"name": "content",
							"type": "string"
						},
						{
							"internalType": "uint256",
							"name": "timestamp",
							"type": "uint256"
						},
						{
							"internalType": "uint256",
							"name": "likes",
							"type": "uint256"
						}
					],
					"stateMutability": "view",
					"type": "function"
				},
				{
					"inputs": [
						{
							"internalType": "address",
							"name": "author",
							"type": "address"
						},
						{
							"internalType": "uint256",
							"name": "id",
							"type": "uint256"
						}
					],
					"name": "unlikeTweet",
					"outputs": [],
					"stateMutability": "nonpayable",
					"type": "function"
				}
			],
			"devdoc": {
				"kind": "dev",
				"methods": {},
				"version": 1
			},
			"evm": {
				"assembly": "    /* \"contracts/Twitter.sol\":470:2256  contract Twitter {... */\n  mstore(0x40, 0x80)\n    /* \"contracts/Twitter.sol\":698:701  280 */\n  0x0118\n    /* \"contracts/Twitter.sol\":664:701  uint16 private MAX_TWEET_LENGTH = 280 */\n  0x00\n  dup1\n  0x0100\n  exp\n  dup2\n  sload\n  dup2\n  0xffff\n  mul\n  not\n  and\n  swap1\n  dup4\n  0xffff\n  and\n  mul\n  or\n  swap1\n  sstore\n  pop\n    /* \"contracts/Twitter.sol\":782:831  constructor() {... */\n  callvalue\n  dup1\n  iszero\n  tag_1\n  jumpi\n  0x00\n  dup1\n  revert\ntag_1:\n  pop\n    /* \"contracts/Twitter.sol\":814:824  msg.sender */\n  caller\n    /* \"contracts/Twitter.sol\":806:811  owner */\n  0x00\n  0x02\n    /* \"contracts/Twitter.sol\":806:824  owner = msg.sender */\n  0x0100\n  exp\n  dup2\n  sload\n  dup2\n  0xffffffffffffffffffffffffffffffffffffffff\n  mul\n  not\n  and\n  swap1\n  dup4\n  0xffffffffffffffffffffffffffffffffffffffff\n  and\n  mul\n  or\n  swap1\n  sstore\n  pop\n    /* \"contracts/Twitter.sol\":470:2256  contract Twitter {... */\n  dataSize(sub_0)\n  dup1\n  dataOffset(sub_0)\n  0x00\n  codecopy\n  0x00\n  return\nstop\n\nsub_0: assembly {\n        /* \"contracts/Twitter.sol\":470:2256  contract Twitter {... */\n      mstore(0x40, 0x80)\n      callvalue\n      dup1\n      iszero\n      tag_1\n      jumpi\n      0x00\n      dup1\n      revert\n    tag_1:\n      pop\n      jumpi(tag_2, lt(calldatasize, 0x04))\n      shr(0xe0, calldataload(0x00))\n      dup1\n      0x3d9b569f\n      gt\n      tag_11\n      jumpi\n      dup1\n      0x3d9b569f\n      eq\n      tag_7\n      jumpi\n      dup1\n      0x58bfa4ab\n      eq\n      tag_8\n      jumpi\n      dup1\n      0x63378216\n      eq\n      tag_9\n      jumpi\n      dup1\n      0x8da5cb5b\n      eq\n      tag_10\n      jumpi\n      jump(tag_2)\n    tag_11:\n      dup1\n      0x05a1b4a9\n      eq\n      tag_3\n      jumpi\n      dup1\n      0x112f54e3\n      eq\n      tag_4\n      jumpi\n      dup1\n      0x12e7ee1c\n      eq\n      tag_5\n      jumpi\n      dup1\n      0x17d7f820\n      eq\n      tag_6\n      jumpi\n    tag_2:\n      0x00\n      dup1\n      revert\n        /* \"contracts/Twitter.sol\":734:775  mapping(address => Tweet[]) public tweets */\n    tag_3:\n      tag_12\n      0x04\n      dup1\n      calldatasize\n      sub\n      dup2\n      add\n      swap1\n      tag_13\n      swap2\n      swap1\n      tag_14\n      jump\t// in\n    tag_13:\n      tag_15\n      jump\t// in\n    tag_12:\n      mload(0x40)\n      tag_16\n      swap6\n      swap5\n      swap4\n      swap3\n      swap2\n      swap1\n      tag_17\n      jump\t// in\n    tag_16:\n      mload(0x40)\n      dup1\n      swap2\n      sub\n      swap1\n      return\n        /* \"contracts/Twitter.sol\":2014:2134  function getTweet(address author, uint _i) public view returns (Tweet memory) {... */\n    tag_4:\n      tag_18\n      0x04\n      dup1\n      calldatasize\n      sub\n      dup2\n      add\n      swap1\n      tag_19\n      swap2\n      swap1\n      tag_14\n      jump\t// in\n    tag_19:\n      tag_20\n      jump\t// in\n    tag_18:\n      mload(0x40)\n      tag_21\n      swap2\n      swap1\n      tag_22\n      jump\t// in\n    tag_21:\n      mload(0x40)\n      dup1\n      swap2\n      sub\n      swap1\n      return\n        /* \"contracts/Twitter.sol\":2140:2254  function getAllTweets(address author) public  view returns (Tweet[] memory) {... */\n    tag_5:\n      tag_23\n      0x04\n      dup1\n      calldatasize\n      sub\n      dup2\n      add\n      swap1\n      tag_24\n      swap2\n      swap1\n      tag_25\n      jump\t// in\n    tag_24:\n      tag_26\n      jump\t// in\n    tag_23:\n      mload(0x40)\n      tag_27\n      swap2\n      swap1\n      tag_28\n      jump\t// in\n    tag_27:\n      mload(0x40)\n      dup1\n      swap2\n      sub\n      swap1\n      return\n        /* \"contracts/Twitter.sol\":963:1462  function crateTweet(string memory _tweet) public {... */\n    tag_6:\n      tag_29\n      0x04\n      dup1\n      calldatasize\n      sub\n      dup2\n      add\n      swap1\n      tag_30\n      swap2\n      swap1\n      tag_31\n      jump\t// in\n    tag_30:\n      tag_32\n      jump\t// in\n    tag_29:\n      stop\n        /* \"contracts/Twitter.sol\":1644:1885  function unlikeTweet(address author, uint256 id) external {... */\n    tag_7:\n      tag_33\n      0x04\n      dup1\n      calldatasize\n      sub\n      dup2\n      add\n      swap1\n      tag_34\n      swap2\n      swap1\n      tag_14\n      jump\t// in\n    tag_34:\n      tag_35\n      jump\t// in\n    tag_33:\n      stop\n        /* \"contracts/Twitter.sol\":1891:2008  function changeTweetLength(uint16 newTweetLength) public onlyOwner {... */\n    tag_8:\n      tag_36\n      0x04\n      dup1\n      calldatasize\n      sub\n      dup2\n      add\n      swap1\n      tag_37\n      swap2\n      swap1\n      tag_38\n      jump\t// in\n    tag_37:\n      tag_39\n      jump\t// in\n    tag_36:\n      stop\n        /* \"contracts/Twitter.sol\":1468:1638  function likeTweet(address author, uint256 id) external {... */\n    tag_9:\n      tag_40\n      0x04\n      dup1\n      calldatasize\n      sub\n      dup2\n      add\n      swap1\n      tag_41\n      swap2\n      swap1\n      tag_14\n      jump\t// in\n    tag_41:\n      tag_42\n      jump\t// in\n    tag_40:\n      stop\n        /* \"contracts/Twitter.sol\":707:727  address public owner */\n    tag_10:\n      tag_43\n      tag_44\n      jump\t// in\n    tag_43:\n      mload(0x40)\n      tag_45\n      swap2\n      swap1\n      tag_46\n      jump\t// in\n    tag_45:\n      mload(0x40)\n      dup1\n      swap2\n      sub\n      swap1\n      return\n        /* \"contracts/Twitter.sol\":734:775  mapping(address => Tweet[]) public tweets */\n    tag_15:\n      mstore(0x20, 0x01)\n      dup2\n      0x00\n      mstore\n      keccak256(0x00, 0x40)\n      dup2\n      dup2\n      sload\n      dup2\n      lt\n      tag_47\n      jumpi\n      0x00\n      dup1\n      revert\n    tag_47:\n      swap1\n      0x00\n      mstore\n      keccak256(0x00, 0x20)\n      swap1\n      0x05\n      mul\n      add\n      0x00\n      swap2\n      pop\n      swap2\n      pop\n      pop\n      dup1\n      0x00\n      add\n      sload\n      swap1\n      dup1\n      0x01\n      add\n      0x00\n      swap1\n      sload\n      swap1\n      0x0100\n      exp\n      swap1\n      div\n      0xffffffffffffffffffffffffffffffffffffffff\n      and\n      swap1\n      dup1\n      0x02\n      add\n      dup1\n      sload\n      tag_49\n      swap1\n      tag_50\n      jump\t// in\n    tag_49:\n      dup1\n      0x1f\n      add\n      0x20\n      dup1\n      swap2\n      div\n      mul\n      0x20\n      add\n      mload(0x40)\n      swap1\n      dup2\n      add\n      0x40\n      mstore\n      dup1\n      swap3\n      swap2\n      swap1\n      dup2\n      dup2\n      mstore\n      0x20\n      add\n      dup3\n      dup1\n      sload\n      tag_51\n      swap1\n      tag_50\n      jump\t// in\n    tag_51:\n      dup1\n      iszero\n      tag_52\n      jumpi\n      dup1\n      0x1f\n      lt\n      tag_53\n      jumpi\n      0x0100\n      dup1\n      dup4\n      sload\n      div\n      mul\n      dup4\n      mstore\n      swap2\n      0x20\n      add\n      swap2\n      jump(tag_52)\n    tag_53:\n      dup3\n      add\n      swap2\n      swap1\n      0x00\n      mstore\n      keccak256(0x00, 0x20)\n      swap1\n    tag_54:\n      dup2\n      sload\n      dup2\n      mstore\n      swap1\n      0x01\n      add\n      swap1\n      0x20\n      add\n      dup1\n      dup4\n      gt\n      tag_54\n      jumpi\n      dup3\n      swap1\n      sub\n      0x1f\n      and\n      dup3\n      add\n      swap2\n    tag_52:\n      pop\n      pop\n      pop\n      pop\n      pop\n      swap1\n      dup1\n      0x03\n      add\n      sload\n      swap1\n      dup1\n      0x04\n      add\n      sload\n      swap1\n      pop\n      dup6\n      jump\t// out\n        /* \"contracts/Twitter.sol\":2014:2134  function getTweet(address author, uint _i) public view returns (Tweet memory) {... */\n    tag_20:\n        /* \"contracts/Twitter.sol\":2078:2090  Tweet memory */\n      tag_55\n      tag_56\n      jump\t// in\n    tag_55:\n        /* \"contracts/Twitter.sol\":2109:2115  tweets */\n      0x01\n        /* \"contracts/Twitter.sol\":2109:2123  tweets[author] */\n      0x00\n        /* \"contracts/Twitter.sol\":2116:2122  author */\n      dup5\n        /* \"contracts/Twitter.sol\":2109:2123  tweets[author] */\n      0xffffffffffffffffffffffffffffffffffffffff\n      and\n      0xffffffffffffffffffffffffffffffffffffffff\n      and\n      dup2\n      mstore\n      0x20\n      add\n      swap1\n      dup2\n      mstore\n      0x20\n      add\n      0x00\n      keccak256\n        /* \"contracts/Twitter.sol\":2124:2126  _i */\n      dup3\n        /* \"contracts/Twitter.sol\":2109:2127  tweets[author][_i] */\n      dup2\n      sload\n      dup2\n      lt\n      tag_58\n      jumpi\n      tag_59\n      tag_60\n      jump\t// in\n    tag_59:\n    tag_58:\n      swap1\n      0x00\n      mstore\n      keccak256(0x00, 0x20)\n      swap1\n      0x05\n      mul\n      add\n        /* \"contracts/Twitter.sol\":2102:2127  return tweets[author][_i] */\n      mload(0x40)\n      dup1\n      0xa0\n      add\n      0x40\n      mstore\n      swap1\n      dup2\n      0x00\n      dup3\n      add\n      sload\n      dup2\n      mstore\n      0x20\n      add\n      0x01\n      dup3\n      add\n      0x00\n      swap1\n      sload\n      swap1\n      0x0100\n      exp\n      swap1\n      div\n      0xffffffffffffffffffffffffffffffffffffffff\n      and\n      0xffffffffffffffffffffffffffffffffffffffff\n      and\n      0xffffffffffffffffffffffffffffffffffffffff\n      and\n      dup2\n      mstore\n      0x20\n      add\n      0x02\n      dup3\n      add\n      dup1\n      sload\n      tag_62\n      swap1\n      tag_50\n      jump\t// in\n    tag_62:\n      dup1\n      0x1f\n      add\n      0x20\n      dup1\n      swap2\n      div\n      mul\n      0x20\n      add\n      mload(0x40)\n      swap1\n      dup2\n      add\n      0x40\n      mstore\n      dup1\n      swap3\n      swap2\n      swap1\n      dup2\n      dup2\n      mstore\n      0x20\n      add\n      dup3\n      dup1\n      sload\n      tag_63\n      swap1\n      tag_50\n      jump\t// in\n    tag_63:\n      dup1\n      iszero\n      tag_64\n      jumpi\n      dup1\n      0x1f\n      lt\n      tag_65\n      jumpi\n      0x0100\n      dup1\n      dup4\n      sload\n      div\n      mul\n      dup4\n      mstore\n      swap2\n      0x20\n      add\n      swap2\n      jump(tag_64)\n    tag_65:\n      dup3\n      add\n      swap2\n      swap1\n      0x00\n      mstore\n      keccak256(0x00, 0x20)\n      swap1\n    tag_66:\n      dup2\n      sload\n      dup2\n      mstore\n      swap1\n      0x01\n      add\n      swap1\n      0x20\n      add\n      dup1\n      dup4\n      gt\n      tag_66\n      jumpi\n      dup3\n      swap1\n      sub\n      0x1f\n      and\n      dup3\n      add\n      swap2\n    tag_64:\n      pop\n      pop\n      pop\n      pop\n      pop\n      dup2\n      mstore\n      0x20\n      add\n      0x03\n      dup3\n      add\n      sload\n      dup2\n      mstore\n      0x20\n      add\n      0x04\n      dup3\n      add\n      sload\n      dup2\n      mstore\n      pop\n      pop\n      swap1\n      pop\n        /* \"contracts/Twitter.sol\":2014:2134  function getTweet(address author, uint _i) public view returns (Tweet memory) {... */\n      swap3\n      swap2\n      pop\n      pop\n      jump\t// out\n        /* \"contracts/Twitter.sol\":2140:2254  function getAllTweets(address author) public  view returns (Tweet[] memory) {... */\n    tag_26:\n        /* \"contracts/Twitter.sol\":2200:2214  Tweet[] memory */\n      0x60\n        /* \"contracts/Twitter.sol\":2233:2239  tweets */\n      0x01\n        /* \"contracts/Twitter.sol\":2233:2247  tweets[author] */\n      0x00\n        /* \"contracts/Twitter.sol\":2240:2246  author */\n      dup4\n        /* \"contracts/Twitter.sol\":2233:2247  tweets[author] */\n      0xffffffffffffffffffffffffffffffffffffffff\n      and\n      0xffffffffffffffffffffffffffffffffffffffff\n      and\n      dup2\n      mstore\n      0x20\n      add\n      swap1\n      dup2\n      mstore\n      0x20\n      add\n      0x00\n      keccak256\n        /* \"contracts/Twitter.sol\":2226:2247  return tweets[author] */\n      dup1\n      sload\n      dup1\n      0x20\n      mul\n      0x20\n      add\n      mload(0x40)\n      swap1\n      dup2\n      add\n      0x40\n      mstore\n      dup1\n      swap3\n      swap2\n      swap1\n      dup2\n      dup2\n      mstore\n      0x20\n      add\n      0x00\n      swap1\n    tag_68:\n      dup3\n      dup3\n      lt\n      iszero\n      tag_69\n      jumpi\n      dup4\n      dup3\n      swap1\n      0x00\n      mstore\n      keccak256(0x00, 0x20)\n      swap1\n      0x05\n      mul\n      add\n      mload(0x40)\n      dup1\n      0xa0\n      add\n      0x40\n      mstore\n      swap1\n      dup2\n      0x00\n      dup3\n      add\n      sload\n      dup2\n      mstore\n      0x20\n      add\n      0x01\n      dup3\n      add\n      0x00\n      swap1\n      sload\n      swap1\n      0x0100\n      exp\n      swap1\n      div\n      0xffffffffffffffffffffffffffffffffffffffff\n      and\n      0xffffffffffffffffffffffffffffffffffffffff\n      and\n      0xffffffffffffffffffffffffffffffffffffffff\n      and\n      dup2\n      mstore\n      0x20\n      add\n      0x02\n      dup3\n      add\n      dup1\n      sload\n      tag_71\n      swap1\n      tag_50\n      jump\t// in\n    tag_71:\n      dup1\n      0x1f\n      add\n      0x20\n      dup1\n      swap2\n      div\n      mul\n      0x20\n      add\n      mload(0x40)\n      swap1\n      dup2\n      add\n      0x40\n      mstore\n      dup1\n      swap3\n      swap2\n      swap1\n      dup2\n      dup2\n      mstore\n      0x20\n      add\n      dup3\n      dup1\n      sload\n      tag_72\n      swap1\n      tag_50\n      jump\t// in\n    tag_72:\n      dup1\n      iszero\n      tag_73\n      jumpi\n      dup1\n      0x1f\n      lt\n      tag_74\n      jumpi\n      0x0100\n      dup1\n      dup4\n      sload\n      div\n      mul\n      dup4\n      mstore\n      swap2\n      0x20\n      add\n      swap2\n      jump(tag_73)\n    tag_74:\n      dup3\n      add\n      swap2\n      swap1\n      0x00\n      mstore\n      keccak256(0x00, 0x20)\n      swap1\n    tag_75:\n      dup2\n      sload\n      dup2\n      mstore\n      swap1\n      0x01\n      add\n      swap1\n      0x20\n      add\n      dup1\n      dup4\n      gt\n      tag_75\n      jumpi\n      dup3\n      swap1\n      sub\n      0x1f\n      and\n      dup3\n      add\n      swap2\n    tag_73:\n      pop\n      pop\n      pop\n      pop\n      pop\n      dup2\n      mstore\n      0x20\n      add\n      0x03\n      dup3\n      add\n      sload\n      dup2\n      mstore\n      0x20\n      add\n      0x04\n      dup3\n      add\n      sload\n      dup2\n      mstore\n      pop\n      pop\n      dup2\n      mstore\n      0x20\n      add\n      swap1\n      0x01\n      add\n      swap1\n      jump(tag_68)\n    tag_69:\n      pop\n      pop\n      pop\n      pop\n      swap1\n      pop\n        /* \"contracts/Twitter.sol\":2140:2254  function getAllTweets(address author) public  view returns (Tweet[] memory) {... */\n      swap2\n      swap1\n      pop\n      jump\t// out\n        /* \"contracts/Twitter.sol\":963:1462  function crateTweet(string memory _tweet) public {... */\n    tag_32:\n        /* \"contracts/Twitter.sol\":1126:1142  MAX_TWEET_LENGTH */\n      0x00\n      dup1\n      sload\n      swap1\n      0x0100\n      exp\n      swap1\n      div\n      0xffff\n      and\n        /* \"contracts/Twitter.sol\":1102:1142  bytes(_tweet).length <= MAX_TWEET_LENGTH */\n      0xffff\n      and\n        /* \"contracts/Twitter.sol\":1108:1114  _tweet */\n      dup2\n        /* \"contracts/Twitter.sol\":1102:1122  bytes(_tweet).length */\n      mload\n        /* \"contracts/Twitter.sol\":1102:1142  bytes(_tweet).length <= MAX_TWEET_LENGTH */\n      gt\n      iszero\n        /* \"contracts/Twitter.sol\":1094:1193  require(bytes(_tweet).length <= MAX_TWEET_LENGTH, \"Exceeds the character limit for a single tweet\") */\n      tag_77\n      jumpi\n      mload(0x40)\n      0x08c379a000000000000000000000000000000000000000000000000000000000\n      dup2\n      mstore\n      0x04\n      add\n      tag_78\n      swap1\n      tag_79\n      jump\t// in\n    tag_78:\n      mload(0x40)\n      dup1\n      swap2\n      sub\n      swap1\n      revert\n    tag_77:\n        /* \"contracts/Twitter.sol\":1204:1225  Tweet memory newTweet */\n      0x00\n        /* \"contracts/Twitter.sol\":1228:1411  Tweet({... */\n      mload(0x40)\n      dup1\n      0xa0\n      add\n      0x40\n      mstore\n      dup1\n        /* \"contracts/Twitter.sol\":1252:1258  tweets */\n      0x01\n        /* \"contracts/Twitter.sol\":1252:1270  tweets[msg.sender] */\n      0x00\n        /* \"contracts/Twitter.sol\":1259:1269  msg.sender */\n      caller\n        /* \"contracts/Twitter.sol\":1252:1270  tweets[msg.sender] */\n      0xffffffffffffffffffffffffffffffffffffffff\n      and\n      0xffffffffffffffffffffffffffffffffffffffff\n      and\n      dup2\n      mstore\n      0x20\n      add\n      swap1\n      dup2\n      mstore\n      0x20\n      add\n      0x00\n      keccak256\n        /* \"contracts/Twitter.sol\":1252:1277  tweets[msg.sender].length */\n      dup1\n      sload\n      swap1\n      pop\n        /* \"contracts/Twitter.sol\":1228:1411  Tweet({... */\n      dup2\n      mstore\n      0x20\n      add\n        /* \"contracts/Twitter.sol\":1299:1309  msg.sender */\n      caller\n        /* \"contracts/Twitter.sol\":1228:1411  Tweet({... */\n      0xffffffffffffffffffffffffffffffffffffffff\n      and\n      dup2\n      mstore\n      0x20\n      add\n        /* \"contracts/Twitter.sol\":1332:1338  _tweet */\n      dup4\n        /* \"contracts/Twitter.sol\":1228:1411  Tweet({... */\n      dup2\n      mstore\n      0x20\n      add\n        /* \"contracts/Twitter.sol\":1363:1378  block.timestamp */\n      timestamp\n        /* \"contracts/Twitter.sol\":1228:1411  Tweet({... */\n      dup2\n      mstore\n      0x20\n      add\n        /* \"contracts/Twitter.sol\":1399:1400  0 */\n      0x00\n        /* \"contracts/Twitter.sol\":1228:1411  Tweet({... */\n      dup2\n      mstore\n      pop\n        /* \"contracts/Twitter.sol\":1204:1411  Tweet memory newTweet = Tweet({... */\n      swap1\n      pop\n        /* \"contracts/Twitter.sol\":1422:1428  tweets */\n      0x01\n        /* \"contracts/Twitter.sol\":1422:1440  tweets[msg.sender] */\n      0x00\n        /* \"contracts/Twitter.sol\":1429:1439  msg.sender */\n      caller\n        /* \"contracts/Twitter.sol\":1422:1440  tweets[msg.sender] */\n      0xffffffffffffffffffffffffffffffffffffffff\n      and\n      0xffffffffffffffffffffffffffffffffffffffff\n      and\n      dup2\n      mstore\n      0x20\n      add\n      swap1\n      dup2\n      mstore\n      0x20\n      add\n      0x00\n      keccak256\n        /* \"contracts/Twitter.sol\":1446:1454  newTweet */\n      dup2\n        /* \"contracts/Twitter.sol\":1422:1455  tweets[msg.sender].push(newTweet) */\n      swap1\n      dup1\n      0x01\n      dup2\n      sload\n      add\n      dup1\n      dup3\n      sstore\n      dup1\n      swap2\n      pop\n      pop\n      0x01\n      swap1\n      sub\n      swap1\n      0x00\n      mstore\n      keccak256(0x00, 0x20)\n      swap1\n      0x05\n      mul\n      add\n      0x00\n      swap1\n      swap2\n      swap1\n      swap2\n      swap1\n      swap2\n      pop\n      0x00\n      dup3\n      add\n      mload\n      dup2\n      0x00\n      add\n      sstore\n      0x20\n      dup3\n      add\n      mload\n      dup2\n      0x01\n      add\n      exp(0x0100, 0x00)\n      dup2\n      sload\n      dup2\n      0xffffffffffffffffffffffffffffffffffffffff\n      mul\n      not\n      and\n      swap1\n      dup4\n      0xffffffffffffffffffffffffffffffffffffffff\n      and\n      mul\n      or\n      swap1\n      sstore\n      pop\n      0x40\n      dup3\n      add\n      mload\n      dup2\n      0x02\n      add\n      swap1\n      dup2\n      tag_81\n      swap2\n      swap1\n      tag_82\n      jump\t// in\n    tag_81:\n      pop\n      0x60\n      dup3\n      add\n      mload\n      dup2\n      0x03\n      add\n      sstore\n      0x80\n      dup3\n      add\n      mload\n      dup2\n      0x04\n      add\n      sstore\n      pop\n      pop\n        /* \"contracts/Twitter.sol\":1012:1462  {... */\n      pop\n        /* \"contracts/Twitter.sol\":963:1462  function crateTweet(string memory _tweet) public {... */\n      pop\n      jump\t// out\n        /* \"contracts/Twitter.sol\":1644:1885  function unlikeTweet(address author, uint256 id) external {... */\n    tag_35:\n        /* \"contracts/Twitter.sol\":1745:1747  id */\n      dup1\n        /* \"contracts/Twitter.sol\":1720:1726  tweets */\n      0x01\n        /* \"contracts/Twitter.sol\":1720:1734  tweets[author] */\n      0x00\n        /* \"contracts/Twitter.sol\":1727:1733  author */\n      dup5\n        /* \"contracts/Twitter.sol\":1720:1734  tweets[author] */\n      0xffffffffffffffffffffffffffffffffffffffff\n      and\n      0xffffffffffffffffffffffffffffffffffffffff\n      and\n      dup2\n      mstore\n      0x20\n      add\n      swap1\n      dup2\n      mstore\n      0x20\n      add\n      0x00\n      keccak256\n        /* \"contracts/Twitter.sol\":1735:1737  id */\n      dup3\n        /* \"contracts/Twitter.sol\":1720:1738  tweets[author][id] */\n      dup2\n      sload\n      dup2\n      lt\n      tag_84\n      jumpi\n      tag_85\n      tag_60\n      jump\t// in\n    tag_85:\n    tag_84:\n      swap1\n      0x00\n      mstore\n      keccak256(0x00, 0x20)\n      swap1\n      0x05\n      mul\n      add\n        /* \"contracts/Twitter.sol\":1720:1741  tweets[author][id].id */\n      0x00\n      add\n      sload\n        /* \"contracts/Twitter.sol\":1720:1747  tweets[author][id].id == id */\n      eq\n        /* \"contracts/Twitter.sol\":1712:1773  require(tweets[author][id].id == id, \"Tweet does not exists\") */\n      tag_87\n      jumpi\n      mload(0x40)\n      0x08c379a000000000000000000000000000000000000000000000000000000000\n      dup2\n      mstore\n      0x04\n      add\n      tag_88\n      swap1\n      tag_89\n      jump\t// in\n    tag_88:\n      mload(0x40)\n      dup1\n      swap2\n      sub\n      swap1\n      revert\n    tag_87:\n        /* \"contracts/Twitter.sol\":1818:1819  0 */\n      0x00\n        /* \"contracts/Twitter.sol\":1791:1797  tweets */\n      0x01\n        /* \"contracts/Twitter.sol\":1791:1805  tweets[author] */\n      0x00\n        /* \"contracts/Twitter.sol\":1798:1804  author */\n      dup5\n        /* \"contracts/Twitter.sol\":1791:1805  tweets[author] */\n      0xffffffffffffffffffffffffffffffffffffffff\n      and\n      0xffffffffffffffffffffffffffffffffffffffff\n      and\n      dup2\n      mstore\n      0x20\n      add\n      swap1\n      dup2\n      mstore\n      0x20\n      add\n      0x00\n      keccak256\n        /* \"contracts/Twitter.sol\":1806:1808  id */\n      dup3\n        /* \"contracts/Twitter.sol\":1791:1809  tweets[author][id] */\n      dup2\n      sload\n      dup2\n      lt\n      tag_90\n      jumpi\n      tag_91\n      tag_60\n      jump\t// in\n    tag_91:\n    tag_90:\n      swap1\n      0x00\n      mstore\n      keccak256(0x00, 0x20)\n      swap1\n      0x05\n      mul\n      add\n        /* \"contracts/Twitter.sol\":1791:1815  tweets[author][id].likes */\n      0x04\n      add\n      sload\n        /* \"contracts/Twitter.sol\":1791:1819  tweets[author][id].likes > 0 */\n      gt\n        /* \"contracts/Twitter.sol\":1783:1842  require(tweets[author][id].likes > 0, \"Tweet has no likes\") */\n      tag_93\n      jumpi\n      mload(0x40)\n      0x08c379a000000000000000000000000000000000000000000000000000000000\n      dup2\n      mstore\n      0x04\n      add\n      tag_94\n      swap1\n      tag_95\n      jump\t// in\n    tag_94:\n      mload(0x40)\n      dup1\n      swap2\n      sub\n      swap1\n      revert\n    tag_93:\n        /* \"contracts/Twitter.sol\":1852:1858  tweets */\n      0x01\n        /* \"contracts/Twitter.sol\":1852:1866  tweets[author] */\n      0x00\n        /* \"contracts/Twitter.sol\":1859:1865  author */\n      dup4\n        /* \"contracts/Twitter.sol\":1852:1866  tweets[author] */\n      0xffffffffffffffffffffffffffffffffffffffff\n      and\n      0xffffffffffffffffffffffffffffffffffffffff\n      and\n      dup2\n      mstore\n      0x20\n      add\n      swap1\n      dup2\n      mstore\n      0x20\n      add\n      0x00\n      keccak256\n        /* \"contracts/Twitter.sol\":1867:1869  id */\n      dup2\n        /* \"contracts/Twitter.sol\":1852:1870  tweets[author][id] */\n      dup2\n      sload\n      dup2\n      lt\n      tag_96\n      jumpi\n      tag_97\n      tag_60\n      jump\t// in\n    tag_97:\n    tag_96:\n      swap1\n      0x00\n      mstore\n      keccak256(0x00, 0x20)\n      swap1\n      0x05\n      mul\n      add\n        /* \"contracts/Twitter.sol\":1852:1876  tweets[author][id].likes */\n      0x04\n      add\n      0x00\n        /* \"contracts/Twitter.sol\":1852:1878  tweets[author][id].likes-- */\n      dup2\n      sload\n      dup1\n      swap3\n      swap2\n      swap1\n      tag_99\n      swap1\n      tag_100\n      jump\t// in\n    tag_99:\n      swap2\n      swap1\n      pop\n      sstore\n      pop\n        /* \"contracts/Twitter.sol\":1644:1885  function unlikeTweet(address author, uint256 id) external {... */\n      pop\n      pop\n      jump\t// out\n        /* \"contracts/Twitter.sol\":1891:2008  function changeTweetLength(uint16 newTweetLength) public onlyOwner {... */\n    tag_39:\n        /* \"contracts/Twitter.sol\":890:895  owner */\n      0x00\n      0x02\n      swap1\n      sload\n      swap1\n      0x0100\n      exp\n      swap1\n      div\n      0xffffffffffffffffffffffffffffffffffffffff\n      and\n        /* \"contracts/Twitter.sol\":876:895  msg.sender == owner */\n      0xffffffffffffffffffffffffffffffffffffffff\n      and\n        /* \"contracts/Twitter.sol\":876:886  msg.sender */\n      caller\n        /* \"contracts/Twitter.sol\":876:895  msg.sender == owner */\n      0xffffffffffffffffffffffffffffffffffffffff\n      and\n      eq\n        /* \"contracts/Twitter.sol\":868:939  require(msg.sender == owner, \"You do not have access to the execution\") */\n      tag_102\n      jumpi\n      mload(0x40)\n      0x08c379a000000000000000000000000000000000000000000000000000000000\n      dup2\n      mstore\n      0x04\n      add\n      tag_103\n      swap1\n      tag_104\n      jump\t// in\n    tag_103:\n      mload(0x40)\n      dup1\n      swap2\n      sub\n      swap1\n      revert\n    tag_102:\n        /* \"contracts/Twitter.sol\":1987:2001  newTweetLength */\n      dup1\n        /* \"contracts/Twitter.sol\":1968:1984  MAX_TWEET_LENGTH */\n      0x00\n      dup1\n        /* \"contracts/Twitter.sol\":1968:2001  MAX_TWEET_LENGTH = newTweetLength */\n      0x0100\n      exp\n      dup2\n      sload\n      dup2\n      0xffff\n      mul\n      not\n      and\n      swap1\n      dup4\n      0xffff\n      and\n      mul\n      or\n      swap1\n      sstore\n      pop\n        /* \"contracts/Twitter.sol\":1891:2008  function changeTweetLength(uint16 newTweetLength) public onlyOwner {... */\n      pop\n      jump\t// out\n        /* \"contracts/Twitter.sol\":1468:1638  function likeTweet(address author, uint256 id) external {... */\n    tag_42:\n        /* \"contracts/Twitter.sol\":1567:1569  id */\n      dup1\n        /* \"contracts/Twitter.sol\":1542:1548  tweets */\n      0x01\n        /* \"contracts/Twitter.sol\":1542:1556  tweets[author] */\n      0x00\n        /* \"contracts/Twitter.sol\":1549:1555  author */\n      dup5\n        /* \"contracts/Twitter.sol\":1542:1556  tweets[author] */\n      0xffffffffffffffffffffffffffffffffffffffff\n      and\n      0xffffffffffffffffffffffffffffffffffffffff\n      and\n      dup2\n      mstore\n      0x20\n      add\n      swap1\n      dup2\n      mstore\n      0x20\n      add\n      0x00\n      keccak256\n        /* \"contracts/Twitter.sol\":1557:1559  id */\n      dup3\n        /* \"contracts/Twitter.sol\":1542:1560  tweets[author][id] */\n      dup2\n      sload\n      dup2\n      lt\n      tag_107\n      jumpi\n      tag_108\n      tag_60\n      jump\t// in\n    tag_108:\n    tag_107:\n      swap1\n      0x00\n      mstore\n      keccak256(0x00, 0x20)\n      swap1\n      0x05\n      mul\n      add\n        /* \"contracts/Twitter.sol\":1542:1563  tweets[author][id].id */\n      0x00\n      add\n      sload\n        /* \"contracts/Twitter.sol\":1542:1569  tweets[author][id].id == id */\n      eq\n        /* \"contracts/Twitter.sol\":1534:1595  require(tweets[author][id].id == id, \"Tweet does not exists\") */\n      tag_110\n      jumpi\n      mload(0x40)\n      0x08c379a000000000000000000000000000000000000000000000000000000000\n      dup2\n      mstore\n      0x04\n      add\n      tag_111\n      swap1\n      tag_89\n      jump\t// in\n    tag_111:\n      mload(0x40)\n      dup1\n      swap2\n      sub\n      swap1\n      revert\n    tag_110:\n        /* \"contracts/Twitter.sol\":1605:1611  tweets */\n      0x01\n        /* \"contracts/Twitter.sol\":1605:1619  tweets[author] */\n      0x00\n        /* \"contracts/Twitter.sol\":1612:1618  author */\n      dup4\n        /* \"contracts/Twitter.sol\":1605:1619  tweets[author] */\n      0xffffffffffffffffffffffffffffffffffffffff\n      and\n      0xffffffffffffffffffffffffffffffffffffffff\n      and\n      dup2\n      mstore\n      0x20\n      add\n      swap1\n      dup2\n      mstore\n      0x20\n      add\n      0x00\n      keccak256\n        /* \"contracts/Twitter.sol\":1620:1622  id */\n      dup2\n        /* \"contracts/Twitter.sol\":1605:1623  tweets[author][id] */\n      dup2\n      sload\n      dup2\n      lt\n      tag_112\n      jumpi\n      tag_113\n      tag_60\n      jump\t// in\n    tag_113:\n    tag_112:\n      swap1\n      0x00\n      mstore\n      keccak256(0x00, 0x20)\n      swap1\n      0x05\n      mul\n      add\n        /* \"contracts/Twitter.sol\":1605:1629  tweets[author][id].likes */\n      0x04\n      add\n      0x00\n        /* \"contracts/Twitter.sol\":1605:1631  tweets[author][id].likes++ */\n      dup2\n      sload\n      dup1\n      swap3\n      swap2\n      swap1\n      tag_115\n      swap1\n      tag_116\n      jump\t// in\n    tag_115:\n      swap2\n      swap1\n      pop\n      sstore\n      pop\n        /* \"contracts/Twitter.sol\":1468:1638  function likeTweet(address author, uint256 id) external {... */\n      pop\n      pop\n      jump\t// out\n        /* \"contracts/Twitter.sol\":707:727  address public owner */\n    tag_44:\n      0x00\n      0x02\n      swap1\n      sload\n      swap1\n      0x0100\n      exp\n      swap1\n      div\n      0xffffffffffffffffffffffffffffffffffffffff\n      and\n      dup2\n      jump\t// out\n    tag_56:\n      mload(0x40)\n      dup1\n      0xa0\n      add\n      0x40\n      mstore\n      dup1\n      0x00\n      dup2\n      mstore\n      0x20\n      add\n      and(0xffffffffffffffffffffffffffffffffffffffff, 0x00)\n      dup2\n      mstore\n      0x20\n      add\n      0x60\n      dup2\n      mstore\n      0x20\n      add\n      0x00\n      dup2\n      mstore\n      0x20\n      add\n      0x00\n      dup2\n      mstore\n      pop\n      swap1\n      jump\t// out\n        /* \"#utility.yul\":7:82   */\n    tag_117:\n        /* \"#utility.yul\":40:46   */\n      0x00\n        /* \"#utility.yul\":73:75   */\n      0x40\n        /* \"#utility.yul\":67:76   */\n      mload\n        /* \"#utility.yul\":57:76   */\n      swap1\n      pop\n        /* \"#utility.yul\":7:82   */\n      swap1\n      jump\t// out\n        /* \"#utility.yul\":88:205   */\n    tag_118:\n        /* \"#utility.yul\":197:198   */\n      0x00\n        /* \"#utility.yul\":194:195   */\n      dup1\n        /* \"#utility.yul\":187:199   */\n      revert\n        /* \"#utility.yul\":211:328   */\n    tag_119:\n        /* \"#utility.yul\":320:321   */\n      0x00\n        /* \"#utility.yul\":317:318   */\n      dup1\n        /* \"#utility.yul\":310:322   */\n      revert\n        /* \"#utility.yul\":334:460   */\n    tag_120:\n        /* \"#utility.yul\":371:378   */\n      0x00\n        /* \"#utility.yul\":411:453   */\n      0xffffffffffffffffffffffffffffffffffffffff\n        /* \"#utility.yul\":404:409   */\n      dup3\n        /* \"#utility.yul\":400:454   */\n      and\n        /* \"#utility.yul\":389:454   */\n      swap1\n      pop\n        /* \"#utility.yul\":334:460   */\n      swap2\n      swap1\n      pop\n      jump\t// out\n        /* \"#utility.yul\":466:562   */\n    tag_121:\n        /* \"#utility.yul\":503:510   */\n      0x00\n        /* \"#utility.yul\":532:556   */\n      tag_189\n        /* \"#utility.yul\":550:555   */\n      dup3\n        /* \"#utility.yul\":532:556   */\n      tag_120\n      jump\t// in\n    tag_189:\n        /* \"#utility.yul\":521:556   */\n      swap1\n      pop\n        /* \"#utility.yul\":466:562   */\n      swap2\n      swap1\n      pop\n      jump\t// out\n        /* \"#utility.yul\":568:690   */\n    tag_122:\n        /* \"#utility.yul\":641:665   */\n      tag_191\n        /* \"#utility.yul\":659:664   */\n      dup2\n        /* \"#utility.yul\":641:665   */\n      tag_121\n      jump\t// in\n    tag_191:\n        /* \"#utility.yul\":634:639   */\n      dup2\n        /* \"#utility.yul\":631:666   */\n      eq\n        /* \"#utility.yul\":621:684   */\n      tag_192\n      jumpi\n        /* \"#utility.yul\":680:681   */\n      0x00\n        /* \"#utility.yul\":677:678   */\n      dup1\n        /* \"#utility.yul\":670:682   */\n      revert\n        /* \"#utility.yul\":621:684   */\n    tag_192:\n        /* \"#utility.yul\":568:690   */\n      pop\n      jump\t// out\n        /* \"#utility.yul\":696:835   */\n    tag_123:\n        /* \"#utility.yul\":742:747   */\n      0x00\n        /* \"#utility.yul\":780:786   */\n      dup2\n        /* \"#utility.yul\":767:787   */\n      calldataload\n        /* \"#utility.yul\":758:787   */\n      swap1\n      pop\n        /* \"#utility.yul\":796:829   */\n      tag_194\n        /* \"#utility.yul\":823:828   */\n      dup2\n        /* \"#utility.yul\":796:829   */\n      tag_122\n      jump\t// in\n    tag_194:\n        /* \"#utility.yul\":696:835   */\n      swap3\n      swap2\n      pop\n      pop\n      jump\t// out\n        /* \"#utility.yul\":841:918   */\n    tag_124:\n        /* \"#utility.yul\":878:885   */\n      0x00\n        /* \"#utility.yul\":907:912   */\n      dup2\n        /* \"#utility.yul\":896:912   */\n      swap1\n      pop\n        /* \"#utility.yul\":841:918   */\n      swap2\n      swap1\n      pop\n      jump\t// out\n        /* \"#utility.yul\":924:1046   */\n    tag_125:\n        /* \"#utility.yul\":997:1021   */\n      tag_197\n        /* \"#utility.yul\":1015:1020   */\n      dup2\n        /* \"#utility.yul\":997:1021   */\n      tag_124\n      jump\t// in\n    tag_197:\n        /* \"#utility.yul\":990:995   */\n      dup2\n        /* \"#utility.yul\":987:1022   */\n      eq\n        /* \"#utility.yul\":977:1040   */\n      tag_198\n      jumpi\n        /* \"#utility.yul\":1036:1037   */\n      0x00\n        /* \"#utility.yul\":1033:1034   */\n      dup1\n        /* \"#utility.yul\":1026:1038   */\n      revert\n        /* \"#utility.yul\":977:1040   */\n    tag_198:\n        /* \"#utility.yul\":924:1046   */\n      pop\n      jump\t// out\n        /* \"#utility.yul\":1052:1191   */\n    tag_126:\n        /* \"#utility.yul\":1098:1103   */\n      0x00\n        /* \"#utility.yul\":1136:1142   */\n      dup2\n        /* \"#utility.yul\":1123:1143   */\n      calldataload\n        /* \"#utility.yul\":1114:1143   */\n      swap1\n      pop\n        /* \"#utility.yul\":1152:1185   */\n      tag_200\n        /* \"#utility.yul\":1179:1184   */\n      dup2\n        /* \"#utility.yul\":1152:1185   */\n      tag_125\n      jump\t// in\n    tag_200:\n        /* \"#utility.yul\":1052:1191   */\n      swap3\n      swap2\n      pop\n      pop\n      jump\t// out\n        /* \"#utility.yul\":1197:1671   */\n    tag_14:\n        /* \"#utility.yul\":1265:1271   */\n      0x00\n        /* \"#utility.yul\":1273:1279   */\n      dup1\n        /* \"#utility.yul\":1322:1324   */\n      0x40\n        /* \"#utility.yul\":1310:1319   */\n      dup4\n        /* \"#utility.yul\":1301:1308   */\n      dup6\n        /* \"#utility.yul\":1297:1320   */\n      sub\n        /* \"#utility.yul\":1293:1325   */\n      slt\n        /* \"#utility.yul\":1290:1409   */\n      iszero\n      tag_202\n      jumpi\n        /* \"#utility.yul\":1328:1407   */\n      tag_203\n      tag_118\n      jump\t// in\n    tag_203:\n        /* \"#utility.yul\":1290:1409   */\n    tag_202:\n        /* \"#utility.yul\":1448:1449   */\n      0x00\n        /* \"#utility.yul\":1473:1526   */\n      tag_204\n        /* \"#utility.yul\":1518:1525   */\n      dup6\n        /* \"#utility.yul\":1509:1515   */\n      dup3\n        /* \"#utility.yul\":1498:1507   */\n      dup7\n        /* \"#utility.yul\":1494:1516   */\n      add\n        /* \"#utility.yul\":1473:1526   */\n      tag_123\n      jump\t// in\n    tag_204:\n        /* \"#utility.yul\":1463:1526   */\n      swap3\n      pop\n        /* \"#utility.yul\":1419:1536   */\n      pop\n        /* \"#utility.yul\":1575:1577   */\n      0x20\n        /* \"#utility.yul\":1601:1654   */\n      tag_205\n        /* \"#utility.yul\":1646:1653   */\n      dup6\n        /* \"#utility.yul\":1637:1643   */\n      dup3\n        /* \"#utility.yul\":1626:1635   */\n      dup7\n        /* \"#utility.yul\":1622:1644   */\n      add\n        /* \"#utility.yul\":1601:1654   */\n      tag_126\n      jump\t// in\n    tag_205:\n        /* \"#utility.yul\":1591:1654   */\n      swap2\n      pop\n        /* \"#utility.yul\":1546:1664   */\n      pop\n        /* \"#utility.yul\":1197:1671   */\n      swap3\n      pop\n      swap3\n      swap1\n      pop\n      jump\t// out\n        /* \"#utility.yul\":1677:1795   */\n    tag_127:\n        /* \"#utility.yul\":1764:1788   */\n      tag_207\n        /* \"#utility.yul\":1782:1787   */\n      dup2\n        /* \"#utility.yul\":1764:1788   */\n      tag_124\n      jump\t// in\n    tag_207:\n        /* \"#utility.yul\":1759:1762   */\n      dup3\n        /* \"#utility.yul\":1752:1789   */\n      mstore\n        /* \"#utility.yul\":1677:1795   */\n      pop\n      pop\n      jump\t// out\n        /* \"#utility.yul\":1801:1919   */\n    tag_128:\n        /* \"#utility.yul\":1888:1912   */\n      tag_209\n        /* \"#utility.yul\":1906:1911   */\n      dup2\n        /* \"#utility.yul\":1888:1912   */\n      tag_121\n      jump\t// in\n    tag_209:\n        /* \"#utility.yul\":1883:1886   */\n      dup3\n        /* \"#utility.yul\":1876:1913   */\n      mstore\n        /* \"#utility.yul\":1801:1919   */\n      pop\n      pop\n      jump\t// out\n        /* \"#utility.yul\":1925:2024   */\n    tag_129:\n        /* \"#utility.yul\":1977:1983   */\n      0x00\n        /* \"#utility.yul\":2011:2016   */\n      dup2\n        /* \"#utility.yul\":2005:2017   */\n      mload\n        /* \"#utility.yul\":1995:2017   */\n      swap1\n      pop\n        /* \"#utility.yul\":1925:2024   */\n      swap2\n      swap1\n      pop\n      jump\t// out\n        /* \"#utility.yul\":2030:2199   */\n    tag_130:\n        /* \"#utility.yul\":2114:2125   */\n      0x00\n        /* \"#utility.yul\":2148:2154   */\n      dup3\n        /* \"#utility.yul\":2143:2146   */\n      dup3\n        /* \"#utility.yul\":2136:2155   */\n      mstore\n        /* \"#utility.yul\":2188:2192   */\n      0x20\n        /* \"#utility.yul\":2183:2186   */\n      dup3\n        /* \"#utility.yul\":2179:2193   */\n      add\n        /* \"#utility.yul\":2164:2193   */\n      swap1\n      pop\n        /* \"#utility.yul\":2030:2199   */\n      swap3\n      swap2\n      pop\n      pop\n      jump\t// out\n        /* \"#utility.yul\":2205:2451   */\n    tag_131:\n        /* \"#utility.yul\":2286:2287   */\n      0x00\n        /* \"#utility.yul\":2296:2409   */\n    tag_213:\n        /* \"#utility.yul\":2310:2316   */\n      dup4\n        /* \"#utility.yul\":2307:2308   */\n      dup2\n        /* \"#utility.yul\":2304:2317   */\n      lt\n        /* \"#utility.yul\":2296:2409   */\n      iszero\n      tag_215\n      jumpi\n        /* \"#utility.yul\":2395:2396   */\n      dup1\n        /* \"#utility.yul\":2390:2393   */\n      dup3\n        /* \"#utility.yul\":2386:2397   */\n      add\n        /* \"#utility.yul\":2380:2398   */\n      mload\n        /* \"#utility.yul\":2376:2377   */\n      dup2\n        /* \"#utility.yul\":2371:2374   */\n      dup5\n        /* \"#utility.yul\":2367:2378   */\n      add\n        /* \"#utility.yul\":2360:2399   */\n      mstore\n        /* \"#utility.yul\":2332:2334   */\n      0x20\n        /* \"#utility.yul\":2329:2330   */\n      dup2\n        /* \"#utility.yul\":2325:2335   */\n      add\n        /* \"#utility.yul\":2320:2335   */\n      swap1\n      pop\n        /* \"#utility.yul\":2296:2409   */\n      jump(tag_213)\n    tag_215:\n        /* \"#utility.yul\":2443:2444   */\n      0x00\n        /* \"#utility.yul\":2434:2440   */\n      dup5\n        /* \"#utility.yul\":2429:2432   */\n      dup5\n        /* \"#utility.yul\":2425:2441   */\n      add\n        /* \"#utility.yul\":2418:2445   */\n      mstore\n        /* \"#utility.yul\":2267:2451   */\n      pop\n        /* \"#utility.yul\":2205:2451   */\n      pop\n      pop\n      pop\n      jump\t// out\n        /* \"#utility.yul\":2457:2559   */\n    tag_132:\n        /* \"#utility.yul\":2498:2504   */\n      0x00\n        /* \"#utility.yul\":2549:2551   */\n      0x1f\n        /* \"#utility.yul\":2545:2552   */\n      not\n        /* \"#utility.yul\":2540:2542   */\n      0x1f\n        /* \"#utility.yul\":2533:2538   */\n      dup4\n        /* \"#utility.yul\":2529:2543   */\n      add\n        /* \"#utility.yul\":2525:2553   */\n      and\n        /* \"#utility.yul\":2515:2553   */\n      swap1\n      pop\n        /* \"#utility.yul\":2457:2559   */\n      swap2\n      swap1\n      pop\n      jump\t// out\n        /* \"#utility.yul\":2565:2942   */\n    tag_133:\n        /* \"#utility.yul\":2653:2656   */\n      0x00\n        /* \"#utility.yul\":2681:2720   */\n      tag_218\n        /* \"#utility.yul\":2714:2719   */\n      dup3\n        /* \"#utility.yul\":2681:2720   */\n      tag_129\n      jump\t// in\n    tag_218:\n        /* \"#utility.yul\":2736:2807   */\n      tag_219\n        /* \"#utility.yul\":2800:2806   */\n      dup2\n        /* \"#utility.yul\":2795:2798   */\n      dup6\n        /* \"#utility.yul\":2736:2807   */\n      tag_130\n      jump\t// in\n    tag_219:\n        /* \"#utility.yul\":2729:2807   */\n      swap4\n      pop\n        /* \"#utility.yul\":2816:2881   */\n      tag_220\n        /* \"#utility.yul\":2874:2880   */\n      dup2\n        /* \"#utility.yul\":2869:2872   */\n      dup6\n        /* \"#utility.yul\":2862:2866   */\n      0x20\n        /* \"#utility.yul\":2855:2860   */\n      dup7\n        /* \"#utility.yul\":2851:2867   */\n      add\n        /* \"#utility.yul\":2816:2881   */\n      tag_131\n      jump\t// in\n    tag_220:\n        /* \"#utility.yul\":2906:2935   */\n      tag_221\n        /* \"#utility.yul\":2928:2934   */\n      dup2\n        /* \"#utility.yul\":2906:2935   */\n      tag_132\n      jump\t// in\n    tag_221:\n        /* \"#utility.yul\":2901:2904   */\n      dup5\n        /* \"#utility.yul\":2897:2936   */\n      add\n        /* \"#utility.yul\":2890:2936   */\n      swap2\n      pop\n        /* \"#utility.yul\":2657:2942   */\n      pop\n        /* \"#utility.yul\":2565:2942   */\n      swap3\n      swap2\n      pop\n      pop\n      jump\t// out\n        /* \"#utility.yul\":2948:3703   */\n    tag_17:\n        /* \"#utility.yul\":3173:3177   */\n      0x00\n        /* \"#utility.yul\":3211:3214   */\n      0xa0\n        /* \"#utility.yul\":3200:3209   */\n      dup3\n        /* \"#utility.yul\":3196:3215   */\n      add\n        /* \"#utility.yul\":3188:3215   */\n      swap1\n      pop\n        /* \"#utility.yul\":3225:3296   */\n      tag_223\n        /* \"#utility.yul\":3293:3294   */\n      0x00\n        /* \"#utility.yul\":3282:3291   */\n      dup4\n        /* \"#utility.yul\":3278:3295   */\n      add\n        /* \"#utility.yul\":3269:3275   */\n      dup9\n        /* \"#utility.yul\":3225:3296   */\n      tag_127\n      jump\t// in\n    tag_223:\n        /* \"#utility.yul\":3306:3378   */\n      tag_224\n        /* \"#utility.yul\":3374:3376   */\n      0x20\n        /* \"#utility.yul\":3363:3372   */\n      dup4\n        /* \"#utility.yul\":3359:3377   */\n      add\n        /* \"#utility.yul\":3350:3356   */\n      dup8\n        /* \"#utility.yul\":3306:3378   */\n      tag_128\n      jump\t// in\n    tag_224:\n        /* \"#utility.yul\":3425:3434   */\n      dup2\n        /* \"#utility.yul\":3419:3423   */\n      dup2\n        /* \"#utility.yul\":3415:3435   */\n      sub\n        /* \"#utility.yul\":3410:3412   */\n      0x40\n        /* \"#utility.yul\":3399:3408   */\n      dup4\n        /* \"#utility.yul\":3395:3413   */\n      add\n        /* \"#utility.yul\":3388:3436   */\n      mstore\n        /* \"#utility.yul\":3453:3531   */\n      tag_225\n        /* \"#utility.yul\":3526:3530   */\n      dup2\n        /* \"#utility.yul\":3517:3523   */\n      dup7\n        /* \"#utility.yul\":3453:3531   */\n      tag_133\n      jump\t// in\n    tag_225:\n        /* \"#utility.yul\":3445:3531   */\n      swap1\n      pop\n        /* \"#utility.yul\":3541:3613   */\n      tag_226\n        /* \"#utility.yul\":3609:3611   */\n      0x60\n        /* \"#utility.yul\":3598:3607   */\n      dup4\n        /* \"#utility.yul\":3594:3612   */\n      add\n        /* \"#utility.yul\":3585:3591   */\n      dup6\n        /* \"#utility.yul\":3541:3613   */\n      tag_127\n      jump\t// in\n    tag_226:\n        /* \"#utility.yul\":3623:3696   */\n      tag_227\n        /* \"#utility.yul\":3691:3694   */\n      0x80\n        /* \"#utility.yul\":3680:3689   */\n      dup4\n        /* \"#utility.yul\":3676:3695   */\n      add\n        /* \"#utility.yul\":3667:3673   */\n      dup5\n        /* \"#utility.yul\":3623:3696   */\n      tag_127\n      jump\t// in\n    tag_227:\n        /* \"#utility.yul\":2948:3703   */\n      swap7\n      swap6\n      pop\n      pop\n      pop\n      pop\n      pop\n      pop\n      jump\t// out\n        /* \"#utility.yul\":3709:3817   */\n    tag_134:\n        /* \"#utility.yul\":3786:3810   */\n      tag_229\n        /* \"#utility.yul\":3804:3809   */\n      dup2\n        /* \"#utility.yul\":3786:3810   */\n      tag_124\n      jump\t// in\n    tag_229:\n        /* \"#utility.yul\":3781:3784   */\n      dup3\n        /* \"#utility.yul\":3774:3811   */\n      mstore\n        /* \"#utility.yul\":3709:3817   */\n      pop\n      pop\n      jump\t// out\n        /* \"#utility.yul\":3823:3931   */\n    tag_135:\n        /* \"#utility.yul\":3900:3924   */\n      tag_231\n        /* \"#utility.yul\":3918:3923   */\n      dup2\n        /* \"#utility.yul\":3900:3924   */\n      tag_121\n      jump\t// in\n    tag_231:\n        /* \"#utility.yul\":3895:3898   */\n      dup3\n        /* \"#utility.yul\":3888:3925   */\n      mstore\n        /* \"#utility.yul\":3823:3931   */\n      pop\n      pop\n      jump\t// out\n        /* \"#utility.yul\":3937:4096   */\n    tag_136:\n        /* \"#utility.yul\":4011:4022   */\n      0x00\n        /* \"#utility.yul\":4045:4051   */\n      dup3\n        /* \"#utility.yul\":4040:4043   */\n      dup3\n        /* \"#utility.yul\":4033:4052   */\n      mstore\n        /* \"#utility.yul\":4085:4089   */\n      0x20\n        /* \"#utility.yul\":4080:4083   */\n      dup3\n        /* \"#utility.yul\":4076:4090   */\n      add\n        /* \"#utility.yul\":4061:4090   */\n      swap1\n      pop\n        /* \"#utility.yul\":3937:4096   */\n      swap3\n      swap2\n      pop\n      pop\n      jump\t// out\n        /* \"#utility.yul\":4102:4459   */\n    tag_137:\n        /* \"#utility.yul\":4180:4183   */\n      0x00\n        /* \"#utility.yul\":4208:4247   */\n      tag_234\n        /* \"#utility.yul\":4241:4246   */\n      dup3\n        /* \"#utility.yul\":4208:4247   */\n      tag_129\n      jump\t// in\n    tag_234:\n        /* \"#utility.yul\":4263:4324   */\n      tag_235\n        /* \"#utility.yul\":4317:4323   */\n      dup2\n        /* \"#utility.yul\":4312:4315   */\n      dup6\n        /* \"#utility.yul\":4263:4324   */\n      tag_136\n      jump\t// in\n    tag_235:\n        /* \"#utility.yul\":4256:4324   */\n      swap4\n      pop\n        /* \"#utility.yul\":4333:4398   */\n      tag_236\n        /* \"#utility.yul\":4391:4397   */\n      dup2\n        /* \"#utility.yul\":4386:4389   */\n      dup6\n        /* \"#utility.yul\":4379:4383   */\n      0x20\n        /* \"#utility.yul\":4372:4377   */\n      dup7\n        /* \"#utility.yul\":4368:4384   */\n      add\n        /* \"#utility.yul\":4333:4398   */\n      tag_131\n      jump\t// in\n    tag_236:\n        /* \"#utility.yul\":4423:4452   */\n      tag_237\n        /* \"#utility.yul\":4445:4451   */\n      dup2\n        /* \"#utility.yul\":4423:4452   */\n      tag_132\n      jump\t// in\n    tag_237:\n        /* \"#utility.yul\":4418:4421   */\n      dup5\n        /* \"#utility.yul\":4414:4453   */\n      add\n        /* \"#utility.yul\":4407:4453   */\n      swap2\n      pop\n        /* \"#utility.yul\":4184:4459   */\n      pop\n        /* \"#utility.yul\":4102:4459   */\n      swap3\n      swap2\n      pop\n      pop\n      jump\t// out\n        /* \"#utility.yul\":4517:5646   */\n    tag_138:\n        /* \"#utility.yul\":4628:4631   */\n      0x00\n        /* \"#utility.yul\":4664:4668   */\n      0xa0\n        /* \"#utility.yul\":4659:4662   */\n      dup4\n        /* \"#utility.yul\":4655:4669   */\n      add\n        /* \"#utility.yul\":4749:4753   */\n      0x00\n        /* \"#utility.yul\":4742:4747   */\n      dup4\n        /* \"#utility.yul\":4738:4754   */\n      add\n        /* \"#utility.yul\":4732:4755   */\n      mload\n        /* \"#utility.yul\":4768:4831   */\n      tag_239\n        /* \"#utility.yul\":4825:4829   */\n      0x00\n        /* \"#utility.yul\":4820:4823   */\n      dup7\n        /* \"#utility.yul\":4816:4830   */\n      add\n        /* \"#utility.yul\":4802:4814   */\n      dup3\n        /* \"#utility.yul\":4768:4831   */\n      tag_134\n      jump\t// in\n    tag_239:\n        /* \"#utility.yul\":4679:4841   */\n      pop\n        /* \"#utility.yul\":4925:4929   */\n      0x20\n        /* \"#utility.yul\":4918:4923   */\n      dup4\n        /* \"#utility.yul\":4914:4930   */\n      add\n        /* \"#utility.yul\":4908:4931   */\n      mload\n        /* \"#utility.yul\":4944:5007   */\n      tag_240\n        /* \"#utility.yul\":5001:5005   */\n      0x20\n        /* \"#utility.yul\":4996:4999   */\n      dup7\n        /* \"#utility.yul\":4992:5006   */\n      add\n        /* \"#utility.yul\":4978:4990   */\n      dup3\n        /* \"#utility.yul\":4944:5007   */\n      tag_135\n      jump\t// in\n    tag_240:\n        /* \"#utility.yul\":4851:5017   */\n      pop\n        /* \"#utility.yul\":5102:5106   */\n      0x40\n        /* \"#utility.yul\":5095:5100   */\n      dup4\n        /* \"#utility.yul\":5091:5107   */\n      add\n        /* \"#utility.yul\":5085:5108   */\n      mload\n        /* \"#utility.yul\":5155:5158   */\n      dup5\n        /* \"#utility.yul\":5149:5153   */\n      dup3\n        /* \"#utility.yul\":5145:5159   */\n      sub\n        /* \"#utility.yul\":5138:5142   */\n      0x40\n        /* \"#utility.yul\":5133:5136   */\n      dup7\n        /* \"#utility.yul\":5129:5143   */\n      add\n        /* \"#utility.yul\":5122:5160   */\n      mstore\n        /* \"#utility.yul\":5181:5254   */\n      tag_241\n        /* \"#utility.yul\":5249:5253   */\n      dup3\n        /* \"#utility.yul\":5235:5247   */\n      dup3\n        /* \"#utility.yul\":5181:5254   */\n      tag_137\n      jump\t// in\n    tag_241:\n        /* \"#utility.yul\":5173:5254   */\n      swap2\n      pop\n        /* \"#utility.yul\":5027:5265   */\n      pop\n        /* \"#utility.yul\":5352:5356   */\n      0x60\n        /* \"#utility.yul\":5345:5350   */\n      dup4\n        /* \"#utility.yul\":5341:5357   */\n      add\n        /* \"#utility.yul\":5335:5358   */\n      mload\n        /* \"#utility.yul\":5371:5434   */\n      tag_242\n        /* \"#utility.yul\":5428:5432   */\n      0x60\n        /* \"#utility.yul\":5423:5426   */\n      dup7\n        /* \"#utility.yul\":5419:5433   */\n      add\n        /* \"#utility.yul\":5405:5417   */\n      dup3\n        /* \"#utility.yul\":5371:5434   */\n      tag_134\n      jump\t// in\n    tag_242:\n        /* \"#utility.yul\":5275:5444   */\n      pop\n        /* \"#utility.yul\":5527:5531   */\n      0x80\n        /* \"#utility.yul\":5520:5525   */\n      dup4\n        /* \"#utility.yul\":5516:5532   */\n      add\n        /* \"#utility.yul\":5510:5533   */\n      mload\n        /* \"#utility.yul\":5546:5609   */\n      tag_243\n        /* \"#utility.yul\":5603:5607   */\n      0x80\n        /* \"#utility.yul\":5598:5601   */\n      dup7\n        /* \"#utility.yul\":5594:5608   */\n      add\n        /* \"#utility.yul\":5580:5592   */\n      dup3\n        /* \"#utility.yul\":5546:5609   */\n      tag_134\n      jump\t// in\n    tag_243:\n        /* \"#utility.yul\":5454:5619   */\n      pop\n        /* \"#utility.yul\":5636:5640   */\n      dup1\n        /* \"#utility.yul\":5629:5640   */\n      swap2\n      pop\n        /* \"#utility.yul\":4633:5646   */\n      pop\n        /* \"#utility.yul\":4517:5646   */\n      swap3\n      swap2\n      pop\n      pop\n      jump\t// out\n        /* \"#utility.yul\":5652:6009   */\n    tag_22:\n        /* \"#utility.yul\":5787:5791   */\n      0x00\n        /* \"#utility.yul\":5825:5827   */\n      0x20\n        /* \"#utility.yul\":5814:5823   */\n      dup3\n        /* \"#utility.yul\":5810:5828   */\n      add\n        /* \"#utility.yul\":5802:5828   */\n      swap1\n      pop\n        /* \"#utility.yul\":5874:5883   */\n      dup2\n        /* \"#utility.yul\":5868:5872   */\n      dup2\n        /* \"#utility.yul\":5864:5884   */\n      sub\n        /* \"#utility.yul\":5860:5861   */\n      0x00\n        /* \"#utility.yul\":5849:5858   */\n      dup4\n        /* \"#utility.yul\":5845:5862   */\n      add\n        /* \"#utility.yul\":5838:5885   */\n      mstore\n        /* \"#utility.yul\":5902:6002   */\n      tag_245\n        /* \"#utility.yul\":5997:6001   */\n      dup2\n        /* \"#utility.yul\":5988:5994   */\n      dup5\n        /* \"#utility.yul\":5902:6002   */\n      tag_138\n      jump\t// in\n    tag_245:\n        /* \"#utility.yul\":5894:6002   */\n      swap1\n      pop\n        /* \"#utility.yul\":5652:6009   */\n      swap3\n      swap2\n      pop\n      pop\n      jump\t// out\n        /* \"#utility.yul\":6015:6344   */\n    tag_25:\n        /* \"#utility.yul\":6074:6080   */\n      0x00\n        /* \"#utility.yul\":6123:6125   */\n      0x20\n        /* \"#utility.yul\":6111:6120   */\n      dup3\n        /* \"#utility.yul\":6102:6109   */\n      dup5\n        /* \"#utility.yul\":6098:6121   */\n      sub\n        /* \"#utility.yul\":6094:6126   */\n      slt\n        /* \"#utility.yul\":6091:6210   */\n      iszero\n      tag_247\n      jumpi\n        /* \"#utility.yul\":6129:6208   */\n      tag_248\n      tag_118\n      jump\t// in\n    tag_248:\n        /* \"#utility.yul\":6091:6210   */\n    tag_247:\n        /* \"#utility.yul\":6249:6250   */\n      0x00\n        /* \"#utility.yul\":6274:6327   */\n      tag_249\n        /* \"#utility.yul\":6319:6326   */\n      dup5\n        /* \"#utility.yul\":6310:6316   */\n      dup3\n        /* \"#utility.yul\":6299:6308   */\n      dup6\n        /* \"#utility.yul\":6295:6317   */\n      add\n        /* \"#utility.yul\":6274:6327   */\n      tag_123\n      jump\t// in\n    tag_249:\n        /* \"#utility.yul\":6264:6327   */\n      swap2\n      pop\n        /* \"#utility.yul\":6220:6337   */\n      pop\n        /* \"#utility.yul\":6015:6344   */\n      swap3\n      swap2\n      pop\n      pop\n      jump\t// out\n        /* \"#utility.yul\":6350:6485   */\n    tag_139:\n        /* \"#utility.yul\":6438:6444   */\n      0x00\n        /* \"#utility.yul\":6472:6477   */\n      dup2\n        /* \"#utility.yul\":6466:6478   */\n      mload\n        /* \"#utility.yul\":6456:6478   */\n      swap1\n      pop\n        /* \"#utility.yul\":6350:6485   */\n      swap2\n      swap1\n      pop\n      jump\t// out\n        /* \"#utility.yul\":6491:6696   */\n    tag_140:\n        /* \"#utility.yul\":6611:6622   */\n      0x00\n        /* \"#utility.yul\":6645:6651   */\n      dup3\n        /* \"#utility.yul\":6640:6643   */\n      dup3\n        /* \"#utility.yul\":6633:6652   */\n      mstore\n        /* \"#utility.yul\":6685:6689   */\n      0x20\n        /* \"#utility.yul\":6680:6683   */\n      dup3\n        /* \"#utility.yul\":6676:6690   */\n      add\n        /* \"#utility.yul\":6661:6690   */\n      swap1\n      pop\n        /* \"#utility.yul\":6491:6696   */\n      swap3\n      swap2\n      pop\n      pop\n      jump\t// out\n        /* \"#utility.yul\":6702:6855   */\n    tag_141:\n        /* \"#utility.yul\":6790:6794   */\n      0x00\n        /* \"#utility.yul\":6813:6816   */\n      dup2\n        /* \"#utility.yul\":6805:6816   */\n      swap1\n      pop\n        /* \"#utility.yul\":6843:6847   */\n      0x20\n        /* \"#utility.yul\":6838:6841   */\n      dup3\n        /* \"#utility.yul\":6834:6848   */\n      add\n        /* \"#utility.yul\":6826:6848   */\n      swap1\n      pop\n        /* \"#utility.yul\":6702:6855   */\n      swap2\n      swap1\n      pop\n      jump\t// out\n        /* \"#utility.yul\":6913:8032   */\n    tag_142:\n        /* \"#utility.yul\":7014:7017   */\n      0x00\n        /* \"#utility.yul\":7050:7054   */\n      0xa0\n        /* \"#utility.yul\":7045:7048   */\n      dup4\n        /* \"#utility.yul\":7041:7055   */\n      add\n        /* \"#utility.yul\":7135:7139   */\n      0x00\n        /* \"#utility.yul\":7128:7133   */\n      dup4\n        /* \"#utility.yul\":7124:7140   */\n      add\n        /* \"#utility.yul\":7118:7141   */\n      mload\n        /* \"#utility.yul\":7154:7217   */\n      tag_254\n        /* \"#utility.yul\":7211:7215   */\n      0x00\n        /* \"#utility.yul\":7206:7209   */\n      dup7\n        /* \"#utility.yul\":7202:7216   */\n      add\n        /* \"#utility.yul\":7188:7200   */\n      dup3\n        /* \"#utility.yul\":7154:7217   */\n      tag_134\n      jump\t// in\n    tag_254:\n        /* \"#utility.yul\":7065:7227   */\n      pop\n        /* \"#utility.yul\":7311:7315   */\n      0x20\n        /* \"#utility.yul\":7304:7309   */\n      dup4\n        /* \"#utility.yul\":7300:7316   */\n      add\n        /* \"#utility.yul\":7294:7317   */\n      mload\n        /* \"#utility.yul\":7330:7393   */\n      tag_255\n        /* \"#utility.yul\":7387:7391   */\n      0x20\n        /* \"#utility.yul\":7382:7385   */\n      dup7\n        /* \"#utility.yul\":7378:7392   */\n      add\n        /* \"#utility.yul\":7364:7376   */\n      dup3\n        /* \"#utility.yul\":7330:7393   */\n      tag_135\n      jump\t// in\n    tag_255:\n        /* \"#utility.yul\":7237:7403   */\n      pop\n        /* \"#utility.yul\":7488:7492   */\n      0x40\n        /* \"#utility.yul\":7481:7486   */\n      dup4\n        /* \"#utility.yul\":7477:7493   */\n      add\n        /* \"#utility.yul\":7471:7494   */\n      mload\n        /* \"#utility.yul\":7541:7544   */\n      dup5\n        /* \"#utility.yul\":7535:7539   */\n      dup3\n        /* \"#utility.yul\":7531:7545   */\n      sub\n        /* \"#utility.yul\":7524:7528   */\n      0x40\n        /* \"#utility.yul\":7519:7522   */\n      dup7\n        /* \"#utility.yul\":7515:7529   */\n      add\n        /* \"#utility.yul\":7508:7546   */\n      mstore\n        /* \"#utility.yul\":7567:7640   */\n      tag_256\n        /* \"#utility.yul\":7635:7639   */\n      dup3\n        /* \"#utility.yul\":7621:7633   */\n      dup3\n        /* \"#utility.yul\":7567:7640   */\n      tag_137\n      jump\t// in\n    tag_256:\n        /* \"#utility.yul\":7559:7640   */\n      swap2\n      pop\n        /* \"#utility.yul\":7413:7651   */\n      pop\n        /* \"#utility.yul\":7738:7742   */\n      0x60\n        /* \"#utility.yul\":7731:7736   */\n      dup4\n        /* \"#utility.yul\":7727:7743   */\n      add\n        /* \"#utility.yul\":7721:7744   */\n      mload\n        /* \"#utility.yul\":7757:7820   */\n      tag_257\n        /* \"#utility.yul\":7814:7818   */\n      0x60\n        /* \"#utility.yul\":7809:7812   */\n      dup7\n        /* \"#utility.yul\":7805:7819   */\n      add\n        /* \"#utility.yul\":7791:7803   */\n      dup3\n        /* \"#utility.yul\":7757:7820   */\n      tag_134\n      jump\t// in\n    tag_257:\n        /* \"#utility.yul\":7661:7830   */\n      pop\n        /* \"#utility.yul\":7913:7917   */\n      0x80\n        /* \"#utility.yul\":7906:7911   */\n      dup4\n        /* \"#utility.yul\":7902:7918   */\n      add\n        /* \"#utility.yul\":7896:7919   */\n      mload\n        /* \"#utility.yul\":7932:7995   */\n      tag_258\n        /* \"#utility.yul\":7989:7993   */\n      0x80\n        /* \"#utility.yul\":7984:7987   */\n      dup7\n        /* \"#utility.yul\":7980:7994   */\n      add\n        /* \"#utility.yul\":7966:7978   */\n      dup3\n        /* \"#utility.yul\":7932:7995   */\n      tag_134\n      jump\t// in\n    tag_258:\n        /* \"#utility.yul\":7840:8005   */\n      pop\n        /* \"#utility.yul\":8022:8026   */\n      dup1\n        /* \"#utility.yul\":8015:8026   */\n      swap2\n      pop\n        /* \"#utility.yul\":7019:8032   */\n      pop\n        /* \"#utility.yul\":6913:8032   */\n      swap3\n      swap2\n      pop\n      pop\n      jump\t// out\n        /* \"#utility.yul\":8038:8278   */\n    tag_143:\n        /* \"#utility.yul\":8149:8159   */\n      0x00\n        /* \"#utility.yul\":8184:8272   */\n      tag_260\n        /* \"#utility.yul\":8268:8271   */\n      dup4\n        /* \"#utility.yul\":8260:8266   */\n      dup4\n        /* \"#utility.yul\":8184:8272   */\n      tag_142\n      jump\t// in\n    tag_260:\n        /* \"#utility.yul\":8170:8272   */\n      swap1\n      pop\n        /* \"#utility.yul\":8038:8278   */\n      swap3\n      swap2\n      pop\n      pop\n      jump\t// out\n        /* \"#utility.yul\":8284:8418   */\n    tag_144:\n        /* \"#utility.yul\":8375:8379   */\n      0x00\n        /* \"#utility.yul\":8407:8411   */\n      0x20\n        /* \"#utility.yul\":8402:8405   */\n      dup3\n        /* \"#utility.yul\":8398:8412   */\n      add\n        /* \"#utility.yul\":8390:8412   */\n      swap1\n      pop\n        /* \"#utility.yul\":8284:8418   */\n      swap2\n      swap1\n      pop\n      jump\t// out\n        /* \"#utility.yul\":8480:9559   */\n    tag_145:\n        /* \"#utility.yul\":8641:8644   */\n      0x00\n        /* \"#utility.yul\":8670:8745   */\n      tag_263\n        /* \"#utility.yul\":8739:8744   */\n      dup3\n        /* \"#utility.yul\":8670:8745   */\n      tag_139\n      jump\t// in\n    tag_263:\n        /* \"#utility.yul\":8761:8868   */\n      tag_264\n        /* \"#utility.yul\":8861:8867   */\n      dup2\n        /* \"#utility.yul\":8856:8859   */\n      dup6\n        /* \"#utility.yul\":8761:8868   */\n      tag_140\n      jump\t// in\n    tag_264:\n        /* \"#utility.yul\":8754:8868   */\n      swap4\n      pop\n        /* \"#utility.yul\":8894:8897   */\n      dup4\n        /* \"#utility.yul\":8939:8943   */\n      0x20\n        /* \"#utility.yul\":8931:8937   */\n      dup3\n        /* \"#utility.yul\":8927:8944   */\n      mul\n        /* \"#utility.yul\":8922:8925   */\n      dup6\n        /* \"#utility.yul\":8918:8945   */\n      add\n        /* \"#utility.yul\":8969:9046   */\n      tag_265\n        /* \"#utility.yul\":9040:9045   */\n      dup6\n        /* \"#utility.yul\":8969:9046   */\n      tag_141\n      jump\t// in\n    tag_265:\n        /* \"#utility.yul\":9069:9076   */\n      dup1\n        /* \"#utility.yul\":9100:9101   */\n      0x00\n        /* \"#utility.yul\":9085:9514   */\n    tag_266:\n        /* \"#utility.yul\":9110:9116   */\n      dup6\n        /* \"#utility.yul\":9107:9108   */\n      dup2\n        /* \"#utility.yul\":9104:9117   */\n      lt\n        /* \"#utility.yul\":9085:9514   */\n      iszero\n      tag_268\n      jumpi\n        /* \"#utility.yul\":9181:9190   */\n      dup5\n        /* \"#utility.yul\":9175:9179   */\n      dup5\n        /* \"#utility.yul\":9171:9191   */\n      sub\n        /* \"#utility.yul\":9166:9169   */\n      dup10\n        /* \"#utility.yul\":9159:9192   */\n      mstore\n        /* \"#utility.yul\":9232:9238   */\n      dup2\n        /* \"#utility.yul\":9226:9239   */\n      mload\n        /* \"#utility.yul\":9260:9366   */\n      tag_269\n        /* \"#utility.yul\":9361:9365   */\n      dup6\n        /* \"#utility.yul\":9346:9359   */\n      dup3\n        /* \"#utility.yul\":9260:9366   */\n      tag_143\n      jump\t// in\n    tag_269:\n        /* \"#utility.yul\":9252:9366   */\n      swap5\n      pop\n        /* \"#utility.yul\":9389:9470   */\n      tag_270\n        /* \"#utility.yul\":9463:9469   */\n      dup4\n        /* \"#utility.yul\":9389:9470   */\n      tag_144\n      jump\t// in\n    tag_270:\n        /* \"#utility.yul\":9379:9470   */\n      swap3\n      pop\n        /* \"#utility.yul\":9499:9503   */\n      0x20\n        /* \"#utility.yul\":9494:9497   */\n      dup11\n        /* \"#utility.yul\":9490:9504   */\n      add\n        /* \"#utility.yul\":9483:9504   */\n      swap10\n      pop\n        /* \"#utility.yul\":9145:9514   */\n      pop\n        /* \"#utility.yul\":9132:9133   */\n      0x01\n        /* \"#utility.yul\":9129:9130   */\n      dup2\n        /* \"#utility.yul\":9125:9134   */\n      add\n        /* \"#utility.yul\":9120:9134   */\n      swap1\n      pop\n        /* \"#utility.yul\":9085:9514   */\n      jump(tag_266)\n    tag_268:\n        /* \"#utility.yul\":9089:9103   */\n      pop\n        /* \"#utility.yul\":9530:9534   */\n      dup3\n        /* \"#utility.yul\":9523:9534   */\n      swap8\n      pop\n        /* \"#utility.yul\":9550:9553   */\n      dup8\n        /* \"#utility.yul\":9543:9553   */\n      swap6\n      pop\n        /* \"#utility.yul\":8646:9559   */\n      pop\n      pop\n      pop\n      pop\n      pop\n        /* \"#utility.yul\":8480:9559   */\n      swap3\n      swap2\n      pop\n      pop\n      jump\t// out\n        /* \"#utility.yul\":9565:10022   */\n    tag_28:\n        /* \"#utility.yul\":9750:9754   */\n      0x00\n        /* \"#utility.yul\":9788:9790   */\n      0x20\n        /* \"#utility.yul\":9777:9786   */\n      dup3\n        /* \"#utility.yul\":9773:9791   */\n      add\n        /* \"#utility.yul\":9765:9791   */\n      swap1\n      pop\n        /* \"#utility.yul\":9837:9846   */\n      dup2\n        /* \"#utility.yul\":9831:9835   */\n      dup2\n        /* \"#utility.yul\":9827:9847   */\n      sub\n        /* \"#utility.yul\":9823:9824   */\n      0x00\n        /* \"#utility.yul\":9812:9821   */\n      dup4\n        /* \"#utility.yul\":9808:9825   */\n      add\n        /* \"#utility.yul\":9801:9848   */\n      mstore\n        /* \"#utility.yul\":9865:10015   */\n      tag_272\n        /* \"#utility.yul\":10010:10014   */\n      dup2\n        /* \"#utility.yul\":10001:10007   */\n      dup5\n        /* \"#utility.yul\":9865:10015   */\n      tag_145\n      jump\t// in\n    tag_272:\n        /* \"#utility.yul\":9857:10015   */\n      swap1\n      pop\n        /* \"#utility.yul\":9565:10022   */\n      swap3\n      swap2\n      pop\n      pop\n      jump\t// out\n        /* \"#utility.yul\":10028:10145   */\n    tag_146:\n        /* \"#utility.yul\":10137:10138   */\n      0x00\n        /* \"#utility.yul\":10134:10135   */\n      dup1\n        /* \"#utility.yul\":10127:10139   */\n      revert\n        /* \"#utility.yul\":10151:10268   */\n    tag_147:\n        /* \"#utility.yul\":10260:10261   */\n      0x00\n        /* \"#utility.yul\":10257:10258   */\n      dup1\n        /* \"#utility.yul\":10250:10262   */\n      revert\n        /* \"#utility.yul\":10274:10454   */\n    tag_148:\n        /* \"#utility.yul\":10322:10399   */\n      0x4e487b7100000000000000000000000000000000000000000000000000000000\n        /* \"#utility.yul\":10319:10320   */\n      0x00\n        /* \"#utility.yul\":10312:10400   */\n      mstore\n        /* \"#utility.yul\":10419:10423   */\n      0x41\n        /* \"#utility.yul\":10416:10417   */\n      0x04\n        /* \"#utility.yul\":10409:10424   */\n      mstore\n        /* \"#utility.yul\":10443:10447   */\n      0x24\n        /* \"#utility.yul\":10440:10441   */\n      0x00\n        /* \"#utility.yul\":10433:10448   */\n      revert\n        /* \"#utility.yul\":10460:10741   */\n    tag_149:\n        /* \"#utility.yul\":10543:10570   */\n      tag_277\n        /* \"#utility.yul\":10565:10569   */\n      dup3\n        /* \"#utility.yul\":10543:10570   */\n      tag_132\n      jump\t// in\n    tag_277:\n        /* \"#utility.yul\":10535:10541   */\n      dup2\n        /* \"#utility.yul\":10531:10571   */\n      add\n        /* \"#utility.yul\":10673:10679   */\n      dup2\n        /* \"#utility.yul\":10661:10671   */\n      dup2\n        /* \"#utility.yul\":10658:10680   */\n      lt\n        /* \"#utility.yul\":10637:10655   */\n      0xffffffffffffffff\n        /* \"#utility.yul\":10625:10635   */\n      dup3\n        /* \"#utility.yul\":10622:10656   */\n      gt\n        /* \"#utility.yul\":10619:10681   */\n      or\n        /* \"#utility.yul\":10616:10704   */\n      iszero\n      tag_278\n      jumpi\n        /* \"#utility.yul\":10684:10702   */\n      tag_279\n      tag_148\n      jump\t// in\n    tag_279:\n        /* \"#utility.yul\":10616:10704   */\n    tag_278:\n        /* \"#utility.yul\":10724:10734   */\n      dup1\n        /* \"#utility.yul\":10720:10722   */\n      0x40\n        /* \"#utility.yul\":10713:10735   */\n      mstore\n        /* \"#utility.yul\":10503:10741   */\n      pop\n        /* \"#utility.yul\":10460:10741   */\n      pop\n      pop\n      jump\t// out\n        /* \"#utility.yul\":10747:10876   */\n    tag_150:\n        /* \"#utility.yul\":10781:10787   */\n      0x00\n        /* \"#utility.yul\":10808:10828   */\n      tag_281\n      tag_117\n      jump\t// in\n    tag_281:\n        /* \"#utility.yul\":10798:10828   */\n      swap1\n      pop\n        /* \"#utility.yul\":10837:10870   */\n      tag_282\n        /* \"#utility.yul\":10865:10869   */\n      dup3\n        /* \"#utility.yul\":10857:10863   */\n      dup3\n        /* \"#utility.yul\":10837:10870   */\n      tag_149\n      jump\t// in\n    tag_282:\n        /* \"#utility.yul\":10747:10876   */\n      swap2\n      swap1\n      pop\n      jump\t// out\n        /* \"#utility.yul\":10882:11190   */\n    tag_151:\n        /* \"#utility.yul\":10944:10948   */\n      0x00\n        /* \"#utility.yul\":11034:11052   */\n      0xffffffffffffffff\n        /* \"#utility.yul\":11026:11032   */\n      dup3\n        /* \"#utility.yul\":11023:11053   */\n      gt\n        /* \"#utility.yul\":11020:11076   */\n      iszero\n      tag_284\n      jumpi\n        /* \"#utility.yul\":11056:11074   */\n      tag_285\n      tag_148\n      jump\t// in\n    tag_285:\n        /* \"#utility.yul\":11020:11076   */\n    tag_284:\n        /* \"#utility.yul\":11094:11123   */\n      tag_286\n        /* \"#utility.yul\":11116:11122   */\n      dup3\n        /* \"#utility.yul\":11094:11123   */\n      tag_132\n      jump\t// in\n    tag_286:\n        /* \"#utility.yul\":11086:11123   */\n      swap1\n      pop\n        /* \"#utility.yul\":11178:11182   */\n      0x20\n        /* \"#utility.yul\":11172:11176   */\n      dup2\n        /* \"#utility.yul\":11168:11183   */\n      add\n        /* \"#utility.yul\":11160:11183   */\n      swap1\n      pop\n        /* \"#utility.yul\":10882:11190   */\n      swap2\n      swap1\n      pop\n      jump\t// out\n        /* \"#utility.yul\":11196:11342   */\n    tag_152:\n        /* \"#utility.yul\":11293:11299   */\n      dup3\n        /* \"#utility.yul\":11288:11291   */\n      dup2\n        /* \"#utility.yul\":11283:11286   */\n      dup4\n        /* \"#utility.yul\":11270:11300   */\n      calldatacopy\n        /* \"#utility.yul\":11334:11335   */\n      0x00\n        /* \"#utility.yul\":11325:11331   */\n      dup4\n        /* \"#utility.yul\":11320:11323   */\n      dup4\n        /* \"#utility.yul\":11316:11332   */\n      add\n        /* \"#utility.yul\":11309:11336   */\n      mstore\n        /* \"#utility.yul\":11196:11342   */\n      pop\n      pop\n      pop\n      jump\t// out\n        /* \"#utility.yul\":11348:11773   */\n    tag_153:\n        /* \"#utility.yul\":11426:11431   */\n      0x00\n        /* \"#utility.yul\":11451:11517   */\n      tag_289\n        /* \"#utility.yul\":11467:11516   */\n      tag_290\n        /* \"#utility.yul\":11509:11515   */\n      dup5\n        /* \"#utility.yul\":11467:11516   */\n      tag_151\n      jump\t// in\n    tag_290:\n        /* \"#utility.yul\":11451:11517   */\n      tag_150\n      jump\t// in\n    tag_289:\n        /* \"#utility.yul\":11442:11517   */\n      swap1\n      pop\n        /* \"#utility.yul\":11540:11546   */\n      dup3\n        /* \"#utility.yul\":11533:11538   */\n      dup2\n        /* \"#utility.yul\":11526:11547   */\n      mstore\n        /* \"#utility.yul\":11578:11582   */\n      0x20\n        /* \"#utility.yul\":11571:11576   */\n      dup2\n        /* \"#utility.yul\":11567:11583   */\n      add\n        /* \"#utility.yul\":11616:11619   */\n      dup5\n        /* \"#utility.yul\":11607:11613   */\n      dup5\n        /* \"#utility.yul\":11602:11605   */\n      dup5\n        /* \"#utility.yul\":11598:11614   */\n      add\n        /* \"#utility.yul\":11595:11620   */\n      gt\n        /* \"#utility.yul\":11592:11704   */\n      iszero\n      tag_291\n      jumpi\n        /* \"#utility.yul\":11623:11702   */\n      tag_292\n      tag_147\n      jump\t// in\n    tag_292:\n        /* \"#utility.yul\":11592:11704   */\n    tag_291:\n        /* \"#utility.yul\":11713:11767   */\n      tag_293\n        /* \"#utility.yul\":11760:11766   */\n      dup5\n        /* \"#utility.yul\":11755:11758   */\n      dup3\n        /* \"#utility.yul\":11750:11753   */\n      dup6\n        /* \"#utility.yul\":11713:11767   */\n      tag_152\n      jump\t// in\n    tag_293:\n        /* \"#utility.yul\":11432:11773   */\n      pop\n        /* \"#utility.yul\":11348:11773   */\n      swap4\n      swap3\n      pop\n      pop\n      pop\n      jump\t// out\n        /* \"#utility.yul\":11793:12133   */\n    tag_154:\n        /* \"#utility.yul\":11849:11854   */\n      0x00\n        /* \"#utility.yul\":11898:11901   */\n      dup3\n        /* \"#utility.yul\":11891:11895   */\n      0x1f\n        /* \"#utility.yul\":11883:11889   */\n      dup4\n        /* \"#utility.yul\":11879:11896   */\n      add\n        /* \"#utility.yul\":11875:11902   */\n      slt\n        /* \"#utility.yul\":11865:11987   */\n      tag_295\n      jumpi\n        /* \"#utility.yul\":11906:11985   */\n      tag_296\n      tag_146\n      jump\t// in\n    tag_296:\n        /* \"#utility.yul\":11865:11987   */\n    tag_295:\n        /* \"#utility.yul\":12023:12029   */\n      dup2\n        /* \"#utility.yul\":12010:12030   */\n      calldataload\n        /* \"#utility.yul\":12048:12127   */\n      tag_297\n        /* \"#utility.yul\":12123:12126   */\n      dup5\n        /* \"#utility.yul\":12115:12121   */\n      dup3\n        /* \"#utility.yul\":12108:12112   */\n      0x20\n        /* \"#utility.yul\":12100:12106   */\n      dup7\n        /* \"#utility.yul\":12096:12113   */\n      add\n        /* \"#utility.yul\":12048:12127   */\n      tag_153\n      jump\t// in\n    tag_297:\n        /* \"#utility.yul\":12039:12127   */\n      swap2\n      pop\n        /* \"#utility.yul\":11855:12133   */\n      pop\n        /* \"#utility.yul\":11793:12133   */\n      swap3\n      swap2\n      pop\n      pop\n      jump\t// out\n        /* \"#utility.yul\":12139:12648   */\n    tag_31:\n        /* \"#utility.yul\":12208:12214   */\n      0x00\n        /* \"#utility.yul\":12257:12259   */\n      0x20\n        /* \"#utility.yul\":12245:12254   */\n      dup3\n        /* \"#utility.yul\":12236:12243   */\n      dup5\n        /* \"#utility.yul\":12232:12255   */\n      sub\n        /* \"#utility.yul\":12228:12260   */\n      slt\n        /* \"#utility.yul\":12225:12344   */\n      iszero\n      tag_299\n      jumpi\n        /* \"#utility.yul\":12263:12342   */\n      tag_300\n      tag_118\n      jump\t// in\n    tag_300:\n        /* \"#utility.yul\":12225:12344   */\n    tag_299:\n        /* \"#utility.yul\":12411:12412   */\n      0x00\n        /* \"#utility.yul\":12400:12409   */\n      dup3\n        /* \"#utility.yul\":12396:12413   */\n      add\n        /* \"#utility.yul\":12383:12414   */\n      calldataload\n        /* \"#utility.yul\":12441:12459   */\n      0xffffffffffffffff\n        /* \"#utility.yul\":12433:12439   */\n      dup2\n        /* \"#utility.yul\":12430:12460   */\n      gt\n        /* \"#utility.yul\":12427:12544   */\n      iszero\n      tag_301\n      jumpi\n        /* \"#utility.yul\":12463:12542   */\n      tag_302\n      tag_119\n      jump\t// in\n    tag_302:\n        /* \"#utility.yul\":12427:12544   */\n    tag_301:\n        /* \"#utility.yul\":12568:12631   */\n      tag_303\n        /* \"#utility.yul\":12623:12630   */\n      dup5\n        /* \"#utility.yul\":12614:12620   */\n      dup3\n        /* \"#utility.yul\":12603:12612   */\n      dup6\n        /* \"#utility.yul\":12599:12621   */\n      add\n        /* \"#utility.yul\":12568:12631   */\n      tag_154\n      jump\t// in\n    tag_303:\n        /* \"#utility.yul\":12558:12631   */\n      swap2\n      pop\n        /* \"#utility.yul\":12354:12641   */\n      pop\n        /* \"#utility.yul\":12139:12648   */\n      swap3\n      swap2\n      pop\n      pop\n      jump\t// out\n        /* \"#utility.yul\":12654:12743   */\n    tag_155:\n        /* \"#utility.yul\":12690:12697   */\n      0x00\n        /* \"#utility.yul\":12730:12736   */\n      0xffff\n        /* \"#utility.yul\":12723:12728   */\n      dup3\n        /* \"#utility.yul\":12719:12737   */\n      and\n        /* \"#utility.yul\":12708:12737   */\n      swap1\n      pop\n        /* \"#utility.yul\":12654:12743   */\n      swap2\n      swap1\n      pop\n      jump\t// out\n        /* \"#utility.yul\":12749:12869   */\n    tag_156:\n        /* \"#utility.yul\":12821:12844   */\n      tag_306\n        /* \"#utility.yul\":12838:12843   */\n      dup2\n        /* \"#utility.yul\":12821:12844   */\n      tag_155\n      jump\t// in\n    tag_306:\n        /* \"#utility.yul\":12814:12819   */\n      dup2\n        /* \"#utility.yul\":12811:12845   */\n      eq\n        /* \"#utility.yul\":12801:12863   */\n      tag_307\n      jumpi\n        /* \"#utility.yul\":12859:12860   */\n      0x00\n        /* \"#utility.yul\":12856:12857   */\n      dup1\n        /* \"#utility.yul\":12849:12861   */\n      revert\n        /* \"#utility.yul\":12801:12863   */\n    tag_307:\n        /* \"#utility.yul\":12749:12869   */\n      pop\n      jump\t// out\n        /* \"#utility.yul\":12875:13012   */\n    tag_157:\n        /* \"#utility.yul\":12920:12925   */\n      0x00\n        /* \"#utility.yul\":12958:12964   */\n      dup2\n        /* \"#utility.yul\":12945:12965   */\n      calldataload\n        /* \"#utility.yul\":12936:12965   */\n      swap1\n      pop\n        /* \"#utility.yul\":12974:13006   */\n      tag_309\n        /* \"#utility.yul\":13000:13005   */\n      dup2\n        /* \"#utility.yul\":12974:13006   */\n      tag_156\n      jump\t// in\n    tag_309:\n        /* \"#utility.yul\":12875:13012   */\n      swap3\n      swap2\n      pop\n      pop\n      jump\t// out\n        /* \"#utility.yul\":13018:13345   */\n    tag_38:\n        /* \"#utility.yul\":13076:13082   */\n      0x00\n        /* \"#utility.yul\":13125:13127   */\n      0x20\n        /* \"#utility.yul\":13113:13122   */\n      dup3\n        /* \"#utility.yul\":13104:13111   */\n      dup5\n        /* \"#utility.yul\":13100:13123   */\n      sub\n        /* \"#utility.yul\":13096:13128   */\n      slt\n        /* \"#utility.yul\":13093:13212   */\n      iszero\n      tag_311\n      jumpi\n        /* \"#utility.yul\":13131:13210   */\n      tag_312\n      tag_118\n      jump\t// in\n    tag_312:\n        /* \"#utility.yul\":13093:13212   */\n    tag_311:\n        /* \"#utility.yul\":13251:13252   */\n      0x00\n        /* \"#utility.yul\":13276:13328   */\n      tag_313\n        /* \"#utility.yul\":13320:13327   */\n      dup5\n        /* \"#utility.yul\":13311:13317   */\n      dup3\n        /* \"#utility.yul\":13300:13309   */\n      dup6\n        /* \"#utility.yul\":13296:13318   */\n      add\n        /* \"#utility.yul\":13276:13328   */\n      tag_157\n      jump\t// in\n    tag_313:\n        /* \"#utility.yul\":13266:13328   */\n      swap2\n      pop\n        /* \"#utility.yul\":13222:13338   */\n      pop\n        /* \"#utility.yul\":13018:13345   */\n      swap3\n      swap2\n      pop\n      pop\n      jump\t// out\n        /* \"#utility.yul\":13351:13573   */\n    tag_46:\n        /* \"#utility.yul\":13444:13448   */\n      0x00\n        /* \"#utility.yul\":13482:13484   */\n      0x20\n        /* \"#utility.yul\":13471:13480   */\n      dup3\n        /* \"#utility.yul\":13467:13485   */\n      add\n        /* \"#utility.yul\":13459:13485   */\n      swap1\n      pop\n        /* \"#utility.yul\":13495:13566   */\n      tag_315\n        /* \"#utility.yul\":13563:13564   */\n      0x00\n        /* \"#utility.yul\":13552:13561   */\n      dup4\n        /* \"#utility.yul\":13548:13565   */\n      add\n        /* \"#utility.yul\":13539:13545   */\n      dup5\n        /* \"#utility.yul\":13495:13566   */\n      tag_128\n      jump\t// in\n    tag_315:\n        /* \"#utility.yul\":13351:13573   */\n      swap3\n      swap2\n      pop\n      pop\n      jump\t// out\n        /* \"#utility.yul\":13579:13759   */\n    tag_158:\n        /* \"#utility.yul\":13627:13704   */\n      0x4e487b7100000000000000000000000000000000000000000000000000000000\n        /* \"#utility.yul\":13624:13625   */\n      0x00\n        /* \"#utility.yul\":13617:13705   */\n      mstore\n        /* \"#utility.yul\":13724:13728   */\n      0x22\n        /* \"#utility.yul\":13721:13722   */\n      0x04\n        /* \"#utility.yul\":13714:13729   */\n      mstore\n        /* \"#utility.yul\":13748:13752   */\n      0x24\n        /* \"#utility.yul\":13745:13746   */\n      0x00\n        /* \"#utility.yul\":13738:13753   */\n      revert\n        /* \"#utility.yul\":13765:14085   */\n    tag_50:\n        /* \"#utility.yul\":13809:13815   */\n      0x00\n        /* \"#utility.yul\":13846:13847   */\n      0x02\n        /* \"#utility.yul\":13840:13844   */\n      dup3\n        /* \"#utility.yul\":13836:13848   */\n      div\n        /* \"#utility.yul\":13826:13848   */\n      swap1\n      pop\n        /* \"#utility.yul\":13893:13894   */\n      0x01\n        /* \"#utility.yul\":13887:13891   */\n      dup3\n        /* \"#utility.yul\":13883:13895   */\n      and\n        /* \"#utility.yul\":13914:13932   */\n      dup1\n        /* \"#utility.yul\":13904:13985   */\n      tag_318\n      jumpi\n        /* \"#utility.yul\":13970:13974   */\n      0x7f\n        /* \"#utility.yul\":13962:13968   */\n      dup3\n        /* \"#utility.yul\":13958:13975   */\n      and\n        /* \"#utility.yul\":13948:13975   */\n      swap2\n      pop\n        /* \"#utility.yul\":13904:13985   */\n    tag_318:\n        /* \"#utility.yul\":14032:14034   */\n      0x20\n        /* \"#utility.yul\":14024:14030   */\n      dup3\n        /* \"#utility.yul\":14021:14035   */\n      lt\n        /* \"#utility.yul\":14001:14019   */\n      dup2\n        /* \"#utility.yul\":13998:14036   */\n      sub\n        /* \"#utility.yul\":13995:14079   */\n      tag_319\n      jumpi\n        /* \"#utility.yul\":14051:14069   */\n      tag_320\n      tag_158\n      jump\t// in\n    tag_320:\n        /* \"#utility.yul\":13995:14079   */\n    tag_319:\n        /* \"#utility.yul\":13816:14085   */\n      pop\n        /* \"#utility.yul\":13765:14085   */\n      swap2\n      swap1\n      pop\n      jump\t// out\n        /* \"#utility.yul\":14091:14271   */\n    tag_60:\n        /* \"#utility.yul\":14139:14216   */\n      0x4e487b7100000000000000000000000000000000000000000000000000000000\n        /* \"#utility.yul\":14136:14137   */\n      0x00\n        /* \"#utility.yul\":14129:14217   */\n      mstore\n        /* \"#utility.yul\":14236:14240   */\n      0x32\n        /* \"#utility.yul\":14233:14234   */\n      0x04\n        /* \"#utility.yul\":14226:14241   */\n      mstore\n        /* \"#utility.yul\":14260:14264   */\n      0x24\n        /* \"#utility.yul\":14257:14258   */\n      0x00\n        /* \"#utility.yul\":14250:14265   */\n      revert\n        /* \"#utility.yul\":14277:14510   */\n    tag_159:\n        /* \"#utility.yul\":14417:14451   */\n      0x457863656564732074686520636861726163746572206c696d697420666f7220\n        /* \"#utility.yul\":14413:14414   */\n      0x00\n        /* \"#utility.yul\":14405:14411   */\n      dup3\n        /* \"#utility.yul\":14401:14415   */\n      add\n        /* \"#utility.yul\":14394:14452   */\n      mstore\n        /* \"#utility.yul\":14486:14502   */\n      0x612073696e676c65207477656574000000000000000000000000000000000000\n        /* \"#utility.yul\":14481:14483   */\n      0x20\n        /* \"#utility.yul\":14473:14479   */\n      dup3\n        /* \"#utility.yul\":14469:14484   */\n      add\n        /* \"#utility.yul\":14462:14503   */\n      mstore\n        /* \"#utility.yul\":14277:14510   */\n      pop\n      jump\t// out\n        /* \"#utility.yul\":14516:14882   */\n    tag_160:\n        /* \"#utility.yul\":14658:14661   */\n      0x00\n        /* \"#utility.yul\":14679:14746   */\n      tag_324\n        /* \"#utility.yul\":14743:14745   */\n      0x2e\n        /* \"#utility.yul\":14738:14741   */\n      dup4\n        /* \"#utility.yul\":14679:14746   */\n      tag_130\n      jump\t// in\n    tag_324:\n        /* \"#utility.yul\":14672:14746   */\n      swap2\n      pop\n        /* \"#utility.yul\":14755:14848   */\n      tag_325\n        /* \"#utility.yul\":14844:14847   */\n      dup3\n        /* \"#utility.yul\":14755:14848   */\n      tag_159\n      jump\t// in\n    tag_325:\n        /* \"#utility.yul\":14873:14875   */\n      0x40\n        /* \"#utility.yul\":14868:14871   */\n      dup3\n        /* \"#utility.yul\":14864:14876   */\n      add\n        /* \"#utility.yul\":14857:14876   */\n      swap1\n      pop\n        /* \"#utility.yul\":14516:14882   */\n      swap2\n      swap1\n      pop\n      jump\t// out\n        /* \"#utility.yul\":14888:15307   */\n    tag_79:\n        /* \"#utility.yul\":15054:15058   */\n      0x00\n        /* \"#utility.yul\":15092:15094   */\n      0x20\n        /* \"#utility.yul\":15081:15090   */\n      dup3\n        /* \"#utility.yul\":15077:15095   */\n      add\n        /* \"#utility.yul\":15069:15095   */\n      swap1\n      pop\n        /* \"#utility.yul\":15141:15150   */\n      dup2\n        /* \"#utility.yul\":15135:15139   */\n      dup2\n        /* \"#utility.yul\":15131:15151   */\n      sub\n        /* \"#utility.yul\":15127:15128   */\n      0x00\n        /* \"#utility.yul\":15116:15125   */\n      dup4\n        /* \"#utility.yul\":15112:15129   */\n      add\n        /* \"#utility.yul\":15105:15152   */\n      mstore\n        /* \"#utility.yul\":15169:15300   */\n      tag_327\n        /* \"#utility.yul\":15295:15299   */\n      dup2\n        /* \"#utility.yul\":15169:15300   */\n      tag_160\n      jump\t// in\n    tag_327:\n        /* \"#utility.yul\":15161:15300   */\n      swap1\n      pop\n        /* \"#utility.yul\":14888:15307   */\n      swap2\n      swap1\n      pop\n      jump\t// out\n        /* \"#utility.yul\":15313:15454   */\n    tag_161:\n        /* \"#utility.yul\":15362:15366   */\n      0x00\n        /* \"#utility.yul\":15385:15388   */\n      dup2\n        /* \"#utility.yul\":15377:15388   */\n      swap1\n      pop\n        /* \"#utility.yul\":15408:15411   */\n      dup2\n        /* \"#utility.yul\":15405:15406   */\n      0x00\n        /* \"#utility.yul\":15398:15412   */\n      mstore\n        /* \"#utility.yul\":15442:15446   */\n      0x20\n        /* \"#utility.yul\":15439:15440   */\n      0x00\n        /* \"#utility.yul\":15429:15447   */\n      keccak256\n        /* \"#utility.yul\":15421:15447   */\n      swap1\n      pop\n        /* \"#utility.yul\":15313:15454   */\n      swap2\n      swap1\n      pop\n      jump\t// out\n        /* \"#utility.yul\":15460:15553   */\n    tag_162:\n        /* \"#utility.yul\":15497:15503   */\n      0x00\n        /* \"#utility.yul\":15544:15546   */\n      0x20\n        /* \"#utility.yul\":15539:15541   */\n      0x1f\n        /* \"#utility.yul\":15532:15537   */\n      dup4\n        /* \"#utility.yul\":15528:15542   */\n      add\n        /* \"#utility.yul\":15524:15547   */\n      div\n        /* \"#utility.yul\":15514:15547   */\n      swap1\n      pop\n        /* \"#utility.yul\":15460:15553   */\n      swap2\n      swap1\n      pop\n      jump\t// out\n        /* \"#utility.yul\":15559:15666   */\n    tag_163:\n        /* \"#utility.yul\":15603:15611   */\n      0x00\n        /* \"#utility.yul\":15653:15658   */\n      dup3\n        /* \"#utility.yul\":15647:15651   */\n      dup3\n        /* \"#utility.yul\":15643:15659   */\n      shl\n        /* \"#utility.yul\":15622:15659   */\n      swap1\n      pop\n        /* \"#utility.yul\":15559:15666   */\n      swap3\n      swap2\n      pop\n      pop\n      jump\t// out\n        /* \"#utility.yul\":15672:16065   */\n    tag_164:\n        /* \"#utility.yul\":15741:15747   */\n      0x00\n        /* \"#utility.yul\":15791:15792   */\n      0x08\n        /* \"#utility.yul\":15779:15789   */\n      dup4\n        /* \"#utility.yul\":15775:15793   */\n      mul\n        /* \"#utility.yul\":15814:15911   */\n      tag_332\n        /* \"#utility.yul\":15844:15910   */\n      0xffffffffffffffffffffffffffffffffffffffffffffffffffffffffffffffff\n        /* \"#utility.yul\":15833:15842   */\n      dup3\n        /* \"#utility.yul\":15814:15911   */\n      tag_163\n      jump\t// in\n    tag_332:\n        /* \"#utility.yul\":15932:15971   */\n      tag_333\n        /* \"#utility.yul\":15962:15970   */\n      dup7\n        /* \"#utility.yul\":15951:15960   */\n      dup4\n        /* \"#utility.yul\":15932:15971   */\n      tag_163\n      jump\t// in\n    tag_333:\n        /* \"#utility.yul\":15920:15971   */\n      swap6\n      pop\n        /* \"#utility.yul\":16004:16008   */\n      dup1\n        /* \"#utility.yul\":16000:16009   */\n      not\n        /* \"#utility.yul\":15993:15998   */\n      dup5\n        /* \"#utility.yul\":15989:16010   */\n      and\n        /* \"#utility.yul\":15980:16010   */\n      swap4\n      pop\n        /* \"#utility.yul\":16053:16057   */\n      dup1\n        /* \"#utility.yul\":16043:16051   */\n      dup7\n        /* \"#utility.yul\":16039:16058   */\n      and\n        /* \"#utility.yul\":16032:16037   */\n      dup5\n        /* \"#utility.yul\":16029:16059   */\n      or\n        /* \"#utility.yul\":16019:16059   */\n      swap3\n      pop\n        /* \"#utility.yul\":15748:16065   */\n      pop\n      pop\n        /* \"#utility.yul\":15672:16065   */\n      swap4\n      swap3\n      pop\n      pop\n      pop\n      jump\t// out\n        /* \"#utility.yul\":16071:16131   */\n    tag_165:\n        /* \"#utility.yul\":16099:16102   */\n      0x00\n        /* \"#utility.yul\":16120:16125   */\n      dup2\n        /* \"#utility.yul\":16113:16125   */\n      swap1\n      pop\n        /* \"#utility.yul\":16071:16131   */\n      swap2\n      swap1\n      pop\n      jump\t// out\n        /* \"#utility.yul\":16137:16279   */\n    tag_166:\n        /* \"#utility.yul\":16187:16196   */\n      0x00\n        /* \"#utility.yul\":16220:16273   */\n      tag_336\n        /* \"#utility.yul\":16238:16272   */\n      tag_337\n        /* \"#utility.yul\":16247:16271   */\n      tag_338\n        /* \"#utility.yul\":16265:16270   */\n      dup5\n        /* \"#utility.yul\":16247:16271   */\n      tag_124\n      jump\t// in\n    tag_338:\n        /* \"#utility.yul\":16238:16272   */\n      tag_165\n      jump\t// in\n    tag_337:\n        /* \"#utility.yul\":16220:16273   */\n      tag_124\n      jump\t// in\n    tag_336:\n        /* \"#utility.yul\":16207:16273   */\n      swap1\n      pop\n        /* \"#utility.yul\":16137:16279   */\n      swap2\n      swap1\n      pop\n      jump\t// out\n        /* \"#utility.yul\":16285:16360   */\n    tag_167:\n        /* \"#utility.yul\":16328:16331   */\n      0x00\n        /* \"#utility.yul\":16349:16354   */\n      dup2\n        /* \"#utility.yul\":16342:16354   */\n      swap1\n      pop\n        /* \"#utility.yul\":16285:16360   */\n      swap2\n      swap1\n      pop\n      jump\t// out\n        /* \"#utility.yul\":16366:16635   */\n    tag_168:\n        /* \"#utility.yul\":16476:16515   */\n      tag_341\n        /* \"#utility.yul\":16507:16514   */\n      dup4\n        /* \"#utility.yul\":16476:16515   */\n      tag_166\n      jump\t// in\n    tag_341:\n        /* \"#utility.yul\":16537:16628   */\n      tag_342\n        /* \"#utility.yul\":16586:16627   */\n      tag_343\n        /* \"#utility.yul\":16610:16626   */\n      dup3\n        /* \"#utility.yul\":16586:16627   */\n      tag_167\n      jump\t// in\n    tag_343:\n        /* \"#utility.yul\":16578:16584   */\n      dup5\n        /* \"#utility.yul\":16571:16575   */\n      dup5\n        /* \"#utility.yul\":16565:16576   */\n      sload\n        /* \"#utility.yul\":16537:16628   */\n      tag_164\n      jump\t// in\n    tag_342:\n        /* \"#utility.yul\":16531:16535   */\n      dup3\n        /* \"#utility.yul\":16524:16629   */\n      sstore\n        /* \"#utility.yul\":16442:16635   */\n      pop\n        /* \"#utility.yul\":16366:16635   */\n      pop\n      pop\n      pop\n      jump\t// out\n        /* \"#utility.yul\":16641:16714   */\n    tag_169:\n        /* \"#utility.yul\":16686:16689   */\n      0x00\n        /* \"#utility.yul\":16641:16714   */\n      swap1\n      jump\t// out\n        /* \"#utility.yul\":16720:16909   */\n    tag_170:\n        /* \"#utility.yul\":16797:16829   */\n      tag_346\n      tag_169\n      jump\t// in\n    tag_346:\n        /* \"#utility.yul\":16838:16903   */\n      tag_347\n        /* \"#utility.yul\":16896:16902   */\n      dup2\n        /* \"#utility.yul\":16888:16894   */\n      dup5\n        /* \"#utility.yul\":16882:16886   */\n      dup5\n        /* \"#utility.yul\":16838:16903   */\n      tag_168\n      jump\t// in\n    tag_347:\n        /* \"#utility.yul\":16773:16909   */\n      pop\n        /* \"#utility.yul\":16720:16909   */\n      pop\n      pop\n      jump\t// out\n        /* \"#utility.yul\":16915:17101   */\n    tag_171:\n        /* \"#utility.yul\":16975:17095   */\n    tag_349:\n        /* \"#utility.yul\":16992:16995   */\n      dup2\n        /* \"#utility.yul\":16985:16990   */\n      dup2\n        /* \"#utility.yul\":16982:16996   */\n      lt\n        /* \"#utility.yul\":16975:17095   */\n      iszero\n      tag_351\n      jumpi\n        /* \"#utility.yul\":17046:17085   */\n      tag_352\n        /* \"#utility.yul\":17083:17084   */\n      0x00\n        /* \"#utility.yul\":17076:17081   */\n      dup3\n        /* \"#utility.yul\":17046:17085   */\n      tag_170\n      jump\t// in\n    tag_352:\n        /* \"#utility.yul\":17019:17020   */\n      0x01\n        /* \"#utility.yul\":17012:17017   */\n      dup2\n        /* \"#utility.yul\":17008:17021   */\n      add\n        /* \"#utility.yul\":16999:17021   */\n      swap1\n      pop\n        /* \"#utility.yul\":16975:17095   */\n      jump(tag_349)\n    tag_351:\n        /* \"#utility.yul\":16915:17101   */\n      pop\n      pop\n      jump\t// out\n        /* \"#utility.yul\":17107:17650   */\n    tag_172:\n        /* \"#utility.yul\":17208:17210   */\n      0x1f\n        /* \"#utility.yul\":17203:17206   */\n      dup3\n        /* \"#utility.yul\":17200:17211   */\n      gt\n        /* \"#utility.yul\":17197:17643   */\n      iszero\n      tag_354\n      jumpi\n        /* \"#utility.yul\":17242:17280   */\n      tag_355\n        /* \"#utility.yul\":17274:17279   */\n      dup2\n        /* \"#utility.yul\":17242:17280   */\n      tag_161\n      jump\t// in\n    tag_355:\n        /* \"#utility.yul\":17326:17355   */\n      tag_356\n        /* \"#utility.yul\":17344:17354   */\n      dup5\n        /* \"#utility.yul\":17326:17355   */\n      tag_162\n      jump\t// in\n    tag_356:\n        /* \"#utility.yul\":17316:17324   */\n      dup2\n        /* \"#utility.yul\":17312:17356   */\n      add\n        /* \"#utility.yul\":17509:17511   */\n      0x20\n        /* \"#utility.yul\":17497:17507   */\n      dup6\n        /* \"#utility.yul\":17494:17512   */\n      lt\n        /* \"#utility.yul\":17491:17540   */\n      iszero\n      tag_357\n      jumpi\n        /* \"#utility.yul\":17530:17538   */\n      dup2\n        /* \"#utility.yul\":17515:17538   */\n      swap1\n      pop\n        /* \"#utility.yul\":17491:17540   */\n    tag_357:\n        /* \"#utility.yul\":17553:17633   */\n      tag_358\n        /* \"#utility.yul\":17609:17631   */\n      tag_359\n        /* \"#utility.yul\":17627:17630   */\n      dup6\n        /* \"#utility.yul\":17609:17631   */\n      tag_162\n      jump\t// in\n    tag_359:\n        /* \"#utility.yul\":17599:17607   */\n      dup4\n        /* \"#utility.yul\":17595:17632   */\n      add\n        /* \"#utility.yul\":17582:17593   */\n      dup3\n        /* \"#utility.yul\":17553:17633   */\n      tag_171\n      jump\t// in\n    tag_358:\n        /* \"#utility.yul\":17212:17643   */\n      pop\n      pop\n        /* \"#utility.yul\":17197:17643   */\n    tag_354:\n        /* \"#utility.yul\":17107:17650   */\n      pop\n      pop\n      pop\n      jump\t// out\n        /* \"#utility.yul\":17656:17773   */\n    tag_173:\n        /* \"#utility.yul\":17710:17718   */\n      0x00\n        /* \"#utility.yul\":17760:17765   */\n      dup3\n        /* \"#utility.yul\":17754:17758   */\n      dup3\n        /* \"#utility.yul\":17750:17766   */\n      shr\n        /* \"#utility.yul\":17729:17766   */\n      swap1\n      pop\n        /* \"#utility.yul\":17656:17773   */\n      swap3\n      swap2\n      pop\n      pop\n      jump\t// out\n        /* \"#utility.yul\":17779:17948   */\n    tag_174:\n        /* \"#utility.yul\":17823:17829   */\n      0x00\n        /* \"#utility.yul\":17856:17907   */\n      tag_362\n        /* \"#utility.yul\":17904:17905   */\n      0x00\n        /* \"#utility.yul\":17900:17906   */\n      not\n        /* \"#utility.yul\":17892:17897   */\n      dup5\n        /* \"#utility.yul\":17889:17890   */\n      0x08\n        /* \"#utility.yul\":17885:17898   */\n      mul\n        /* \"#utility.yul\":17856:17907   */\n      tag_173\n      jump\t// in\n    tag_362:\n        /* \"#utility.yul\":17852:17908   */\n      not\n        /* \"#utility.yul\":17937:17941   */\n      dup1\n        /* \"#utility.yul\":17931:17935   */\n      dup4\n        /* \"#utility.yul\":17927:17942   */\n      and\n        /* \"#utility.yul\":17917:17942   */\n      swap2\n      pop\n        /* \"#utility.yul\":17830:17948   */\n      pop\n        /* \"#utility.yul\":17779:17948   */\n      swap3\n      swap2\n      pop\n      pop\n      jump\t// out\n        /* \"#utility.yul\":17953:18248   */\n    tag_175:\n        /* \"#utility.yul\":18029:18033   */\n      0x00\n        /* \"#utility.yul\":18175:18204   */\n      tag_364\n        /* \"#utility.yul\":18200:18203   */\n      dup4\n        /* \"#utility.yul\":18194:18198   */\n      dup4\n        /* \"#utility.yul\":18175:18204   */\n      tag_174\n      jump\t// in\n    tag_364:\n        /* \"#utility.yul\":18167:18204   */\n      swap2\n      pop\n        /* \"#utility.yul\":18237:18240   */\n      dup3\n        /* \"#utility.yul\":18234:18235   */\n      0x02\n        /* \"#utility.yul\":18230:18241   */\n      mul\n        /* \"#utility.yul\":18224:18228   */\n      dup3\n        /* \"#utility.yul\":18221:18242   */\n      or\n        /* \"#utility.yul\":18213:18242   */\n      swap1\n      pop\n        /* \"#utility.yul\":17953:18248   */\n      swap3\n      swap2\n      pop\n      pop\n      jump\t// out\n        /* \"#utility.yul\":18253:19648   */\n    tag_82:\n        /* \"#utility.yul\":18370:18407   */\n      tag_366\n        /* \"#utility.yul\":18403:18406   */\n      dup3\n        /* \"#utility.yul\":18370:18407   */\n      tag_129\n      jump\t// in\n    tag_366:\n        /* \"#utility.yul\":18472:18490   */\n      0xffffffffffffffff\n        /* \"#utility.yul\":18464:18470   */\n      dup2\n        /* \"#utility.yul\":18461:18491   */\n      gt\n        /* \"#utility.yul\":18458:18514   */\n      iszero\n      tag_367\n      jumpi\n        /* \"#utility.yul\":18494:18512   */\n      tag_368\n      tag_148\n      jump\t// in\n    tag_368:\n        /* \"#utility.yul\":18458:18514   */\n    tag_367:\n        /* \"#utility.yul\":18538:18576   */\n      tag_369\n        /* \"#utility.yul\":18570:18574   */\n      dup3\n        /* \"#utility.yul\":18564:18575   */\n      sload\n        /* \"#utility.yul\":18538:18576   */\n      tag_50\n      jump\t// in\n    tag_369:\n        /* \"#utility.yul\":18623:18690   */\n      tag_370\n        /* \"#utility.yul\":18683:18689   */\n      dup3\n        /* \"#utility.yul\":18675:18681   */\n      dup3\n        /* \"#utility.yul\":18669:18673   */\n      dup6\n        /* \"#utility.yul\":18623:18690   */\n      tag_172\n      jump\t// in\n    tag_370:\n        /* \"#utility.yul\":18717:18718   */\n      0x00\n        /* \"#utility.yul\":18741:18745   */\n      0x20\n        /* \"#utility.yul\":18728:18745   */\n      swap1\n      pop\n        /* \"#utility.yul\":18773:18775   */\n      0x1f\n        /* \"#utility.yul\":18765:18771   */\n      dup4\n        /* \"#utility.yul\":18762:18776   */\n      gt\n        /* \"#utility.yul\":18790:18791   */\n      0x01\n        /* \"#utility.yul\":18785:19403   */\n      dup2\n      eq\n      tag_372\n      jumpi\n        /* \"#utility.yul\":19447:19448   */\n      0x00\n        /* \"#utility.yul\":19464:19470   */\n      dup5\n        /* \"#utility.yul\":19461:19538   */\n      iszero\n      tag_373\n      jumpi\n        /* \"#utility.yul\":19513:19522   */\n      dup3\n        /* \"#utility.yul\":19508:19511   */\n      dup8\n        /* \"#utility.yul\":19504:19523   */\n      add\n        /* \"#utility.yul\":19498:19524   */\n      mload\n        /* \"#utility.yul\":19489:19524   */\n      swap1\n      pop\n        /* \"#utility.yul\":19461:19538   */\n    tag_373:\n        /* \"#utility.yul\":19564:19631   */\n      tag_374\n        /* \"#utility.yul\":19624:19630   */\n      dup6\n        /* \"#utility.yul\":19617:19622   */\n      dup3\n        /* \"#utility.yul\":19564:19631   */\n      tag_175\n      jump\t// in\n    tag_374:\n        /* \"#utility.yul\":19558:19562   */\n      dup7\n        /* \"#utility.yul\":19551:19632   */\n      sstore\n        /* \"#utility.yul\":19420:19642   */\n      pop\n        /* \"#utility.yul\":18755:19642   */\n      jump(tag_371)\n        /* \"#utility.yul\":18785:19403   */\n    tag_372:\n        /* \"#utility.yul\":18837:18841   */\n      0x1f\n        /* \"#utility.yul\":18833:18842   */\n      not\n        /* \"#utility.yul\":18825:18831   */\n      dup5\n        /* \"#utility.yul\":18821:18843   */\n      and\n        /* \"#utility.yul\":18871:18908   */\n      tag_375\n        /* \"#utility.yul\":18903:18907   */\n      dup7\n        /* \"#utility.yul\":18871:18908   */\n      tag_161\n      jump\t// in\n    tag_375:\n        /* \"#utility.yul\":18930:18931   */\n      0x00\n        /* \"#utility.yul\":18944:19152   */\n    tag_376:\n        /* \"#utility.yul\":18958:18965   */\n      dup3\n        /* \"#utility.yul\":18955:18956   */\n      dup2\n        /* \"#utility.yul\":18952:18966   */\n      lt\n        /* \"#utility.yul\":18944:19152   */\n      iszero\n      tag_378\n      jumpi\n        /* \"#utility.yul\":19037:19046   */\n      dup5\n        /* \"#utility.yul\":19032:19035   */\n      dup10\n        /* \"#utility.yul\":19028:19047   */\n      add\n        /* \"#utility.yul\":19022:19048   */\n      mload\n        /* \"#utility.yul\":19014:19020   */\n      dup3\n        /* \"#utility.yul\":19007:19049   */\n      sstore\n        /* \"#utility.yul\":19088:19089   */\n      0x01\n        /* \"#utility.yul\":19080:19086   */\n      dup3\n        /* \"#utility.yul\":19076:19090   */\n      add\n        /* \"#utility.yul\":19066:19090   */\n      swap2\n      pop\n        /* \"#utility.yul\":19135:19137   */\n      0x20\n        /* \"#utility.yul\":19124:19133   */\n      dup6\n        /* \"#utility.yul\":19120:19138   */\n      add\n        /* \"#utility.yul\":19107:19138   */\n      swap5\n      pop\n        /* \"#utility.yul\":18981:18985   */\n      0x20\n        /* \"#utility.yul\":18978:18979   */\n      dup2\n        /* \"#utility.yul\":18974:18986   */\n      add\n        /* \"#utility.yul\":18969:18986   */\n      swap1\n      pop\n        /* \"#utility.yul\":18944:19152   */\n      jump(tag_376)\n    tag_378:\n        /* \"#utility.yul\":19180:19186   */\n      dup7\n        /* \"#utility.yul\":19171:19178   */\n      dup4\n        /* \"#utility.yul\":19168:19187   */\n      lt\n        /* \"#utility.yul\":19165:19344   */\n      iszero\n      tag_379\n      jumpi\n        /* \"#utility.yul\":19238:19247   */\n      dup5\n        /* \"#utility.yul\":19233:19236   */\n      dup10\n        /* \"#utility.yul\":19229:19248   */\n      add\n        /* \"#utility.yul\":19223:19249   */\n      mload\n        /* \"#utility.yul\":19281:19329   */\n      tag_380\n        /* \"#utility.yul\":19323:19327   */\n      0x1f\n        /* \"#utility.yul\":19315:19321   */\n      dup10\n        /* \"#utility.yul\":19311:19328   */\n      and\n        /* \"#utility.yul\":19300:19309   */\n      dup3\n        /* \"#utility.yul\":19281:19329   */\n      tag_174\n      jump\t// in\n    tag_380:\n        /* \"#utility.yul\":19273:19279   */\n      dup4\n        /* \"#utility.yul\":19266:19330   */\n      sstore\n        /* \"#utility.yul\":19188:19344   */\n      pop\n        /* \"#utility.yul\":19165:19344   */\n    tag_379:\n        /* \"#utility.yul\":19390:19391   */\n      0x01\n        /* \"#utility.yul\":19386:19387   */\n      0x02\n        /* \"#utility.yul\":19378:19384   */\n      dup9\n        /* \"#utility.yul\":19374:19388   */\n      mul\n        /* \"#utility.yul\":19370:19392   */\n      add\n        /* \"#utility.yul\":19364:19368   */\n      dup9\n        /* \"#utility.yul\":19357:19393   */\n      sstore\n        /* \"#utility.yul\":18792:19403   */\n      pop\n      pop\n      pop\n        /* \"#utility.yul\":18755:19642   */\n    tag_371:\n      pop\n        /* \"#utility.yul\":18345:19648   */\n      pop\n      pop\n      pop\n        /* \"#utility.yul\":18253:19648   */\n      pop\n      pop\n      jump\t// out\n        /* \"#utility.yul\":19654:19825   */\n    tag_176:\n        /* \"#utility.yul\":19794:19817   */\n      0x547765657420646f6573206e6f74206578697374730000000000000000000000\n        /* \"#utility.yul\":19790:19791   */\n      0x00\n        /* \"#utility.yul\":19782:19788   */\n      dup3\n        /* \"#utility.yul\":19778:19792   */\n      add\n        /* \"#utility.yul\":19771:19818   */\n      mstore\n        /* \"#utility.yul\":19654:19825   */\n      pop\n      jump\t// out\n        /* \"#utility.yul\":19831:20197   */\n    tag_177:\n        /* \"#utility.yul\":19973:19976   */\n      0x00\n        /* \"#utility.yul\":19994:20061   */\n      tag_383\n        /* \"#utility.yul\":20058:20060   */\n      0x15\n        /* \"#utility.yul\":20053:20056   */\n      dup4\n        /* \"#utility.yul\":19994:20061   */\n      tag_130\n      jump\t// in\n    tag_383:\n        /* \"#utility.yul\":19987:20061   */\n      swap2\n      pop\n        /* \"#utility.yul\":20070:20163   */\n      tag_384\n        /* \"#utility.yul\":20159:20162   */\n      dup3\n        /* \"#utility.yul\":20070:20163   */\n      tag_176\n      jump\t// in\n    tag_384:\n        /* \"#utility.yul\":20188:20190   */\n      0x20\n        /* \"#utility.yul\":20183:20186   */\n      dup3\n        /* \"#utility.yul\":20179:20191   */\n      add\n        /* \"#utility.yul\":20172:20191   */\n      swap1\n      pop\n        /* \"#utility.yul\":19831:20197   */\n      swap2\n      swap1\n      pop\n      jump\t// out\n        /* \"#utility.yul\":20203:20622   */\n    tag_89:\n        /* \"#utility.yul\":20369:20373   */\n      0x00\n        /* \"#utility.yul\":20407:20409   */\n      0x20\n        /* \"#utility.yul\":20396:20405   */\n      dup3\n        /* \"#utility.yul\":20392:20410   */\n      add\n        /* \"#utility.yul\":20384:20410   */\n      swap1\n      pop\n        /* \"#utility.yul\":20456:20465   */\n      dup2\n        /* \"#utility.yul\":20450:20454   */\n      dup2\n        /* \"#utility.yul\":20446:20466   */\n      sub\n        /* \"#utility.yul\":20442:20443   */\n      0x00\n        /* \"#utility.yul\":20431:20440   */\n      dup4\n        /* \"#utility.yul\":20427:20444   */\n      add\n        /* \"#utility.yul\":20420:20467   */\n      mstore\n        /* \"#utility.yul\":20484:20615   */\n      tag_386\n        /* \"#utility.yul\":20610:20614   */\n      dup2\n        /* \"#utility.yul\":20484:20615   */\n      tag_177\n      jump\t// in\n    tag_386:\n        /* \"#utility.yul\":20476:20615   */\n      swap1\n      pop\n        /* \"#utility.yul\":20203:20622   */\n      swap2\n      swap1\n      pop\n      jump\t// out\n        /* \"#utility.yul\":20628:20796   */\n    tag_178:\n        /* \"#utility.yul\":20768:20788   */\n      0x547765657420686173206e6f206c696b65730000000000000000000000000000\n        /* \"#utility.yul\":20764:20765   */\n      0x00\n        /* \"#utility.yul\":20756:20762   */\n      dup3\n        /* \"#utility.yul\":20752:20766   */\n      add\n        /* \"#utility.yul\":20745:20789   */\n      mstore\n        /* \"#utility.yul\":20628:20796   */\n      pop\n      jump\t// out\n        /* \"#utility.yul\":20802:21168   */\n    tag_179:\n        /* \"#utility.yul\":20944:20947   */\n      0x00\n        /* \"#utility.yul\":20965:21032   */\n      tag_389\n        /* \"#utility.yul\":21029:21031   */\n      0x12\n        /* \"#utility.yul\":21024:21027   */\n      dup4\n        /* \"#utility.yul\":20965:21032   */\n      tag_130\n      jump\t// in\n    tag_389:\n        /* \"#utility.yul\":20958:21032   */\n      swap2\n      pop\n        /* \"#utility.yul\":21041:21134   */\n      tag_390\n        /* \"#utility.yul\":21130:21133   */\n      dup3\n        /* \"#utility.yul\":21041:21134   */\n      tag_178\n      jump\t// in\n    tag_390:\n        /* \"#utility.yul\":21159:21161   */\n      0x20\n        /* \"#utility.yul\":21154:21157   */\n      dup3\n        /* \"#utility.yul\":21150:21162   */\n      add\n        /* \"#utility.yul\":21143:21162   */\n      swap1\n      pop\n        /* \"#utility.yul\":20802:21168   */\n      swap2\n      swap1\n      pop\n      jump\t// out\n        /* \"#utility.yul\":21174:21593   */\n    tag_95:\n        /* \"#utility.yul\":21340:21344   */\n      0x00\n        /* \"#utility.yul\":21378:21380   */\n      0x20\n        /* \"#utility.yul\":21367:21376   */\n      dup3\n        /* \"#utility.yul\":21363:21381   */\n      add\n        /* \"#utility.yul\":21355:21381   */\n      swap1\n      pop\n        /* \"#utility.yul\":21427:21436   */\n      dup2\n        /* \"#utility.yul\":21421:21425   */\n      dup2\n        /* \"#utility.yul\":21417:21437   */\n      sub\n        /* \"#utility.yul\":21413:21414   */\n      0x00\n        /* \"#utility.yul\":21402:21411   */\n      dup4\n        /* \"#utility.yul\":21398:21415   */\n      add\n        /* \"#utility.yul\":21391:21438   */\n      mstore\n        /* \"#utility.yul\":21455:21586   */\n      tag_392\n        /* \"#utility.yul\":21581:21585   */\n      dup2\n        /* \"#utility.yul\":21455:21586   */\n      tag_179\n      jump\t// in\n    tag_392:\n        /* \"#utility.yul\":21447:21586   */\n      swap1\n      pop\n        /* \"#utility.yul\":21174:21593   */\n      swap2\n      swap1\n      pop\n      jump\t// out\n        /* \"#utility.yul\":21599:21779   */\n    tag_180:\n        /* \"#utility.yul\":21647:21724   */\n      0x4e487b7100000000000000000000000000000000000000000000000000000000\n        /* \"#utility.yul\":21644:21645   */\n      0x00\n        /* \"#utility.yul\":21637:21725   */\n      mstore\n        /* \"#utility.yul\":21744:21748   */\n      0x11\n        /* \"#utility.yul\":21741:21742   */\n      0x04\n        /* \"#utility.yul\":21734:21749   */\n      mstore\n        /* \"#utility.yul\":21768:21772   */\n      0x24\n        /* \"#utility.yul\":21765:21766   */\n      0x00\n        /* \"#utility.yul\":21758:21773   */\n      revert\n        /* \"#utility.yul\":21785:21956   */\n    tag_100:\n        /* \"#utility.yul\":21824:21827   */\n      0x00\n        /* \"#utility.yul\":21847:21871   */\n      tag_395\n        /* \"#utility.yul\":21865:21870   */\n      dup3\n        /* \"#utility.yul\":21847:21871   */\n      tag_124\n      jump\t// in\n    tag_395:\n        /* \"#utility.yul\":21838:21871   */\n      swap2\n      pop\n        /* \"#utility.yul\":21893:21897   */\n      0x00\n        /* \"#utility.yul\":21886:21891   */\n      dup3\n        /* \"#utility.yul\":21883:21898   */\n      sub\n        /* \"#utility.yul\":21880:21921   */\n      tag_396\n      jumpi\n        /* \"#utility.yul\":21901:21919   */\n      tag_397\n      tag_180\n      jump\t// in\n    tag_397:\n        /* \"#utility.yul\":21880:21921   */\n    tag_396:\n        /* \"#utility.yul\":21948:21949   */\n      0x01\n        /* \"#utility.yul\":21941:21946   */\n      dup3\n        /* \"#utility.yul\":21937:21950   */\n      sub\n        /* \"#utility.yul\":21930:21950   */\n      swap1\n      pop\n        /* \"#utility.yul\":21785:21956   */\n      swap2\n      swap1\n      pop\n      jump\t// out\n        /* \"#utility.yul\":21962:22188   */\n    tag_181:\n        /* \"#utility.yul\":22102:22136   */\n      0x596f7520646f206e6f7420686176652061636365737320746f20746865206578\n        /* \"#utility.yul\":22098:22099   */\n      0x00\n        /* \"#utility.yul\":22090:22096   */\n      dup3\n        /* \"#utility.yul\":22086:22100   */\n      add\n        /* \"#utility.yul\":22079:22137   */\n      mstore\n        /* \"#utility.yul\":22171:22180   */\n      0x65637574696f6e00000000000000000000000000000000000000000000000000\n        /* \"#utility.yul\":22166:22168   */\n      0x20\n        /* \"#utility.yul\":22158:22164   */\n      dup3\n        /* \"#utility.yul\":22154:22169   */\n      add\n        /* \"#utility.yul\":22147:22181   */\n      mstore\n        /* \"#utility.yul\":21962:22188   */\n      pop\n      jump\t// out\n        /* \"#utility.yul\":22194:22560   */\n    tag_182:\n        /* \"#utility.yul\":22336:22339   */\n      0x00\n        /* \"#utility.yul\":22357:22424   */\n      tag_400\n        /* \"#utility.yul\":22421:22423   */\n      0x27\n        /* \"#utility.yul\":22416:22419   */\n      dup4\n        /* \"#utility.yul\":22357:22424   */\n      tag_130\n      jump\t// in\n    tag_400:\n        /* \"#utility.yul\":22350:22424   */\n      swap2\n      pop\n        /* \"#utility.yul\":22433:22526   */\n      tag_401\n        /* \"#utility.yul\":22522:22525   */\n      dup3\n        /* \"#utility.yul\":22433:22526   */\n      tag_181\n      jump\t// in\n    tag_401:\n        /* \"#utility.yul\":22551:22553   */\n      0x40\n        /* \"#utility.yul\":22546:22549   */\n      dup3\n        /* \"#utility.yul\":22542:22554   */\n      add\n        /* \"#utility.yul\":22535:22554   */\n      swap1\n      pop\n        /* \"#utility.yul\":22194:22560   */\n      swap2\n      swap1\n      pop\n      jump\t// out\n        /* \"#utility.yul\":22566:22985   */\n    tag_104:\n        /* \"#utility.yul\":22732:22736   */\n      0x00\n        /* \"#utility.yul\":22770:22772   */\n      0x20\n        /* \"#utility.yul\":22759:22768   */\n      dup3\n        /* \"#utility.yul\":22755:22773   */\n      add\n        /* \"#utility.yul\":22747:22773   */\n      swap1\n      pop\n        /* \"#utility.yul\":22819:22828   */\n      dup2\n        /* \"#utility.yul\":22813:22817   */\n      dup2\n        /* \"#utility.yul\":22809:22829   */\n      sub\n        /* \"#utility.yul\":22805:22806   */\n      0x00\n        /* \"#utility.yul\":22794:22803   */\n      dup4\n        /* \"#utility.yul\":22790:22807   */\n      add\n        /* \"#utility.yul\":22783:22830   */\n      mstore\n        /* \"#utility.yul\":22847:22978   */\n      tag_403\n        /* \"#utility.yul\":22973:22977   */\n      dup2\n        /* \"#utility.yul\":22847:22978   */\n      tag_182\n      jump\t// in\n    tag_403:\n        /* \"#utility.yul\":22839:22978   */\n      swap1\n      pop\n        /* \"#utility.yul\":22566:22985   */\n      swap2\n      swap1\n      pop\n      jump\t// out\n        /* \"#utility.yul\":22991:23224   */\n    tag_116:\n        /* \"#utility.yul\":23030:23033   */\n      0x00\n        /* \"#utility.yul\":23053:23077   */\n      tag_405\n        /* \"#utility.yul\":23071:23076   */\n      dup3\n        /* \"#utility.yul\":23053:23077   */\n      tag_124\n      jump\t// in\n    tag_405:\n        /* \"#utility.yul\":23044:23077   */\n      swap2\n      pop\n        /* \"#utility.yul\":23099:23165   */\n      0xffffffffffffffffffffffffffffffffffffffffffffffffffffffffffffffff\n        /* \"#utility.yul\":23092:23097   */\n      dup3\n        /* \"#utility.yul\":23089:23166   */\n      sub\n        /* \"#utility.yul\":23086:23189   */\n      tag_406\n      jumpi\n        /* \"#utility.yul\":23169:23187   */\n      tag_407\n      tag_180\n      jump\t// in\n    tag_407:\n        /* \"#utility.yul\":23086:23189   */\n    tag_406:\n        /* \"#utility.yul\":23216:23217   */\n      0x01\n        /* \"#utility.yul\":23209:23214   */\n      dup3\n        /* \"#utility.yul\":23205:23218   */\n      add\n        /* \"#utility.yul\":23198:23218   */\n      swap1\n      pop\n        /* \"#utility.yul\":22991:23224   */\n      swap2\n      swap1\n      pop\n      jump\t// out\n\n    auxdata: 0xa2646970667358221220551e7b8c79fc68ca9aabae5b8a619683f32f0906bfa49a09944407c18ce4877164736f6c63430008160033\n}\n",
				"bytecode": {
					"linkReferences": {},
					"object": "60806040526101185f806101000a81548161ffff021916908361ffff16021790555034801561002c575f80fd5b50335f60026101000a81548173ffffffffffffffffffffffffffffffffffffffff021916908373ffffffffffffffffffffffffffffffffffffffff1602179055506117358061007a5f395ff3fe608060405234801561000f575f80fd5b5060043610610086575f3560e01c80633d9b569f116100595780633d9b569f1461013a57806358bfa4ab1461015657806363378216146101725780638da5cb5b1461018e57610086565b806305a1b4a91461008a578063112f54e3146100be57806312e7ee1c146100ee57806317d7f8201461011e575b5f80fd5b6100a4600480360381019061009f9190610be4565b6101ac565b6040516100b5959493929190610cca565b60405180910390f35b6100d860048036038101906100d39190610be4565b61029d565b6040516100e59190610dfb565b60405180910390f35b61010860048036038101906101039190610e1b565b610415565b6040516101159190610f74565b60405180910390f35b610138600480360381019061013391906110c0565b6105b0565b005b610154600480360381019061014f9190610be4565b610767565b005b610170600480360381019061016b919061113e565b61091d565b005b61018c60048036038101906101879190610be4565b6109ca565b005b610196610ae0565b6040516101a39190611169565b60405180910390f35b6001602052815f5260405f2081815481106101c5575f80fd5b905f5260205f2090600502015f9150915050805f015490806001015f9054906101000a900473ffffffffffffffffffffffffffffffffffffffff1690806002018054610210906111af565b80601f016020809104026020016040519081016040528092919081815260200182805461023c906111af565b80156102875780601f1061025e57610100808354040283529160200191610287565b820191905f5260205f20905b81548152906001019060200180831161026a57829003601f168201915b5050505050908060030154908060040154905085565b6102a5610b05565b60015f8473ffffffffffffffffffffffffffffffffffffffff1673ffffffffffffffffffffffffffffffffffffffff1681526020019081526020015f2082815481106102f4576102f36111df565b5b905f5260205f2090600502016040518060a00160405290815f8201548152602001600182015f9054906101000a900473ffffffffffffffffffffffffffffffffffffffff1673ffffffffffffffffffffffffffffffffffffffff1673ffffffffffffffffffffffffffffffffffffffff168152602001600282018054610379906111af565b80601f01602080910402602001604051908101604052809291908181526020018280546103a5906111af565b80156103f05780601f106103c7576101008083540402835291602001916103f0565b820191905f5260205f20905b8154815290600101906020018083116103d357829003601f168201915b5050505050815260200160038201548152602001600482015481525050905092915050565b606060015f8373ffffffffffffffffffffffffffffffffffffffff1673ffffffffffffffffffffffffffffffffffffffff1681526020019081526020015f20805480602002602001604051908101604052809291908181526020015f905b828210156105a5578382905f5260205f2090600502016040518060a00160405290815f8201548152602001600182015f9054906101000a900473ffffffffffffffffffffffffffffffffffffffff1673ffffffffffffffffffffffffffffffffffffffff1673ffffffffffffffffffffffffffffffffffffffff168152602001600282018054610502906111af565b80601f016020809104026020016040519081016040528092919081815260200182805461052e906111af565b80156105795780601f1061055057610100808354040283529160200191610579565b820191905f5260205f20905b81548152906001019060200180831161055c57829003601f168201915b505050505081526020016003820154815260200160048201548152505081526020019060010190610473565b505050509050919050565b5f8054906101000a900461ffff1661ffff1681511115610605576040517f08c379a00000000000000000000000000000000000000000000000000000000081526004016105fc9061127c565b60405180910390fd5b5f6040518060a0016040528060015f3373ffffffffffffffffffffffffffffffffffffffff1673ffffffffffffffffffffffffffffffffffffffff1681526020019081526020015f208054905081526020013373ffffffffffffffffffffffffffffffffffffffff1681526020018381526020014281526020015f815250905060015f3373ffffffffffffffffffffffffffffffffffffffff1673ffffffffffffffffffffffffffffffffffffffff1681526020019081526020015f2081908060018154018082558091505060019003905f5260205f2090600502015f909190919091505f820151815f01556020820151816001015f6101000a81548173ffffffffffffffffffffffffffffffffffffffff021916908373ffffffffffffffffffffffffffffffffffffffff160217905550604082015181600201908161074c9190611437565b50606082015181600301556080820151816004015550505050565b8060015f8473ffffffffffffffffffffffffffffffffffffffff1673ffffffffffffffffffffffffffffffffffffffff1681526020019081526020015f2082815481106107b7576107b66111df565b5b905f5260205f2090600502015f015414610806576040517f08c379a00000000000000000000000000000000000000000000000000000000081526004016107fd90611550565b60405180910390fd5b5f60015f8473ffffffffffffffffffffffffffffffffffffffff1673ffffffffffffffffffffffffffffffffffffffff1681526020019081526020015f208281548110610856576108556111df565b5b905f5260205f20906005020160040154116108a6576040517f08c379a000000000000000000000000000000000000000000000000000000000815260040161089d906115b8565b60405180910390fd5b60015f8373ffffffffffffffffffffffffffffffffffffffff1673ffffffffffffffffffffffffffffffffffffffff1681526020019081526020015f2081815481106108f5576108f46111df565b5b905f5260205f2090600502016004015f81548092919061091490611603565b91905055505050565b5f60029054906101000a900473ffffffffffffffffffffffffffffffffffffffff1673ffffffffffffffffffffffffffffffffffffffff163373ffffffffffffffffffffffffffffffffffffffff16146109ac576040517f08c379a00000000000000000000000000000000000000000000000000000000081526004016109a39061169a565b60405180910390fd5b805f806101000a81548161ffff021916908361ffff16021790555050565b8060015f8473ffffffffffffffffffffffffffffffffffffffff1673ffffffffffffffffffffffffffffffffffffffff1681526020019081526020015f208281548110610a1a57610a196111df565b5b905f5260205f2090600502015f015414610a69576040517f08c379a0000000000000000000000000000000000000000000000000000000008152600401610a6090611550565b60405180910390fd5b60015f8373ffffffffffffffffffffffffffffffffffffffff1673ffffffffffffffffffffffffffffffffffffffff1681526020019081526020015f208181548110610ab857610ab76111df565b5b905f5260205f2090600502016004015f815480929190610ad7906116b8565b91905055505050565b5f60029054906101000a900473ffffffffffffffffffffffffffffffffffffffff1681565b6040518060a001604052805f81526020015f73ffffffffffffffffffffffffffffffffffffffff168152602001606081526020015f81526020015f81525090565b5f604051905090565b5f80fd5b5f80fd5b5f73ffffffffffffffffffffffffffffffffffffffff82169050919050565b5f610b8082610b57565b9050919050565b610b9081610b76565b8114610b9a575f80fd5b50565b5f81359050610bab81610b87565b92915050565b5f819050919050565b610bc381610bb1565b8114610bcd575f80fd5b50565b5f81359050610bde81610bba565b92915050565b5f8060408385031215610bfa57610bf9610b4f565b5b5f610c0785828601610b9d565b9250506020610c1885828601610bd0565b9150509250929050565b610c2b81610bb1565b82525050565b610c3a81610b76565b82525050565b5f81519050919050565b5f82825260208201905092915050565b5f5b83811015610c77578082015181840152602081019050610c5c565b5f8484015250505050565b5f601f19601f8301169050919050565b5f610c9c82610c40565b610ca68185610c4a565b9350610cb6818560208601610c5a565b610cbf81610c82565b840191505092915050565b5f60a082019050610cdd5f830188610c22565b610cea6020830187610c31565b8181036040830152610cfc8186610c92565b9050610d0b6060830185610c22565b610d186080830184610c22565b9695505050505050565b610d2b81610bb1565b82525050565b610d3a81610b76565b82525050565b5f82825260208201905092915050565b5f610d5a82610c40565b610d648185610d40565b9350610d74818560208601610c5a565b610d7d81610c82565b840191505092915050565b5f60a083015f830151610d9d5f860182610d22565b506020830151610db06020860182610d31565b5060408301518482036040860152610dc88282610d50565b9150506060830151610ddd6060860182610d22565b506080830151610df06080860182610d22565b508091505092915050565b5f6020820190508181035f830152610e138184610d88565b905092915050565b5f60208284031215610e3057610e2f610b4f565b5b5f610e3d84828501610b9d565b91505092915050565b5f81519050919050565b5f82825260208201905092915050565b5f819050602082019050919050565b5f60a083015f830151610e845f860182610d22565b506020830151610e976020860182610d31565b5060408301518482036040860152610eaf8282610d50565b9150506060830151610ec46060860182610d22565b506080830151610ed76080860182610d22565b508091505092915050565b5f610eed8383610e6f565b905092915050565b5f602082019050919050565b5f610f0b82610e46565b610f158185610e50565b935083602082028501610f2785610e60565b805f5b85811015610f625784840389528151610f438582610ee2565b9450610f4e83610ef5565b925060208a01995050600181019050610f2a565b50829750879550505050505092915050565b5f6020820190508181035f830152610f8c8184610f01565b905092915050565b5f80fd5b5f80fd5b7f4e487b71000000000000000000000000000000000000000000000000000000005f52604160045260245ffd5b610fd282610c82565b810181811067ffffffffffffffff82111715610ff157610ff0610f9c565b5b80604052505050565b5f611003610b46565b905061100f8282610fc9565b919050565b5f67ffffffffffffffff82111561102e5761102d610f9c565b5b61103782610c82565b9050602081019050919050565b828183375f83830152505050565b5f61106461105f84611014565b610ffa565b9050828152602081018484840111156110805761107f610f98565b5b61108b848285611044565b509392505050565b5f82601f8301126110a7576110a6610f94565b5b81356110b7848260208601611052565b91505092915050565b5f602082840312156110d5576110d4610b4f565b5b5f82013567ffffffffffffffff8111156110f2576110f1610b53565b5b6110fe84828501611093565b91505092915050565b5f61ffff82169050919050565b61111d81611107565b8114611127575f80fd5b50565b5f8135905061113881611114565b92915050565b5f6020828403121561115357611152610b4f565b5b5f6111608482850161112a565b91505092915050565b5f60208201905061117c5f830184610c31565b92915050565b7f4e487b71000000000000000000000000000000000000000000000000000000005f52602260045260245ffd5b5f60028204905060018216806111c657607f821691505b6020821081036111d9576111d8611182565b5b50919050565b7f4e487b71000000000000000000000000000000000000000000000000000000005f52603260045260245ffd5b7f457863656564732074686520636861726163746572206c696d697420666f72205f8201527f612073696e676c65207477656574000000000000000000000000000000000000602082015250565b5f611266602e83610c4a565b91506112718261120c565b604082019050919050565b5f6020820190508181035f8301526112938161125a565b9050919050565b5f819050815f5260205f209050919050565b5f6020601f8301049050919050565b5f82821b905092915050565b5f600883026112f67fffffffffffffffffffffffffffffffffffffffffffffffffffffffffffffffff826112bb565b61130086836112bb565b95508019841693508086168417925050509392505050565b5f819050919050565b5f61133b61133661133184610bb1565b611318565b610bb1565b9050919050565b5f819050919050565b61135483611321565b61136861136082611342565b8484546112c7565b825550505050565b5f90565b61137c611370565b61138781848461134b565b505050565b5b818110156113aa5761139f5f82611374565b60018101905061138d565b5050565b601f8211156113ef576113c08161129a565b6113c9846112ac565b810160208510156113d8578190505b6113ec6113e4856112ac565b83018261138c565b50505b505050565b5f82821c905092915050565b5f61140f5f19846008026113f4565b1980831691505092915050565b5f6114278383611400565b9150826002028217905092915050565b61144082610c40565b67ffffffffffffffff81111561145957611458610f9c565b5b61146382546111af565b61146e8282856113ae565b5f60209050601f83116001811461149f575f841561148d578287015190505b611497858261141c565b8655506114fe565b601f1984166114ad8661129a565b5f5b828110156114d4578489015182556001820191506020850194506020810190506114af565b868310156114f157848901516114ed601f891682611400565b8355505b6001600288020188555050505b505050505050565b7f547765657420646f6573206e6f742065786973747300000000000000000000005f82015250565b5f61153a601583610c4a565b915061154582611506565b602082019050919050565b5f6020820190508181035f8301526115678161152e565b9050919050565b7f547765657420686173206e6f206c696b657300000000000000000000000000005f82015250565b5f6115a2601283610c4a565b91506115ad8261156e565b602082019050919050565b5f6020820190508181035f8301526115cf81611596565b9050919050565b7f4e487b71000000000000000000000000000000000000000000000000000000005f52601160045260245ffd5b5f61160d82610bb1565b91505f820361161f5761161e6115d6565b5b600182039050919050565b7f596f7520646f206e6f7420686176652061636365737320746f207468652065785f8201527f65637574696f6e00000000000000000000000000000000000000000000000000602082015250565b5f611684602783610c4a565b915061168f8261162a565b604082019050919050565b5f6020820190508181035f8301526116b181611678565b9050919050565b5f6116c282610bb1565b91507fffffffffffffffffffffffffffffffffffffffffffffffffffffffffffffffff82036116f4576116f36115d6565b5b60018201905091905056fea2646970667358221220551e7b8c79fc68ca9aabae5b8a619683f32f0906bfa49a09944407c18ce4877164736f6c63430008160033",
					"opcodes": "PUSH1 0x80 PUSH1 0x40 MSTORE PUSH2 0x118 PUSH0 DUP1 PUSH2 0x100 EXP DUP2 SLOAD DUP2 PUSH2 0xFFFF MUL NOT AND SWAP1 DUP4 PUSH2 0xFFFF AND MUL OR SWAP1 SSTORE POP CALLVALUE DUP1 ISZERO PUSH2 0x2C JUMPI PUSH0 DUP1 REVERT JUMPDEST POP CALLER PUSH0 PUSH1 0x2 PUSH2 0x100 EXP DUP2 SLOAD DUP2 PUSH20 0xFFFFFFFFFFFFFFFFFFFFFFFFFFFFFFFFFFFFFFFF MUL NOT AND SWAP1 DUP4 PUSH20 0xFFFFFFFFFFFFFFFFFFFFFFFFFFFFFFFFFFFFFFFF AND MUL OR SWAP1 SSTORE POP PUSH2 0x1735 DUP1 PUSH2 0x7A PUSH0 CODECOPY PUSH0 RETURN INVALID PUSH1 0x80 PUSH1 0x40 MSTORE CALLVALUE DUP1 ISZERO PUSH2 0xF JUMPI PUSH0 DUP1 REVERT JUMPDEST POP PUSH1 0x4 CALLDATASIZE LT PUSH2 0x86 JUMPI PUSH0 CALLDATALOAD PUSH1 0xE0 SHR DUP1 PUSH4 0x3D9B569F GT PUSH2 0x59 JUMPI DUP1 PUSH4 0x3D9B569F EQ PUSH2 0x13A JUMPI DUP1 PUSH4 0x58BFA4AB EQ PUSH2 0x156 JUMPI DUP1 PUSH4 0x63378216 EQ PUSH2 0x172 JUMPI DUP1 PUSH4 0x8DA5CB5B EQ PUSH2 0x18E JUMPI PUSH2 0x86 JUMP JUMPDEST DUP1 PUSH4 0x5A1B4A9 EQ PUSH2 0x8A JUMPI DUP1 PUSH4 0x112F54E3 EQ PUSH2 0xBE JUMPI DUP1 PUSH4 0x12E7EE1C EQ PUSH2 0xEE JUMPI DUP1 PUSH4 0x17D7F820 EQ PUSH2 0x11E JUMPI JUMPDEST PUSH0 DUP1 REVERT JUMPDEST PUSH2 0xA4 PUSH1 0x4 DUP1 CALLDATASIZE SUB DUP2 ADD SWAP1 PUSH2 0x9F SWAP2 SWAP1 PUSH2 0xBE4 JUMP JUMPDEST PUSH2 0x1AC JUMP JUMPDEST PUSH1 0x40 MLOAD PUSH2 0xB5 SWAP6 SWAP5 SWAP4 SWAP3 SWAP2 SWAP1 PUSH2 0xCCA JUMP JUMPDEST PUSH1 0x40 MLOAD DUP1 SWAP2 SUB SWAP1 RETURN JUMPDEST PUSH2 0xD8 PUSH1 0x4 DUP1 CALLDATASIZE SUB DUP2 ADD SWAP1 PUSH2 0xD3 SWAP2 SWAP1 PUSH2 0xBE4 JUMP JUMPDEST PUSH2 0x29D JUMP JUMPDEST PUSH1 0x40 MLOAD PUSH2 0xE5 SWAP2 SWAP1 PUSH2 0xDFB JUMP JUMPDEST PUSH1 0x40 MLOAD DUP1 SWAP2 SUB SWAP1 RETURN JUMPDEST PUSH2 0x108 PUSH1 0x4 DUP1 CALLDATASIZE SUB DUP2 ADD SWAP1 PUSH2 0x103 SWAP2 SWAP1 PUSH2 0xE1B JUMP JUMPDEST PUSH2 0x415 JUMP JUMPDEST PUSH1 0x40 MLOAD PUSH2 0x115 SWAP2 SWAP1 PUSH2 0xF74 JUMP JUMPDEST PUSH1 0x40 MLOAD DUP1 SWAP2 SUB SWAP1 RETURN JUMPDEST PUSH2 0x138 PUSH1 0x4 DUP1 CALLDATASIZE SUB DUP2 ADD SWAP1 PUSH2 0x133 SWAP2 SWAP1 PUSH2 0x10C0 JUMP JUMPDEST PUSH2 0x5B0 JUMP JUMPDEST STOP JUMPDEST PUSH2 0x154 PUSH1 0x4 DUP1 CALLDATASIZE SUB DUP2 ADD SWAP1 PUSH2 0x14F SWAP2 SWAP1 PUSH2 0xBE4 JUMP JUMPDEST PUSH2 0x767 JUMP JUMPDEST STOP JUMPDEST PUSH2 0x170 PUSH1 0x4 DUP1 CALLDATASIZE SUB DUP2 ADD SWAP1 PUSH2 0x16B SWAP2 SWAP1 PUSH2 0x113E JUMP JUMPDEST PUSH2 0x91D JUMP JUMPDEST STOP JUMPDEST PUSH2 0x18C PUSH1 0x4 DUP1 CALLDATASIZE SUB DUP2 ADD SWAP1 PUSH2 0x187 SWAP2 SWAP1 PUSH2 0xBE4 JUMP JUMPDEST PUSH2 0x9CA JUMP JUMPDEST STOP JUMPDEST PUSH2 0x196 PUSH2 0xAE0 JUMP JUMPDEST PUSH1 0x40 MLOAD PUSH2 0x1A3 SWAP2 SWAP1 PUSH2 0x1169 JUMP JUMPDEST PUSH1 0x40 MLOAD DUP1 SWAP2 SUB SWAP1 RETURN JUMPDEST PUSH1 0x1 PUSH1 0x20 MSTORE DUP2 PUSH0 MSTORE PUSH1 0x40 PUSH0 KECCAK256 DUP2 DUP2 SLOAD DUP2 LT PUSH2 0x1C5 JUMPI PUSH0 DUP1 REVERT JUMPDEST SWAP1 PUSH0 MSTORE PUSH1 0x20 PUSH0 KECCAK256 SWAP1 PUSH1 0x5 MUL ADD PUSH0 SWAP2 POP SWAP2 POP POP DUP1 PUSH0 ADD SLOAD SWAP1 DUP1 PUSH1 0x1 ADD PUSH0 SWAP1 SLOAD SWAP1 PUSH2 0x100 EXP SWAP1 DIV PUSH20 0xFFFFFFFFFFFFFFFFFFFFFFFFFFFFFFFFFFFFFFFF AND SWAP1 DUP1 PUSH1 0x2 ADD DUP1 SLOAD PUSH2 0x210 SWAP1 PUSH2 0x11AF JUMP JUMPDEST DUP1 PUSH1 0x1F ADD PUSH1 0x20 DUP1 SWAP2 DIV MUL PUSH1 0x20 ADD PUSH1 0x40 MLOAD SWAP1 DUP2 ADD PUSH1 0x40 MSTORE DUP1 SWAP3 SWAP2 SWAP1 DUP2 DUP2 MSTORE PUSH1 0x20 ADD DUP3 DUP1 SLOAD PUSH2 0x23C SWAP1 PUSH2 0x11AF JUMP JUMPDEST DUP1 ISZERO PUSH2 0x287 JUMPI DUP1 PUSH1 0x1F LT PUSH2 0x25E JUMPI PUSH2 0x100 DUP1 DUP4 SLOAD DIV MUL DUP4 MSTORE SWAP2 PUSH1 0x20 ADD SWAP2 PUSH2 0x287 JUMP JUMPDEST DUP3 ADD SWAP2 SWAP1 PUSH0 MSTORE PUSH1 0x20 PUSH0 KECCAK256 SWAP1 JUMPDEST DUP2 SLOAD DUP2 MSTORE SWAP1 PUSH1 0x1 ADD SWAP1 PUSH1 0x20 ADD DUP1 DUP4 GT PUSH2 0x26A JUMPI DUP3 SWAP1 SUB PUSH1 0x1F AND DUP3 ADD SWAP2 JUMPDEST POP POP POP POP POP SWAP1 DUP1 PUSH1 0x3 ADD SLOAD SWAP1 DUP1 PUSH1 0x4 ADD SLOAD SWAP1 POP DUP6 JUMP JUMPDEST PUSH2 0x2A5 PUSH2 0xB05 JUMP JUMPDEST PUSH1 0x1 PUSH0 DUP5 PUSH20 0xFFFFFFFFFFFFFFFFFFFFFFFFFFFFFFFFFFFFFFFF AND PUSH20 0xFFFFFFFFFFFFFFFFFFFFFFFFFFFFFFFFFFFFFFFF AND DUP2 MSTORE PUSH1 0x20 ADD SWAP1 DUP2 MSTORE PUSH1 0x20 ADD PUSH0 KECCAK256 DUP3 DUP2 SLOAD DUP2 LT PUSH2 0x2F4 JUMPI PUSH2 0x2F3 PUSH2 0x11DF JUMP JUMPDEST JUMPDEST SWAP1 PUSH0 MSTORE PUSH1 0x20 PUSH0 KECCAK256 SWAP1 PUSH1 0x5 MUL ADD PUSH1 0x40 MLOAD DUP1 PUSH1 0xA0 ADD PUSH1 0x40 MSTORE SWAP1 DUP2 PUSH0 DUP3 ADD SLOAD DUP2 MSTORE PUSH1 0x20 ADD PUSH1 0x1 DUP3 ADD PUSH0 SWAP1 SLOAD SWAP1 PUSH2 0x100 EXP SWAP1 DIV PUSH20 0xFFFFFFFFFFFFFFFFFFFFFFFFFFFFFFFFFFFFFFFF AND PUSH20 0xFFFFFFFFFFFFFFFFFFFFFFFFFFFFFFFFFFFFFFFF AND PUSH20 0xFFFFFFFFFFFFFFFFFFFFFFFFFFFFFFFFFFFFFFFF AND DUP2 MSTORE PUSH1 0x20 ADD PUSH1 0x2 DUP3 ADD DUP1 SLOAD PUSH2 0x379 SWAP1 PUSH2 0x11AF JUMP JUMPDEST DUP1 PUSH1 0x1F ADD PUSH1 0x20 DUP1 SWAP2 DIV MUL PUSH1 0x20 ADD PUSH1 0x40 MLOAD SWAP1 DUP2 ADD PUSH1 0x40 MSTORE DUP1 SWAP3 SWAP2 SWAP1 DUP2 DUP2 MSTORE PUSH1 0x20 ADD DUP3 DUP1 SLOAD PUSH2 0x3A5 SWAP1 PUSH2 0x11AF JUMP JUMPDEST DUP1 ISZERO PUSH2 0x3F0 JUMPI DUP1 PUSH1 0x1F LT PUSH2 0x3C7 JUMPI PUSH2 0x100 DUP1 DUP4 SLOAD DIV MUL DUP4 MSTORE SWAP2 PUSH1 0x20 ADD SWAP2 PUSH2 0x3F0 JUMP JUMPDEST DUP3 ADD SWAP2 SWAP1 PUSH0 MSTORE PUSH1 0x20 PUSH0 KECCAK256 SWAP1 JUMPDEST DUP2 SLOAD DUP2 MSTORE SWAP1 PUSH1 0x1 ADD SWAP1 PUSH1 0x20 ADD DUP1 DUP4 GT PUSH2 0x3D3 JUMPI DUP3 SWAP1 SUB PUSH1 0x1F AND DUP3 ADD SWAP2 JUMPDEST POP POP POP POP POP DUP2 MSTORE PUSH1 0x20 ADD PUSH1 0x3 DUP3 ADD SLOAD DUP2 MSTORE PUSH1 0x20 ADD PUSH1 0x4 DUP3 ADD SLOAD DUP2 MSTORE POP POP SWAP1 POP SWAP3 SWAP2 POP POP JUMP JUMPDEST PUSH1 0x60 PUSH1 0x1 PUSH0 DUP4 PUSH20 0xFFFFFFFFFFFFFFFFFFFFFFFFFFFFFFFFFFFFFFFF AND PUSH20 0xFFFFFFFFFFFFFFFFFFFFFFFFFFFFFFFFFFFFFFFF AND DUP2 MSTORE PUSH1 0x20 ADD SWAP1 DUP2 MSTORE PUSH1 0x20 ADD PUSH0 KECCAK256 DUP1 SLOAD DUP1 PUSH1 0x20 MUL PUSH1 0x20 ADD PUSH1 0x40 MLOAD SWAP1 DUP2 ADD PUSH1 0x40 MSTORE DUP1 SWAP3 SWAP2 SWAP1 DUP2 DUP2 MSTORE PUSH1 0x20 ADD PUSH0 SWAP1 JUMPDEST DUP3 DUP3 LT ISZERO PUSH2 0x5A5 JUMPI DUP4 DUP3 SWAP1 PUSH0 MSTORE PUSH1 0x20 PUSH0 KECCAK256 SWAP1 PUSH1 0x5 MUL ADD PUSH1 0x40 MLOAD DUP1 PUSH1 0xA0 ADD PUSH1 0x40 MSTORE SWAP1 DUP2 PUSH0 DUP3 ADD SLOAD DUP2 MSTORE PUSH1 0x20 ADD PUSH1 0x1 DUP3 ADD PUSH0 SWAP1 SLOAD SWAP1 PUSH2 0x100 EXP SWAP1 DIV PUSH20 0xFFFFFFFFFFFFFFFFFFFFFFFFFFFFFFFFFFFFFFFF AND PUSH20 0xFFFFFFFFFFFFFFFFFFFFFFFFFFFFFFFFFFFFFFFF AND PUSH20 0xFFFFFFFFFFFFFFFFFFFFFFFFFFFFFFFFFFFFFFFF AND DUP2 MSTORE PUSH1 0x20 ADD PUSH1 0x2 DUP3 ADD DUP1 SLOAD PUSH2 0x502 SWAP1 PUSH2 0x11AF JUMP JUMPDEST DUP1 PUSH1 0x1F ADD PUSH1 0x20 DUP1 SWAP2 DIV MUL PUSH1 0x20 ADD PUSH1 0x40 MLOAD SWAP1 DUP2 ADD PUSH1 0x40 MSTORE DUP1 SWAP3 SWAP2 SWAP1 DUP2 DUP2 MSTORE PUSH1 0x20 ADD DUP3 DUP1 SLOAD PUSH2 0x52E SWAP1 PUSH2 0x11AF JUMP JUMPDEST DUP1 ISZERO PUSH2 0x579 JUMPI DUP1 PUSH1 0x1F LT PUSH2 0x550 JUMPI PUSH2 0x100 DUP1 DUP4 SLOAD DIV MUL DUP4 MSTORE SWAP2 PUSH1 0x20 ADD SWAP2 PUSH2 0x579 JUMP JUMPDEST DUP3 ADD SWAP2 SWAP1 PUSH0 MSTORE PUSH1 0x20 PUSH0 KECCAK256 SWAP1 JUMPDEST DUP2 SLOAD DUP2 MSTORE SWAP1 PUSH1 0x1 ADD SWAP1 PUSH1 0x20 ADD DUP1 DUP4 GT PUSH2 0x55C JUMPI DUP3 SWAP1 SUB PUSH1 0x1F AND DUP3 ADD SWAP2 JUMPDEST POP POP POP POP POP DUP2 MSTORE PUSH1 0x20 ADD PUSH1 0x3 DUP3 ADD SLOAD DUP2 MSTORE PUSH1 0x20 ADD PUSH1 0x4 DUP3 ADD SLOAD DUP2 MSTORE POP POP DUP2 MSTORE PUSH1 0x20 ADD SWAP1 PUSH1 0x1 ADD SWAP1 PUSH2 0x473 JUMP JUMPDEST POP POP POP POP SWAP1 POP SWAP2 SWAP1 POP JUMP JUMPDEST PUSH0 DUP1 SLOAD SWAP1 PUSH2 0x100 EXP SWAP1 DIV PUSH2 0xFFFF AND PUSH2 0xFFFF AND DUP2 MLOAD GT ISZERO PUSH2 0x605 JUMPI PUSH1 0x40 MLOAD PUSH32 0x8C379A000000000000000000000000000000000000000000000000000000000 DUP2 MSTORE PUSH1 0x4 ADD PUSH2 0x5FC SWAP1 PUSH2 0x127C JUMP JUMPDEST PUSH1 0x40 MLOAD DUP1 SWAP2 SUB SWAP1 REVERT JUMPDEST PUSH0 PUSH1 0x40 MLOAD DUP1 PUSH1 0xA0 ADD PUSH1 0x40 MSTORE DUP1 PUSH1 0x1 PUSH0 CALLER PUSH20 0xFFFFFFFFFFFFFFFFFFFFFFFFFFFFFFFFFFFFFFFF AND PUSH20 0xFFFFFFFFFFFFFFFFFFFFFFFFFFFFFFFFFFFFFFFF AND DUP2 MSTORE PUSH1 0x20 ADD SWAP1 DUP2 MSTORE PUSH1 0x20 ADD PUSH0 KECCAK256 DUP1 SLOAD SWAP1 POP DUP2 MSTORE PUSH1 0x20 ADD CALLER PUSH20 0xFFFFFFFFFFFFFFFFFFFFFFFFFFFFFFFFFFFFFFFF AND DUP2 MSTORE PUSH1 0x20 ADD DUP4 DUP2 MSTORE PUSH1 0x20 ADD TIMESTAMP DUP2 MSTORE PUSH1 0x20 ADD PUSH0 DUP2 MSTORE POP SWAP1 POP PUSH1 0x1 PUSH0 CALLER PUSH20 0xFFFFFFFFFFFFFFFFFFFFFFFFFFFFFFFFFFFFFFFF AND PUSH20 0xFFFFFFFFFFFFFFFFFFFFFFFFFFFFFFFFFFFFFFFF AND DUP2 MSTORE PUSH1 0x20 ADD SWAP1 DUP2 MSTORE PUSH1 0x20 ADD PUSH0 KECCAK256 DUP2 SWAP1 DUP1 PUSH1 0x1 DUP2 SLOAD ADD DUP1 DUP3 SSTORE DUP1 SWAP2 POP POP PUSH1 0x1 SWAP1 SUB SWAP1 PUSH0 MSTORE PUSH1 0x20 PUSH0 KECCAK256 SWAP1 PUSH1 0x5 MUL ADD PUSH0 SWAP1 SWAP2 SWAP1 SWAP2 SWAP1 SWAP2 POP PUSH0 DUP3 ADD MLOAD DUP2 PUSH0 ADD SSTORE PUSH1 0x20 DUP3 ADD MLOAD DUP2 PUSH1 0x1 ADD PUSH0 PUSH2 0x100 EXP DUP2 SLOAD DUP2 PUSH20 0xFFFFFFFFFFFFFFFFFFFFFFFFFFFFFFFFFFFFFFFF MUL NOT AND SWAP1 DUP4 PUSH20 0xFFFFFFFFFFFFFFFFFFFFFFFFFFFFFFFFFFFFFFFF AND MUL OR SWAP1 SSTORE POP PUSH1 0x40 DUP3 ADD MLOAD DUP2 PUSH1 0x2 ADD SWAP1 DUP2 PUSH2 0x74C SWAP2 SWAP1 PUSH2 0x1437 JUMP JUMPDEST POP PUSH1 0x60 DUP3 ADD MLOAD DUP2 PUSH1 0x3 ADD SSTORE PUSH1 0x80 DUP3 ADD MLOAD DUP2 PUSH1 0x4 ADD SSTORE POP POP POP POP JUMP JUMPDEST DUP1 PUSH1 0x1 PUSH0 DUP5 PUSH20 0xFFFFFFFFFFFFFFFFFFFFFFFFFFFFFFFFFFFFFFFF AND PUSH20 0xFFFFFFFFFFFFFFFFFFFFFFFFFFFFFFFFFFFFFFFF AND DUP2 MSTORE PUSH1 0x20 ADD SWAP1 DUP2 MSTORE PUSH1 0x20 ADD PUSH0 KECCAK256 DUP3 DUP2 SLOAD DUP2 LT PUSH2 0x7B7 JUMPI PUSH2 0x7B6 PUSH2 0x11DF JUMP JUMPDEST JUMPDEST SWAP1 PUSH0 MSTORE PUSH1 0x20 PUSH0 KECCAK256 SWAP1 PUSH1 0x5 MUL ADD PUSH0 ADD SLOAD EQ PUSH2 0x806 JUMPI PUSH1 0x40 MLOAD PUSH32 0x8C379A000000000000000000000000000000000000000000000000000000000 DUP2 MSTORE PUSH1 0x4 ADD PUSH2 0x7FD SWAP1 PUSH2 0x1550 JUMP JUMPDEST PUSH1 0x40 MLOAD DUP1 SWAP2 SUB SWAP1 REVERT JUMPDEST PUSH0 PUSH1 0x1 PUSH0 DUP5 PUSH20 0xFFFFFFFFFFFFFFFFFFFFFFFFFFFFFFFFFFFFFFFF AND PUSH20 0xFFFFFFFFFFFFFFFFFFFFFFFFFFFFFFFFFFFFFFFF AND DUP2 MSTORE PUSH1 0x20 ADD SWAP1 DUP2 MSTORE PUSH1 0x20 ADD PUSH0 KECCAK256 DUP3 DUP2 SLOAD DUP2 LT PUSH2 0x856 JUMPI PUSH2 0x855 PUSH2 0x11DF JUMP JUMPDEST JUMPDEST SWAP1 PUSH0 MSTORE PUSH1 0x20 PUSH0 KECCAK256 SWAP1 PUSH1 0x5 MUL ADD PUSH1 0x4 ADD SLOAD GT PUSH2 0x8A6 JUMPI PUSH1 0x40 MLOAD PUSH32 0x8C379A000000000000000000000000000000000000000000000000000000000 DUP2 MSTORE PUSH1 0x4 ADD PUSH2 0x89D SWAP1 PUSH2 0x15B8 JUMP JUMPDEST PUSH1 0x40 MLOAD DUP1 SWAP2 SUB SWAP1 REVERT JUMPDEST PUSH1 0x1 PUSH0 DUP4 PUSH20 0xFFFFFFFFFFFFFFFFFFFFFFFFFFFFFFFFFFFFFFFF AND PUSH20 0xFFFFFFFFFFFFFFFFFFFFFFFFFFFFFFFFFFFFFFFF AND DUP2 MSTORE PUSH1 0x20 ADD SWAP1 DUP2 MSTORE PUSH1 0x20 ADD PUSH0 KECCAK256 DUP2 DUP2 SLOAD DUP2 LT PUSH2 0x8F5 JUMPI PUSH2 0x8F4 PUSH2 0x11DF JUMP JUMPDEST JUMPDEST SWAP1 PUSH0 MSTORE PUSH1 0x20 PUSH0 KECCAK256 SWAP1 PUSH1 0x5 MUL ADD PUSH1 0x4 ADD PUSH0 DUP2 SLOAD DUP1 SWAP3 SWAP2 SWAP1 PUSH2 0x914 SWAP1 PUSH2 0x1603 JUMP JUMPDEST SWAP2 SWAP1 POP SSTORE POP POP POP JUMP JUMPDEST PUSH0 PUSH1 0x2 SWAP1 SLOAD SWAP1 PUSH2 0x100 EXP SWAP1 DIV PUSH20 0xFFFFFFFFFFFFFFFFFFFFFFFFFFFFFFFFFFFFFFFF AND PUSH20 0xFFFFFFFFFFFFFFFFFFFFFFFFFFFFFFFFFFFFFFFF AND CALLER PUSH20 0xFFFFFFFFFFFFFFFFFFFFFFFFFFFFFFFFFFFFFFFF AND EQ PUSH2 0x9AC JUMPI PUSH1 0x40 MLOAD PUSH32 0x8C379A000000000000000000000000000000000000000000000000000000000 DUP2 MSTORE PUSH1 0x4 ADD PUSH2 0x9A3 SWAP1 PUSH2 0x169A JUMP JUMPDEST PUSH1 0x40 MLOAD DUP1 SWAP2 SUB SWAP1 REVERT JUMPDEST DUP1 PUSH0 DUP1 PUSH2 0x100 EXP DUP2 SLOAD DUP2 PUSH2 0xFFFF MUL NOT AND SWAP1 DUP4 PUSH2 0xFFFF AND MUL OR SWAP1 SSTORE POP POP JUMP JUMPDEST DUP1 PUSH1 0x1 PUSH0 DUP5 PUSH20 0xFFFFFFFFFFFFFFFFFFFFFFFFFFFFFFFFFFFFFFFF AND PUSH20 0xFFFFFFFFFFFFFFFFFFFFFFFFFFFFFFFFFFFFFFFF AND DUP2 MSTORE PUSH1 0x20 ADD SWAP1 DUP2 MSTORE PUSH1 0x20 ADD PUSH0 KECCAK256 DUP3 DUP2 SLOAD DUP2 LT PUSH2 0xA1A JUMPI PUSH2 0xA19 PUSH2 0x11DF JUMP JUMPDEST JUMPDEST SWAP1 PUSH0 MSTORE PUSH1 0x20 PUSH0 KECCAK256 SWAP1 PUSH1 0x5 MUL ADD PUSH0 ADD SLOAD EQ PUSH2 0xA69 JUMPI PUSH1 0x40 MLOAD PUSH32 0x8C379A000000000000000000000000000000000000000000000000000000000 DUP2 MSTORE PUSH1 0x4 ADD PUSH2 0xA60 SWAP1 PUSH2 0x1550 JUMP JUMPDEST PUSH1 0x40 MLOAD DUP1 SWAP2 SUB SWAP1 REVERT JUMPDEST PUSH1 0x1 PUSH0 DUP4 PUSH20 0xFFFFFFFFFFFFFFFFFFFFFFFFFFFFFFFFFFFFFFFF AND PUSH20 0xFFFFFFFFFFFFFFFFFFFFFFFFFFFFFFFFFFFFFFFF AND DUP2 MSTORE PUSH1 0x20 ADD SWAP1 DUP2 MSTORE PUSH1 0x20 ADD PUSH0 KECCAK256 DUP2 DUP2 SLOAD DUP2 LT PUSH2 0xAB8 JUMPI PUSH2 0xAB7 PUSH2 0x11DF JUMP JUMPDEST JUMPDEST SWAP1 PUSH0 MSTORE PUSH1 0x20 PUSH0 KECCAK256 SWAP1 PUSH1 0x5 MUL ADD PUSH1 0x4 ADD PUSH0 DUP2 SLOAD DUP1 SWAP3 SWAP2 SWAP1 PUSH2 0xAD7 SWAP1 PUSH2 0x16B8 JUMP JUMPDEST SWAP2 SWAP1 POP SSTORE POP POP POP JUMP JUMPDEST PUSH0 PUSH1 0x2 SWAP1 SLOAD SWAP1 PUSH2 0x100 EXP SWAP1 DIV PUSH20 0xFFFFFFFFFFFFFFFFFFFFFFFFFFFFFFFFFFFFFFFF AND DUP2 JUMP JUMPDEST PUSH1 0x40 MLOAD DUP1 PUSH1 0xA0 ADD PUSH1 0x40 MSTORE DUP1 PUSH0 DUP2 MSTORE PUSH1 0x20 ADD PUSH0 PUSH20 0xFFFFFFFFFFFFFFFFFFFFFFFFFFFFFFFFFFFFFFFF AND DUP2 MSTORE PUSH1 0x20 ADD PUSH1 0x60 DUP2 MSTORE PUSH1 0x20 ADD PUSH0 DUP2 MSTORE PUSH1 0x20 ADD PUSH0 DUP2 MSTORE POP SWAP1 JUMP JUMPDEST PUSH0 PUSH1 0x40 MLOAD SWAP1 POP SWAP1 JUMP JUMPDEST PUSH0 DUP1 REVERT JUMPDEST PUSH0 DUP1 REVERT JUMPDEST PUSH0 PUSH20 0xFFFFFFFFFFFFFFFFFFFFFFFFFFFFFFFFFFFFFFFF DUP3 AND SWAP1 POP SWAP2 SWAP1 POP JUMP JUMPDEST PUSH0 PUSH2 0xB80 DUP3 PUSH2 0xB57 JUMP JUMPDEST SWAP1 POP SWAP2 SWAP1 POP JUMP JUMPDEST PUSH2 0xB90 DUP2 PUSH2 0xB76 JUMP JUMPDEST DUP2 EQ PUSH2 0xB9A JUMPI PUSH0 DUP1 REVERT JUMPDEST POP JUMP JUMPDEST PUSH0 DUP2 CALLDATALOAD SWAP1 POP PUSH2 0xBAB DUP2 PUSH2 0xB87 JUMP JUMPDEST SWAP3 SWAP2 POP POP JUMP JUMPDEST PUSH0 DUP2 SWAP1 POP SWAP2 SWAP1 POP JUMP JUMPDEST PUSH2 0xBC3 DUP2 PUSH2 0xBB1 JUMP JUMPDEST DUP2 EQ PUSH2 0xBCD JUMPI PUSH0 DUP1 REVERT JUMPDEST POP JUMP JUMPDEST PUSH0 DUP2 CALLDATALOAD SWAP1 POP PUSH2 0xBDE DUP2 PUSH2 0xBBA JUMP JUMPDEST SWAP3 SWAP2 POP POP JUMP JUMPDEST PUSH0 DUP1 PUSH1 0x40 DUP4 DUP6 SUB SLT ISZERO PUSH2 0xBFA JUMPI PUSH2 0xBF9 PUSH2 0xB4F JUMP JUMPDEST JUMPDEST PUSH0 PUSH2 0xC07 DUP6 DUP3 DUP7 ADD PUSH2 0xB9D JUMP JUMPDEST SWAP3 POP POP PUSH1 0x20 PUSH2 0xC18 DUP6 DUP3 DUP7 ADD PUSH2 0xBD0 JUMP JUMPDEST SWAP2 POP POP SWAP3 POP SWAP3 SWAP1 POP JUMP JUMPDEST PUSH2 0xC2B DUP2 PUSH2 0xBB1 JUMP JUMPDEST DUP3 MSTORE POP POP JUMP JUMPDEST PUSH2 0xC3A DUP2 PUSH2 0xB76 JUMP JUMPDEST DUP3 MSTORE POP POP JUMP JUMPDEST PUSH0 DUP2 MLOAD SWAP1 POP SWAP2 SWAP1 POP JUMP JUMPDEST PUSH0 DUP3 DUP3 MSTORE PUSH1 0x20 DUP3 ADD SWAP1 POP SWAP3 SWAP2 POP POP JUMP JUMPDEST PUSH0 JUMPDEST DUP4 DUP2 LT ISZERO PUSH2 0xC77 JUMPI DUP1 DUP3 ADD MLOAD DUP2 DUP5 ADD MSTORE PUSH1 0x20 DUP2 ADD SWAP1 POP PUSH2 0xC5C JUMP JUMPDEST PUSH0 DUP5 DUP5 ADD MSTORE POP POP POP POP JUMP JUMPDEST PUSH0 PUSH1 0x1F NOT PUSH1 0x1F DUP4 ADD AND SWAP1 POP SWAP2 SWAP1 POP JUMP JUMPDEST PUSH0 PUSH2 0xC9C DUP3 PUSH2 0xC40 JUMP JUMPDEST PUSH2 0xCA6 DUP2 DUP6 PUSH2 0xC4A JUMP JUMPDEST SWAP4 POP PUSH2 0xCB6 DUP2 DUP6 PUSH1 0x20 DUP7 ADD PUSH2 0xC5A JUMP JUMPDEST PUSH2 0xCBF DUP2 PUSH2 0xC82 JUMP JUMPDEST DUP5 ADD SWAP2 POP POP SWAP3 SWAP2 POP POP JUMP JUMPDEST PUSH0 PUSH1 0xA0 DUP3 ADD SWAP1 POP PUSH2 0xCDD PUSH0 DUP4 ADD DUP9 PUSH2 0xC22 JUMP JUMPDEST PUSH2 0xCEA PUSH1 0x20 DUP4 ADD DUP8 PUSH2 0xC31 JUMP JUMPDEST DUP2 DUP2 SUB PUSH1 0x40 DUP4 ADD MSTORE PUSH2 0xCFC DUP2 DUP7 PUSH2 0xC92 JUMP JUMPDEST SWAP1 POP PUSH2 0xD0B PUSH1 0x60 DUP4 ADD DUP6 PUSH2 0xC22 JUMP JUMPDEST PUSH2 0xD18 PUSH1 0x80 DUP4 ADD DUP5 PUSH2 0xC22 JUMP JUMPDEST SWAP7 SWAP6 POP POP POP POP POP POP JUMP JUMPDEST PUSH2 0xD2B DUP2 PUSH2 0xBB1 JUMP JUMPDEST DUP3 MSTORE POP POP JUMP JUMPDEST PUSH2 0xD3A DUP2 PUSH2 0xB76 JUMP JUMPDEST DUP3 MSTORE POP POP JUMP JUMPDEST PUSH0 DUP3 DUP3 MSTORE PUSH1 0x20 DUP3 ADD SWAP1 POP SWAP3 SWAP2 POP POP JUMP JUMPDEST PUSH0 PUSH2 0xD5A DUP3 PUSH2 0xC40 JUMP JUMPDEST PUSH2 0xD64 DUP2 DUP6 PUSH2 0xD40 JUMP JUMPDEST SWAP4 POP PUSH2 0xD74 DUP2 DUP6 PUSH1 0x20 DUP7 ADD PUSH2 0xC5A JUMP JUMPDEST PUSH2 0xD7D DUP2 PUSH2 0xC82 JUMP JUMPDEST DUP5 ADD SWAP2 POP POP SWAP3 SWAP2 POP POP JUMP JUMPDEST PUSH0 PUSH1 0xA0 DUP4 ADD PUSH0 DUP4 ADD MLOAD PUSH2 0xD9D PUSH0 DUP7 ADD DUP3 PUSH2 0xD22 JUMP JUMPDEST POP PUSH1 0x20 DUP4 ADD MLOAD PUSH2 0xDB0 PUSH1 0x20 DUP7 ADD DUP3 PUSH2 0xD31 JUMP JUMPDEST POP PUSH1 0x40 DUP4 ADD MLOAD DUP5 DUP3 SUB PUSH1 0x40 DUP7 ADD MSTORE PUSH2 0xDC8 DUP3 DUP3 PUSH2 0xD50 JUMP JUMPDEST SWAP2 POP POP PUSH1 0x60 DUP4 ADD MLOAD PUSH2 0xDDD PUSH1 0x60 DUP7 ADD DUP3 PUSH2 0xD22 JUMP JUMPDEST POP PUSH1 0x80 DUP4 ADD MLOAD PUSH2 0xDF0 PUSH1 0x80 DUP7 ADD DUP3 PUSH2 0xD22 JUMP JUMPDEST POP DUP1 SWAP2 POP POP SWAP3 SWAP2 POP POP JUMP JUMPDEST PUSH0 PUSH1 0x20 DUP3 ADD SWAP1 POP DUP2 DUP2 SUB PUSH0 DUP4 ADD MSTORE PUSH2 0xE13 DUP2 DUP5 PUSH2 0xD88 JUMP JUMPDEST SWAP1 POP SWAP3 SWAP2 POP POP JUMP JUMPDEST PUSH0 PUSH1 0x20 DUP3 DUP5 SUB SLT ISZERO PUSH2 0xE30 JUMPI PUSH2 0xE2F PUSH2 0xB4F JUMP JUMPDEST JUMPDEST PUSH0 PUSH2 0xE3D DUP5 DUP3 DUP6 ADD PUSH2 0xB9D JUMP JUMPDEST SWAP2 POP POP SWAP3 SWAP2 POP POP JUMP JUMPDEST PUSH0 DUP2 MLOAD SWAP1 POP SWAP2 SWAP1 POP JUMP JUMPDEST PUSH0 DUP3 DUP3 MSTORE PUSH1 0x20 DUP3 ADD SWAP1 POP SWAP3 SWAP2 POP POP JUMP JUMPDEST PUSH0 DUP2 SWAP1 POP PUSH1 0x20 DUP3 ADD SWAP1 POP SWAP2 SWAP1 POP JUMP JUMPDEST PUSH0 PUSH1 0xA0 DUP4 ADD PUSH0 DUP4 ADD MLOAD PUSH2 0xE84 PUSH0 DUP7 ADD DUP3 PUSH2 0xD22 JUMP JUMPDEST POP PUSH1 0x20 DUP4 ADD MLOAD PUSH2 0xE97 PUSH1 0x20 DUP7 ADD DUP3 PUSH2 0xD31 JUMP JUMPDEST POP PUSH1 0x40 DUP4 ADD MLOAD DUP5 DUP3 SUB PUSH1 0x40 DUP7 ADD MSTORE PUSH2 0xEAF DUP3 DUP3 PUSH2 0xD50 JUMP JUMPDEST SWAP2 POP POP PUSH1 0x60 DUP4 ADD MLOAD PUSH2 0xEC4 PUSH1 0x60 DUP7 ADD DUP3 PUSH2 0xD22 JUMP JUMPDEST POP PUSH1 0x80 DUP4 ADD MLOAD PUSH2 0xED7 PUSH1 0x80 DUP7 ADD DUP3 PUSH2 0xD22 JUMP JUMPDEST POP DUP1 SWAP2 POP POP SWAP3 SWAP2 POP POP JUMP JUMPDEST PUSH0 PUSH2 0xEED DUP4 DUP4 PUSH2 0xE6F JUMP JUMPDEST SWAP1 POP SWAP3 SWAP2 POP POP JUMP JUMPDEST PUSH0 PUSH1 0x20 DUP3 ADD SWAP1 POP SWAP2 SWAP1 POP JUMP JUMPDEST PUSH0 PUSH2 0xF0B DUP3 PUSH2 0xE46 JUMP JUMPDEST PUSH2 0xF15 DUP2 DUP6 PUSH2 0xE50 JUMP JUMPDEST SWAP4 POP DUP4 PUSH1 0x20 DUP3 MUL DUP6 ADD PUSH2 0xF27 DUP6 PUSH2 0xE60 JUMP JUMPDEST DUP1 PUSH0 JUMPDEST DUP6 DUP2 LT ISZERO PUSH2 0xF62 JUMPI DUP5 DUP5 SUB DUP10 MSTORE DUP2 MLOAD PUSH2 0xF43 DUP6 DUP3 PUSH2 0xEE2 JUMP JUMPDEST SWAP5 POP PUSH2 0xF4E DUP4 PUSH2 0xEF5 JUMP JUMPDEST SWAP3 POP PUSH1 0x20 DUP11 ADD SWAP10 POP POP PUSH1 0x1 DUP2 ADD SWAP1 POP PUSH2 0xF2A JUMP JUMPDEST POP DUP3 SWAP8 POP DUP8 SWAP6 POP POP POP POP POP POP SWAP3 SWAP2 POP POP JUMP JUMPDEST PUSH0 PUSH1 0x20 DUP3 ADD SWAP1 POP DUP2 DUP2 SUB PUSH0 DUP4 ADD MSTORE PUSH2 0xF8C DUP2 DUP5 PUSH2 0xF01 JUMP JUMPDEST SWAP1 POP SWAP3 SWAP2 POP POP JUMP JUMPDEST PUSH0 DUP1 REVERT JUMPDEST PUSH0 DUP1 REVERT JUMPDEST PUSH32 0x4E487B7100000000000000000000000000000000000000000000000000000000 PUSH0 MSTORE PUSH1 0x41 PUSH1 0x4 MSTORE PUSH1 0x24 PUSH0 REVERT JUMPDEST PUSH2 0xFD2 DUP3 PUSH2 0xC82 JUMP JUMPDEST DUP2 ADD DUP2 DUP2 LT PUSH8 0xFFFFFFFFFFFFFFFF DUP3 GT OR ISZERO PUSH2 0xFF1 JUMPI PUSH2 0xFF0 PUSH2 0xF9C JUMP JUMPDEST JUMPDEST DUP1 PUSH1 0x40 MSTORE POP POP POP JUMP JUMPDEST PUSH0 PUSH2 0x1003 PUSH2 0xB46 JUMP JUMPDEST SWAP1 POP PUSH2 0x100F DUP3 DUP3 PUSH2 0xFC9 JUMP JUMPDEST SWAP2 SWAP1 POP JUMP JUMPDEST PUSH0 PUSH8 0xFFFFFFFFFFFFFFFF DUP3 GT ISZERO PUSH2 0x102E JUMPI PUSH2 0x102D PUSH2 0xF9C JUMP JUMPDEST JUMPDEST PUSH2 0x1037 DUP3 PUSH2 0xC82 JUMP JUMPDEST SWAP1 POP PUSH1 0x20 DUP2 ADD SWAP1 POP SWAP2 SWAP1 POP JUMP JUMPDEST DUP3 DUP2 DUP4 CALLDATACOPY PUSH0 DUP4 DUP4 ADD MSTORE POP POP POP JUMP JUMPDEST PUSH0 PUSH2 0x1064 PUSH2 0x105F DUP5 PUSH2 0x1014 JUMP JUMPDEST PUSH2 0xFFA JUMP JUMPDEST SWAP1 POP DUP3 DUP2 MSTORE PUSH1 0x20 DUP2 ADD DUP5 DUP5 DUP5 ADD GT ISZERO PUSH2 0x1080 JUMPI PUSH2 0x107F PUSH2 0xF98 JUMP JUMPDEST JUMPDEST PUSH2 0x108B DUP5 DUP3 DUP6 PUSH2 0x1044 JUMP JUMPDEST POP SWAP4 SWAP3 POP POP POP JUMP JUMPDEST PUSH0 DUP3 PUSH1 0x1F DUP4 ADD SLT PUSH2 0x10A7 JUMPI PUSH2 0x10A6 PUSH2 0xF94 JUMP JUMPDEST JUMPDEST DUP2 CALLDATALOAD PUSH2 0x10B7 DUP5 DUP3 PUSH1 0x20 DUP7 ADD PUSH2 0x1052 JUMP JUMPDEST SWAP2 POP POP SWAP3 SWAP2 POP POP JUMP JUMPDEST PUSH0 PUSH1 0x20 DUP3 DUP5 SUB SLT ISZERO PUSH2 0x10D5 JUMPI PUSH2 0x10D4 PUSH2 0xB4F JUMP JUMPDEST JUMPDEST PUSH0 DUP3 ADD CALLDATALOAD PUSH8 0xFFFFFFFFFFFFFFFF DUP2 GT ISZERO PUSH2 0x10F2 JUMPI PUSH2 0x10F1 PUSH2 0xB53 JUMP JUMPDEST JUMPDEST PUSH2 0x10FE DUP5 DUP3 DUP6 ADD PUSH2 0x1093 JUMP JUMPDEST SWAP2 POP POP SWAP3 SWAP2 POP POP JUMP JUMPDEST PUSH0 PUSH2 0xFFFF DUP3 AND SWAP1 POP SWAP2 SWAP1 POP JUMP JUMPDEST PUSH2 0x111D DUP2 PUSH2 0x1107 JUMP JUMPDEST DUP2 EQ PUSH2 0x1127 JUMPI PUSH0 DUP1 REVERT JUMPDEST POP JUMP JUMPDEST PUSH0 DUP2 CALLDATALOAD SWAP1 POP PUSH2 0x1138 DUP2 PUSH2 0x1114 JUMP JUMPDEST SWAP3 SWAP2 POP POP JUMP JUMPDEST PUSH0 PUSH1 0x20 DUP3 DUP5 SUB SLT ISZERO PUSH2 0x1153 JUMPI PUSH2 0x1152 PUSH2 0xB4F JUMP JUMPDEST JUMPDEST PUSH0 PUSH2 0x1160 DUP5 DUP3 DUP6 ADD PUSH2 0x112A JUMP JUMPDEST SWAP2 POP POP SWAP3 SWAP2 POP POP JUMP JUMPDEST PUSH0 PUSH1 0x20 DUP3 ADD SWAP1 POP PUSH2 0x117C PUSH0 DUP4 ADD DUP5 PUSH2 0xC31 JUMP JUMPDEST SWAP3 SWAP2 POP POP JUMP JUMPDEST PUSH32 0x4E487B7100000000000000000000000000000000000000000000000000000000 PUSH0 MSTORE PUSH1 0x22 PUSH1 0x4 MSTORE PUSH1 0x24 PUSH0 REVERT JUMPDEST PUSH0 PUSH1 0x2 DUP3 DIV SWAP1 POP PUSH1 0x1 DUP3 AND DUP1 PUSH2 0x11C6 JUMPI PUSH1 0x7F DUP3 AND SWAP2 POP JUMPDEST PUSH1 0x20 DUP3 LT DUP2 SUB PUSH2 0x11D9 JUMPI PUSH2 0x11D8 PUSH2 0x1182 JUMP JUMPDEST JUMPDEST POP SWAP2 SWAP1 POP JUMP JUMPDEST PUSH32 0x4E487B7100000000000000000000000000000000000000000000000000000000 PUSH0 MSTORE PUSH1 0x32 PUSH1 0x4 MSTORE PUSH1 0x24 PUSH0 REVERT JUMPDEST PUSH32 0x457863656564732074686520636861726163746572206C696D697420666F7220 PUSH0 DUP3 ADD MSTORE PUSH32 0x612073696E676C65207477656574000000000000000000000000000000000000 PUSH1 0x20 DUP3 ADD MSTORE POP JUMP JUMPDEST PUSH0 PUSH2 0x1266 PUSH1 0x2E DUP4 PUSH2 0xC4A JUMP JUMPDEST SWAP2 POP PUSH2 0x1271 DUP3 PUSH2 0x120C JUMP JUMPDEST PUSH1 0x40 DUP3 ADD SWAP1 POP SWAP2 SWAP1 POP JUMP JUMPDEST PUSH0 PUSH1 0x20 DUP3 ADD SWAP1 POP DUP2 DUP2 SUB PUSH0 DUP4 ADD MSTORE PUSH2 0x1293 DUP2 PUSH2 0x125A JUMP JUMPDEST SWAP1 POP SWAP2 SWAP1 POP JUMP JUMPDEST PUSH0 DUP2 SWAP1 POP DUP2 PUSH0 MSTORE PUSH1 0x20 PUSH0 KECCAK256 SWAP1 POP SWAP2 SWAP1 POP JUMP JUMPDEST PUSH0 PUSH1 0x20 PUSH1 0x1F DUP4 ADD DIV SWAP1 POP SWAP2 SWAP1 POP JUMP JUMPDEST PUSH0 DUP3 DUP3 SHL SWAP1 POP SWAP3 SWAP2 POP POP JUMP JUMPDEST PUSH0 PUSH1 0x8 DUP4 MUL PUSH2 0x12F6 PUSH32 0xFFFFFFFFFFFFFFFFFFFFFFFFFFFFFFFFFFFFFFFFFFFFFFFFFFFFFFFFFFFFFFFF DUP3 PUSH2 0x12BB JUMP JUMPDEST PUSH2 0x1300 DUP7 DUP4 PUSH2 0x12BB JUMP JUMPDEST SWAP6 POP DUP1 NOT DUP5 AND SWAP4 POP DUP1 DUP7 AND DUP5 OR SWAP3 POP POP POP SWAP4 SWAP3 POP POP POP JUMP JUMPDEST PUSH0 DUP2 SWAP1 POP SWAP2 SWAP1 POP JUMP JUMPDEST PUSH0 PUSH2 0x133B PUSH2 0x1336 PUSH2 0x1331 DUP5 PUSH2 0xBB1 JUMP JUMPDEST PUSH2 0x1318 JUMP JUMPDEST PUSH2 0xBB1 JUMP JUMPDEST SWAP1 POP SWAP2 SWAP1 POP JUMP JUMPDEST PUSH0 DUP2 SWAP1 POP SWAP2 SWAP1 POP JUMP JUMPDEST PUSH2 0x1354 DUP4 PUSH2 0x1321 JUMP JUMPDEST PUSH2 0x1368 PUSH2 0x1360 DUP3 PUSH2 0x1342 JUMP JUMPDEST DUP5 DUP5 SLOAD PUSH2 0x12C7 JUMP JUMPDEST DUP3 SSTORE POP POP POP POP JUMP JUMPDEST PUSH0 SWAP1 JUMP JUMPDEST PUSH2 0x137C PUSH2 0x1370 JUMP JUMPDEST PUSH2 0x1387 DUP2 DUP5 DUP5 PUSH2 0x134B JUMP JUMPDEST POP POP POP JUMP JUMPDEST JUMPDEST DUP2 DUP2 LT ISZERO PUSH2 0x13AA JUMPI PUSH2 0x139F PUSH0 DUP3 PUSH2 0x1374 JUMP JUMPDEST PUSH1 0x1 DUP2 ADD SWAP1 POP PUSH2 0x138D JUMP JUMPDEST POP POP JUMP JUMPDEST PUSH1 0x1F DUP3 GT ISZERO PUSH2 0x13EF JUMPI PUSH2 0x13C0 DUP2 PUSH2 0x129A JUMP JUMPDEST PUSH2 0x13C9 DUP5 PUSH2 0x12AC JUMP JUMPDEST DUP2 ADD PUSH1 0x20 DUP6 LT ISZERO PUSH2 0x13D8 JUMPI DUP2 SWAP1 POP JUMPDEST PUSH2 0x13EC PUSH2 0x13E4 DUP6 PUSH2 0x12AC JUMP JUMPDEST DUP4 ADD DUP3 PUSH2 0x138C JUMP JUMPDEST POP POP JUMPDEST POP POP POP JUMP JUMPDEST PUSH0 DUP3 DUP3 SHR SWAP1 POP SWAP3 SWAP2 POP POP JUMP JUMPDEST PUSH0 PUSH2 0x140F PUSH0 NOT DUP5 PUSH1 0x8 MUL PUSH2 0x13F4 JUMP JUMPDEST NOT DUP1 DUP4 AND SWAP2 POP POP SWAP3 SWAP2 POP POP JUMP JUMPDEST PUSH0 PUSH2 0x1427 DUP4 DUP4 PUSH2 0x1400 JUMP JUMPDEST SWAP2 POP DUP3 PUSH1 0x2 MUL DUP3 OR SWAP1 POP SWAP3 SWAP2 POP POP JUMP JUMPDEST PUSH2 0x1440 DUP3 PUSH2 0xC40 JUMP JUMPDEST PUSH8 0xFFFFFFFFFFFFFFFF DUP2 GT ISZERO PUSH2 0x1459 JUMPI PUSH2 0x1458 PUSH2 0xF9C JUMP JUMPDEST JUMPDEST PUSH2 0x1463 DUP3 SLOAD PUSH2 0x11AF JUMP JUMPDEST PUSH2 0x146E DUP3 DUP3 DUP6 PUSH2 0x13AE JUMP JUMPDEST PUSH0 PUSH1 0x20 SWAP1 POP PUSH1 0x1F DUP4 GT PUSH1 0x1 DUP2 EQ PUSH2 0x149F JUMPI PUSH0 DUP5 ISZERO PUSH2 0x148D JUMPI DUP3 DUP8 ADD MLOAD SWAP1 POP JUMPDEST PUSH2 0x1497 DUP6 DUP3 PUSH2 0x141C JUMP JUMPDEST DUP7 SSTORE POP PUSH2 0x14FE JUMP JUMPDEST PUSH1 0x1F NOT DUP5 AND PUSH2 0x14AD DUP7 PUSH2 0x129A JUMP JUMPDEST PUSH0 JUMPDEST DUP3 DUP2 LT ISZERO PUSH2 0x14D4 JUMPI DUP5 DUP10 ADD MLOAD DUP3 SSTORE PUSH1 0x1 DUP3 ADD SWAP2 POP PUSH1 0x20 DUP6 ADD SWAP5 POP PUSH1 0x20 DUP2 ADD SWAP1 POP PUSH2 0x14AF JUMP JUMPDEST DUP7 DUP4 LT ISZERO PUSH2 0x14F1 JUMPI DUP5 DUP10 ADD MLOAD PUSH2 0x14ED PUSH1 0x1F DUP10 AND DUP3 PUSH2 0x1400 JUMP JUMPDEST DUP4 SSTORE POP JUMPDEST PUSH1 0x1 PUSH1 0x2 DUP9 MUL ADD DUP9 SSTORE POP POP POP JUMPDEST POP POP POP POP POP POP JUMP JUMPDEST PUSH32 0x547765657420646F6573206E6F74206578697374730000000000000000000000 PUSH0 DUP3 ADD MSTORE POP JUMP JUMPDEST PUSH0 PUSH2 0x153A PUSH1 0x15 DUP4 PUSH2 0xC4A JUMP JUMPDEST SWAP2 POP PUSH2 0x1545 DUP3 PUSH2 0x1506 JUMP JUMPDEST PUSH1 0x20 DUP3 ADD SWAP1 POP SWAP2 SWAP1 POP JUMP JUMPDEST PUSH0 PUSH1 0x20 DUP3 ADD SWAP1 POP DUP2 DUP2 SUB PUSH0 DUP4 ADD MSTORE PUSH2 0x1567 DUP2 PUSH2 0x152E JUMP JUMPDEST SWAP1 POP SWAP2 SWAP1 POP JUMP JUMPDEST PUSH32 0x547765657420686173206E6F206C696B65730000000000000000000000000000 PUSH0 DUP3 ADD MSTORE POP JUMP JUMPDEST PUSH0 PUSH2 0x15A2 PUSH1 0x12 DUP4 PUSH2 0xC4A JUMP JUMPDEST SWAP2 POP PUSH2 0x15AD DUP3 PUSH2 0x156E JUMP JUMPDEST PUSH1 0x20 DUP3 ADD SWAP1 POP SWAP2 SWAP1 POP JUMP JUMPDEST PUSH0 PUSH1 0x20 DUP3 ADD SWAP1 POP DUP2 DUP2 SUB PUSH0 DUP4 ADD MSTORE PUSH2 0x15CF DUP2 PUSH2 0x1596 JUMP JUMPDEST SWAP1 POP SWAP2 SWAP1 POP JUMP JUMPDEST PUSH32 0x4E487B7100000000000000000000000000000000000000000000000000000000 PUSH0 MSTORE PUSH1 0x11 PUSH1 0x4 MSTORE PUSH1 0x24 PUSH0 REVERT JUMPDEST PUSH0 PUSH2 0x160D DUP3 PUSH2 0xBB1 JUMP JUMPDEST SWAP2 POP PUSH0 DUP3 SUB PUSH2 0x161F JUMPI PUSH2 0x161E PUSH2 0x15D6 JUMP JUMPDEST JUMPDEST PUSH1 0x1 DUP3 SUB SWAP1 POP SWAP2 SWAP1 POP JUMP JUMPDEST PUSH32 0x596F7520646F206E6F7420686176652061636365737320746F20746865206578 PUSH0 DUP3 ADD MSTORE PUSH32 0x65637574696F6E00000000000000000000000000000000000000000000000000 PUSH1 0x20 DUP3 ADD MSTORE POP JUMP JUMPDEST PUSH0 PUSH2 0x1684 PUSH1 0x27 DUP4 PUSH2 0xC4A JUMP JUMPDEST SWAP2 POP PUSH2 0x168F DUP3 PUSH2 0x162A JUMP JUMPDEST PUSH1 0x40 DUP3 ADD SWAP1 POP SWAP2 SWAP1 POP JUMP JUMPDEST PUSH0 PUSH1 0x20 DUP3 ADD SWAP1 POP DUP2 DUP2 SUB PUSH0 DUP4 ADD MSTORE PUSH2 0x16B1 DUP2 PUSH2 0x1678 JUMP JUMPDEST SWAP1 POP SWAP2 SWAP1 POP JUMP JUMPDEST PUSH0 PUSH2 0x16C2 DUP3 PUSH2 0xBB1 JUMP JUMPDEST SWAP2 POP PUSH32 0xFFFFFFFFFFFFFFFFFFFFFFFFFFFFFFFFFFFFFFFFFFFFFFFFFFFFFFFFFFFFFFFF DUP3 SUB PUSH2 0x16F4 JUMPI PUSH2 0x16F3 PUSH2 0x15D6 JUMP JUMPDEST JUMPDEST PUSH1 0x1 DUP3 ADD SWAP1 POP SWAP2 SWAP1 POP JUMP INVALID LOG2 PUSH5 0x6970667358 0x22 SLT KECCAK256 SSTORE 0x1E PUSH28 0x8C79FC68CA9AABAE5B8A619683F32F0906BFA49A09944407C18CE487 PUSH18 0x64736F6C6343000816003300000000000000 "
				},
				"gasEstimates": {
					"creation": {
						"codeDepositCost": "1188200",
						"executionCost": "49813",
						"totalCost": "1238013"
					},
					"external": {
						"changeTweetLength(uint16)": "26914",
						"crateTweet(string)": "infinite",
						"getAllTweets(address)": "infinite",
						"getTweet(address,uint256)": "infinite",
						"likeTweet(address,uint256)": "infinite",
						"owner()": "2624",
						"tweets(address,uint256)": "infinite",
						"unlikeTweet(address,uint256)": "infinite"
					}
				},
				"methodIdentifiers": {
					"changeTweetLength(uint16)": "58bfa4ab",
					"crateTweet(string)": "17d7f820",
					"getAllTweets(address)": "12e7ee1c",
					"getTweet(address,uint256)": "112f54e3",
					"likeTweet(address,uint256)": "63378216",
					"owner()": "8da5cb5b",
					"tweets(address,uint256)": "05a1b4a9",
					"unlikeTweet(address,uint256)": "3d9b569f"
				}
			},
			"storageLayout": {
				"storage": [
					{
						"astId": 15,
						"contract": "contracts/Twitter.sol:Twitter",
						"label": "MAX_TWEET_LENGTH",
						"offset": 0,
						"slot": "0",
						"type": "t_uint16"
					},
					{
						"astId": 17,
						"contract": "contracts/Twitter.sol:Twitter",
						"label": "owner",
						"offset": 2,
						"slot": "0",
						"type": "t_address"
					},
					{
						"astId": 23,
						"contract": "contracts/Twitter.sol:Twitter",
						"label": "tweets",
						"offset": 0,
						"slot": "1",
						"type": "t_mapping(t_address,t_array(t_struct(Tweet)12_storage)dyn_storage)"
					}
				],
				"types": {
					"t_address": {
						"encoding": "inplace",
						"label": "address",
						"numberOfBytes": "20"
					},
					"t_array(t_struct(Tweet)12_storage)dyn_storage": {
						"base": "t_struct(Tweet)12_storage",
						"encoding": "dynamic_array",
						"label": "struct Twitter.Tweet[]",
						"numberOfBytes": "32"
					},
					"t_mapping(t_address,t_array(t_struct(Tweet)12_storage)dyn_storage)": {
						"encoding": "mapping",
						"key": "t_address",
						"label": "mapping(address => struct Twitter.Tweet[])",
						"numberOfBytes": "32",
						"value": "t_array(t_struct(Tweet)12_storage)dyn_storage"
					},
					"t_string_storage": {
						"encoding": "bytes",
						"label": "string",
						"numberOfBytes": "32"
					},
					"t_struct(Tweet)12_storage": {
						"encoding": "inplace",
						"label": "struct Twitter.Tweet",
						"members": [
							{
								"astId": 3,
								"contract": "contracts/Twitter.sol:Twitter",
								"label": "id",
								"offset": 0,
								"slot": "0",
								"type": "t_uint256"
							},
							{
								"astId": 5,
								"contract": "contracts/Twitter.sol:Twitter",
								"label": "author",
								"offset": 0,
								"slot": "1",
								"type": "t_address"
							},
							{
								"astId": 7,
								"contract": "contracts/Twitter.sol:Twitter",
								"label": "content",
								"offset": 0,
								"slot": "2",
								"type": "t_string_storage"
							},
							{
								"astId": 9,
								"contract": "contracts/Twitter.sol:Twitter",
								"label": "timestamp",
								"offset": 0,
								"slot": "3",
								"type": "t_uint256"
							},
							{
								"astId": 11,
								"contract": "contracts/Twitter.sol:Twitter",
								"label": "likes",
								"offset": 0,
								"slot": "4",
								"type": "t_uint256"
							}
						],
						"numberOfBytes": "160"
					},
					"t_uint16": {
						"encoding": "inplace",
						"label": "uint16",
						"numberOfBytes": "2"
					},
					"t_uint256": {
						"encoding": "inplace",
						"label": "uint256",
						"numberOfBytes": "32"
					}
				}
			},
			"userdoc": {
				"kind": "user",
				"methods": {},
				"version": 1
			}
		}
	}
}