{
	"data": {
		"bytecode": {
			"linkReferences": {},
			"object": "608060405234801561000f575f80fd5b506104398061001d5f395ff3fe608060405234801561000f575f80fd5b5060043610610034575f3560e01c80636537214714610038578063d595b5b714610056575b5f80fd5b610040610072565b60405161004d919061018d565b60405180910390f35b610070600480360381019061006b919061020a565b610077565b005b5f5481565b5f8160ff16036100905761008b8383610121565b61011c565b60018160ff16036100aa576100a58383610136565b61011b565b60028160ff16036100c4576100bf838361014b565b61011a565b60038160ff16036100de576100d98383610160565b610119565b6040517f08c379a0000000000000000000000000000000000000000000000000000000008152600401610110906102b4565b60405180910390fd5b5b5b5b505050565b808261012d91906102ff565b5f819055505050565b80826101429190610332565b5f819055505050565b80826101579190610365565b5f819055505050565b808261016c91906103d3565b5f819055505050565b5f819050919050565b61018781610175565b82525050565b5f6020820190506101a05f83018461017e565b92915050565b5f80fd5b6101b381610175565b81146101bd575f80fd5b50565b5f813590506101ce816101aa565b92915050565b5f60ff82169050919050565b6101e9816101d4565b81146101f3575f80fd5b50565b5f81359050610204816101e0565b92915050565b5f805f60608486031215610221576102206101a6565b5b5f61022e868287016101c0565b935050602061023f868287016101c0565b9250506040610250868287016101f6565b9150509250925092565b5f82825260208201905092915050565b7f496e76616c6964204f7065726174696f6e0000000000000000000000000000005f82015250565b5f61029e60118361025a565b91506102a98261026a565b602082019050919050565b5f6020820190508181035f8301526102cb81610292565b9050919050565b7f4e487b71000000000000000000000000000000000000000000000000000000005f52601160045260245ffd5b5f61030982610175565b915061031483610175565b925082820190508082111561032c5761032b6102d2565b5b92915050565b5f61033c82610175565b915061034783610175565b925082820390508181111561035f5761035e6102d2565b5b92915050565b5f61036f82610175565b915061037a83610175565b925082820261038881610175565b9150828204841483151761039f5761039e6102d2565b5b5092915050565b7f4e487b71000000000000000000000000000000000000000000000000000000005f52601260045260245ffd5b5f6103dd82610175565b91506103e883610175565b9250826103f8576103f76103a6565b5b82820490509291505056fea2646970667358221220eed94d9261c4bc053356d2b3f1071bee56b9136e34a9c5d124a11248e40f0fa164736f6c63430008160033",
			"opcodes": "PUSH1 0x80 PUSH1 0x40 MSTORE CALLVALUE DUP1 ISZERO PUSH2 0xF JUMPI PUSH0 DUP1 REVERT JUMPDEST POP PUSH2 0x439 DUP1 PUSH2 0x1D PUSH0 CODECOPY PUSH0 RETURN INVALID PUSH1 0x80 PUSH1 0x40 MSTORE CALLVALUE DUP1 ISZERO PUSH2 0xF JUMPI PUSH0 DUP1 REVERT JUMPDEST POP PUSH1 0x4 CALLDATASIZE LT PUSH2 0x34 JUMPI PUSH0 CALLDATALOAD PUSH1 0xE0 SHR DUP1 PUSH4 0x65372147 EQ PUSH2 0x38 JUMPI DUP1 PUSH4 0xD595B5B7 EQ PUSH2 0x56 JUMPI JUMPDEST PUSH0 DUP1 REVERT JUMPDEST PUSH2 0x40 PUSH2 0x72 JUMP JUMPDEST PUSH1 0x40 MLOAD PUSH2 0x4D SWAP2 SWAP1 PUSH2 0x18D JUMP JUMPDEST PUSH1 0x40 MLOAD DUP1 SWAP2 SUB SWAP1 RETURN JUMPDEST PUSH2 0x70 PUSH1 0x4 DUP1 CALLDATASIZE SUB DUP2 ADD SWAP1 PUSH2 0x6B SWAP2 SWAP1 PUSH2 0x20A JUMP JUMPDEST PUSH2 0x77 JUMP JUMPDEST STOP JUMPDEST PUSH0 SLOAD DUP2 JUMP JUMPDEST PUSH0 DUP2 PUSH1 0xFF AND SUB PUSH2 0x90 JUMPI PUSH2 0x8B DUP4 DUP4 PUSH2 0x121 JUMP JUMPDEST PUSH2 0x11C JUMP JUMPDEST PUSH1 0x1 DUP2 PUSH1 0xFF AND SUB PUSH2 0xAA JUMPI PUSH2 0xA5 DUP4 DUP4 PUSH2 0x136 JUMP JUMPDEST PUSH2 0x11B JUMP JUMPDEST PUSH1 0x2 DUP2 PUSH1 0xFF AND SUB PUSH2 0xC4 JUMPI PUSH2 0xBF DUP4 DUP4 PUSH2 0x14B JUMP JUMPDEST PUSH2 0x11A JUMP JUMPDEST PUSH1 0x3 DUP2 PUSH1 0xFF AND SUB PUSH2 0xDE JUMPI PUSH2 0xD9 DUP4 DUP4 PUSH2 0x160 JUMP JUMPDEST PUSH2 0x119 JUMP JUMPDEST PUSH1 0x40 MLOAD PUSH32 0x8C379A000000000000000000000000000000000000000000000000000000000 DUP2 MSTORE PUSH1 0x4 ADD PUSH2 0x110 SWAP1 PUSH2 0x2B4 JUMP JUMPDEST PUSH1 0x40 MLOAD DUP1 SWAP2 SUB SWAP1 REVERT JUMPDEST JUMPDEST JUMPDEST JUMPDEST POP POP POP JUMP JUMPDEST DUP1 DUP3 PUSH2 0x12D SWAP2 SWAP1 PUSH2 0x2FF JUMP JUMPDEST PUSH0 DUP2 SWAP1 SSTORE POP POP POP JUMP JUMPDEST DUP1 DUP3 PUSH2 0x142 SWAP2 SWAP1 PUSH2 0x332 JUMP JUMPDEST PUSH0 DUP2 SWAP1 SSTORE POP POP POP JUMP JUMPDEST DUP1 DUP3 PUSH2 0x157 SWAP2 SWAP1 PUSH2 0x365 JUMP JUMPDEST PUSH0 DUP2 SWAP1 SSTORE POP POP POP JUMP JUMPDEST DUP1 DUP3 PUSH2 0x16C SWAP2 SWAP1 PUSH2 0x3D3 JUMP JUMPDEST PUSH0 DUP2 SWAP1 SSTORE POP POP POP JUMP JUMPDEST PUSH0 DUP2 SWAP1 POP SWAP2 SWAP1 POP JUMP JUMPDEST PUSH2 0x187 DUP2 PUSH2 0x175 JUMP JUMPDEST DUP3 MSTORE POP POP JUMP JUMPDEST PUSH0 PUSH1 0x20 DUP3 ADD SWAP1 POP PUSH2 0x1A0 PUSH0 DUP4 ADD DUP5 PUSH2 0x17E JUMP JUMPDEST SWAP3 SWAP2 POP POP JUMP JUMPDEST PUSH0 DUP1 REVERT JUMPDEST PUSH2 0x1B3 DUP2 PUSH2 0x175 JUMP JUMPDEST DUP2 EQ PUSH2 0x1BD JUMPI PUSH0 DUP1 REVERT JUMPDEST POP JUMP JUMPDEST PUSH0 DUP2 CALLDATALOAD SWAP1 POP PUSH2 0x1CE DUP2 PUSH2 0x1AA JUMP JUMPDEST SWAP3 SWAP2 POP POP JUMP JUMPDEST PUSH0 PUSH1 0xFF DUP3 AND SWAP1 POP SWAP2 SWAP1 POP JUMP JUMPDEST PUSH2 0x1E9 DUP2 PUSH2 0x1D4 JUMP JUMPDEST DUP2 EQ PUSH2 0x1F3 JUMPI PUSH0 DUP1 REVERT JUMPDEST POP JUMP JUMPDEST PUSH0 DUP2 CALLDATALOAD SWAP1 POP PUSH2 0x204 DUP2 PUSH2 0x1E0 JUMP JUMPDEST SWAP3 SWAP2 POP POP JUMP JUMPDEST PUSH0 DUP1 PUSH0 PUSH1 0x60 DUP5 DUP7 SUB SLT ISZERO PUSH2 0x221 JUMPI PUSH2 0x220 PUSH2 0x1A6 JUMP JUMPDEST JUMPDEST PUSH0 PUSH2 0x22E DUP7 DUP3 DUP8 ADD PUSH2 0x1C0 JUMP JUMPDEST SWAP4 POP POP PUSH1 0x20 PUSH2 0x23F DUP7 DUP3 DUP8 ADD PUSH2 0x1C0 JUMP JUMPDEST SWAP3 POP POP PUSH1 0x40 PUSH2 0x250 DUP7 DUP3 DUP8 ADD PUSH2 0x1F6 JUMP JUMPDEST SWAP2 POP POP SWAP3 POP SWAP3 POP SWAP3 JUMP JUMPDEST PUSH0 DUP3 DUP3 MSTORE PUSH1 0x20 DUP3 ADD SWAP1 POP SWAP3 SWAP2 POP POP JUMP JUMPDEST PUSH32 0x496E76616C6964204F7065726174696F6E000000000000000000000000000000 PUSH0 DUP3 ADD MSTORE POP JUMP JUMPDEST PUSH0 PUSH2 0x29E PUSH1 0x11 DUP4 PUSH2 0x25A JUMP JUMPDEST SWAP2 POP PUSH2 0x2A9 DUP3 PUSH2 0x26A JUMP JUMPDEST PUSH1 0x20 DUP3 ADD SWAP1 POP SWAP2 SWAP1 POP JUMP JUMPDEST PUSH0 PUSH1 0x20 DUP3 ADD SWAP1 POP DUP2 DUP2 SUB PUSH0 DUP4 ADD MSTORE PUSH2 0x2CB DUP2 PUSH2 0x292 JUMP JUMPDEST SWAP1 POP SWAP2 SWAP1 POP JUMP JUMPDEST PUSH32 0x4E487B7100000000000000000000000000000000000000000000000000000000 PUSH0 MSTORE PUSH1 0x11 PUSH1 0x4 MSTORE PUSH1 0x24 PUSH0 REVERT JUMPDEST PUSH0 PUSH2 0x309 DUP3 PUSH2 0x175 JUMP JUMPDEST SWAP2 POP PUSH2 0x314 DUP4 PUSH2 0x175 JUMP JUMPDEST SWAP3 POP DUP3 DUP3 ADD SWAP1 POP DUP1 DUP3 GT ISZERO PUSH2 0x32C JUMPI PUSH2 0x32B PUSH2 0x2D2 JUMP JUMPDEST JUMPDEST SWAP3 SWAP2 POP POP JUMP JUMPDEST PUSH0 PUSH2 0x33C DUP3 PUSH2 0x175 JUMP JUMPDEST SWAP2 POP PUSH2 0x347 DUP4 PUSH2 0x175 JUMP JUMPDEST SWAP3 POP DUP3 DUP3 SUB SWAP1 POP DUP2 DUP2 GT ISZERO PUSH2 0x35F JUMPI PUSH2 0x35E PUSH2 0x2D2 JUMP JUMPDEST JUMPDEST SWAP3 SWAP2 POP POP JUMP JUMPDEST PUSH0 PUSH2 0x36F DUP3 PUSH2 0x175 JUMP JUMPDEST SWAP2 POP PUSH2 0x37A DUP4 PUSH2 0x175 JUMP JUMPDEST SWAP3 POP DUP3 DUP3 MUL PUSH2 0x388 DUP2 PUSH2 0x175 JUMP JUMPDEST SWAP2 POP DUP3 DUP3 DIV DUP5 EQ DUP4 ISZERO OR PUSH2 0x39F JUMPI PUSH2 0x39E PUSH2 0x2D2 JUMP JUMPDEST JUMPDEST POP SWAP3 SWAP2 POP POP JUMP JUMPDEST PUSH32 0x4E487B7100000000000000000000000000000000000000000000000000000000 PUSH0 MSTORE PUSH1 0x12 PUSH1 0x4 MSTORE PUSH1 0x24 PUSH0 REVERT JUMPDEST PUSH0 PUSH2 0x3DD DUP3 PUSH2 0x175 JUMP JUMPDEST SWAP2 POP PUSH2 0x3E8 DUP4 PUSH2 0x175 JUMP JUMPDEST SWAP3 POP DUP3 PUSH2 0x3F8 JUMPI PUSH2 0x3F7 PUSH2 0x3A6 JUMP JUMPDEST JUMPDEST DUP3 DUP3 DIV SWAP1 POP SWAP3 SWAP2 POP POP JUMP INVALID LOG2 PUSH5 0x6970667358 0x22 SLT KECCAK256 0xEE 0xD9 0x4D SWAP3 PUSH2 0xC4BC SDIV CALLER JUMP 0xD2 0xB3 CALL SMOD SHL 0xEE JUMP 0xB9 SGT PUSH15 0x34A9C5D124A11248E40F0FA164736F PUSH13 0x63430008160033000000000000 "
		},
		"gasEstimates": {
			"creation": {
				"codeDepositCost": "216200",
				"executionCost": "255",
				"totalCost": "216455"
			},
			"external": {
				"performOperation(uint256,uint256,uint8)": "infinite",
				"result()": "2402"
			},
			"internal": {
				"divide(uint256,uint256)": "infinite",
				"mul(uint256,uint256)": "infinite"
			}
		},
		"methodIdentifiers": {
			"performOperation(uint256,uint256,uint8)": "d595b5b7",
			"result()": "65372147"
		}
	},
	"abi": [
		{
			"inputs": [
				{
					"internalType": "uint256",
					"name": "a",
					"type": "uint256"
				},
				{
					"internalType": "uint256",
					"name": "b",
					"type": "uint256"
				},
				{
					"internalType": "uint8",
					"name": "operation",
					"type": "uint8"
				}
			],
			"name": "performOperation",
			"outputs": [],
			"stateMutability": "nonpayable",
			"type": "function"
		},
		{
			"inputs": [],
			"name": "result",
			"outputs": [
				{
					"internalType": "uint256",
					"name": "",
					"type": "uint256"
				}
			],
			"stateMutability": "view",
			"type": "function"
		}
	]
}